{
  "address": "0x8b443Ea6726E56DF4C4F62f80F0556bB9B2a7c64",
  "abi": [
    {
      "inputs": [
        {
          "internalType": "contract IAccessControlManagerV8",
          "name": "_acm",
          "type": "address"
        }
      ],
      "stateMutability": "nonpayable",
      "type": "constructor"
    },
    {
      "inputs": [],
      "name": "EmptyPermissions",
      "type": "error"
    },
    {
      "inputs": [],
      "name": "ZeroAddressNotAllowed",
      "type": "error"
    },
    {
      "anonymous": false,
      "inputs": [
        {
          "indexed": false,
          "internalType": "uint256",
          "name": "index",
          "type": "uint256"
        }
      ],
      "name": "GrantPermissionsAdded",
      "type": "event"
    },
    {
      "anonymous": false,
      "inputs": [
        {
          "indexed": false,
          "internalType": "uint256",
          "name": "index",
          "type": "uint256"
        }
      ],
      "name": "GrantPermissionsExecuted",
      "type": "event"
    },
    {
      "anonymous": false,
      "inputs": [
        {
          "indexed": false,
          "internalType": "uint256",
          "name": "index",
          "type": "uint256"
        }
      ],
      "name": "RevokePermissionsAdded",
      "type": "event"
    },
    {
      "anonymous": false,
      "inputs": [
        {
          "indexed": false,
          "internalType": "uint256",
          "name": "index",
          "type": "uint256"
        }
      ],
      "name": "RevokePermissionsExecuted",
      "type": "event"
    },
    {
      "inputs": [],
      "name": "ACM",
      "outputs": [
        {
          "internalType": "contract IAccessControlManagerV8",
          "name": "",
          "type": "address"
        }
      ],
      "stateMutability": "view",
      "type": "function"
    },
    {
      "inputs": [
        {
          "components": [
            {
              "internalType": "address",
              "name": "contractAddress",
              "type": "address"
            },
            {
              "internalType": "string",
              "name": "functionSig",
              "type": "string"
            },
            {
              "internalType": "address",
              "name": "account",
              "type": "address"
            }
          ],
          "internalType": "struct ACMCommandsAggregator.Permission[]",
          "name": "_permissions",
          "type": "tuple[]"
        }
      ],
      "name": "addGrantPermissions",
      "outputs": [],
      "stateMutability": "nonpayable",
      "type": "function"
    },
    {
      "inputs": [
        {
          "components": [
            {
              "internalType": "address",
              "name": "contractAddress",
              "type": "address"
            },
            {
              "internalType": "string",
              "name": "functionSig",
              "type": "string"
            },
            {
              "internalType": "address",
              "name": "account",
              "type": "address"
            }
          ],
          "internalType": "struct ACMCommandsAggregator.Permission[]",
          "name": "_permissions",
          "type": "tuple[]"
        }
      ],
      "name": "addRevokePermissions",
      "outputs": [],
      "stateMutability": "nonpayable",
      "type": "function"
    },
    {
      "inputs": [
        {
          "internalType": "uint256",
          "name": "index",
          "type": "uint256"
        }
      ],
      "name": "executeGrantPermissions",
      "outputs": [],
      "stateMutability": "nonpayable",
      "type": "function"
    },
    {
      "inputs": [
        {
          "internalType": "uint256",
          "name": "index",
          "type": "uint256"
        }
      ],
      "name": "executeRevokePermissions",
      "outputs": [],
      "stateMutability": "nonpayable",
      "type": "function"
    },
    {
      "inputs": [
        {
          "internalType": "uint256",
          "name": "",
          "type": "uint256"
        },
        {
          "internalType": "uint256",
          "name": "",
          "type": "uint256"
        }
      ],
      "name": "grantPermissions",
      "outputs": [
        {
          "internalType": "address",
          "name": "contractAddress",
          "type": "address"
        },
        {
          "internalType": "string",
          "name": "functionSig",
          "type": "string"
        },
        {
          "internalType": "address",
          "name": "account",
          "type": "address"
        }
      ],
      "stateMutability": "view",
      "type": "function"
    },
    {
      "inputs": [
        {
          "internalType": "uint256",
          "name": "",
          "type": "uint256"
        },
        {
          "internalType": "uint256",
          "name": "",
          "type": "uint256"
        }
      ],
      "name": "revokePermissions",
      "outputs": [
        {
          "internalType": "address",
          "name": "contractAddress",
          "type": "address"
        },
        {
          "internalType": "string",
          "name": "functionSig",
          "type": "string"
        },
        {
          "internalType": "address",
          "name": "account",
          "type": "address"
        }
      ],
      "stateMutability": "view",
      "type": "function"
    }
  ],
  "transactionHash": "0xcdcc1fcfb0203cd8bbd064fce21dc457fed218b07c704d03d53b93ddeb37fea3",
  "args": [
    "0x4788629abc6cfca10f9f969efdeaa1cf70c23555"
  ],
  "numDeployments": 1,
  "solcInputHash": "c8adce9942919fd992f7532e82a0e082",
  "bytecode": "0x60a0604052348015600f57600080fd5b506040516110c73803806110c7833981016040819052602c91606c565b6033816043565b6001600160a01b0316608052609a565b6001600160a01b0381166069576040516342bcdf7f60e11b815260040160405180910390fd5b50565b600060208284031215607d57600080fd5b81516001600160a01b0381168114609357600080fd5b9392505050565b6080516110046100c360003960008181610100015281816102de0152610a0101526110046000f3fe608060405234801561001057600080fd5b506004361061007d5760003560e01c80639d6c76b81161005b5780639d6c76b8146100d5578063de46a235146100e8578063f9b80da1146100fb578063ff1575e11461014757600080fd5b806322473d8c14610082578063514aab87146100975780635666a5ea146100c2575b600080fd5b610095610090366004610ab8565b61015a565b005b6100aa6100a5366004610ad1565b61038d565b6040516100b993929190610af3565b60405180910390f35b6100956100d0366004610c59565b610492565b6100956100e3366004610c59565b610689565b6100956100f6366004610ab8565b61087f565b6101227f000000000000000000000000000000000000000000000000000000000000000081565b60405173ffffffffffffffffffffffffffffffffffffffff90911681526020016100b9565b6100aa610155366004610ad1565b610aa8565b60006001828154811061016f5761016f610de1565b600091825260208220015491505b818110156103545760006001848154811061019a5761019a610de1565b9060005260206000200182815481106101b5576101b5610de1565b60009182526020918290206040805160608101909152600390920201805473ffffffffffffffffffffffffffffffffffffffff168252600181018054929391929184019161020290610e10565b80601f016020809104026020016040519081016040528092919081815260200182805461022e90610e10565b801561027b5780601f106102505761010080835404028352916020019161027b565b820191906000526020600020905b81548152906001019060200180831161025e57829003601f168201915b50505091835250506002919091015473ffffffffffffffffffffffffffffffffffffffff90811660209283015282519183015160408085015190517f545f7a320000000000000000000000000000000000000000000000000000000081529495507f00000000000000000000000000000000000000000000000000000000000000009092169363545f7a329361031693909291600401610af3565b600060405180830381600087803b15801561033057600080fd5b505af1158015610344573d6000803e3d6000fd5b505050505080600101905061017d565b506040518281527f1382323d6618527d8b03daa05db815f0490966e8b80679fe5ad3d868f84e1a71906020015b60405180910390a15050565b6000828154811061039d57600080fd5b9060005260206000200181815481106103b557600080fd5b60009182526020909120600390910201805460018201805473ffffffffffffffffffffffffffffffffffffffff90921694509192506103f390610e10565b80601f016020809104026020016040519081016040528092919081815260200182805461041f90610e10565b801561046c5780601f106104415761010080835404028352916020019161046c565b820191906000526020600020905b81548152906001019060200180831161044f57829003601f168201915b5050506002909301549192505073ffffffffffffffffffffffffffffffffffffffff1683565b80516000036104cd576040517f4494013c00000000000000000000000000000000000000000000000000000000815260040160405180910390fd5b6001805480820182556000918252905b825181101561065857600182815481106104f9576104f9610de1565b90600052602060002001604051806060016040528085848151811061052057610520610de1565b60200260200101516000015173ffffffffffffffffffffffffffffffffffffffff16815260200185848151811061055957610559610de1565b602002602001015160200151815260200185848151811061057c5761057c610de1565b6020908102919091018101516040015173ffffffffffffffffffffffffffffffffffffffff908116909252835460018082018655600095865294829020845160039092020180547fffffffffffffffffffffffff0000000000000000000000000000000000000000169190931617825582015191929091908201906106019082610eb4565b5060409190910151600290910180547fffffffffffffffffffffffff00000000000000000000000000000000000000001673ffffffffffffffffffffffffffffffffffffffff9092169190911790556001016104dd565b506040518181527f75922591bf2cec980645dc4a32bb7d5e8da9a15fda86dacf06f8402cecd1478f90602001610381565b80516000036106c4576040517f4494013c00000000000000000000000000000000000000000000000000000000815260040160405180910390fd5b60008054600181018255818052905b825181101561084e57600082815481106106ef576106ef610de1565b90600052602060002001604051806060016040528085848151811061071657610716610de1565b60200260200101516000015173ffffffffffffffffffffffffffffffffffffffff16815260200185848151811061074f5761074f610de1565b602002602001015160200151815260200185848151811061077257610772610de1565b6020908102919091018101516040015173ffffffffffffffffffffffffffffffffffffffff908116909252835460018082018655600095865294829020845160039092020180547fffffffffffffffffffffffff0000000000000000000000000000000000000000169190931617825582015191929091908201906107f79082610eb4565b5060409190910151600290910180547fffffffffffffffffffffffff00000000000000000000000000000000000000001673ffffffffffffffffffffffffffffffffffffffff9092169190911790556001016106d3565b506040518181527ff8ca6ea7cc31be8572501c37ef5e9e8298be717fb881e0b1ca785aecc4d25e9f90602001610381565b600080828154811061089357610893610de1565b600091825260208220015491505b81811015610a775760008084815481106108bd576108bd610de1565b9060005260206000200182815481106108d8576108d8610de1565b60009182526020918290206040805160608101909152600390920201805473ffffffffffffffffffffffffffffffffffffffff168252600181018054929391929184019161092590610e10565b80601f016020809104026020016040519081016040528092919081815260200182805461095190610e10565b801561099e5780601f106109735761010080835404028352916020019161099e565b820191906000526020600020905b81548152906001019060200180831161098157829003601f168201915b50505091835250506002919091015473ffffffffffffffffffffffffffffffffffffffff90811660209283015282519183015160408085015190517f584f6b600000000000000000000000000000000000000000000000000000000081529495507f00000000000000000000000000000000000000000000000000000000000000009092169363584f6b6093610a3993909291600401610af3565b600060405180830381600087803b158015610a5357600080fd5b505af1158015610a67573d6000803e3d6000fd5b50505050508060010190506108a1565b506040518281527f01a805f459381af632ecab72ec192c3f9a4c72d26be089026ffd6636d82de98890602001610381565b6001828154811061039d57600080fd5b600060208284031215610aca57600080fd5b5035919050565b60008060408385031215610ae457600080fd5b50508035926020909101359150565b600073ffffffffffffffffffffffffffffffffffffffff8086168352602060606020850152855180606086015260005b81811015610b3f57878101830151868201608001528201610b23565b5060006080828701015260807fffffffffffffffffffffffffffffffffffffffffffffffffffffffffffffffe0601f83011686010193505050808416604084015250949350505050565b7f4e487b7100000000000000000000000000000000000000000000000000000000600052604160045260246000fd5b6040516060810167ffffffffffffffff81118282101715610bdb57610bdb610b89565b60405290565b604051601f82017fffffffffffffffffffffffffffffffffffffffffffffffffffffffffffffffe016810167ffffffffffffffff81118282101715610c2857610c28610b89565b604052919050565b803573ffffffffffffffffffffffffffffffffffffffff81168114610c5457600080fd5b919050565b60006020808385031215610c6c57600080fd5b823567ffffffffffffffff80821115610c8457600080fd5b818501915085601f830112610c9857600080fd5b813581811115610caa57610caa610b89565b8060051b610cb9858201610be1565b9182528381018501918581019089841115610cd357600080fd5b86860192505b83831015610dd457823585811115610cf057600080fd5b86017fffffffffffffffffffffffffffffffffffffffffffffffffffffffffffffffe06060828d0382011215610d265760008081fd5b610d2e610bb8565b610d398a8401610c30565b815260408084013589811115610d4f5760008081fd5b8401603f81018f13610d615760008081fd5b8b8101358a811115610d7557610d75610b89565b610d858d86601f84011601610be1565b94508085528f83828401011115610d9c5760008081fd5b808383018e87013760008d82870101525050828b830152610dbf60608501610c30565b90820152845250509186019190860190610cd9565b9998505050505050505050565b7f4e487b7100000000000000000000000000000000000000000000000000000000600052603260045260246000fd5b600181811c90821680610e2457607f821691505b602082108103610e5d577f4e487b7100000000000000000000000000000000000000000000000000000000600052602260045260246000fd5b50919050565b601f821115610eaf576000816000526020600020601f850160051c81016020861015610e8c5750805b601f850160051c820191505b81811015610eab57828155600101610e98565b5050505b505050565b815167ffffffffffffffff811115610ece57610ece610b89565b610ee281610edc8454610e10565b84610e63565b602080601f831160018114610f355760008415610eff5750858301515b7fffffffffffffffffffffffffffffffffffffffffffffffffffffffffffffffff600386901b1c1916600185901b178555610eab565b6000858152602081207fffffffffffffffffffffffffffffffffffffffffffffffffffffffffffffffe08616915b82811015610f8257888601518255948401946001909101908401610f63565b5085821015610fbe57878501517fffffffffffffffffffffffffffffffffffffffffffffffffffffffffffffffff600388901b60f8161c191681555b5050505050600190811b0190555056fea264697066735822122090d4936e163063dfe747da5bf04cc06002b17436a13e78a30b2797e6219ebb2264736f6c63430008190033",
  "devdoc": {
    "author": "Venus",
    "kind": "dev",
    "methods": {},
    "title": "ACMCommandsAggregator",
    "version": 1
  },
  "userdoc": {
    "errors": {
      "ZeroAddressNotAllowed()": [
        {
          "notice": "Thrown if the supplied address is a zero address where it is not allowed"
        }
      ]
    },
    "kind": "user",
    "methods": {
      "ACM()": {
        "notice": "Access control manager contract"
      }
    },
    "notice": "This contract is a helper to aggregate multiple grant and revoke permissions in batches and execute them in one go.",
    "version": 1
  },
  "storageLayout": {
    "storage": [
      {
        "astId": 181,
        "contract": "contracts/Utils/ACMCommandsAggregator.sol:ACMCommandsAggregator",
        "label": "grantPermissions",
        "offset": 0,
        "slot": "0",
        "type": "t_array(t_array(t_struct(Permission)172_storage)dyn_storage)dyn_storage"
      },
      {
        "astId": 186,
        "contract": "contracts/Utils/ACMCommandsAggregator.sol:ACMCommandsAggregator",
        "label": "revokePermissions",
        "offset": 0,
        "slot": "1",
        "type": "t_array(t_array(t_struct(Permission)172_storage)dyn_storage)dyn_storage"
      }
    ],
    "types": {
      "t_address": {
        "encoding": "inplace",
        "label": "address",
        "numberOfBytes": "20"
      },
      "t_array(t_array(t_struct(Permission)172_storage)dyn_storage)dyn_storage": {
        "base": "t_array(t_struct(Permission)172_storage)dyn_storage",
        "encoding": "dynamic_array",
        "label": "struct ACMCommandsAggregator.Permission[][]",
        "numberOfBytes": "32"
      },
      "t_array(t_struct(Permission)172_storage)dyn_storage": {
        "base": "t_struct(Permission)172_storage",
        "encoding": "dynamic_array",
        "label": "struct ACMCommandsAggregator.Permission[]",
        "numberOfBytes": "32"
      },
      "t_string_storage": {
        "encoding": "bytes",
        "label": "string",
        "numberOfBytes": "32"
      },
      "t_struct(Permission)172_storage": {
        "encoding": "inplace",
        "label": "struct ACMCommandsAggregator.Permission",
        "members": [
          {
            "astId": 167,
            "contract": "contracts/Utils/ACMCommandsAggregator.sol:ACMCommandsAggregator",
            "label": "contractAddress",
            "offset": 0,
            "slot": "0",
            "type": "t_address"
          },
          {
            "astId": 169,
            "contract": "contracts/Utils/ACMCommandsAggregator.sol:ACMCommandsAggregator",
            "label": "functionSig",
            "offset": 0,
            "slot": "1",
            "type": "t_string_storage"
          },
          {
            "astId": 171,
            "contract": "contracts/Utils/ACMCommandsAggregator.sol:ACMCommandsAggregator",
            "label": "account",
            "offset": 0,
            "slot": "2",
            "type": "t_address"
          }
        ],
        "numberOfBytes": "96"
      }
    }
  }
}