{
  "address": "0xbF178741fe3053F2b7aBFf15Bcc5146A2c598b77",
  "abi": [
    {
      "anonymous": false,
      "inputs": [
        {
          "indexed": false,
          "internalType": "address",
          "name": "oldAdmin",
          "type": "address"
        },
        {
          "indexed": false,
          "internalType": "address",
          "name": "newAdmin",
          "type": "address"
        }
      ],
      "name": "NewAdmin",
      "type": "event"
    },
    {
      "anonymous": false,
      "inputs": [
        {
          "indexed": false,
          "internalType": "address",
          "name": "oldGuardian",
          "type": "address"
        },
        {
          "indexed": false,
          "internalType": "address",
          "name": "newGuardian",
          "type": "address"
        }
      ],
      "name": "NewGuardian",
      "type": "event"
    },
    {
      "anonymous": false,
      "inputs": [
        {
          "indexed": false,
          "internalType": "address",
          "name": "oldImplementation",
          "type": "address"
        },
        {
          "indexed": false,
          "internalType": "address",
          "name": "newImplementation",
          "type": "address"
        }
      ],
      "name": "NewImplementation",
      "type": "event"
    },
    {
      "anonymous": false,
      "inputs": [
        {
          "indexed": false,
          "internalType": "address",
          "name": "oldPendingAdmin",
          "type": "address"
        },
        {
          "indexed": false,
          "internalType": "address",
          "name": "newPendingAdmin",
          "type": "address"
        }
      ],
      "name": "NewPendingAdmin",
      "type": "event"
    },
    {
      "anonymous": false,
      "inputs": [
        {
          "indexed": false,
          "internalType": "uint256",
          "name": "id",
          "type": "uint256"
        }
      ],
      "name": "ProposalCanceled",
      "type": "event"
    },
    {
      "anonymous": false,
      "inputs": [
        {
          "indexed": false,
          "internalType": "uint256",
          "name": "id",
          "type": "uint256"
        },
        {
          "indexed": false,
          "internalType": "address",
          "name": "proposer",
          "type": "address"
        },
        {
          "indexed": false,
          "internalType": "address[]",
          "name": "targets",
          "type": "address[]"
        },
        {
          "indexed": false,
          "internalType": "uint256[]",
          "name": "values",
          "type": "uint256[]"
        },
        {
          "indexed": false,
          "internalType": "string[]",
          "name": "signatures",
          "type": "string[]"
        },
        {
          "indexed": false,
          "internalType": "bytes[]",
          "name": "calldatas",
          "type": "bytes[]"
        },
        {
          "indexed": false,
          "internalType": "uint256",
          "name": "startBlock",
          "type": "uint256"
        },
        {
          "indexed": false,
          "internalType": "uint256",
          "name": "endBlock",
          "type": "uint256"
        },
        {
          "indexed": false,
          "internalType": "string",
          "name": "description",
          "type": "string"
        },
        {
          "indexed": false,
          "internalType": "uint8",
          "name": "proposalType",
          "type": "uint8"
        }
      ],
      "name": "ProposalCreated",
      "type": "event"
    },
    {
      "anonymous": false,
      "inputs": [
        {
          "indexed": false,
          "internalType": "uint256",
          "name": "id",
          "type": "uint256"
        }
      ],
      "name": "ProposalExecuted",
      "type": "event"
    },
    {
      "anonymous": false,
      "inputs": [
        {
          "indexed": false,
          "internalType": "uint256",
          "name": "oldMaxOperations",
          "type": "uint256"
        },
        {
          "indexed": false,
          "internalType": "uint256",
          "name": "newMaxOperations",
          "type": "uint256"
        }
      ],
      "name": "ProposalMaxOperationsUpdated",
      "type": "event"
    },
    {
      "anonymous": false,
      "inputs": [
        {
          "indexed": false,
          "internalType": "uint256",
          "name": "id",
          "type": "uint256"
        },
        {
          "indexed": false,
          "internalType": "uint256",
          "name": "eta",
          "type": "uint256"
        }
      ],
      "name": "ProposalQueued",
      "type": "event"
    },
    {
      "anonymous": false,
      "inputs": [
        {
          "indexed": false,
          "internalType": "uint256",
          "name": "oldProposalThreshold",
          "type": "uint256"
        },
        {
          "indexed": false,
          "internalType": "uint256",
          "name": "newProposalThreshold",
          "type": "uint256"
        }
      ],
      "name": "ProposalThresholdSet",
      "type": "event"
    },
    {
      "anonymous": false,
      "inputs": [
        {
          "indexed": false,
          "internalType": "uint256",
          "name": "votingPeriod",
          "type": "uint256"
        },
        {
          "indexed": false,
          "internalType": "uint256",
          "name": "votingDelay",
          "type": "uint256"
        },
        {
          "indexed": false,
          "internalType": "uint256",
          "name": "proposalThreshold",
          "type": "uint256"
        }
      ],
      "name": "SetProposalConfigs",
      "type": "event"
    },
    {
      "anonymous": false,
      "inputs": [
        {
          "indexed": false,
          "internalType": "uint256",
          "name": "oldMinVotingPeriod",
          "type": "uint256"
        },
        {
          "indexed": false,
          "internalType": "uint256",
          "name": "newMinVotingPeriod",
          "type": "uint256"
        },
        {
          "indexed": false,
          "internalType": "uint256",
          "name": "oldmaxVotingPeriod",
          "type": "uint256"
        },
        {
          "indexed": false,
          "internalType": "uint256",
          "name": "newmaxVotingPeriod",
          "type": "uint256"
        },
        {
          "indexed": false,
          "internalType": "uint256",
          "name": "oldminVotingDelay",
          "type": "uint256"
        },
        {
          "indexed": false,
          "internalType": "uint256",
          "name": "newminVotingDelay",
          "type": "uint256"
        },
        {
          "indexed": false,
          "internalType": "uint256",
          "name": "oldmaxVotingDelay",
          "type": "uint256"
        },
        {
          "indexed": false,
          "internalType": "uint256",
          "name": "newmaxVotingDelay",
          "type": "uint256"
        }
      ],
      "name": "SetValidationParams",
      "type": "event"
    },
    {
      "anonymous": false,
      "inputs": [
        {
          "indexed": true,
          "internalType": "address",
          "name": "voter",
          "type": "address"
        },
        {
          "indexed": false,
          "internalType": "uint256",
          "name": "proposalId",
          "type": "uint256"
        },
        {
          "indexed": false,
          "internalType": "uint8",
          "name": "support",
          "type": "uint8"
        },
        {
          "indexed": false,
          "internalType": "uint256",
          "name": "votes",
          "type": "uint256"
        },
        {
          "indexed": false,
          "internalType": "string",
          "name": "reason",
          "type": "string"
        }
      ],
      "name": "VoteCast",
      "type": "event"
    },
    {
      "anonymous": false,
      "inputs": [
        {
          "indexed": false,
          "internalType": "uint256",
          "name": "oldVotingDelay",
          "type": "uint256"
        },
        {
          "indexed": false,
          "internalType": "uint256",
          "name": "newVotingDelay",
          "type": "uint256"
        }
      ],
      "name": "VotingDelaySet",
      "type": "event"
    },
    {
      "anonymous": false,
      "inputs": [
        {
          "indexed": false,
          "internalType": "uint256",
          "name": "oldVotingPeriod",
          "type": "uint256"
        },
        {
          "indexed": false,
          "internalType": "uint256",
          "name": "newVotingPeriod",
          "type": "uint256"
        }
      ],
      "name": "VotingPeriodSet",
      "type": "event"
    },
    {
      "constant": true,
      "inputs": [],
      "name": "BALLOT_TYPEHASH",
      "outputs": [
        {
          "internalType": "bytes32",
          "name": "",
          "type": "bytes32"
        }
      ],
      "payable": false,
      "stateMutability": "view",
      "type": "function"
    },
    {
      "constant": true,
      "inputs": [],
      "name": "DOMAIN_TYPEHASH",
      "outputs": [
        {
          "internalType": "bytes32",
          "name": "",
          "type": "bytes32"
        }
      ],
      "payable": false,
      "stateMutability": "view",
      "type": "function"
    },
    {
      "constant": true,
      "inputs": [],
      "name": "MAX_PROPOSAL_THRESHOLD",
      "outputs": [
        {
          "internalType": "uint256",
          "name": "",
          "type": "uint256"
        }
      ],
      "payable": false,
      "stateMutability": "view",
      "type": "function"
    },
    {
      "constant": true,
      "inputs": [],
      "name": "MIN_PROPOSAL_THRESHOLD",
      "outputs": [
        {
          "internalType": "uint256",
          "name": "",
          "type": "uint256"
        }
      ],
      "payable": false,
      "stateMutability": "view",
      "type": "function"
    },
    {
      "constant": false,
      "inputs": [],
      "name": "_acceptAdmin",
      "outputs": [],
      "payable": false,
      "stateMutability": "nonpayable",
      "type": "function"
    },
    {
      "constant": false,
      "inputs": [
        {
          "internalType": "address",
          "name": "governorAlpha",
          "type": "address"
        }
      ],
      "name": "_initiate",
      "outputs": [],
      "payable": false,
      "stateMutability": "nonpayable",
      "type": "function"
    },
    {
      "constant": false,
      "inputs": [
        {
          "internalType": "address",
          "name": "newGuardian",
          "type": "address"
        }
      ],
      "name": "_setGuardian",
      "outputs": [],
      "payable": false,
      "stateMutability": "nonpayable",
      "type": "function"
    },
    {
      "constant": false,
      "inputs": [
        {
          "internalType": "address",
          "name": "newPendingAdmin",
          "type": "address"
        }
      ],
      "name": "_setPendingAdmin",
      "outputs": [],
      "payable": false,
      "stateMutability": "nonpayable",
      "type": "function"
    },
    {
      "constant": false,
      "inputs": [
        {
          "internalType": "uint256",
          "name": "proposalMaxOperations_",
          "type": "uint256"
        }
      ],
      "name": "_setProposalMaxOperations",
      "outputs": [],
      "payable": false,
      "stateMutability": "nonpayable",
      "type": "function"
    },
    {
      "constant": true,
      "inputs": [],
      "name": "admin",
      "outputs": [
        {
          "internalType": "address",
          "name": "",
          "type": "address"
        }
      ],
      "payable": false,
      "stateMutability": "view",
      "type": "function"
    },
    {
      "constant": false,
      "inputs": [
        {
          "internalType": "uint256",
          "name": "proposalId",
          "type": "uint256"
        }
      ],
      "name": "cancel",
      "outputs": [],
      "payable": false,
      "stateMutability": "nonpayable",
      "type": "function"
    },
    {
      "constant": false,
      "inputs": [
        {
          "internalType": "uint256",
          "name": "proposalId",
          "type": "uint256"
        },
        {
          "internalType": "uint8",
          "name": "support",
          "type": "uint8"
        }
      ],
      "name": "castVote",
      "outputs": [],
      "payable": false,
      "stateMutability": "nonpayable",
      "type": "function"
    },
    {
      "constant": false,
      "inputs": [
        {
          "internalType": "uint256",
          "name": "proposalId",
          "type": "uint256"
        },
        {
          "internalType": "uint8",
          "name": "support",
          "type": "uint8"
        },
        {
          "internalType": "uint8",
          "name": "v",
          "type": "uint8"
        },
        {
          "internalType": "bytes32",
          "name": "r",
          "type": "bytes32"
        },
        {
          "internalType": "bytes32",
          "name": "s",
          "type": "bytes32"
        }
      ],
      "name": "castVoteBySig",
      "outputs": [],
      "payable": false,
      "stateMutability": "nonpayable",
      "type": "function"
    },
    {
      "constant": false,
      "inputs": [
        {
          "internalType": "uint256",
          "name": "proposalId",
          "type": "uint256"
        },
        {
          "internalType": "uint8",
          "name": "support",
          "type": "uint8"
        },
        {
          "internalType": "string",
          "name": "reason",
          "type": "string"
        }
      ],
      "name": "castVoteWithReason",
      "outputs": [],
      "payable": false,
      "stateMutability": "nonpayable",
      "type": "function"
    },
    {
      "constant": false,
      "inputs": [
        {
          "internalType": "uint256",
          "name": "proposalId",
          "type": "uint256"
        }
      ],
      "name": "execute",
      "outputs": [],
      "payable": false,
      "stateMutability": "nonpayable",
      "type": "function"
    },
    {
      "constant": true,
      "inputs": [
        {
          "internalType": "uint256",
          "name": "proposalId",
          "type": "uint256"
        }
      ],
      "name": "getActions",
      "outputs": [
        {
          "internalType": "address[]",
          "name": "targets",
          "type": "address[]"
        },
        {
          "internalType": "uint256[]",
          "name": "values",
          "type": "uint256[]"
        },
        {
          "internalType": "string[]",
          "name": "signatures",
          "type": "string[]"
        },
        {
          "internalType": "bytes[]",
          "name": "calldatas",
          "type": "bytes[]"
        }
      ],
      "payable": false,
      "stateMutability": "view",
      "type": "function"
    },
    {
      "constant": true,
      "inputs": [
        {
          "internalType": "uint256",
          "name": "proposalId",
          "type": "uint256"
        },
        {
          "internalType": "address",
          "name": "voter",
          "type": "address"
        }
      ],
      "name": "getReceipt",
      "outputs": [
        {
          "components": [
            {
              "internalType": "bool",
              "name": "hasVoted",
              "type": "bool"
            },
            {
              "internalType": "uint8",
              "name": "support",
              "type": "uint8"
            },
            {
              "internalType": "uint96",
              "name": "votes",
              "type": "uint96"
            }
          ],
          "internalType": "struct GovernorBravoDelegateStorageV1.Receipt",
          "name": "",
          "type": "tuple"
        }
      ],
      "payable": false,
      "stateMutability": "view",
      "type": "function"
    },
    {
      "constant": true,
      "inputs": [],
      "name": "guardian",
      "outputs": [
        {
          "internalType": "address",
          "name": "",
          "type": "address"
        }
      ],
      "payable": false,
      "stateMutability": "view",
      "type": "function"
    },
    {
      "constant": true,
      "inputs": [],
      "name": "implementation",
      "outputs": [
        {
          "internalType": "address",
          "name": "",
          "type": "address"
        }
      ],
      "payable": false,
      "stateMutability": "view",
      "type": "function"
    },
    {
      "constant": true,
      "inputs": [],
      "name": "initialProposalId",
      "outputs": [
        {
          "internalType": "uint256",
          "name": "",
          "type": "uint256"
        }
      ],
      "payable": false,
      "stateMutability": "view",
      "type": "function"
    },
    {
      "constant": false,
      "inputs": [
        {
          "internalType": "address",
          "name": "xvsVault_",
          "type": "address"
        },
        {
          "components": [
            {
              "internalType": "uint256",
              "name": "minVotingPeriod",
              "type": "uint256"
            },
            {
              "internalType": "uint256",
              "name": "maxVotingPeriod",
              "type": "uint256"
            },
            {
              "internalType": "uint256",
              "name": "minVotingDelay",
              "type": "uint256"
            },
            {
              "internalType": "uint256",
              "name": "maxVotingDelay",
              "type": "uint256"
            }
          ],
          "internalType": "struct GovernorBravoDelegateStorageV3.ValidationParams",
          "name": "validationParams_",
          "type": "tuple"
        },
        {
          "components": [
            {
              "internalType": "uint256",
              "name": "votingDelay",
              "type": "uint256"
            },
            {
              "internalType": "uint256",
              "name": "votingPeriod",
              "type": "uint256"
            },
            {
              "internalType": "uint256",
              "name": "proposalThreshold",
              "type": "uint256"
            }
          ],
          "internalType": "struct GovernorBravoDelegateStorageV2.ProposalConfig[]",
          "name": "proposalConfigs_",
          "type": "tuple[]"
        },
        {
          "internalType": "contract TimelockInterface[]",
          "name": "timelocks",
          "type": "address[]"
        },
        {
          "internalType": "address",
          "name": "guardian_",
          "type": "address"
        }
      ],
      "name": "initialize",
      "outputs": [],
      "payable": false,
      "stateMutability": "nonpayable",
      "type": "function"
    },
    {
      "constant": true,
      "inputs": [
        {
          "internalType": "address",
          "name": "",
          "type": "address"
        }
      ],
      "name": "latestProposalIds",
      "outputs": [
        {
          "internalType": "uint256",
          "name": "",
          "type": "uint256"
        }
      ],
      "payable": false,
      "stateMutability": "view",
      "type": "function"
    },
    {
      "constant": true,
      "inputs": [],
      "name": "name",
      "outputs": [
        {
          "internalType": "string",
          "name": "",
          "type": "string"
        }
      ],
      "payable": false,
      "stateMutability": "view",
      "type": "function"
    },
    {
      "constant": true,
      "inputs": [],
      "name": "pendingAdmin",
      "outputs": [
        {
          "internalType": "address",
          "name": "",
          "type": "address"
        }
      ],
      "payable": false,
      "stateMutability": "view",
      "type": "function"
    },
    {
      "constant": true,
      "inputs": [
        {
          "internalType": "uint256",
          "name": "",
          "type": "uint256"
        }
      ],
      "name": "proposalConfigs",
      "outputs": [
        {
          "internalType": "uint256",
          "name": "votingDelay",
          "type": "uint256"
        },
        {
          "internalType": "uint256",
          "name": "votingPeriod",
          "type": "uint256"
        },
        {
          "internalType": "uint256",
          "name": "proposalThreshold",
          "type": "uint256"
        }
      ],
      "payable": false,
      "stateMutability": "view",
      "type": "function"
    },
    {
      "constant": true,
      "inputs": [],
      "name": "proposalCount",
      "outputs": [
        {
          "internalType": "uint256",
          "name": "",
          "type": "uint256"
        }
      ],
      "payable": false,
      "stateMutability": "view",
      "type": "function"
    },
    {
      "constant": true,
      "inputs": [],
      "name": "proposalMaxOperations",
      "outputs": [
        {
          "internalType": "uint256",
          "name": "",
          "type": "uint256"
        }
      ],
      "payable": false,
      "stateMutability": "view",
      "type": "function"
    },
    {
      "constant": true,
      "inputs": [],
      "name": "proposalThreshold",
      "outputs": [
        {
          "internalType": "uint256",
          "name": "",
          "type": "uint256"
        }
      ],
      "payable": false,
      "stateMutability": "view",
      "type": "function"
    },
    {
      "constant": true,
      "inputs": [
        {
          "internalType": "uint256",
          "name": "",
          "type": "uint256"
        }
      ],
      "name": "proposalTimelocks",
      "outputs": [
        {
          "internalType": "contract TimelockInterface",
          "name": "",
          "type": "address"
        }
      ],
      "payable": false,
      "stateMutability": "view",
      "type": "function"
    },
    {
      "constant": true,
      "inputs": [
        {
          "internalType": "uint256",
          "name": "",
          "type": "uint256"
        }
      ],
      "name": "proposals",
      "outputs": [
        {
          "internalType": "uint256",
          "name": "id",
          "type": "uint256"
        },
        {
          "internalType": "address",
          "name": "proposer",
          "type": "address"
        },
        {
          "internalType": "uint256",
          "name": "eta",
          "type": "uint256"
        },
        {
          "internalType": "uint256",
          "name": "startBlock",
          "type": "uint256"
        },
        {
          "internalType": "uint256",
          "name": "endBlock",
          "type": "uint256"
        },
        {
          "internalType": "uint256",
          "name": "forVotes",
          "type": "uint256"
        },
        {
          "internalType": "uint256",
          "name": "againstVotes",
          "type": "uint256"
        },
        {
          "internalType": "uint256",
          "name": "abstainVotes",
          "type": "uint256"
        },
        {
          "internalType": "bool",
          "name": "canceled",
          "type": "bool"
        },
        {
          "internalType": "bool",
          "name": "executed",
          "type": "bool"
        },
        {
          "internalType": "uint8",
          "name": "proposalType",
          "type": "uint8"
        }
      ],
      "payable": false,
      "stateMutability": "view",
      "type": "function"
    },
    {
      "constant": false,
      "inputs": [
        {
          "internalType": "address[]",
          "name": "targets",
          "type": "address[]"
        },
        {
          "internalType": "uint256[]",
          "name": "values",
          "type": "uint256[]"
        },
        {
          "internalType": "string[]",
          "name": "signatures",
          "type": "string[]"
        },
        {
          "internalType": "bytes[]",
          "name": "calldatas",
          "type": "bytes[]"
        },
        {
          "internalType": "string",
          "name": "description",
          "type": "string"
        },
        {
          "internalType": "enum GovernorBravoDelegateStorageV2.ProposalType",
          "name": "proposalType",
          "type": "uint8"
        }
      ],
      "name": "propose",
      "outputs": [
        {
          "internalType": "uint256",
          "name": "",
          "type": "uint256"
        }
      ],
      "payable": false,
      "stateMutability": "nonpayable",
      "type": "function"
    },
    {
      "constant": false,
      "inputs": [
        {
          "internalType": "uint256",
          "name": "proposalId",
          "type": "uint256"
        }
      ],
      "name": "queue",
      "outputs": [],
      "payable": false,
      "stateMutability": "nonpayable",
      "type": "function"
    },
    {
      "constant": true,
      "inputs": [],
      "name": "quorumVotes",
      "outputs": [
        {
          "internalType": "uint256",
          "name": "",
          "type": "uint256"
        }
      ],
      "payable": false,
      "stateMutability": "view",
      "type": "function"
    },
    {
      "constant": false,
      "inputs": [
        {
          "components": [
            {
              "internalType": "uint256",
              "name": "votingDelay",
              "type": "uint256"
            },
            {
              "internalType": "uint256",
              "name": "votingPeriod",
              "type": "uint256"
            },
            {
              "internalType": "uint256",
              "name": "proposalThreshold",
              "type": "uint256"
            }
          ],
          "internalType": "struct GovernorBravoDelegateStorageV2.ProposalConfig[]",
          "name": "proposalConfigs_",
          "type": "tuple[]"
        }
      ],
      "name": "setProposalConfigs",
      "outputs": [],
      "payable": false,
      "stateMutability": "nonpayable",
      "type": "function"
    },
    {
      "constant": false,
      "inputs": [
        {
          "components": [
            {
              "internalType": "uint256",
              "name": "minVotingPeriod",
              "type": "uint256"
            },
            {
              "internalType": "uint256",
              "name": "maxVotingPeriod",
              "type": "uint256"
            },
            {
              "internalType": "uint256",
              "name": "minVotingDelay",
              "type": "uint256"
            },
            {
              "internalType": "uint256",
              "name": "maxVotingDelay",
              "type": "uint256"
            }
          ],
          "internalType": "struct GovernorBravoDelegateStorageV3.ValidationParams",
          "name": "newValidationParams",
          "type": "tuple"
        }
      ],
      "name": "setValidationParams",
      "outputs": [],
      "payable": false,
      "stateMutability": "nonpayable",
      "type": "function"
    },
    {
      "constant": true,
      "inputs": [
        {
          "internalType": "uint256",
          "name": "proposalId",
          "type": "uint256"
        }
      ],
      "name": "state",
      "outputs": [
        {
          "internalType": "enum GovernorBravoDelegateStorageV1.ProposalState",
          "name": "",
          "type": "uint8"
        }
      ],
      "payable": false,
      "stateMutability": "view",
      "type": "function"
    },
    {
      "constant": true,
      "inputs": [],
      "name": "timelock",
      "outputs": [
        {
          "internalType": "contract TimelockInterface",
          "name": "",
          "type": "address"
        }
      ],
      "payable": false,
      "stateMutability": "view",
      "type": "function"
    },
    {
      "constant": true,
      "inputs": [],
      "name": "validationParams",
      "outputs": [
        {
          "internalType": "uint256",
          "name": "minVotingPeriod",
          "type": "uint256"
        },
        {
          "internalType": "uint256",
          "name": "maxVotingPeriod",
          "type": "uint256"
        },
        {
          "internalType": "uint256",
          "name": "minVotingDelay",
          "type": "uint256"
        },
        {
          "internalType": "uint256",
          "name": "maxVotingDelay",
          "type": "uint256"
        }
      ],
      "payable": false,
      "stateMutability": "view",
      "type": "function"
    },
    {
      "constant": true,
      "inputs": [],
      "name": "votingDelay",
      "outputs": [
        {
          "internalType": "uint256",
          "name": "",
          "type": "uint256"
        }
      ],
      "payable": false,
      "stateMutability": "view",
      "type": "function"
    },
    {
      "constant": true,
      "inputs": [],
      "name": "votingPeriod",
      "outputs": [
        {
          "internalType": "uint256",
          "name": "",
          "type": "uint256"
        }
      ],
      "payable": false,
      "stateMutability": "view",
      "type": "function"
    },
    {
      "constant": true,
      "inputs": [],
      "name": "xvsVault",
      "outputs": [
        {
          "internalType": "contract XvsVaultInterface",
          "name": "",
          "type": "address"
        }
      ],
      "payable": false,
      "stateMutability": "view",
      "type": "function"
    }
  ],
  "transactionHash": "0x974d2127e6d9f472aaef9bd1eda25bf4f06d86284bb82730ccdd540aab8d5eae",
  "args": [],
  "numDeployments": 1,
  "solcInputHash": "39afa7d975793de62f715dc8afa71529",
  "bytecode": "0x608060405234801561001057600080fd5b50614f5b806100206000396000f3fe608060405234801561001057600080fd5b50600436106102535760003560e01c806346416f9211610146578063da35c664116100c3578063e9c714f211610087578063e9c714f2146104d5578063ee9799ee146104dd578063f851a440146104f0578063f9d28b80146104f8578063fc4eee421461050b578063fe0d94c11461051357610253565b8063da35c6641461047f578063ddf0b00914610487578063deaaa7cc1461049a578063e23a9a52146104a2578063e38e8c0f146104c257610253565b80637bdbe4d01161010a5780637bdbe4d014610441578063b58131b014610449578063b71d1a0c14610451578063bb08c32114610464578063d33219b41461047757610253565b806346416f92146103f8578063567813881461040b5780635c60da1b1461041e578063791f5d23146104265780637b3c71d31461042e57610253565b806325fd935a116101d45780633932abb1116101985780633932abb1146103a25780633bccf4fd146103aa5780633e4f49e6146103bd57806340e58ee5146103dd578063452a9320146103f057610253565b806325fd935a146103285780632678224714610330578063328dd9821461034557806334cf39091461036857806335a87de21461038057610253565b80631b9ce5751161021b5780631b9ce575146102db5780631e75adf2146102f05780631ebcfefd1461030557806320606b701461031857806324bc1a641461032057610253565b8063013cf08b1461025857806302a251a31461028b57806306fdde03146102a0578063164a1ab1146102b557806317977c61146102c8575b600080fd5b61026b610266366004613130565b610526565b6040516102829b9a99989796959493929190614b83565b60405180910390f35b610293610592565b6040516102829190614727565b6102a8610598565b60405161028291906147ec565b6102936102c3366004612f75565b6105c8565b6102936102d6366004612eab565b610a86565b6102e3610a98565b60405161028291906147d0565b6103036102fe36600461306e565b610aa7565b005b610303610313366004613130565b610d84565b610293610df4565b610293610e0b565b610293610e19565b610338610e27565b60405161028291906145f7565b610358610353366004613130565b610e36565b60405161028294939291906146da565b6103706110c5565b6040516102829493929190614c5d565b61039361038e366004613130565b6110d4565b60405161028293929190614c35565b6102936110f5565b6103036103b836600461321f565b6110fb565b6103d06103cb366004613130565b6112d3565b60405161028291906147de565b6103036103eb366004613130565b61146d565b610338611703565b610303610406366004612ed1565b611712565b610303610419366004613188565b61190a565b610338611954565b610293611963565b61030361043c3660046131b8565b611971565b6102936119c1565b6102936119c7565b61030361045f366004612eab565b6119cd565b610303610472366004613112565b611a4a565b6102e3611b44565b610293611b53565b610303610495366004613130565b611b59565b610293611ded565b6104b56104b036600461314e565b611df9565b6040516102829190614abd565b6103036104d0366004612eab565b611e66565b610303611f1e565b6102e36104eb366004613130565b611ffc565b610338612017565b610303610506366004612eab565b612026565b61029361216a565b610303610521366004613130565b612170565b600a60208190526000918252604090912080546001820154600283015460078401546008850154600986015496860154600b870154600c880154600e9098015496986001600160a01b039096169794969395929492939192909160ff808316926101009004811691168b565b60045481565b6040518060400160405280601481526020017356656e757320476f7665726e6f7220427261766f60601b81525081565b6000600654600014156105f65760405162461bcd60e51b81526004016105ed9061487d565b60405180910390fd5b600e600083600281111561060657fe5b60ff1681526020810191909152604001600020600201546009546001600160a01b031663782d6fe13361063a436001612323565b6040518363ffffffff1660e01b8152600401610657929190614605565b60206040518083038186803b15801561066f57600080fd5b505afa158015610683573d6000803e3d6000fd5b505050506040513d601f19601f820116820180604052506106a79190810190613287565b6001600160601b031610156106ce5760405162461bcd60e51b81526004016105ed90614a1d565b855187511480156106e0575084518751145b80156106ed575083518751145b6107095760405162461bcd60e51b81526004016105ed906148ed565b86516107275760405162461bcd60e51b81526004016105ed9061495d565b600c548751111561074a5760405162461bcd60e51b81526004016105ed906149bd565b336000908152600b602052604090205480156107c757600061076b826112d3565b9050600181600781111561077b57fe5b14156107995760405162461bcd60e51b81526004016105ed906149fd565b60008160078111156107a757fe5b14156107c55760405162461bcd60e51b81526004016105ed906149cd565b505b60006107f743600e60008760028111156107dd57fe5b60ff1681526020019081526020016000206000015461234b565b9050600061082982600e600088600281111561080f57fe5b60ff1681526020019081526020016000206001015461234b565b600780546001019055905061083c6126e5565b604051806101e001604052806007548152602001336001600160a01b03168152602001600081526020018c81526020018b81526020018a81526020018981526020018481526020018381526020016000815260200160008152602001600081526020016000151581526020016000151581526020018760028111156108bd57fe5b60ff16905280516000908152600a602090815260409182902083518155818401516001820180546001600160a01b0319166001600160a01b03909216919091179055918301516002830155606083015180519394508493610924926003850192019061276b565b50608082015180516109409160048401916020909101906127d0565b5060a0820151805161095c916005840191602090910190612817565b5060c08201518051610978916006840191602090910190612870565b5060e082015160078201556101008083015160088301556101208301516009830155610140830151600a830155610160830151600b80840191909155610180840151600c840180546101a087015160ff199182169315159390931761ff0019169215159094029190911790556101c090930151600e909201805490911660ff90921691909117905581516020808401516001600160a01b0316600090815292905260409091205580517fc8df7ff219f3c0358e14500814d8b62b443a4bebf3a596baa60b9295b1cf1bde90338d8d8d8d89898f8f6002811115610a5757fe5b604051610a6d9a99989796959493929190614acb565b60405180910390a15193505050505b9695505050505050565b600b6020526000908152604090205481565b6009546001600160a01b031681565b6000546001600160a01b03163314610ad15760405162461bcd60e51b81526004016105ed906148dd565b60105415801590610ae3575060115415155b8015610af0575060125415155b8015610afd575060135415155b610b195760405162461bcd60e51b81526004016105ed9061482d565b805160038114610b3b5760405162461bcd60e51b81526004016105ed906147fd565b60005b81811015610d7f57601060000154838281518110610b5857fe5b6020026020010151602001511015610b825760405162461bcd60e51b81526004016105ed9061485d565b601060010154838281518110610b9457fe5b6020026020010151602001511115610bbe5760405162461bcd60e51b81526004016105ed90614aad565b601060020154838281518110610bd057fe5b6020026020010151600001511015610bfa5760405162461bcd60e51b81526004016105ed9061498d565b601060030154838281518110610c0c57fe5b6020026020010151600001511115610c365760405162461bcd60e51b81526004016105ed9061496d565b691fc3842bd1f071c00000838281518110610c4d57fe5b6020026020010151604001511015610c775760405162461bcd60e51b81526004016105ed90614a5d565b693f870857a3e0e3800000838281518110610c8e57fe5b6020026020010151604001511115610cb85760405162461bcd60e51b81526004016105ed9061480d565b828181518110610cc457fe5b6020908102919091018101516000838152600e835260409081902082518155928201516001840155015160029091015582517f99382998f89cd4c8aec7ae5d6deca4b4b0bfa01691740ccd702bf76b6a6816d290849083908110610d2457fe5b602002602001015160200151848381518110610d3c57fe5b602002602001015160000151858481518110610d5457fe5b602002602001015160400151604051610d6f93929190614c35565b60405180910390a1600101610b3e565b505050565b6000546001600160a01b03163314610dae5760405162461bcd60e51b81526004016105ed906149dd565b600c8054908290556040517fd03b3c3c5c1446bcdd31423061041c94ca3bc5450fe7ccfb0f636f4c420de87e90610de89083908590614c27565b60405180910390a15050565b604051610e00906145ec565b604051809103902081565b697f0e10af47c1c700000081565b693f870857a3e0e380000081565b6001546001600160a01b031681565b6060806060806000600a600087815260200190815260200160002090508060030181600401826005018360060183805480602002602001604051908101604052809291908181526020018280548015610eb857602002820191906000526020600020905b81546001600160a01b03168152600190910190602001808311610e9a575b5050505050935082805480602002602001604051908101604052809291908181526020018280548015610f0a57602002820191906000526020600020905b815481526020019060010190808311610ef6575b5050505050925081805480602002602001604051908101604052809291908181526020016000905b82821015610fdd5760008481526020908190208301805460408051601f6002600019610100600187161502019094169390930492830185900485028101850190915281815292830182828015610fc95780601f10610f9e57610100808354040283529160200191610fc9565b820191906000526020600020905b815481529060010190602001808311610fac57829003601f168201915b505050505081526020019060010190610f32565b50505050915080805480602002602001604051908101604052809291908181526020016000905b828210156110af5760008481526020908190208301805460408051601f600260001961010060018716150201909416939093049283018590048502810185019091528181529283018282801561109b5780601f106110705761010080835404028352916020019161109b565b820191906000526020600020905b81548152906001019060200180831161107e57829003601f168201915b505050505081526020019060010190611004565b5050505090509450945094509450509193509193565b60105460115460125460135484565b600e6020526000908152604090208054600182015460029092015490919083565b60035481565b6000604051611109906145ec565b60408051918290038220828201909152601482527356656e757320476f7665726e6f7220427261766f60601b6020909201919091527f157d76627a3b71c0167806f5879f7a61d3e301322f3a3b9f900315f15937671a611167612377565b3060405160200161117b9493929190614735565b60405160208183030381529060405280519060200120905060006040516111a1906145b0565b6040519081900381206111ba9189908990602001614773565b604051602081830303815290604052805190602001209050600082826040516020016111e79291906145bb565b604051602081830303815290604052805190602001209050600060018288888860405160008152602001604052604051611224949392919061479b565b6020604051602081039080840390855afa158015611246573d6000803e3d6000fd5b5050604051601f1901519150506001600160a01b0381166112795760405162461bcd60e51b81526004016105ed906148cd565b806001600160a01b03167fb8e138887d0aa13bab447e82de9d5c1777041ecd21ca36ba824ff1e6c07ddda48a8a6112b1858e8e61237c565b6040516112c093929190614d35565b60405180910390a2505050505050505050565b600081600754101580156112e8575060065482115b6113045760405162461bcd60e51b81526004016105ed90614a4d565b6000828152600a60205260409020600c81015460ff1615611329576002915050611468565b8060070154431161133e576000915050611468565b80600801544311611353576001915050611468565b80600a015481600901541115806113775750697f0e10af47c1c70000008160090154105b15611386576003915050611468565b6002810154611399576004915050611468565b600c810154610100900460ff16156113b5576007915050611468565b6002810154600e82015460ff166000908152600f60209081526040918290205482516360d143f160e11b8152925161145294936001600160a01b039092169263c1a287e29260048082019391829003018186803b15801561141557600080fd5b505afa158015611429573d6000803e3d6000fd5b505050506040513d601f19601f8201168201806040525061144d91908101906130c0565b61234b565b4210611462576006915050611468565b60059150505b919050565b6007611478826112d3565b600781111561148357fe5b14156114a15760405162461bcd60e51b81526004016105ed90614a3d565b6000818152600a60205260409020600d546001600160a01b03163314806114d4575060018101546001600160a01b031633145b806115975750600e8181015460ff16600090815260209190915260409020600201546009546001808401546001600160a01b039283169263782d6fe19291169061151f904390612323565b6040518363ffffffff1660e01b815260040161153c92919061463b565b60206040518083038186803b15801561155457600080fd5b505afa158015611568573d6000803e3d6000fd5b505050506040513d601f19601f8201168201806040525061158c9190810190613287565b6001600160601b0316105b6115b35760405162461bcd60e51b81526004016105ed9061499d565b600c8101805460ff1916600117905560005b60038201548110156116d357600e82015460ff166000908152600f60205260409020546003830180546001600160a01b039092169163591fcdfe91908490811061160b57fe5b6000918252602090912001546004850180546001600160a01b03909216918590811061163357fe5b906000526020600020015485600501858154811061164d57fe5b9060005260206000200186600601868154811061166657fe5b9060005260206000200187600201546040518663ffffffff1660e01b8152600401611695959493929190614699565b600060405180830381600087803b1580156116af57600080fd5b505af11580156116c3573d6000803e3d6000fd5b5050600190920191506115c59050565b507f789cf55be980739dad1d0699b93b58e806b51c9d96619bfa8fe0a28abaa7b30c82604051610de89190614727565b600d546001600160a01b031681565b60008052600f6020527ff4803e074bd026baaf6ed2e288c9515f68c72fb7216eebdd7cae1718a53ec375546001600160a01b0316156117635760405162461bcd60e51b81526004016105ed9061490d565b6000546001600160a01b0316331461178d5760405162461bcd60e51b81526004016105ed906148fd565b6001600160a01b0385166117b35760405162461bcd60e51b81526004016105ed906148ad565b6001600160a01b0381166117d95760405162461bcd60e51b81526004016105ed906149ad565b81516003146117fa5760405162461bcd60e51b81526004016105ed9061486d565b825160031461181b5760405162461bcd60e51b81526004016105ed90614a6d565b600980546001600160a01b038088166001600160a01b031992831617909255600a600c55600d80549284169290911691909117905561185984611a4a565b61186283610aa7565b815160005b818110156119015760006001600160a01b031684828151811061188657fe5b60200260200101516001600160a01b031614156118b55760405162461bcd60e51b81526004016105ed906149ed565b8381815181106118c157fe5b6020908102919091018101516000838152600f909252604090912080546001600160a01b0319166001600160a01b03909216919091179055600101611867565b50505050505050565b337fb8e138887d0aa13bab447e82de9d5c1777041ecd21ca36ba824ff1e6c07ddda4838361193984838361237c565b60405161194893929190614d35565b60405180910390a25050565b6002546001600160a01b031681565b691fc3842bd1f071c0000081565b337fb8e138887d0aa13bab447e82de9d5c1777041ecd21ca36ba824ff1e6c07ddda485856119a084838361237c565b86866040516119b3959493929190614cef565b60405180910390a250505050565b600c5481565b60055481565b6000546001600160a01b031633146119f75760405162461bcd60e51b81526004016105ed9061483d565b600180546001600160a01b038381166001600160a01b03198316179092556040519116907fca4f2f25d0898edd99413412fb94012f9e54ec8142f9b093e7720646a95b16a990610de89083908590614620565b6000546001600160a01b03163314611a745760405162461bcd60e51b81526004016105ed9061493d565b805115801590611a88575060008160400151115b8015611a9b575080606001518160400151105b8015611aab575060208101518151105b611ac75760405162461bcd60e51b81526004016105ed90614a2d565b60105481516011546020840151601254604080870151601354606089015192517fc90c7ad68c13a491443f1c63dafa18b365428ee69170415afe234c16dc6f650d98611b1e98909790969095909490939291614c78565b60405180910390a180516010556020810151601155604081015160125560600151601355565b6008546001600160a01b031681565b60075481565b6004611b64826112d3565b6007811115611b6f57fe5b14611b8c5760405162461bcd60e51b81526004016105ed9061491d565b6000818152600a60209081526040808320600e81015460ff168452600f8352818420548251630d48571f60e31b81529251919493611bf59342936001600160a01b0390931692636a42b8f892600480840193919291829003018186803b15801561141557600080fd5b905060005b6003830154811015611da657611d9e836003018281548110611c1857fe5b6000918252602090912001546004850180546001600160a01b039092169184908110611c4057fe5b9060005260206000200154856005018481548110611c5a57fe5b600091825260209182902001805460408051601f6002600019610100600187161502019094169390930492830185900485028101850190915281815292830182828015611ce85780601f10611cbd57610100808354040283529160200191611ce8565b820191906000526020600020905b815481529060010190602001808311611ccb57829003601f168201915b5050505050866006018581548110611cfc57fe5b600091825260209182902001805460408051601f6002600019610100600187161502019094169390930492830185900485028101850190915281815292830182828015611d8a5780601f10611d5f57610100808354040283529160200191611d8a565b820191906000526020600020905b815481529060010190602001808311611d6d57829003601f168201915b50505050600e89015488915060ff1661256c565b600101611bfa565b50600282018190556040517f9a2e42fd6722813d69113e7d0079d3d940171428df7373df9c7f7617cfda289290611de09085908490614c27565b60405180910390a1505050565b604051610e00906145b0565b611e016128c9565b506000828152600a602090815260408083206001600160a01b0385168452600d018252918290208251606081018452905460ff8082161515835261010082041692820192909252620100009091046001600160601b0316918101919091525b92915050565b600d546001600160a01b0316331480611e8957506000546001600160a01b031633145b611ea55760405162461bcd60e51b81526004016105ed90614a8d565b6001600160a01b038116611ecb5760405162461bcd60e51b81526004016105ed90614a7d565b600d80546001600160a01b038381166001600160a01b03198316179092556040519116907f08fdaf06427a2010e5958f4329b566993472d14ce81d3f16ce7f2a2660da98e390610de89083908590614620565b6001546001600160a01b031633148015611f3757503315155b611f535760405162461bcd60e51b81526004016105ed9061497d565b60008054600180546001600160a01b038082166001600160a01b03198086168217968790559092169092556040519282169390927ff9ffabca9c8276e99321725bcb43fb076a6c66a54b7f21c4e8146d8519b417dc92611fb7928692911690614620565b60405180910390a16001546040517fca4f2f25d0898edd99413412fb94012f9e54ec8142f9b093e7720646a95b16a991610de89184916001600160a01b031690614620565b600f602052600090815260409020546001600160a01b031681565b6000546001600160a01b031681565b6000546001600160a01b031633146120505760405162461bcd60e51b81526004016105ed90614a0d565b600654156120705760405162461bcd60e51b81526004016105ed9061494d565b806001600160a01b031663da35c6646040518163ffffffff1660e01b8152600401602060405180830381600087803b1580156120ab57600080fd5b505af11580156120bf573d6000803e3d6000fd5b505050506040513d601f19601f820116820180604052506120e391908101906130c0565b600781905560065560005b6003811015612166576000818152600f6020526040808220548151630e18b68160e01b815291516001600160a01b0390911692630e18b681926004808201939182900301818387803b15801561214357600080fd5b505af1158015612157573d6000803e3d6000fd5b505050508060010190506120ee565b5050565b60065481565b600561217b826112d3565b600781111561218657fe5b146121a35760405162461bcd60e51b81526004016105ed906148bd565b6000818152600a60205260408120600c8101805461ff001916610100179055905b60038201548110156122f357600e82015460ff166000908152600f60205260409020546003830180546001600160a01b0390921691630825f38f91908490811061220a57fe5b6000918252602090912001546004850180546001600160a01b03909216918590811061223257fe5b906000526020600020015485600501858154811061224c57fe5b9060005260206000200186600601868154811061226557fe5b9060005260206000200187600201546040518663ffffffff1660e01b8152600401612294959493929190614699565b600060405180830381600087803b1580156122ae57600080fd5b505af11580156122c2573d6000803e3d6000fd5b505050506040513d6000823e601f3d908101601f191682016040526122ea91908101906130de565b506001016121c4565b507f712ae1383f79ac853f8d882153778e0260ef8f03b504e2866e0593e04d2b291f82604051610de89190614727565b6000828211156123455760405162461bcd60e51b81526004016105ed90614a9d565b50900390565b6000828201838110156123705760405162461bcd60e51b81526004016105ed9061492d565b9392505050565b465b90565b60006001612389846112d3565b600781111561239457fe5b146123b15760405162461bcd60e51b81526004016105ed9061488d565b60028260ff1611156123d55760405162461bcd60e51b81526004016105ed9061481d565b6000838152600a602090815260408083206001600160a01b0388168452600d8101909252909120805460ff161561241e5760405162461bcd60e51b81526004016105ed9061489d565b600954600783015460405163782d6fe160e01b81526000926001600160a01b03169163782d6fe191612454918b9160040161463b565b60206040518083038186803b15801561246c57600080fd5b505afa158015612480573d6000803e3d6000fd5b505050506040513d601f19601f820116820180604052506124a49190810190613287565b905060ff85166124cf576124c583600a0154826001600160601b031661234b565b600a840155612525565b8460ff16600114156124fc576124f28360090154826001600160601b031661234b565b6009840155612525565b8460ff16600214156125255761251f83600b0154826001600160601b031661234b565b600b8401555b8154600160ff199091161761ff00191661010060ff871602176dffffffffffffffffffffffff00001916620100006001600160601b03831602179091559150509392505050565b60ff81166000908152600f60209081526040918290205491516001600160a01b039092169163f2b06537916125ab918a918a918a918a918a9101614649565b604051602081830303815290604052805190602001206040518263ffffffff1660e01b81526004016125dd9190614727565b60206040518083038186803b1580156125f557600080fd5b505afa158015612609573d6000803e3d6000fd5b505050506040513d601f19601f8201168201806040525061262d91908101906130a2565b1561264a5760405162461bcd60e51b81526004016105ed9061484d565b60ff81166000908152600f602052604090819020549051633a66f90160e01b81526001600160a01b0390911690633a66f901906126939089908990899089908990600401614649565b602060405180830381600087803b1580156126ad57600080fd5b505af11580156126c1573d6000803e3d6000fd5b505050506040513d601f19601f8201168201806040525061190191908101906130c0565b604051806101e001604052806000815260200160006001600160a01b0316815260200160008152602001606081526020016060815260200160608152602001606081526020016000815260200160008152602001600081526020016000815260200160008152602001600015158152602001600015158152602001600060ff1681525090565b8280548282559060005260206000209081019282156127c0579160200282015b828111156127c057825182546001600160a01b0319166001600160a01b0390911617825560209092019160019091019061278b565b506127cc9291506128e9565b5090565b82805482825590600052602060002090810192821561280b579160200282015b8281111561280b5782518255916020019190600101906127f0565b506127cc92915061290d565b828054828255906000526020600020908101928215612864579160200282015b828111156128645782518051612854918491602090910190612927565b5091602001919060010190612837565b506127cc929150612994565b8280548282559060005260206000209081019282156128bd579160200282015b828111156128bd57825180516128ad918491602090910190612927565b5091602001919060010190612890565b506127cc9291506129b7565b604080516060810182526000808252602082018190529181019190915290565b61237991905b808211156127cc5780546001600160a01b03191681556001016128ef565b61237991905b808211156127cc5760008155600101612913565b828054600181600116156101000203166002900490600052602060002090601f016020900481019282601f1061296857805160ff191683800117855561280b565b8280016001018555821561280b579182018281111561280b5782518255916020019190600101906127f0565b61237991905b808211156127cc5760006129ae82826129da565b5060010161299a565b61237991905b808211156127cc5760006129d182826129da565b506001016129bd565b50805460018160011615610100020316600290046000825580601f10612a005750612a1e565b601f016020900490600052602060002090810190612a1e919061290d565b50565b8035611e6081614eaa565b600082601f830112612a3d57600080fd5b8135612a50612a4b82614d94565b614d6e565b91508181835260208401935060208101905083856020840282011115612a7557600080fd5b60005b83811015612aa15781612a8b8882612a21565b8452506020928301929190910190600101612a78565b5050505092915050565b600082601f830112612abc57600080fd5b8135612aca612a4b82614d94565b81815260209384019390925082018360005b83811015612aa15781358601612af28882612cd8565b8452506020928301929190910190600101612adc565b600082601f830112612b1957600080fd5b8135612b27612a4b82614d94565b91508181835260208401935060208101905083856020840282011115612b4c57600080fd5b60005b83811015612aa15781612b628882612d6d565b8452506020928301929190910190600101612b4f565b600082601f830112612b8957600080fd5b8135612b97612a4b82614d94565b81815260209384019390925082018360005b83811015612aa15781358601612bbf8882612cd8565b8452506020928301929190910190600101612ba9565b600082601f830112612be657600080fd5b8135612bf4612a4b82614d94565b91508181835260208401935060208101905083856060840282011115612c1957600080fd5b60005b83811015612aa15781612c2f8882612dcb565b84525060209092019160609190910190600101612c1c565b600082601f830112612c5857600080fd5b8135612c66612a4b82614d94565b91508181835260208401935060208101905083856020840282011115612c8b57600080fd5b60005b83811015612aa15781612ca18882612cc2565b8452506020928301929190910190600101612c8e565b8051611e6081614ebe565b8035611e6081614ec7565b8051611e6081614ec7565b600082601f830112612ce957600080fd5b8135612cf7612a4b82614db4565b91508082526020830160208301858383011115612d1357600080fd5b612d1e838284614e5e565b50505092915050565b600082601f830112612d3857600080fd5b8151612d46612a4b82614db4565b91508082526020830160208301858383011115612d6257600080fd5b612d1e838284614e6a565b8035611e6081614ed0565b8035611e6081614ed9565b60008083601f840112612d9557600080fd5b5081356001600160401b03811115612dac57600080fd5b602083019150836001820283011115612dc457600080fd5b9250929050565b600060608284031215612ddd57600080fd5b612de76060614d6e565b90506000612df58484612cc2565b8252506020612e0684848301612cc2565b6020830152506040612e1a84828501612cc2565b60408301525092915050565b600060808284031215612e3857600080fd5b612e426080614d6e565b90506000612e508484612cc2565b8252506020612e6184848301612cc2565b6020830152506040612e7584828501612cc2565b6040830152506060612e8984828501612cc2565b60608301525092915050565b8035611e6081614ee6565b8051611e6081614eef565b600060208284031215612ebd57600080fd5b6000612ec98484612a21565b949350505050565b60008060008060006101008688031215612eea57600080fd5b6000612ef68888612a21565b9550506020612f0788828901612e26565b94505060a08601356001600160401b03811115612f2357600080fd5b612f2f88828901612bd5565b93505060c08601356001600160401b03811115612f4b57600080fd5b612f5788828901612b08565b92505060e0612f6888828901612a21565b9150509295509295909350565b60008060008060008060c08789031215612f8e57600080fd5b86356001600160401b03811115612fa457600080fd5b612fb089828a01612a2c565b96505060208701356001600160401b03811115612fcc57600080fd5b612fd889828a01612c47565b95505060408701356001600160401b03811115612ff457600080fd5b61300089828a01612b78565b94505060608701356001600160401b0381111561301c57600080fd5b61302889828a01612aab565b93505060808701356001600160401b0381111561304457600080fd5b61305089828a01612cd8565b92505060a061306189828a01612d78565b9150509295509295509295565b60006020828403121561308057600080fd5b81356001600160401b0381111561309657600080fd5b612ec984828501612bd5565b6000602082840312156130b457600080fd5b6000612ec98484612cb7565b6000602082840312156130d257600080fd5b6000612ec98484612ccd565b6000602082840312156130f057600080fd5b81516001600160401b0381111561310657600080fd5b612ec984828501612d27565b60006080828403121561312457600080fd5b6000612ec98484612e26565b60006020828403121561314257600080fd5b6000612ec98484612cc2565b6000806040838503121561316157600080fd5b600061316d8585612cc2565b925050602061317e85828601612a21565b9150509250929050565b6000806040838503121561319b57600080fd5b60006131a78585612cc2565b925050602061317e85828601612e95565b600080600080606085870312156131ce57600080fd5b60006131da8787612cc2565b94505060206131eb87828801612e95565b93505060408501356001600160401b0381111561320757600080fd5b61321387828801612d83565b95989497509550505050565b600080600080600060a0868803121561323757600080fd5b60006132438888612cc2565b955050602061325488828901612e95565b945050604061326588828901612e95565b935050606061327688828901612cc2565b9250506080612f6888828901612cc2565b60006020828403121561329957600080fd5b6000612ec98484612ea0565b60006132b183836132e0565b505060200190565b60006123708383613482565b60006132b18383613468565b6132da81614e3d565b82525050565b6132da81614dfa565b60006132f482614ded565b6132fe8185614df1565b935061330983614ddb565b8060005b8381101561333757815161332188826132a5565b975061332c83614ddb565b92505060010161330d565b509495945050505050565b600061334d82614ded565b6133578185614df1565b93508360208202850161336985614ddb565b8060005b858110156133a3578484038952815161338685826132b9565b945061339183614ddb565b60209a909a019992505060010161336d565b5091979650505050505050565b60006133bb82614ded565b6133c58185614df1565b9350836020820285016133d785614ddb565b8060005b858110156133a357848403895281516133f485826132b9565b94506133ff83614ddb565b60209a909a01999250506001016133db565b600061341c82614ded565b6134268185614df1565b935061343183614ddb565b8060005b8381101561333757815161344988826132c5565b975061345483614ddb565b925050600101613435565b6132da81614e05565b6132da81612379565b6132da61347d82612379565b612379565b600061348d82614ded565b6134978185614df1565b93506134a7818560208601614e6a565b6134b081614e96565b9093019392505050565b6000815460018116600081146134d757600181146134fd5761353c565b607f60028304166134e88187614df1565b60ff198416815295505060208501925061353c565b6002820461350b8187614df1565b955061351685614de1565b60005b8281101561353557815488820152600190910190602001613519565b8701945050505b505092915050565b6132da81614e0a565b6132da81614e48565b60006135628385614df1565b935061356f838584614e5e565b6134b083614e96565b6000613585604183614df1565b600080516020614ef983398151915281527f733a20696e76616c69642070726f706f73616c20636f6e666967206c656e67746020820152600d60fb1b604082015260600192915050565b60006135dc604183614df1565b600080516020614ef983398151915281527f733a20696e76616c6964206d61782070726f706f73616c207468726573686f6c6020820152601960fa1b604082015260600192915050565b6000613633603283614df1565b7f476f7665726e6f72427261766f3a3a63617374566f7465496e7465726e616c3a81527120696e76616c696420766f7465207479706560701b602082015260400192915050565b6000613687604783614df1565b600080516020614ef983398151915281527f733a2076616c69646174696f6e20706172616d73206e6f7420636f6e666967756020820152661c9959081e595d60ca1b604082015260600192915050565b60006136e4602883611468565b7f42616c6c6f742875696e743235362070726f706f73616c49642c75696e743820815267737570706f72742960c01b602082015260280192915050565b600061372e602a83614df1565b7f476f7665726e6f72427261766f3a5f73657450656e64696e6741646d696e3a2081526961646d696e206f6e6c7960b01b602082015260400192915050565b600061377a605583614df1565b7f476f7665726e6f72427261766f3a3a71756575654f72526576657274496e746581527f726e616c3a206964656e746963616c2070726f706f73616c20616374696f6e20602082015274616c7265616479207175657565642061742065746160581b604082015260600192915050565b60006137f7603c83614df1565b600080516020614ef983398151915281527f733a20696e76616c6964206d696e20766f74696e6720706572696f6400000000602082015260400192915050565b6000613844605683614df1565b7f476f7665726e6f72427261766f3a3a696e697469616c697a653a6e756d62657281527f206f662074696d656c6f636b732073686f756c64206d61746368206e756d626560208201527572206f6620676f7665726e616e636520726f7574657360501b604082015260600192915050565b60006138c2603183614df1565b7f476f7665726e6f72427261766f3a3a70726f706f73653a20476f7665726e6f7281527020427261766f206e6f742061637469766560781b602082015260400192915050565b6000613915600283611468565b61190160f01b815260020192915050565b6000613933603183614df1565b7f476f7665726e6f72427261766f3a3a63617374566f7465496e7465726e616c3a815270081d9bdd1a5b99c81a5cc818db1bdcd959607a1b602082015260400192915050565b6000613986603483614df1565b7f476f7665726e6f72427261766f3a3a63617374566f7465496e7465726e616c3a815273081d9bdd195c88185b1c9958591e481d9bdd195960621b602082015260400192915050565b60006139dc603483614df1565b7f476f7665726e6f72427261766f3a3a696e697469616c697a653a20696e76616c815273696420787673207661756c74206164647265737360601b602082015260400192915050565b6000613a32604583614df1565b7f476f7665726e6f72427261766f3a3a657865637574653a2070726f706f73616c81527f2063616e206f6e6c7920626520657865637574656420696620697420697320716020820152641d595d595960da1b604082015260600192915050565b6000613a9f602f83614df1565b7f476f7665726e6f72427261766f3a3a63617374566f746542795369673a20696e81526e76616c6964207369676e617475726560881b602082015260400192915050565b6000613af0602d83614df1565b600080516020614ef983398151915281526c733a2061646d696e206f6e6c7960981b602082015260400192915050565b6000613b2d604483614df1565b7f476f7665726e6f72427261766f3a3a70726f706f73653a2070726f706f73616c81527f2066756e6374696f6e20696e666f726d6174696f6e206172697479206d69736d6020820152630c2e8c6d60e31b604082015260600192915050565b6000613b99602583614df1565b7f476f7665726e6f72427261766f3a3a696e697469616c697a653a2061646d696e815264206f6e6c7960d81b602082015260400192915050565b6000613be0603283614df1565b7f476f7665726e6f72427261766f3a3a696e697469616c697a653a2063616e6e6f8152717420696e697469616c697a6520747769636560701b602082015260400192915050565b6000613c34604483614df1565b7f476f7665726e6f72427261766f3a3a71756575653a2070726f706f73616c206381527f616e206f6e6c79206265207175657565642069662069742069732073756363656020820152631959195960e21b604082015260600192915050565b6000613ca0601183614df1565b706164646974696f6e206f766572666c6f7760781b815260200192915050565b6000613ccd604383611468565b7f454950373132446f6d61696e28737472696e67206e616d652c75696e7432353681527f20636861696e49642c6164647265737320766572696679696e67436f6e74726160208201526263742960e81b604082015260430192915050565b6000613d38602e83614df1565b7f476f7665726e6f72427261766f3a3a73657456616c69646174696f6e5061726181526d6d733a2061646d696e206f6e6c7960901b602082015260400192915050565b6000613d88603083614df1565b7f476f7665726e6f72427261766f3a3a5f696e6974696174653a2063616e206f6e81526f6c7920696e697469617465206f6e636560801b602082015260400192915050565b6000613dda602c83614df1565b7f476f7665726e6f72427261766f3a3a70726f706f73653a206d7573742070726f81526b7669646520616374696f6e7360a01b602082015260400192915050565b6000613e28603b83614df1565b600080516020614ef983398151915281527f733a20696e76616c6964206d617820766f74696e672064656c61790000000000602082015260400192915050565b6000613e75602e83614df1565b7f476f7665726e6f72427261766f3a5f61636365707441646d696e3a2070656e6481526d696e672061646d696e206f6e6c7960901b602082015260400192915050565b6000613ec5603b83614df1565b600080516020614ef983398151915281527f733a20696e76616c6964206d696e20766f74696e672064656c61790000000000602082015260400192915050565b6000613f12602f83614df1565b7f476f7665726e6f72427261766f3a3a63616e63656c3a2070726f706f7365722081526e18589bdd99481d1a1c995cda1bdb19608a1b602082015260400192915050565b6000613f63602b83614df1565b7f476f7665726e6f72427261766f3a3a696e697469616c697a653a20696e76616c81526a34b21033bab0b93234b0b760a91b602082015260400192915050565b6000613fb0602883614df1565b7f476f7665726e6f72427261766f3a3a70726f706f73653a20746f6f206d616e7981526720616374696f6e7360c01b602082015260400192915050565b6000613ffa605983614df1565b7f476f7665726e6f72427261766f3a3a70726f706f73653a206f6e65206c69766581527f2070726f706f73616c207065722070726f706f7365722c20666f756e6420616e60208201527f20616c72656164792070656e64696e672070726f706f73616c00000000000000604082015260600192915050565b600061407f603483614df1565b7f476f7665726e6f72427261766f3a3a5f73657450726f706f73616c4d61784f7081527365726174696f6e733a2061646d696e206f6e6c7960601b602082015260400192915050565b60006140d5603283614df1565b7f476f7665726e6f72427261766f3a3a696e697469616c697a653a696e76616c69815271642074696d656c6f636b206164647265737360701b602082015260400192915050565b6000614129605883614df1565b7f476f7665726e6f72427261766f3a3a70726f706f73653a206f6e65206c69766581527f2070726f706f73616c207065722070726f706f7365722c20666f756e6420616e60208201527f20616c7265616479206163746976652070726f706f73616c0000000000000000604082015260600192915050565b6000611e60600083614df1565b60006141bb602483614df1565b7f476f7665726e6f72427261766f3a3a5f696e6974696174653a2061646d696e208152636f6e6c7960e01b602082015260400192915050565b6000614201603f83614df1565b7f476f7665726e6f72427261766f3a3a70726f706f73653a2070726f706f73657281527f20766f7465732062656c6f772070726f706f73616c207468726573686f6c6400602082015260400192915050565b6000614260603283614df1565b7f476f7665726e6f72427261766f3a3a73657456616c69646174696f6e506172618152716d733a20696e76616c696420706172616d7360701b602082015260400192915050565b60006142b4603683614df1565b7f476f7665726e6f72427261766f3a3a63616e63656c3a2063616e6e6f742063618152751b98d95b08195e1958dd5d1959081c1c9bdc1bdcd85b60521b602082015260400192915050565b600061430c602983614df1565b7f476f7665726e6f72427261766f3a3a73746174653a20696e76616c69642070728152681bdc1bdcd85b081a5960ba1b602082015260400192915050565b6000614357604183614df1565b600080516020614ef983398151915281527f733a20696e76616c6964206d696e2070726f706f73616c207468726573686f6c6020820152601960fa1b604082015260600192915050565b60006143ae605d83614df1565b7f476f7665726e6f72427261766f3a3a696e697469616c697a653a6e756d62657281527f206f662070726f706f73616c20636f6e666967732073686f756c64206d61746360208201527f68206e756d626572206f6620676f7665726e616e636520726f75746573000000604082015260600192915050565b6000614433603b83614df1565b7f476f7665726e6f72427261766f3a3a5f736574477561726469616e3a2063616e81527f6e6f74206c69766520776974686f7574206120677561726469616e0000000000602082015260400192915050565b6000614492603383614df1565b7f476f7665726e6f72427261766f3a3a5f736574477561726469616e3a2061646d815272696e206f7220677561726469616e206f6e6c7960681b602082015260400192915050565b60006144e7601583614df1565b747375627472616374696f6e20756e646572666c6f7760581b815260200192915050565b6000614518603c83614df1565b600080516020614ef983398151915281527f733a20696e76616c6964206d617820766f74696e6720706572696f6400000000602082015260400192915050565b80516060830190614569848261345f565b50602082015161457c6020850182614595565b50604082015161458f60408501826145a7565b50505050565b6132da81614e2b565b6132da81614e53565b6132da81614e31565b6000611e60826136d7565b60006145c682613908565b91506145d28285613471565b6020820191506145e28284613471565b5060200192915050565b6000611e6082613cc0565b60208101611e6082846132e0565b6040810161461382856132d1565b6123706020830184613468565b6040810161462e82856132e0565b61237060208301846132e0565b6040810161461382856132e0565b60a0810161465782886132e0565b6146646020830187613468565b81810360408301526146768186613482565b9050818103606083015261468a8185613482565b9050610a7c6080830184613468565b60a081016146a782886132e0565b6146b46020830187613468565b81810360408301526146c681866134ba565b9050818103606083015261468a81856134ba565b608080825281016146eb81876132e9565b905081810360208301526146ff8186613411565b9050818103604083015261471381856133b0565b90508181036060830152610a7c8184613342565b60208101611e608284613468565b608081016147438287613468565b6147506020830186613468565b61475d6040830185613468565b61476a60608301846132e0565b95945050505050565b606081016147818286613468565b61478e6020830185613468565b612ec96040830184614595565b608081016147a98287613468565b6147b66020830186614595565b6147c36040830185613468565b61476a6060830184613468565b60208101611e608284613544565b60208101611e60828461354d565b602080825281016123708184613482565b60208082528101611e6081613578565b60208082528101611e60816135cf565b60208082528101611e6081613626565b60208082528101611e608161367a565b60208082528101611e6081613721565b60208082528101611e608161376d565b60208082528101611e60816137ea565b60208082528101611e6081613837565b60208082528101611e60816138b5565b60208082528101611e6081613926565b60208082528101611e6081613979565b60208082528101611e60816139cf565b60208082528101611e6081613a25565b60208082528101611e6081613a92565b60208082528101611e6081613ae3565b60208082528101611e6081613b20565b60208082528101611e6081613b8c565b60208082528101611e6081613bd3565b60208082528101611e6081613c27565b60208082528101611e6081613c93565b60208082528101611e6081613d2b565b60208082528101611e6081613d7b565b60208082528101611e6081613dcd565b60208082528101611e6081613e1b565b60208082528101611e6081613e68565b60208082528101611e6081613eb8565b60208082528101611e6081613f05565b60208082528101611e6081613f56565b60208082528101611e6081613fa3565b60208082528101611e6081613fed565b60208082528101611e6081614072565b60208082528101611e60816140c8565b60208082528101611e608161411c565b60208082528101611e60816141ae565b60208082528101611e60816141f4565b60208082528101611e6081614253565b60208082528101611e60816142a7565b60208082528101611e60816142ff565b60208082528101611e608161434a565b60208082528101611e60816143a1565b60208082528101611e6081614426565b60208082528101611e6081614485565b60208082528101611e60816144da565b60208082528101611e608161450b565b60608101611e608284614558565b6101408101614ada828d613468565b614ae7602083018c6132d1565b8181036040830152614af9818b6132e9565b90508181036060830152614b0d818a613411565b90508181036080830152614b2181896133b0565b905081810360a0830152614b358188613342565b9050614b4460c0830187613468565b614b5160e0830186613468565b818103610100830152614b648185613482565b9050614b74610120830184614595565b9b9a5050505050505050505050565b6101608101614b92828e613468565b614b9f602083018d6132e0565b614bac604083018c613468565b614bb9606083018b613468565b614bc6608083018a613468565b614bd360a0830189613468565b614be060c0830188613468565b614bed60e0830187613468565b614bfb61010083018661345f565b614c0961012083018561345f565b614c17610140830184614595565b9c9b505050505050505050505050565b604081016146138285613468565b60608101614c438286613468565b614c506020830185613468565b612ec96040830184613468565b60808101614c6b8287613468565b6147b66020830186613468565b6101008101614c87828b613468565b614c94602083018a613468565b614ca16040830189613468565b614cae6060830188613468565b614cbb6080830187613468565b614cc860a0830186613468565b614cd560c0830185613468565b614ce260e0830184613468565b9998505050505050505050565b60808101614cfd8288613468565b614d0a6020830187614595565b614d17604083018661459e565b8181036060830152614d2a818486613556565b979650505050505050565b60808101614d438286613468565b614d506020830185614595565b614d5d604083018461459e565b818103606083015261476a816141a1565b6040518181016001600160401b0381118282101715614d8c57600080fd5b604052919050565b60006001600160401b03821115614daa57600080fd5b5060209081020190565b60006001600160401b03821115614dca57600080fd5b506020601f91909101601f19160190565b60200190565b60009081526020902090565b5190565b90815260200190565b6000611e6082614e1f565b151590565b6000611e6082614dfa565b8061146881614ea0565b6001600160a01b031690565b60ff1690565b6001600160601b031690565b6000611e6082614e0a565b6000611e6082614e15565b6000611e6082614e31565b82818337506000910152565b60005b83811015614e85578181015183820152602001614e6d565b8381111561458f5750506000910152565b601f01601f191690565b60088110612a1e57fe5b614eb381614dfa565b8114612a1e57600080fd5b614eb381614e05565b614eb381612379565b614eb381614e0a565b60038110612a1e57600080fd5b614eb381614e2b565b614eb381614e3156fe476f7665726e6f72427261766f3a3a73657450726f706f73616c436f6e666967a365627a7a72315820b8b239b8461d9539cf0563e9651437bb4ac0d5db37b9c04e30eb364a8e61ad046c6578706572696d656e74616cf564736f6c63430005100040",
  "devdoc": {
    "methods": {
      "_acceptAdmin()": {
        "details": "Admin function for pending admin to accept role and update admin"
      },
      "_initiate(address)": {
        "details": "Admin only. Sets initial proposal id which initiates the contract, ensuring a continuous proposal id count",
        "params": {
          "governorAlpha": "The address for the Governor to continue the proposal id count from"
        }
      },
      "_setGuardian(address)": {
        "params": {
          "newGuardian": "the address of the new guardian"
        }
      },
      "_setPendingAdmin(address)": {
        "details": "Admin function to begin change of admin. The newPendingAdmin must call `_acceptAdmin` to finalize the transfer.",
        "params": {
          "newPendingAdmin": "New pending admin."
        }
      },
      "_setProposalMaxOperations(uint256)": {
        "details": "Admin only.",
        "params": {
          "proposalMaxOperations_": "Max proposal operations"
        }
      },
      "cancel(uint256)": {
        "params": {
          "proposalId": "The id of the proposal to cancel"
        }
      },
      "castVote(uint256,uint8)": {
        "params": {
          "proposalId": "The id of the proposal to vote on",
          "support": "The support value for the vote. 0=against, 1=for, 2=abstain"
        }
      },
      "castVoteBySig(uint256,uint8,uint8,bytes32,bytes32)": {
        "details": "External function that accepts EIP-712 signatures for voting on proposals.",
        "params": {
          "proposalId": "The id of the proposal to vote on",
          "r": "part of the ECDSA sig output",
          "s": "part of the ECDSA sig output",
          "support": "The support value for the vote. 0=against, 1=for, 2=abstain",
          "v": "recovery id of ECDSA signature"
        }
      },
      "castVoteWithReason(uint256,uint8,string)": {
        "params": {
          "proposalId": "The id of the proposal to vote on",
          "reason": "The reason given for the vote by the voter",
          "support": "The support value for the vote. 0=against, 1=for, 2=abstain"
        }
      },
      "execute(uint256)": {
        "params": {
          "proposalId": "The id of the proposal to execute"
        }
      },
      "getActions(uint256)": {
        "params": {
          "proposalId": "the id of the proposal"
        },
        "return": "targets, values, signatures, and calldatas of the proposal actions"
      },
      "getReceipt(uint256,address)": {
        "params": {
          "proposalId": "the id of proposal",
          "voter": "The address of the voter"
        },
        "return": "The voting receipt"
      },
      "initialize(address,(uint256,uint256,uint256,uint256),(uint256,uint256,uint256)[],address[],address)": {
        "params": {
          "proposalConfigs_": "Governance configs for each governance route",
          "timelocks": "Timelock addresses for each governance route",
          "xvsVault_": "The address of the XvsVault"
        }
      },
      "propose(address[],uint256[],string[],bytes[],string,uint8)": {
        "details": "NOTE: Proposals with duplicate set of actions can not be queued for execution. If the proposals consists of duplicate actions, it's recommended to split those actions into separate proposals",
        "params": {
          "calldatas": "Calldatas for proposal calls",
          "description": "String description of the proposal",
          "proposalType": "the type of the proposal (e.g NORMAL, FASTTRACK, CRITICAL)",
          "signatures": "Function signatures for proposal calls",
          "targets": "Target addresses for proposal calls",
          "values": "BNB values for proposal calls"
        },
        "return": "Proposal id of new proposal"
      },
      "queue(uint256)": {
        "params": {
          "proposalId": "The id of the proposal to queue"
        }
      },
      "state(uint256)": {
        "params": {
          "proposalId": "The id of the proposal"
        },
        "return": "Proposal state"
      }
    },
    "title": "GovernorBravoDelegate"
  },
  "userdoc": {
    "methods": {
      "_acceptAdmin()": {
        "notice": "Accepts transfer of admin rights. msg.sender must be pendingAdmin"
      },
      "_initiate(address)": {
        "notice": "Initiate the GovernorBravo contract"
      },
      "_setGuardian(address)": {
        "notice": "Sets the new governance guardian"
      },
      "_setPendingAdmin(address)": {
        "notice": "Begins transfer of admin rights. The newPendingAdmin must call `_acceptAdmin` to finalize the transfer."
      },
      "_setProposalMaxOperations(uint256)": {
        "notice": "Set max proposal operations"
      },
      "cancel(uint256)": {
        "notice": "Cancels a proposal only if sender is the proposer, or proposer delegates dropped below proposal threshold"
      },
      "castVote(uint256,uint8)": {
        "notice": "Cast a vote for a proposal"
      },
      "castVoteBySig(uint256,uint8,uint8,bytes32,bytes32)": {
        "notice": "Cast a vote for a proposal by signature"
      },
      "castVoteWithReason(uint256,uint8,string)": {
        "notice": "Cast a vote for a proposal with a reason"
      },
      "execute(uint256)": {
        "notice": "Executes a queued proposal if eta has passed"
      },
      "getActions(uint256)": {
        "notice": "Gets actions of a proposal"
      },
      "getReceipt(uint256,address)": {
        "notice": "Gets the receipt for a voter on a given proposal"
      },
      "initialize(address,(uint256,uint256,uint256,uint256),(uint256,uint256,uint256)[],address[],address)": {
        "notice": "Used to initialize the contract during delegator contructor"
      },
      "propose(address[],uint256[],string[],bytes[],string,uint8)": {
        "notice": "Function used to propose a new proposal. Sender must have delegates above the proposal threshold. targets, values, signatures, and calldatas must be of equal length"
      },
      "queue(uint256)": {
        "notice": "Queues a proposal of state succeeded"
      },
      "setProposalConfigs((uint256,uint256,uint256)[])": {
        "notice": "Sets the configuration for different proposal types** @dev Requires validationParams to be configured before also it will set proposal config for all proposal types** @param proposalConfigs_ Array of proposal configuration structs to update"
      },
      "setValidationParams((uint256,uint256,uint256,uint256))": {
        "notice": "Sets the validation parameters for voting delay and voting period** @param newValidationParams Struct containing new minimum and maximum voting period and delay"
      },
      "state(uint256)": {
        "notice": "Gets the state of a proposal"
      }
    },
    "notice": "Venus Governance latest on chain governance includes several new features including variable proposal routes and fine grained pause control. Variable routes for proposals allows for governance paramaters such as voting threshold and timelocks to be customized based on the risk level and impact of the proposal. Added granularity to the pause control mechanism allows governance to pause individual actions on specific markets, which reduces impact on the protocol as a whole. This is particularly useful when applied to isolated pools. * The goal of **Governance** is to increase governance efficiency, while mitigating and eliminating malicious or erroneous proposals. * ## Details * Governance has **3 main contracts**: **GovernanceBravoDelegate, XVSVault, XVS** token. * - XVS token is the protocol token used for protocol users to cast their vote on submitted proposals. - XVSVault is the main staking contract for XVS. Users first stake their XVS in the vault and receive voting power proportional to their staked tokens that they can use to vote on proposals. Users also can choose to delegate their voting power to other users. * # Governor Bravo * `GovernanceBravoDelegate` is main Venus Governance contract. Users interact with it to: - Submit new proposal - Vote on a proposal - Cancel a proposal - Queue a proposal for execution with a timelock executor contract. `GovernanceBravoDelegate` uses the XVSVault to get restrict certain actions based on a user's voting power. The governance rules it inforces are: - A user's voting power must be greater than the `proposalThreshold` to submit a proposal - If a user's voting power drops below certain amount, anyone can cancel the the proposal. The governance guardian and proposal creator can also cancel a proposal at anytime before it is queued for execution. * ## Venus Improvement Proposal * Venus Governance allows for Venus Improvement Proposals (VIPs) to be categorized based on their impact and risk levels. This allows for optimizing proposals execution to allow for things such as expediting interest rate changes and quickly updating risk parameters, while moving slower on other types of proposals that can prevent a larger risk to the protocol and are not urgent. There are three different types of VIPs with different proposal paramters: * - `NORMAL` - `FASTTRACK` - `CRITICAL` * When initializing the `GovernorBravo` contract, the parameters for the three routes are set. The parameters are: * - `votingDelay`: The delay in blocks between submitting a proposal and when voting begins - `votingPeriod`: The number of blocks where voting will be open - `proposalThreshold`: The number of votes required in order submit a proposal * There is also a separate timelock executor contract for each route, which is used to dispatch the VIP for execution, giving even more control over the flow of each type of VIP. * ## Voting * After a VIP is proposed, voting is opened after the `votingDelay` has passed. For example, if `votingDelay = 0`, then voting will begin in the next block after the proposal has been submitted. After the delay, the proposal state is `ACTIVE` and users can cast their vote `for`, `against`, or `abstain`, weighted by their total voting power (tokens + delegated voting power). Abstaining from a voting allows for a vote to be cast and optionally include a comment, without the incrementing for or against vote count. The total voting power for the user is obtained by calling XVSVault's `getPriorVotes`. * `GovernorBravoDelegate` also accepts [EIP-712](https://eips.ethereum.org/EIPS/eip-712) signatures for voting on proposals via the external function `castVoteBySig`. * ## Delegating * A users voting power includes the amount of staked XVS the have staked as well as the votes delegate to them. Delegating is the process of a user loaning their voting power to another, so that the latter has the combined voting power of both users. This is an important feature because it allows for a user to let another user who they trust propose or vote in their place. * The delegation of votes happens through the `XVSVault` contract by calling the `delegate` or `delegateBySig` functions. These same functions can revert vote delegation by calling the same function with a value of `0`."
  },
  "storageLayout": {
    "storage": [
      {
        "astId": 1816,
        "contract": "contracts/Governance/GovernorBravoDelegate.sol:GovernorBravoDelegate",
        "label": "admin",
        "offset": 0,
        "slot": "0",
        "type": "t_address"
      },
      {
        "astId": 1818,
        "contract": "contracts/Governance/GovernorBravoDelegate.sol:GovernorBravoDelegate",
        "label": "pendingAdmin",
        "offset": 0,
        "slot": "1",
        "type": "t_address"
      },
      {
        "astId": 1820,
        "contract": "contracts/Governance/GovernorBravoDelegate.sol:GovernorBravoDelegate",
        "label": "implementation",
        "offset": 0,
        "slot": "2",
        "type": "t_address"
      },
      {
        "astId": 1825,
        "contract": "contracts/Governance/GovernorBravoDelegate.sol:GovernorBravoDelegate",
        "label": "votingDelay",
        "offset": 0,
        "slot": "3",
        "type": "t_uint256"
      },
      {
        "astId": 1827,
        "contract": "contracts/Governance/GovernorBravoDelegate.sol:GovernorBravoDelegate",
        "label": "votingPeriod",
        "offset": 0,
        "slot": "4",
        "type": "t_uint256"
      },
      {
        "astId": 1829,
        "contract": "contracts/Governance/GovernorBravoDelegate.sol:GovernorBravoDelegate",
        "label": "proposalThreshold",
        "offset": 0,
        "slot": "5",
        "type": "t_uint256"
      },
      {
        "astId": 1831,
        "contract": "contracts/Governance/GovernorBravoDelegate.sol:GovernorBravoDelegate",
        "label": "initialProposalId",
        "offset": 0,
        "slot": "6",
        "type": "t_uint256"
      },
      {
        "astId": 1833,
        "contract": "contracts/Governance/GovernorBravoDelegate.sol:GovernorBravoDelegate",
        "label": "proposalCount",
        "offset": 0,
        "slot": "7",
        "type": "t_uint256"
      },
      {
        "astId": 1835,
        "contract": "contracts/Governance/GovernorBravoDelegate.sol:GovernorBravoDelegate",
        "label": "timelock",
        "offset": 0,
        "slot": "8",
        "type": "t_contract(TimelockInterface)2005"
      },
      {
        "astId": 1837,
        "contract": "contracts/Governance/GovernorBravoDelegate.sol:GovernorBravoDelegate",
        "label": "xvsVault",
        "offset": 0,
        "slot": "9",
        "type": "t_contract(XvsVaultInterface)2015"
      },
      {
        "astId": 1841,
        "contract": "contracts/Governance/GovernorBravoDelegate.sol:GovernorBravoDelegate",
        "label": "proposals",
        "offset": 0,
        "slot": "10",
        "type": "t_mapping(t_uint256,t_struct(Proposal)1884_storage)"
      },
      {
        "astId": 1845,
        "contract": "contracts/Governance/GovernorBravoDelegate.sol:GovernorBravoDelegate",
        "label": "latestProposalIds",
        "offset": 0,
        "slot": "11",
        "type": "t_mapping(t_address,t_uint256)"
      },
      {
        "astId": 1902,
        "contract": "contracts/Governance/GovernorBravoDelegate.sol:GovernorBravoDelegate",
        "label": "proposalMaxOperations",
        "offset": 0,
        "slot": "12",
        "type": "t_uint256"
      },
      {
        "astId": 1904,
        "contract": "contracts/Governance/GovernorBravoDelegate.sol:GovernorBravoDelegate",
        "label": "guardian",
        "offset": 0,
        "slot": "13",
        "type": "t_address"
      },
      {
        "astId": 1922,
        "contract": "contracts/Governance/GovernorBravoDelegate.sol:GovernorBravoDelegate",
        "label": "proposalConfigs",
        "offset": 0,
        "slot": "14",
        "type": "t_mapping(t_uint256,t_struct(ProposalConfig)1918_storage)"
      },
      {
        "astId": 1926,
        "contract": "contracts/Governance/GovernorBravoDelegate.sol:GovernorBravoDelegate",
        "label": "proposalTimelocks",
        "offset": 0,
        "slot": "15",
        "type": "t_mapping(t_uint256,t_contract(TimelockInterface)2005)"
      },
      {
        "astId": 1940,
        "contract": "contracts/Governance/GovernorBravoDelegate.sol:GovernorBravoDelegate",
        "label": "validationParams",
        "offset": 0,
        "slot": "16",
        "type": "t_struct(ValidationParams)1938_storage"
      }
    ],
    "types": {
      "t_address": {
        "encoding": "inplace",
        "label": "address",
        "numberOfBytes": "20"
      },
      "t_array(t_address)dyn_storage": {
        "base": "t_address",
        "encoding": "dynamic_array",
        "label": "address[]",
        "numberOfBytes": "32"
      },
      "t_array(t_bytes_storage)dyn_storage": {
        "base": "t_bytes_storage",
        "encoding": "dynamic_array",
        "label": "bytes[]",
        "numberOfBytes": "32"
      },
      "t_array(t_string_storage)dyn_storage": {
        "base": "t_string_storage",
        "encoding": "dynamic_array",
        "label": "string[]",
        "numberOfBytes": "32"
      },
      "t_array(t_uint256)dyn_storage": {
        "base": "t_uint256",
        "encoding": "dynamic_array",
        "label": "uint256[]",
        "numberOfBytes": "32"
      },
      "t_bool": {
        "encoding": "inplace",
        "label": "bool",
        "numberOfBytes": "1"
      },
      "t_bytes_storage": {
        "encoding": "bytes",
        "label": "bytes",
        "numberOfBytes": "32"
      },
      "t_contract(TimelockInterface)2005": {
        "encoding": "inplace",
        "label": "contract TimelockInterface",
        "numberOfBytes": "20"
      },
      "t_contract(XvsVaultInterface)2015": {
        "encoding": "inplace",
        "label": "contract XvsVaultInterface",
        "numberOfBytes": "20"
      },
      "t_mapping(t_address,t_struct(Receipt)1891_storage)": {
        "encoding": "mapping",
        "key": "t_address",
        "label": "mapping(address => struct GovernorBravoDelegateStorageV1.Receipt)",
        "numberOfBytes": "32",
        "value": "t_struct(Receipt)1891_storage"
      },
      "t_mapping(t_address,t_uint256)": {
        "encoding": "mapping",
        "key": "t_address",
        "label": "mapping(address => uint256)",
        "numberOfBytes": "32",
        "value": "t_uint256"
      },
      "t_mapping(t_uint256,t_contract(TimelockInterface)2005)": {
        "encoding": "mapping",
        "key": "t_uint256",
        "label": "mapping(uint256 => contract TimelockInterface)",
        "numberOfBytes": "32",
        "value": "t_contract(TimelockInterface)2005"
      },
      "t_mapping(t_uint256,t_struct(Proposal)1884_storage)": {
        "encoding": "mapping",
        "key": "t_uint256",
        "label": "mapping(uint256 => struct GovernorBravoDelegateStorageV1.Proposal)",
        "numberOfBytes": "32",
        "value": "t_struct(Proposal)1884_storage"
      },
      "t_mapping(t_uint256,t_struct(ProposalConfig)1918_storage)": {
        "encoding": "mapping",
        "key": "t_uint256",
        "label": "mapping(uint256 => struct GovernorBravoDelegateStorageV2.ProposalConfig)",
        "numberOfBytes": "32",
        "value": "t_struct(ProposalConfig)1918_storage"
      },
      "t_string_storage": {
        "encoding": "bytes",
        "label": "string",
        "numberOfBytes": "32"
      },
      "t_struct(Proposal)1884_storage": {
        "encoding": "inplace",
        "label": "struct GovernorBravoDelegateStorageV1.Proposal",
        "members": [
          {
            "astId": 1847,
            "contract": "contracts/Governance/GovernorBravoDelegate.sol:GovernorBravoDelegate",
            "label": "id",
            "offset": 0,
            "slot": "0",
            "type": "t_uint256"
          },
          {
            "astId": 1849,
            "contract": "contracts/Governance/GovernorBravoDelegate.sol:GovernorBravoDelegate",
            "label": "proposer",
            "offset": 0,
            "slot": "1",
            "type": "t_address"
          },
          {
            "astId": 1851,
            "contract": "contracts/Governance/GovernorBravoDelegate.sol:GovernorBravoDelegate",
            "label": "eta",
            "offset": 0,
            "slot": "2",
            "type": "t_uint256"
          },
          {
            "astId": 1854,
            "contract": "contracts/Governance/GovernorBravoDelegate.sol:GovernorBravoDelegate",
            "label": "targets",
            "offset": 0,
            "slot": "3",
            "type": "t_array(t_address)dyn_storage"
          },
          {
            "astId": 1857,
            "contract": "contracts/Governance/GovernorBravoDelegate.sol:GovernorBravoDelegate",
            "label": "values",
            "offset": 0,
            "slot": "4",
            "type": "t_array(t_uint256)dyn_storage"
          },
          {
            "astId": 1860,
            "contract": "contracts/Governance/GovernorBravoDelegate.sol:GovernorBravoDelegate",
            "label": "signatures",
            "offset": 0,
            "slot": "5",
            "type": "t_array(t_string_storage)dyn_storage"
          },
          {
            "astId": 1863,
            "contract": "contracts/Governance/GovernorBravoDelegate.sol:GovernorBravoDelegate",
            "label": "calldatas",
            "offset": 0,
            "slot": "6",
            "type": "t_array(t_bytes_storage)dyn_storage"
          },
          {
            "astId": 1865,
            "contract": "contracts/Governance/GovernorBravoDelegate.sol:GovernorBravoDelegate",
            "label": "startBlock",
            "offset": 0,
            "slot": "7",
            "type": "t_uint256"
          },
          {
            "astId": 1867,
            "contract": "contracts/Governance/GovernorBravoDelegate.sol:GovernorBravoDelegate",
            "label": "endBlock",
            "offset": 0,
            "slot": "8",
            "type": "t_uint256"
          },
          {
            "astId": 1869,
            "contract": "contracts/Governance/GovernorBravoDelegate.sol:GovernorBravoDelegate",
            "label": "forVotes",
            "offset": 0,
            "slot": "9",
            "type": "t_uint256"
          },
          {
            "astId": 1871,
            "contract": "contracts/Governance/GovernorBravoDelegate.sol:GovernorBravoDelegate",
            "label": "againstVotes",
            "offset": 0,
            "slot": "10",
            "type": "t_uint256"
          },
          {
            "astId": 1873,
            "contract": "contracts/Governance/GovernorBravoDelegate.sol:GovernorBravoDelegate",
            "label": "abstainVotes",
            "offset": 0,
            "slot": "11",
            "type": "t_uint256"
          },
          {
            "astId": 1875,
            "contract": "contracts/Governance/GovernorBravoDelegate.sol:GovernorBravoDelegate",
            "label": "canceled",
            "offset": 0,
            "slot": "12",
            "type": "t_bool"
          },
          {
            "astId": 1877,
            "contract": "contracts/Governance/GovernorBravoDelegate.sol:GovernorBravoDelegate",
            "label": "executed",
            "offset": 1,
            "slot": "12",
            "type": "t_bool"
          },
          {
            "astId": 1881,
            "contract": "contracts/Governance/GovernorBravoDelegate.sol:GovernorBravoDelegate",
            "label": "receipts",
            "offset": 0,
            "slot": "13",
            "type": "t_mapping(t_address,t_struct(Receipt)1891_storage)"
          },
          {
            "astId": 1883,
            "contract": "contracts/Governance/GovernorBravoDelegate.sol:GovernorBravoDelegate",
            "label": "proposalType",
            "offset": 0,
            "slot": "14",
            "type": "t_uint8"
          }
        ],
        "numberOfBytes": "480"
      },
      "t_struct(ProposalConfig)1918_storage": {
        "encoding": "inplace",
        "label": "struct GovernorBravoDelegateStorageV2.ProposalConfig",
        "members": [
          {
            "astId": 1913,
            "contract": "contracts/Governance/GovernorBravoDelegate.sol:GovernorBravoDelegate",
            "label": "votingDelay",
            "offset": 0,
            "slot": "0",
            "type": "t_uint256"
          },
          {
            "astId": 1915,
            "contract": "contracts/Governance/GovernorBravoDelegate.sol:GovernorBravoDelegate",
            "label": "votingPeriod",
            "offset": 0,
            "slot": "1",
            "type": "t_uint256"
          },
          {
            "astId": 1917,
            "contract": "contracts/Governance/GovernorBravoDelegate.sol:GovernorBravoDelegate",
            "label": "proposalThreshold",
            "offset": 0,
            "slot": "2",
            "type": "t_uint256"
          }
        ],
        "numberOfBytes": "96"
      },
      "t_struct(Receipt)1891_storage": {
        "encoding": "inplace",
        "label": "struct GovernorBravoDelegateStorageV1.Receipt",
        "members": [
          {
            "astId": 1886,
            "contract": "contracts/Governance/GovernorBravoDelegate.sol:GovernorBravoDelegate",
            "label": "hasVoted",
            "offset": 0,
            "slot": "0",
            "type": "t_bool"
          },
          {
            "astId": 1888,
            "contract": "contracts/Governance/GovernorBravoDelegate.sol:GovernorBravoDelegate",
            "label": "support",
            "offset": 1,
            "slot": "0",
            "type": "t_uint8"
          },
          {
            "astId": 1890,
            "contract": "contracts/Governance/GovernorBravoDelegate.sol:GovernorBravoDelegate",
            "label": "votes",
            "offset": 2,
            "slot": "0",
            "type": "t_uint96"
          }
        ],
        "numberOfBytes": "32"
      },
      "t_struct(ValidationParams)1938_storage": {
        "encoding": "inplace",
        "label": "struct GovernorBravoDelegateStorageV3.ValidationParams",
        "members": [
          {
            "astId": 1931,
            "contract": "contracts/Governance/GovernorBravoDelegate.sol:GovernorBravoDelegate",
            "label": "minVotingPeriod",
            "offset": 0,
            "slot": "0",
            "type": "t_uint256"
          },
          {
            "astId": 1933,
            "contract": "contracts/Governance/GovernorBravoDelegate.sol:GovernorBravoDelegate",
            "label": "maxVotingPeriod",
            "offset": 0,
            "slot": "1",
            "type": "t_uint256"
          },
          {
            "astId": 1935,
            "contract": "contracts/Governance/GovernorBravoDelegate.sol:GovernorBravoDelegate",
            "label": "minVotingDelay",
            "offset": 0,
            "slot": "2",
            "type": "t_uint256"
          },
          {
            "astId": 1937,
            "contract": "contracts/Governance/GovernorBravoDelegate.sol:GovernorBravoDelegate",
            "label": "maxVotingDelay",
            "offset": 0,
            "slot": "3",
            "type": "t_uint256"
          }
        ],
        "numberOfBytes": "128"
      },
      "t_uint256": {
        "encoding": "inplace",
        "label": "uint256",
        "numberOfBytes": "32"
      },
      "t_uint8": {
        "encoding": "inplace",
        "label": "uint8",
        "numberOfBytes": "1"
      },
      "t_uint96": {
        "encoding": "inplace",
        "label": "uint96",
        "numberOfBytes": "12"
      }
    }
  }
}