{
  "address": "0xD5C8Bbe05F198796d78c2845c860fE92F47C926f",
  "abi": [
    {
      "inputs": [
        {
          "internalType": "address",
          "name": "corePoolComptroller_",
          "type": "address"
        },
        {
          "internalType": "address",
          "name": "riskStewardReceiver_",
          "type": "address"
        }
      ],
      "stateMutability": "nonpayable",
      "type": "constructor"
    },
    {
      "inputs": [],
      "name": "InvalidMaxIncreaseBps",
      "type": "error"
    },
    {
      "inputs": [],
      "name": "OnlyRiskStewardReceiver",
      "type": "error"
    },
    {
      "inputs": [
        {
          "internalType": "address",
          "name": "sender",
          "type": "address"
        },
        {
          "internalType": "address",
          "name": "calledContract",
          "type": "address"
        },
        {
          "internalType": "string",
          "name": "methodSignature",
          "type": "string"
        }
      ],
      "name": "Unauthorized",
      "type": "error"
    },
    {
      "inputs": [],
      "name": "UnsupportedUpdateType",
      "type": "error"
    },
    {
      "inputs": [],
      "name": "UpdateNotInRange",
      "type": "error"
    },
    {
      "anonymous": false,
      "inputs": [
        {
          "indexed": false,
          "internalType": "address",
          "name": "market",
          "type": "address"
        },
        {
          "indexed": false,
          "internalType": "uint256",
          "name": "newBorrowCap",
          "type": "uint256"
        }
      ],
      "name": "BorrowCapUpdated",
      "type": "event"
    },
    {
      "anonymous": false,
      "inputs": [
        {
          "indexed": false,
          "internalType": "uint8",
          "name": "version",
          "type": "uint8"
        }
      ],
      "name": "Initialized",
      "type": "event"
    },
    {
      "anonymous": false,
      "inputs": [
        {
          "indexed": false,
          "internalType": "uint256",
          "name": "oldMaxIncreaseBps",
          "type": "uint256"
        },
        {
          "indexed": false,
          "internalType": "uint256",
          "name": "newMaxIncreaseBps",
          "type": "uint256"
        }
      ],
      "name": "MaxIncreaseBpsUpdated",
      "type": "event"
    },
    {
      "anonymous": false,
      "inputs": [
        {
          "indexed": false,
          "internalType": "address",
          "name": "oldAccessControlManager",
          "type": "address"
        },
        {
          "indexed": false,
          "internalType": "address",
          "name": "newAccessControlManager",
          "type": "address"
        }
      ],
      "name": "NewAccessControlManager",
      "type": "event"
    },
    {
      "anonymous": false,
      "inputs": [
        {
          "indexed": true,
          "internalType": "address",
          "name": "previousOwner",
          "type": "address"
        },
        {
          "indexed": true,
          "internalType": "address",
          "name": "newOwner",
          "type": "address"
        }
      ],
      "name": "OwnershipTransferStarted",
      "type": "event"
    },
    {
      "anonymous": false,
      "inputs": [
        {
          "indexed": true,
          "internalType": "address",
          "name": "previousOwner",
          "type": "address"
        },
        {
          "indexed": true,
          "internalType": "address",
          "name": "newOwner",
          "type": "address"
        }
      ],
      "name": "OwnershipTransferred",
      "type": "event"
    },
    {
      "anonymous": false,
      "inputs": [
        {
          "indexed": false,
          "internalType": "address",
          "name": "market",
          "type": "address"
        },
        {
          "indexed": false,
          "internalType": "uint256",
          "name": "newSupplyCap",
          "type": "uint256"
        }
      ],
      "name": "SupplyCapUpdated",
      "type": "event"
    },
    {
      "inputs": [],
      "name": "CORE_POOL_COMPTROLLER",
      "outputs": [
        {
          "internalType": "contract ICorePoolComptroller",
          "name": "",
          "type": "address"
        }
      ],
      "stateMutability": "view",
      "type": "function"
    },
    {
      "inputs": [],
      "name": "RISK_STEWARD_RECEIVER",
      "outputs": [
        {
          "internalType": "contract IRiskStewardReceiver",
          "name": "",
          "type": "address"
        }
      ],
      "stateMutability": "view",
      "type": "function"
    },
    {
      "inputs": [],
      "name": "acceptOwnership",
      "outputs": [],
      "stateMutability": "nonpayable",
      "type": "function"
    },
    {
      "inputs": [],
      "name": "accessControlManager",
      "outputs": [
        {
          "internalType": "contract IAccessControlManagerV8",
          "name": "",
          "type": "address"
        }
      ],
      "stateMutability": "view",
      "type": "function"
    },
    {
      "inputs": [
        {
          "internalType": "address",
          "name": "accessControlManager_",
          "type": "address"
        },
        {
          "internalType": "uint256",
          "name": "maxIncreaseBps_",
          "type": "uint256"
        }
      ],
      "name": "initialize",
      "outputs": [],
      "stateMutability": "nonpayable",
      "type": "function"
    },
    {
      "inputs": [],
      "name": "maxIncreaseBps",
      "outputs": [
        {
          "internalType": "uint256",
          "name": "",
          "type": "uint256"
        }
      ],
      "stateMutability": "view",
      "type": "function"
    },
    {
      "inputs": [],
      "name": "owner",
      "outputs": [
        {
          "internalType": "address",
          "name": "",
          "type": "address"
        }
      ],
      "stateMutability": "view",
      "type": "function"
    },
    {
      "inputs": [],
      "name": "pendingOwner",
      "outputs": [
        {
          "internalType": "address",
          "name": "",
          "type": "address"
        }
      ],
      "stateMutability": "view",
      "type": "function"
    },
    {
      "inputs": [
        {
          "components": [
            {
              "internalType": "uint256",
              "name": "timestamp",
              "type": "uint256"
            },
            {
              "internalType": "bytes",
              "name": "newValue",
              "type": "bytes"
            },
            {
              "internalType": "string",
              "name": "referenceId",
              "type": "string"
            },
            {
              "internalType": "bytes",
              "name": "previousValue",
              "type": "bytes"
            },
            {
              "internalType": "string",
              "name": "updateType",
              "type": "string"
            },
            {
              "internalType": "uint256",
              "name": "updateId",
              "type": "uint256"
            },
            {
              "internalType": "address",
              "name": "market",
              "type": "address"
            },
            {
              "internalType": "bytes",
              "name": "additionalData",
              "type": "bytes"
            }
          ],
          "internalType": "struct RiskParameterUpdate",
          "name": "update",
          "type": "tuple"
        }
      ],
      "name": "processUpdate",
      "outputs": [],
      "stateMutability": "nonpayable",
      "type": "function"
    },
    {
      "inputs": [],
      "name": "renounceOwnership",
      "outputs": [],
      "stateMutability": "nonpayable",
      "type": "function"
    },
    {
      "inputs": [
        {
          "internalType": "address",
          "name": "accessControlManager_",
          "type": "address"
        }
      ],
      "name": "setAccessControlManager",
      "outputs": [],
      "stateMutability": "nonpayable",
      "type": "function"
    },
    {
      "inputs": [
        {
          "internalType": "uint256",
          "name": "maxIncreaseBps_",
          "type": "uint256"
        }
      ],
      "name": "setMaxIncreaseBps",
      "outputs": [],
      "stateMutability": "nonpayable",
      "type": "function"
    },
    {
      "inputs": [
        {
          "internalType": "address",
          "name": "newOwner",
          "type": "address"
        }
      ],
      "name": "transferOwnership",
      "outputs": [],
      "stateMutability": "nonpayable",
      "type": "function"
    }
  ],
  "transactionHash": "0x7c8a8ebce26149d563ce9815c3777fe1509beb28b02495a7fc930269cd22778e",
  "args": [
    "0x94d1820b2D1c7c7452A163983Dc888CEC546b77D",
    "0xec20a50A9c162f64eF8D215eD7f688bf57f8cDB9"
  ],
  "numDeployments": 4,
  "solcInputHash": "ccaafb2023c943b8f3a5498ce5e1d64c",
  "bytecode": "0x60c060405234801561001057600080fd5b50604051611eb9380380611eb983398101604081905261002f9161019b565b6001600160a01b0382166100a15760405162461bcd60e51b815260206004820152602e60248201527f436f726520506f6f6c20436f6d7074726f6c6c65722061646472657373206d7560448201526d7374206e6f74206265207a65726f60901b60648201526084015b60405180910390fd5b6001600160a01b03808316608052811660a0526100bc6100c3565b50506101ce565b600054610100900460ff161561012b5760405162461bcd60e51b815260206004820152602760248201527f496e697469616c697a61626c653a20636f6e747261637420697320696e697469604482015266616c697a696e6760c81b6064820152608401610098565b60005460ff908116101561017d576000805460ff191660ff9081179091556040519081527f7f26b83ff96e1f2b6a682f133852f6798a09c465da95921460cefb38474024989060200160405180910390a15b565b80516001600160a01b038116811461019657600080fd5b919050565b600080604083850312156101ae57600080fd5b6101b78361017f565b91506101c56020840161017f565b90509250929050565b60805160a051611cb16102086000396000818161018f015261025201526000818161021801528181610ebd015261128f0152611cb16000f3fe608060405234801561001057600080fd5b50600436106100df5760003560e01c80638da5cb5b1161008c578063cd6dc68711610066578063cd6dc687146101cf578063e30c3978146101e2578063f2fde38b14610200578063fa7b81a01461021357600080fd5b80638da5cb5b1461014b578063b296e6cb1461018a578063b4a0bdf3146101b157600080fd5b80636e16b844116100bd5780636e16b84414610128578063715018a61461013b57806379ba50971461014357600080fd5b806304a6fcd6146100e45780630e32cb86146100f957806368046c0f1461010c575b600080fd5b6100f76100f2366004611670565b61023a565b005b6100f76101073660046116e5565b610408565b61011560c95481565b6040519081526020015b60405180910390f35b6100f7610136366004611702565b610419565b6100f76104d8565b6100f76104ec565b60335473ffffffffffffffffffffffffffffffffffffffff165b60405173ffffffffffffffffffffffffffffffffffffffff909116815260200161011f565b6101657f000000000000000000000000000000000000000000000000000000000000000081565b60975473ffffffffffffffffffffffffffffffffffffffff16610165565b6100f76101dd36600461171b565b6105a3565b60655473ffffffffffffffffffffffffffffffffffffffff16610165565b6100f761020e3660046116e5565b61077f565b6101657f000000000000000000000000000000000000000000000000000000000000000081565b3373ffffffffffffffffffffffffffffffffffffffff7f000000000000000000000000000000000000000000000000000000000000000016146102a9576040517f3a739dd700000000000000000000000000000000000000000000000000000000815260040160405180910390fd5b6103286102b96080830183611747565b8080601f0160208091040260200160405190810160405280939291908181526020018383808284376000920191909152505060408051808201909152600981527f737570706c7943617000000000000000000000000000000000000000000000006020820152915061082f9050565b156103415761033e610339826118b7565b61084b565b50565b6103c06103516080830183611747565b8080601f0160208091040260200160405190810160405280939291908181526020018383808284376000920191909152505060408051808201909152600981527f626f72726f7743617000000000000000000000000000000000000000000000006020820152915061082f9050565b156103d65761033e6103d1826118b7565b610866565b6040517f80919d7b00000000000000000000000000000000000000000000000000000000815260040160405180910390fd5b610410610881565b61033e81610902565b6104576040518060400160405280601a81526020017f7365744d6178496e6372656173654270732875696e7432353629000000000000815250610a24565b60c9546000829003610495576040517f1477a8e600000000000000000000000000000000000000000000000000000000815260040160405180910390fd5b60c982905560408051828152602081018490527fceb845b39318b57cb4c291366db56b982ff618ac63bdc99ef8e75a93dc710fb091015b60405180910390a15050565b6104e0610881565b6104ea6000610b01565b565b606554339073ffffffffffffffffffffffffffffffffffffffff16811461059a576040517f08c379a000000000000000000000000000000000000000000000000000000000815260206004820152602960248201527f4f776e61626c6532537465703a2063616c6c6572206973206e6f74207468652060448201527f6e6577206f776e6572000000000000000000000000000000000000000000000060648201526084015b60405180910390fd5b61033e81610b01565b600054610100900460ff16158080156105c35750600054600160ff909116105b806105dd5750303b1580156105dd575060005460ff166001145b610669576040517f08c379a000000000000000000000000000000000000000000000000000000000815260206004820152602e60248201527f496e697469616c697a61626c653a20636f6e747261637420697320616c72656160448201527f647920696e697469616c697a65640000000000000000000000000000000000006064820152608401610591565b600080547fffffffffffffffffffffffffffffffffffffffffffffffffffffffffffffff0016600117905580156106c757600080547fffffffffffffffffffffffffffffffffffffffffffffffffffffffffffff00ff166101001790555b6106cf610b32565b6106d883610bd1565b81600003610712576040517f1477a8e600000000000000000000000000000000000000000000000000000000815260040160405180910390fd5b60c9829055801561077a57600080547fffffffffffffffffffffffffffffffffffffffffffffffffffffffffffff00ff169055604051600181527f7f26b83ff96e1f2b6a682f133852f6798a09c465da95921460cefb38474024989060200160405180910390a15b505050565b610787610881565b6065805473ffffffffffffffffffffffffffffffffffffffff83167fffffffffffffffffffffffff000000000000000000000000000000000000000090911681179091556107ea60335473ffffffffffffffffffffffffffffffffffffffff1690565b73ffffffffffffffffffffffffffffffffffffffff167f38d16b8cac22d99fc7c124b9cd0de2d3fa1faef420bfe791d8c362d765e2270060405160405180910390a350565b6000818051906020012083805190602001201490505b92915050565b61085481610c68565b61033e8160c001518260200151610d9e565b61086f8161109b565b61033e8160c001518260200151611170565b60335473ffffffffffffffffffffffffffffffffffffffff1633146104ea576040517f08c379a000000000000000000000000000000000000000000000000000000000815260206004820181905260248201527f4f776e61626c653a2063616c6c6572206973206e6f7420746865206f776e65726044820152606401610591565b73ffffffffffffffffffffffffffffffffffffffff81166109a5576040517f08c379a000000000000000000000000000000000000000000000000000000000815260206004820152602560248201527f696e76616c696420616365737320636f6e74726f6c206d616e6167657220616460448201527f64726573730000000000000000000000000000000000000000000000000000006064820152608401610591565b6097805473ffffffffffffffffffffffffffffffffffffffff8381167fffffffffffffffffffffffff000000000000000000000000000000000000000083168117909355604080519190921680825260208201939093527f66fd58e82f7b31a2a5c30e0888f3093efe4e111b00cd2b0c31fe014601293aa091016104cc565b6097546040517f18c5e8ab00000000000000000000000000000000000000000000000000000000815260009173ffffffffffffffffffffffffffffffffffffffff16906318c5e8ab90610a7d9033908690600401611a27565b602060405180830381865afa158015610a9a573d6000803e3d6000fd5b505050506040513d601f19601f82011682018060405250810190610abe9190611a5e565b905080610afd573330836040517f4a3fa29300000000000000000000000000000000000000000000000000000000815260040161059193929190611a80565b5050565b606580547fffffffffffffffffffffffff000000000000000000000000000000000000000016905561033e81611427565b600054610100900460ff16610bc9576040517f08c379a000000000000000000000000000000000000000000000000000000000815260206004820152602b60248201527f496e697469616c697a61626c653a20636f6e7472616374206973206e6f74206960448201527f6e697469616c697a696e670000000000000000000000000000000000000000006064820152608401610591565b6104ea61149e565b600054610100900460ff16610410576040517f08c379a000000000000000000000000000000000000000000000000000000000815260206004820152602b60248201527f496e697469616c697a61626c653a20636f6e7472616374206973206e6f74206960448201527f6e697469616c697a696e670000000000000000000000000000000000000000006064820152608401610591565b60008160c0015173ffffffffffffffffffffffffffffffffffffffff16635fe3b5676040518163ffffffff1660e01b8152600401602060405180830381865afa158015610cb9573d6000803e3d6000fd5b505050506040513d601f19601f82011682018060405250810190610cdd9190611ac2565b60c08301516040517f02c3bcbb00000000000000000000000000000000000000000000000000000000815273ffffffffffffffffffffffffffffffffffffffff9182166004820152919250600091908316906302c3bcbb906024015b602060405180830381865afa158015610d56573d6000803e3d6000fd5b505050506040513d601f19601f82011682018060405250810190610d7a9190611adf565b90506000610d8b846020015161153e565b9050610d9782826115c5565b5050505050565b60008273ffffffffffffffffffffffffffffffffffffffff16635fe3b5676040518163ffffffff1660e01b8152600401602060405180830381865afa158015610deb573d6000803e3d6000fd5b505050506040513d601f19601f82011682018060405250810190610e0f9190611ac2565b60408051600180825281830190925291925060009190602080830190803683370190505090508381600081518110610e4957610e49611af8565b73ffffffffffffffffffffffffffffffffffffffff9290921660209283029190910190910152604080516001808252818301909252600091816020016020820280368337019050509050610e9c8461153e565b81600081518110610eaf57610eaf611af8565b6020026020010181815250507f000000000000000000000000000000000000000000000000000000000000000073ffffffffffffffffffffffffffffffffffffffff168373ffffffffffffffffffffffffffffffffffffffff1603610f99576040517f51a485e400000000000000000000000000000000000000000000000000000000815273ffffffffffffffffffffffffffffffffffffffff8416906351a485e490610f629085908590600401611b27565b600060405180830381600087803b158015610f7c57600080fd5b505af1158015610f90573d6000803e3d6000fd5b50505050611020565b6040517fd136af4400000000000000000000000000000000000000000000000000000000815273ffffffffffffffffffffffffffffffffffffffff84169063d136af4490610fed9085908590600401611b27565b600060405180830381600087803b15801561100757600080fd5b505af115801561101b573d6000803e3d6000fd5b505050505b7f638a463c59949a284e093291dedfbadcb32ebf9007e649767344e67346ab8829858260008151811061105557611055611af8565b602002602001015160405161108c92919073ffffffffffffffffffffffffffffffffffffffff929092168252602082015260400190565b60405180910390a15050505050565b60008160c0015173ffffffffffffffffffffffffffffffffffffffff16635fe3b5676040518163ffffffff1660e01b8152600401602060405180830381865afa1580156110ec573d6000803e3d6000fd5b505050506040513d601f19601f820116820180604052508101906111109190611ac2565b60c08301516040517f4a58443200000000000000000000000000000000000000000000000000000000815273ffffffffffffffffffffffffffffffffffffffff918216600482015291925060009190831690634a58443290602401610d39565b60008273ffffffffffffffffffffffffffffffffffffffff16635fe3b5676040518163ffffffff1660e01b8152600401602060405180830381865afa1580156111bd573d6000803e3d6000fd5b505050506040513d601f19601f820116820180604052508101906111e19190611ac2565b6040805160018082528183019092529192506000919060208083019080368337019050509050838160008151811061121b5761121b611af8565b73ffffffffffffffffffffffffffffffffffffffff929092166020928302919091019091015260408051600180825281830190925260009181602001602082028036833701905050905061126e8461153e565b8160008151811061128157611281611af8565b6020026020010181815250507f000000000000000000000000000000000000000000000000000000000000000073ffffffffffffffffffffffffffffffffffffffff168373ffffffffffffffffffffffffffffffffffffffff160361136b576040517f607ef6c100000000000000000000000000000000000000000000000000000000815273ffffffffffffffffffffffffffffffffffffffff84169063607ef6c1906113349085908590600401611b27565b600060405180830381600087803b15801561134e57600080fd5b505af1158015611362573d6000803e3d6000fd5b505050506113f2565b6040517f186db48f00000000000000000000000000000000000000000000000000000000815273ffffffffffffffffffffffffffffffffffffffff84169063186db48f906113bf9085908590600401611b27565b600060405180830381600087803b1580156113d957600080fd5b505af11580156113ed573d6000803e3d6000fd5b505050505b7f84d2db42497fc6f1882756be420935d982025ad8a2a903dfb83638a09e49a775858260008151811061105557611055611af8565b6033805473ffffffffffffffffffffffffffffffffffffffff8381167fffffffffffffffffffffffff0000000000000000000000000000000000000000831681179093556040519116919082907f8be0079c531659141344cd1fd0a4f28419497f9722a3daafe3b4186f6b6457e090600090a35050565b600054610100900460ff16611535576040517f08c379a000000000000000000000000000000000000000000000000000000000815260206004820152602b60248201527f496e697469616c697a61626c653a20636f6e7472616374206973206e6f74206960448201527f6e697469616c697a696e670000000000000000000000000000000000000000006064820152608401610591565b6104ea33610b01565b60008151602061154e9190611be7565b67ffffffffffffffff811115611566576115666117b3565b6040519080825280601f01601f191660200182016040528015611590576020820181803683370190505b50826040516020016115a3929190611bfa565b6040516020818303038152906040528060200190518101906108459190611adf565b600082821015611601576040517fc7b8653900000000000000000000000000000000000000000000000000000000815260040160405180910390fd5b600061160d8484611be7565b905060006127108560c9546116229190611c29565b61162c9190611c40565b905080821115611668576040517fc7b8653900000000000000000000000000000000000000000000000000000000815260040160405180910390fd5b505092915050565b60006020828403121561168257600080fd5b813567ffffffffffffffff81111561169957600080fd5b820161010081850312156116ac57600080fd5b9392505050565b73ffffffffffffffffffffffffffffffffffffffff8116811461033e57600080fd5b80356116e0816116b3565b919050565b6000602082840312156116f757600080fd5b81356116ac816116b3565b60006020828403121561171457600080fd5b5035919050565b6000806040838503121561172e57600080fd5b8235611739816116b3565b946020939093013593505050565b60008083357fffffffffffffffffffffffffffffffffffffffffffffffffffffffffffffffe184360301811261177c57600080fd5b83018035915067ffffffffffffffff82111561179757600080fd5b6020019150368190038213156117ac57600080fd5b9250929050565b7f4e487b7100000000000000000000000000000000000000000000000000000000600052604160045260246000fd5b604051610100810167ffffffffffffffff81118282101715611806576118066117b3565b60405290565b600082601f83011261181d57600080fd5b813567ffffffffffffffff80821115611838576118386117b3565b604051601f83017fffffffffffffffffffffffffffffffffffffffffffffffffffffffffffffffe0908116603f0116810190828211818310171561187e5761187e6117b3565b8160405283815286602085880101111561189757600080fd5b836020870160208301376000602085830101528094505050505092915050565b600061010082360312156118ca57600080fd5b6118d26117e2565b82358152602083013567ffffffffffffffff808211156118f157600080fd5b6118fd3683870161180c565b6020840152604085013591508082111561191657600080fd5b6119223683870161180c565b6040840152606085013591508082111561193b57600080fd5b6119473683870161180c565b6060840152608085013591508082111561196057600080fd5b61196c3683870161180c565b608084015260a085013560a084015261198760c086016116d5565b60c084015260e08501359150808211156119a057600080fd5b506119ad3682860161180c565b60e08301525092915050565b60005b838110156119d45781810151838201526020016119bc565b50506000910152565b600081518084526119f58160208601602086016119b9565b601f017fffffffffffffffffffffffffffffffffffffffffffffffffffffffffffffffe0169290920160200192915050565b73ffffffffffffffffffffffffffffffffffffffff83168152604060208201526000611a5660408301846119dd565b949350505050565b600060208284031215611a7057600080fd5b815180151581146116ac57600080fd5b600073ffffffffffffffffffffffffffffffffffffffff808616835280851660208401525060606040830152611ab960608301846119dd565b95945050505050565b600060208284031215611ad457600080fd5b81516116ac816116b3565b600060208284031215611af157600080fd5b5051919050565b7f4e487b7100000000000000000000000000000000000000000000000000000000600052603260045260246000fd5b604080825283519082018190526000906020906060840190828701845b82811015611b7657815173ffffffffffffffffffffffffffffffffffffffff1684529284019290840190600101611b44565b5050508381038285015284518082528583019183019060005b81811015611bab57835183529284019291840191600101611b8f565b5090979650505050505050565b7f4e487b7100000000000000000000000000000000000000000000000000000000600052601160045260246000fd5b8181038181111561084557610845611bb8565b60008351611c0c8184602088016119b9565b835190830190611c208183602088016119b9565b01949350505050565b808202811582820484141761084557610845611bb8565b600082611c76577f4e487b7100000000000000000000000000000000000000000000000000000000600052601260045260246000fd5b50049056fea2646970667358221220a4b48b2f4d59d9b80a511a23a3973505bc6b88326cdc5fff4c82d3ebc0ba508a64736f6c63430008190033",
  "devdoc": {
    "author": "Venus",
    "custom:security-contact": "https://github.com/VenusProtocol/governance-contracts#discussion",
    "events": {
      "Initialized(uint8)": {
        "details": "Triggered when the contract has been initialized or reinitialized."
      }
    },
    "kind": "dev",
    "methods": {
      "acceptOwnership()": {
        "details": "The new owner accepts the ownership transfer."
      },
      "constructor": {
        "custom:oz-upgrades-unsafe-allow": "constructor"
      },
      "owner()": {
        "details": "Returns the address of the current owner."
      },
      "pendingOwner()": {
        "details": "Returns the address of the pending owner."
      },
      "renounceOwnership()": {
        "details": "Leaves the contract without owner. It will not be possible to call `onlyOwner` functions anymore. Can only be called by the current owner. NOTE: Renouncing ownership will leave the contract without an owner, thereby removing any functionality that is only available to the owner."
      },
      "setAccessControlManager(address)": {
        "custom:access": "Only Governance",
        "custom:event": "Emits NewAccessControlManager event",
        "details": "Admin function to set address of AccessControlManager",
        "params": {
          "accessControlManager_": "The new address of the AccessControlManager"
        }
      },
      "transferOwnership(address)": {
        "details": "Starts the ownership transfer of the contract to a new account. Replaces the pending transfer if there is one. Can only be called by the current owner."
      }
    },
    "title": "MarketCapsRiskSteward",
    "version": 1
  },
  "userdoc": {
    "errors": {
      "InvalidMaxIncreaseBps()": [
        {
          "notice": "Thrown when a maxIncreaseBps value of 0 is set"
        }
      ],
      "OnlyRiskStewardReceiver()": [
        {
          "notice": "Thrown when the update is not coming from the RiskStewardReceiver"
        }
      ],
      "Unauthorized(address,address,string)": [
        {
          "notice": "Thrown when the action is prohibited by AccessControlManager"
        }
      ],
      "UnsupportedUpdateType()": [
        {
          "notice": "Thrown when an updateType that is not supported is operated on"
        }
      ],
      "UpdateNotInRange()": [
        {
          "notice": "Thrown when the new value of an update is our of range"
        }
      ]
    },
    "events": {
      "BorrowCapUpdated(address,uint256)": {
        "notice": "Emitted when a borrow cap is updated"
      },
      "MaxIncreaseBpsUpdated(uint256,uint256)": {
        "notice": "Emitted when the max increase bps is updated"
      },
      "NewAccessControlManager(address,address)": {
        "notice": "Emitted when access control manager contract address is changed"
      },
      "SupplyCapUpdated(address,uint256)": {
        "notice": "Emitted when a supply cap is updated"
      }
    },
    "kind": "user",
    "methods": {
      "CORE_POOL_COMPTROLLER()": {
        "notice": "Address of the CorePool comptroller used for selecting the correct comptroller abi"
      },
      "RISK_STEWARD_RECEIVER()": {
        "notice": "Address of the RiskStewardReceiver used for to validate incoming updates"
      },
      "accessControlManager()": {
        "notice": "Returns the address of the access control manager contract"
      },
      "maxIncreaseBps()": {
        "notice": "The max increase bps for the update relative to the current value"
      },
      "processUpdate((uint256,bytes,string,bytes,string,uint256,address,bytes))": {
        "notice": "@param update"
      },
      "setAccessControlManager(address)": {
        "notice": "Sets the address of AccessControlManager"
      }
    },
    "notice": "Contract that can update supply and borrow caps received from RiskStewardReceiver",
    "version": 1
  },
  "storageLayout": {
    "storage": [
      {
        "astId": 244,
        "contract": "contracts/RiskSteward/MarketCapsRiskSteward.sol:MarketCapsRiskSteward",
        "label": "_initialized",
        "offset": 0,
        "slot": "0",
        "type": "t_uint8"
      },
      {
        "astId": 247,
        "contract": "contracts/RiskSteward/MarketCapsRiskSteward.sol:MarketCapsRiskSteward",
        "label": "_initializing",
        "offset": 1,
        "slot": "0",
        "type": "t_bool"
      },
      {
        "astId": 858,
        "contract": "contracts/RiskSteward/MarketCapsRiskSteward.sol:MarketCapsRiskSteward",
        "label": "__gap",
        "offset": 0,
        "slot": "1",
        "type": "t_array(t_uint256)50_storage"
      },
      {
        "astId": 116,
        "contract": "contracts/RiskSteward/MarketCapsRiskSteward.sol:MarketCapsRiskSteward",
        "label": "_owner",
        "offset": 0,
        "slot": "51",
        "type": "t_address"
      },
      {
        "astId": 236,
        "contract": "contracts/RiskSteward/MarketCapsRiskSteward.sol:MarketCapsRiskSteward",
        "label": "__gap",
        "offset": 0,
        "slot": "52",
        "type": "t_array(t_uint256)49_storage"
      },
      {
        "astId": 25,
        "contract": "contracts/RiskSteward/MarketCapsRiskSteward.sol:MarketCapsRiskSteward",
        "label": "_pendingOwner",
        "offset": 0,
        "slot": "101",
        "type": "t_address"
      },
      {
        "astId": 104,
        "contract": "contracts/RiskSteward/MarketCapsRiskSteward.sol:MarketCapsRiskSteward",
        "label": "__gap",
        "offset": 0,
        "slot": "102",
        "type": "t_array(t_uint256)49_storage"
      },
      {
        "astId": 2146,
        "contract": "contracts/RiskSteward/MarketCapsRiskSteward.sol:MarketCapsRiskSteward",
        "label": "_accessControlManager",
        "offset": 0,
        "slot": "151",
        "type": "t_contract(IAccessControlManagerV8)2331"
      },
      {
        "astId": 2151,
        "contract": "contracts/RiskSteward/MarketCapsRiskSteward.sol:MarketCapsRiskSteward",
        "label": "__gap",
        "offset": 0,
        "slot": "152",
        "type": "t_array(t_uint256)49_storage"
      },
      {
        "astId": 2454,
        "contract": "contracts/RiskSteward/MarketCapsRiskSteward.sol:MarketCapsRiskSteward",
        "label": "maxIncreaseBps",
        "offset": 0,
        "slot": "201",
        "type": "t_uint256"
      }
    ],
    "types": {
      "t_address": {
        "encoding": "inplace",
        "label": "address",
        "numberOfBytes": "20"
      },
      "t_array(t_uint256)49_storage": {
        "base": "t_uint256",
        "encoding": "inplace",
        "label": "uint256[49]",
        "numberOfBytes": "1568"
      },
      "t_array(t_uint256)50_storage": {
        "base": "t_uint256",
        "encoding": "inplace",
        "label": "uint256[50]",
        "numberOfBytes": "1600"
      },
      "t_bool": {
        "encoding": "inplace",
        "label": "bool",
        "numberOfBytes": "1"
      },
      "t_contract(IAccessControlManagerV8)2331": {
        "encoding": "inplace",
        "label": "contract IAccessControlManagerV8",
        "numberOfBytes": "20"
      },
      "t_uint256": {
        "encoding": "inplace",
        "label": "uint256",
        "numberOfBytes": "32"
      },
      "t_uint8": {
        "encoding": "inplace",
        "label": "uint8",
        "numberOfBytes": "1"
      }
    }
  }
}