{
  "address": "0x4170a44bCa56A8152E0De45Dfe871bf018dcF815",
  "abi": [
    {
      "inputs": [
        {
          "internalType": "address",
          "name": "corePoolComptroller_",
          "type": "address"
        },
        {
          "internalType": "address",
          "name": "riskStewardReceiver_",
          "type": "address"
        }
      ],
      "stateMutability": "nonpayable",
      "type": "constructor"
    },
    {
      "inputs": [],
      "name": "InvalidMaxDeltaBps",
      "type": "error"
    },
    {
      "inputs": [],
      "name": "OnlyRiskStewardReceiver",
      "type": "error"
    },
    {
      "inputs": [
        {
          "internalType": "address",
          "name": "sender",
          "type": "address"
        },
        {
          "internalType": "address",
          "name": "calledContract",
          "type": "address"
        },
        {
          "internalType": "string",
          "name": "methodSignature",
          "type": "string"
        }
      ],
      "name": "Unauthorized",
      "type": "error"
    },
    {
      "inputs": [],
      "name": "UnsupportedUpdateType",
      "type": "error"
    },
    {
      "inputs": [],
      "name": "UpdateNotInRange",
      "type": "error"
    },
    {
      "inputs": [],
      "name": "ZeroAddressNotAllowed",
      "type": "error"
    },
    {
      "anonymous": false,
      "inputs": [
        {
          "indexed": true,
          "internalType": "address",
          "name": "market",
          "type": "address"
        },
        {
          "indexed": true,
          "internalType": "uint256",
          "name": "newBorrowCap",
          "type": "uint256"
        }
      ],
      "name": "BorrowCapUpdated",
      "type": "event"
    },
    {
      "anonymous": false,
      "inputs": [
        {
          "indexed": false,
          "internalType": "uint8",
          "name": "version",
          "type": "uint8"
        }
      ],
      "name": "Initialized",
      "type": "event"
    },
    {
      "anonymous": false,
      "inputs": [
        {
          "indexed": false,
          "internalType": "uint256",
          "name": "oldMaxDeltaBps",
          "type": "uint256"
        },
        {
          "indexed": true,
          "internalType": "uint256",
          "name": "newMaxDeltaBps",
          "type": "uint256"
        }
      ],
      "name": "MaxDeltaBpsUpdated",
      "type": "event"
    },
    {
      "anonymous": false,
      "inputs": [
        {
          "indexed": false,
          "internalType": "address",
          "name": "oldAccessControlManager",
          "type": "address"
        },
        {
          "indexed": false,
          "internalType": "address",
          "name": "newAccessControlManager",
          "type": "address"
        }
      ],
      "name": "NewAccessControlManager",
      "type": "event"
    },
    {
      "anonymous": false,
      "inputs": [
        {
          "indexed": true,
          "internalType": "address",
          "name": "previousOwner",
          "type": "address"
        },
        {
          "indexed": true,
          "internalType": "address",
          "name": "newOwner",
          "type": "address"
        }
      ],
      "name": "OwnershipTransferStarted",
      "type": "event"
    },
    {
      "anonymous": false,
      "inputs": [
        {
          "indexed": true,
          "internalType": "address",
          "name": "previousOwner",
          "type": "address"
        },
        {
          "indexed": true,
          "internalType": "address",
          "name": "newOwner",
          "type": "address"
        }
      ],
      "name": "OwnershipTransferred",
      "type": "event"
    },
    {
      "anonymous": false,
      "inputs": [
        {
          "indexed": true,
          "internalType": "address",
          "name": "market",
          "type": "address"
        },
        {
          "indexed": true,
          "internalType": "uint256",
          "name": "newSupplyCap",
          "type": "uint256"
        }
      ],
      "name": "SupplyCapUpdated",
      "type": "event"
    },
    {
      "inputs": [],
      "name": "BORROW_CAP",
      "outputs": [
        {
          "internalType": "string",
          "name": "",
          "type": "string"
        }
      ],
      "stateMutability": "view",
      "type": "function"
    },
    {
      "inputs": [],
      "name": "CORE_POOL_COMPTROLLER",
      "outputs": [
        {
          "internalType": "contract ICorePoolComptroller",
          "name": "",
          "type": "address"
        }
      ],
      "stateMutability": "view",
      "type": "function"
    },
    {
      "inputs": [],
      "name": "RISK_STEWARD_RECEIVER",
      "outputs": [
        {
          "internalType": "contract IRiskStewardReceiver",
          "name": "",
          "type": "address"
        }
      ],
      "stateMutability": "view",
      "type": "function"
    },
    {
      "inputs": [],
      "name": "SUPPLY_CAP",
      "outputs": [
        {
          "internalType": "string",
          "name": "",
          "type": "string"
        }
      ],
      "stateMutability": "view",
      "type": "function"
    },
    {
      "inputs": [],
      "name": "acceptOwnership",
      "outputs": [],
      "stateMutability": "nonpayable",
      "type": "function"
    },
    {
      "inputs": [],
      "name": "accessControlManager",
      "outputs": [
        {
          "internalType": "contract IAccessControlManagerV8",
          "name": "",
          "type": "address"
        }
      ],
      "stateMutability": "view",
      "type": "function"
    },
    {
      "inputs": [
        {
          "internalType": "address",
          "name": "accessControlManager_",
          "type": "address"
        },
        {
          "internalType": "uint256",
          "name": "maxDeltaBps_",
          "type": "uint256"
        }
      ],
      "name": "initialize",
      "outputs": [],
      "stateMutability": "nonpayable",
      "type": "function"
    },
    {
      "inputs": [],
      "name": "maxDeltaBps",
      "outputs": [
        {
          "internalType": "uint256",
          "name": "",
          "type": "uint256"
        }
      ],
      "stateMutability": "view",
      "type": "function"
    },
    {
      "inputs": [],
      "name": "owner",
      "outputs": [
        {
          "internalType": "address",
          "name": "",
          "type": "address"
        }
      ],
      "stateMutability": "view",
      "type": "function"
    },
    {
      "inputs": [],
      "name": "pendingOwner",
      "outputs": [
        {
          "internalType": "address",
          "name": "",
          "type": "address"
        }
      ],
      "stateMutability": "view",
      "type": "function"
    },
    {
      "inputs": [
        {
          "components": [
            {
              "internalType": "uint256",
              "name": "timestamp",
              "type": "uint256"
            },
            {
              "internalType": "bytes",
              "name": "newValue",
              "type": "bytes"
            },
            {
              "internalType": "string",
              "name": "referenceId",
              "type": "string"
            },
            {
              "internalType": "bytes",
              "name": "previousValue",
              "type": "bytes"
            },
            {
              "internalType": "string",
              "name": "updateType",
              "type": "string"
            },
            {
              "internalType": "uint256",
              "name": "updateId",
              "type": "uint256"
            },
            {
              "internalType": "address",
              "name": "market",
              "type": "address"
            },
            {
              "internalType": "bytes",
              "name": "additionalData",
              "type": "bytes"
            }
          ],
          "internalType": "struct RiskParameterUpdate",
          "name": "update",
          "type": "tuple"
        }
      ],
      "name": "processUpdate",
      "outputs": [],
      "stateMutability": "nonpayable",
      "type": "function"
    },
    {
      "inputs": [],
      "name": "renounceOwnership",
      "outputs": [],
      "stateMutability": "nonpayable",
      "type": "function"
    },
    {
      "inputs": [
        {
          "internalType": "address",
          "name": "accessControlManager_",
          "type": "address"
        }
      ],
      "name": "setAccessControlManager",
      "outputs": [],
      "stateMutability": "nonpayable",
      "type": "function"
    },
    {
      "inputs": [
        {
          "internalType": "uint256",
          "name": "maxDeltaBps_",
          "type": "uint256"
        }
      ],
      "name": "setMaxDeltaBps",
      "outputs": [],
      "stateMutability": "nonpayable",
      "type": "function"
    },
    {
      "inputs": [
        {
          "internalType": "address",
          "name": "newOwner",
          "type": "address"
        }
      ],
      "name": "transferOwnership",
      "outputs": [],
      "stateMutability": "nonpayable",
      "type": "function"
    }
  ],
  "transactionHash": "0xbb5102fbdf8ee8d7c56cabea78ecdbd5ed4b1602e2ccb6604a48e84112ab4ce6",
  "args": [
    "0x94d1820b2D1c7c7452A163983Dc888CEC546b77D",
    "0x31DEb4D1326838522697f7a012992f0824d80f2b"
  ],
  "numDeployments": 1,
  "solcInputHash": "b9442ed5e7a021705374d7a83eea8b56",
  "bytecode": "0x60c060405234801561001057600080fd5b5060405161203f38038061203f83398101604081905261002f91610168565b61003882610063565b61004181610063565b6001600160a01b03808316608052811660a05261005c61008d565b505061019b565b6001600160a01b03811661008a576040516342bcdf7f60e11b815260040160405180910390fd5b50565b600054610100900460ff16156100f95760405162461bcd60e51b815260206004820152602760248201527f496e697469616c697a61626c653a20636f6e747261637420697320696e697469604482015266616c697a696e6760c81b606482015260840160405180910390fd5b60005460ff9081161461014a576000805460ff191660ff9081179091556040519081527f7f26b83ff96e1f2b6a682f133852f6798a09c465da95921460cefb38474024989060200160405180910390a15b565b80516001600160a01b038116811461016357600080fd5b919050565b6000806040838503121561017b57600080fd5b6101848361014c565b91506101926020840161014c565b90509250929050565b60805160a051611e6a6101d56000396000818161021b01526102f10152600081816102b701528181610fda01526113840152611e6a6000f3fe608060405234801561001057600080fd5b50600436106100f55760003560e01c80638da5cb5b11610097578063d629278b11610066578063d629278b1461026e578063e30c397814610281578063f2fde38b1461029f578063fa7b81a0146102b257600080fd5b80638da5cb5b146101d7578063b296e6cb14610216578063b4a0bdf31461023d578063cd6dc6871461025b57600080fd5b80635a4eacd4116100d35780635a4eacd414610174578063715018a61461018b578063779071911461019357806379ba5097146101cf57600080fd5b806304a6fcd6146100fa5780630cfccc831461010f5780630e32cb8614610161575b600080fd5b61010d610108366004611816565b6102d9565b005b61014b6040518060400160405280600981526020017f737570706c79436170000000000000000000000000000000000000000000000081525081565b60405161015891906118c7565b60405180910390f35b61010d61016f36600461190c565b6104a7565b61017d60c95481565b604051908152602001610158565b61010d6104b8565b61014b6040518060400160405280600981526020017f626f72726f77436170000000000000000000000000000000000000000000000081525081565b61010d610545565b60335473ffffffffffffffffffffffffffffffffffffffff165b60405173ffffffffffffffffffffffffffffffffffffffff9091168152602001610158565b6101f17f000000000000000000000000000000000000000000000000000000000000000081565b60975473ffffffffffffffffffffffffffffffffffffffff166101f1565b61010d610269366004611929565b6105f7565b61010d61027c366004611955565b6107d6565b60655473ffffffffffffffffffffffffffffffffffffffff166101f1565b61010d6102ad36600461190c565b61089a565b6101f17f000000000000000000000000000000000000000000000000000000000000000081565b3373ffffffffffffffffffffffffffffffffffffffff7f00000000000000000000000000000000000000000000000000000000000000001614610348576040517f3a739dd700000000000000000000000000000000000000000000000000000000815260040160405180910390fd5b6103c7610358608083018361196e565b8080601f0160208091040260200160405190810160405280939291908181526020018383808284376000920191909152505060408051808201909152600981527f737570706c7943617000000000000000000000000000000000000000000000006020820152915061094a9050565b156103e0576103dd6103d882611ade565b610966565b50565b61045f6103f0608083018361196e565b8080601f0160208091040260200160405190810160405280939291908181526020018383808284376000920191909152505060408051808201909152600981527f626f72726f7743617000000000000000000000000000000000000000000000006020820152915061094a9050565b15610475576103dd61047082611ade565b610997565b6040517f80919d7b00000000000000000000000000000000000000000000000000000000815260040160405180910390fd5b6104af6109c4565b6103dd81610a47565b6040517f08c379a000000000000000000000000000000000000000000000000000000000815260206004820152602260248201527f72656e6f756e63654f776e6572736869702829206973206e6f7420616c6c6f7760448201527f656400000000000000000000000000000000000000000000000000000000000060648201526084015b60405180910390fd5b606554339073ffffffffffffffffffffffffffffffffffffffff1681146105ee576040517f08c379a000000000000000000000000000000000000000000000000000000000815260206004820152602960248201527f4f776e61626c6532537465703a2063616c6c6572206973206e6f74207468652060448201527f6e6577206f776e65720000000000000000000000000000000000000000000000606482015260840161053c565b6103dd81610b70565b600054610100900460ff16158080156106175750600054600160ff909116105b806106315750303b158015610631575060005460ff166001145b6106bd576040517f08c379a000000000000000000000000000000000000000000000000000000000815260206004820152602e60248201527f496e697469616c697a61626c653a20636f6e747261637420697320616c72656160448201527f647920696e697469616c697a6564000000000000000000000000000000000000606482015260840161053c565b600080547fffffffffffffffffffffffffffffffffffffffffffffffffffffffffffffff00166001179055801561071b57600080547fffffffffffffffffffffffffffffffffffffffffffffffffffffffffffff00ff166101001790555b61072483610ba1565b811580610732575061271082115b15610769576040517f139b868800000000000000000000000000000000000000000000000000000000815260040160405180910390fd5b60c982905580156107d157600080547fffffffffffffffffffffffffffffffffffffffffffffffffffffffffffff00ff169055604051600181527f7f26b83ff96e1f2b6a682f133852f6798a09c465da95921460cefb38474024989060200160405180910390a15b505050565b6108146040518060400160405280601781526020017f7365744d617844656c74614270732875696e7432353629000000000000000000815250610c49565b801580610822575061271081115b15610859576040517f139b868800000000000000000000000000000000000000000000000000000000815260040160405180910390fd5b807fa36c921fb7a252977887d638b57c681dbc040d4646e7aa01e3a64cd12ee2893b60c95460405161088d91815260200190565b60405180910390a260c955565b6108a26109c4565b6065805473ffffffffffffffffffffffffffffffffffffffff83167fffffffffffffffffffffffff0000000000000000000000000000000000000000909116811790915561090560335473ffffffffffffffffffffffffffffffffffffffff1690565b73ffffffffffffffffffffffffffffffffffffffff167f38d16b8cac22d99fc7c124b9cd0de2d3fa1faef420bfe791d8c362d765e2270060405160405180910390a350565b6000818051906020012083805190602001201490505b92915050565b60006109758260200151610d22565b90506109858260c0015182610da9565b6109938260c0015182610ec3565b5050565b60006109a68260200151610d22565b90506109b68260c00151826111a2565b6109938260c001518261126d565b60335473ffffffffffffffffffffffffffffffffffffffff163314610a45576040517f08c379a000000000000000000000000000000000000000000000000000000000815260206004820181905260248201527f4f776e61626c653a2063616c6c6572206973206e6f7420746865206f776e6572604482015260640161053c565b565b73ffffffffffffffffffffffffffffffffffffffff8116610aea576040517f08c379a000000000000000000000000000000000000000000000000000000000815260206004820152602560248201527f696e76616c696420616365737320636f6e74726f6c206d616e6167657220616460448201527f6472657373000000000000000000000000000000000000000000000000000000606482015260840161053c565b6097805473ffffffffffffffffffffffffffffffffffffffff8381167fffffffffffffffffffffffff000000000000000000000000000000000000000083168117909355604080519190921680825260208201939093527f66fd58e82f7b31a2a5c30e0888f3093efe4e111b00cd2b0c31fe014601293aa0910160405180910390a15050565b606580547fffffffffffffffffffffffff00000000000000000000000000000000000000001690556103dd8161154c565b600054610100900460ff16610c38576040517f08c379a000000000000000000000000000000000000000000000000000000000815260206004820152602b60248201527f496e697469616c697a61626c653a20636f6e7472616374206973206e6f74206960448201527f6e697469616c697a696e67000000000000000000000000000000000000000000606482015260840161053c565b610c406115c3565b6103dd81611662565b6097546040517f18c5e8ab00000000000000000000000000000000000000000000000000000000815260009173ffffffffffffffffffffffffffffffffffffffff16906318c5e8ab90610ca29033908690600401611be0565b602060405180830381865afa158015610cbf573d6000803e3d6000fd5b505050506040513d601f19601f82011682018060405250810190610ce39190611c17565b905080610993573330836040517f4a3fa29300000000000000000000000000000000000000000000000000000000815260040161053c93929190611c39565b600081516020610d329190611caa565b67ffffffffffffffff811115610d4a57610d4a6119da565b6040519080825280601f01601f191660200182016040528015610d74576020820181803683370190505b5082604051602001610d87929190611cbd565b6040516020818303038152906040528060200190518101906109609190611cec565b60008273ffffffffffffffffffffffffffffffffffffffff16635fe3b5676040518163ffffffff1660e01b8152600401602060405180830381865afa158015610df6573d6000803e3d6000fd5b505050506040513d601f19601f82011682018060405250810190610e1a9190611d05565b6040517f02c3bcbb00000000000000000000000000000000000000000000000000000000815273ffffffffffffffffffffffffffffffffffffffff85811660048301529192506000918316906302c3bcbb906024015b602060405180830381865afa158015610e8d573d6000803e3d6000fd5b505050506040513d601f19601f82011682018060405250810190610eb19190611cec565b9050610ebd81846116f9565b50505050565b60008273ffffffffffffffffffffffffffffffffffffffff16635fe3b5676040518163ffffffff1660e01b8152600401602060405180830381865afa158015610f10573d6000803e3d6000fd5b505050506040513d601f19601f82011682018060405250810190610f349190611d05565b60408051600180825281830190925291925060009190602080830190803683370190505090508381600081518110610f6e57610f6e611d22565b73ffffffffffffffffffffffffffffffffffffffff92909216602092830291909101909101526040805160018082528183019092526000918160200160208202803683370190505090508381600081518110610fcc57610fcc611d22565b6020026020010181815250507f000000000000000000000000000000000000000000000000000000000000000073ffffffffffffffffffffffffffffffffffffffff168373ffffffffffffffffffffffffffffffffffffffff16036110b6576040517f51a485e400000000000000000000000000000000000000000000000000000000815273ffffffffffffffffffffffffffffffffffffffff8416906351a485e49061107f9085908590600401611d51565b600060405180830381600087803b15801561109957600080fd5b505af11580156110ad573d6000803e3d6000fd5b5050505061113d565b6040517fd136af4400000000000000000000000000000000000000000000000000000000815273ffffffffffffffffffffffffffffffffffffffff84169063d136af449061110a9085908590600401611d51565b600060405180830381600087803b15801561112457600080fd5b505af1158015611138573d6000803e3d6000fd5b505050505b8060008151811061115057611150611d22565b60200260200101518573ffffffffffffffffffffffffffffffffffffffff167f638a463c59949a284e093291dedfbadcb32ebf9007e649767344e67346ab882960405160405180910390a35050505050565b60008273ffffffffffffffffffffffffffffffffffffffff16635fe3b5676040518163ffffffff1660e01b8152600401602060405180830381865afa1580156111ef573d6000803e3d6000fd5b505050506040513d601f19601f820116820180604052508101906112139190611d05565b6040517f4a58443200000000000000000000000000000000000000000000000000000000815273ffffffffffffffffffffffffffffffffffffffff8581166004830152919250600091831690634a58443290602401610e70565b60008273ffffffffffffffffffffffffffffffffffffffff16635fe3b5676040518163ffffffff1660e01b8152600401602060405180830381865afa1580156112ba573d6000803e3d6000fd5b505050506040513d601f19601f820116820180604052508101906112de9190611d05565b6040805160018082528183019092529192506000919060208083019080368337019050509050838160008151811061131857611318611d22565b73ffffffffffffffffffffffffffffffffffffffff9290921660209283029190910190910152604080516001808252818301909252600091816020016020820280368337019050509050838160008151811061137657611376611d22565b6020026020010181815250507f000000000000000000000000000000000000000000000000000000000000000073ffffffffffffffffffffffffffffffffffffffff168373ffffffffffffffffffffffffffffffffffffffff1603611460576040517f607ef6c100000000000000000000000000000000000000000000000000000000815273ffffffffffffffffffffffffffffffffffffffff84169063607ef6c1906114299085908590600401611d51565b600060405180830381600087803b15801561144357600080fd5b505af1158015611457573d6000803e3d6000fd5b505050506114e7565b6040517f186db48f00000000000000000000000000000000000000000000000000000000815273ffffffffffffffffffffffffffffffffffffffff84169063186db48f906114b49085908590600401611d51565b600060405180830381600087803b1580156114ce57600080fd5b505af11580156114e2573d6000803e3d6000fd5b505050505b806000815181106114fa576114fa611d22565b60200260200101518573ffffffffffffffffffffffffffffffffffffffff167f84d2db42497fc6f1882756be420935d982025ad8a2a903dfb83638a09e49a77560405160405180910390a35050505050565b6033805473ffffffffffffffffffffffffffffffffffffffff8381167fffffffffffffffffffffffff0000000000000000000000000000000000000000831681179093556040519116919082907f8be0079c531659141344cd1fd0a4f28419497f9722a3daafe3b4186f6b6457e090600090a35050565b600054610100900460ff1661165a576040517f08c379a000000000000000000000000000000000000000000000000000000000815260206004820152602b60248201527f496e697469616c697a61626c653a20636f6e7472616374206973206e6f74206960448201527f6e697469616c697a696e67000000000000000000000000000000000000000000606482015260840161053c565b610a45611776565b600054610100900460ff166104af576040517f08c379a000000000000000000000000000000000000000000000000000000000815260206004820152602b60248201527f496e697469616c697a61626c653a20636f6e7472616374206973206e6f74206960448201527f6e697469616c697a696e67000000000000000000000000000000000000000000606482015260840161053c565b60008282116117115761170c8284611caa565b61171b565b61171b8383611caa565b905060006127108460c9546117309190611de2565b61173a9190611df9565b905080821115610ebd576040517fc7b8653900000000000000000000000000000000000000000000000000000000815260040160405180910390fd5b600054610100900460ff1661180d576040517f08c379a000000000000000000000000000000000000000000000000000000000815260206004820152602b60248201527f496e697469616c697a61626c653a20636f6e7472616374206973206e6f74206960448201527f6e697469616c697a696e67000000000000000000000000000000000000000000606482015260840161053c565b610a4533610b70565b60006020828403121561182857600080fd5b813567ffffffffffffffff81111561183f57600080fd5b8201610100818503121561185257600080fd5b9392505050565b60005b8381101561187457818101518382015260200161185c565b50506000910152565b60008151808452611895816020860160208601611859565b601f017fffffffffffffffffffffffffffffffffffffffffffffffffffffffffffffffe0169290920160200192915050565b602081526000611852602083018461187d565b73ffffffffffffffffffffffffffffffffffffffff811681146103dd57600080fd5b8035611907816118da565b919050565b60006020828403121561191e57600080fd5b8135611852816118da565b6000806040838503121561193c57600080fd5b8235611947816118da565b946020939093013593505050565b60006020828403121561196757600080fd5b5035919050565b60008083357fffffffffffffffffffffffffffffffffffffffffffffffffffffffffffffffe18436030181126119a357600080fd5b83018035915067ffffffffffffffff8211156119be57600080fd5b6020019150368190038213156119d357600080fd5b9250929050565b7f4e487b7100000000000000000000000000000000000000000000000000000000600052604160045260246000fd5b604051610100810167ffffffffffffffff81118282101715611a2d57611a2d6119da565b60405290565b600082601f830112611a4457600080fd5b813567ffffffffffffffff80821115611a5f57611a5f6119da565b604051601f83017fffffffffffffffffffffffffffffffffffffffffffffffffffffffffffffffe0908116603f01168101908282118183101715611aa557611aa56119da565b81604052838152866020858801011115611abe57600080fd5b836020870160208301376000602085830101528094505050505092915050565b60006101008236031215611af157600080fd5b611af9611a09565b82358152602083013567ffffffffffffffff80821115611b1857600080fd5b611b2436838701611a33565b60208401526040850135915080821115611b3d57600080fd5b611b4936838701611a33565b60408401526060850135915080821115611b6257600080fd5b611b6e36838701611a33565b60608401526080850135915080821115611b8757600080fd5b611b9336838701611a33565b608084015260a085013560a0840152611bae60c086016118fc565b60c084015260e0850135915080821115611bc757600080fd5b50611bd436828601611a33565b60e08301525092915050565b73ffffffffffffffffffffffffffffffffffffffff83168152604060208201526000611c0f604083018461187d565b949350505050565b600060208284031215611c2957600080fd5b8151801515811461185257600080fd5b600073ffffffffffffffffffffffffffffffffffffffff808616835280851660208401525060606040830152611c72606083018461187d565b95945050505050565b7f4e487b7100000000000000000000000000000000000000000000000000000000600052601160045260246000fd5b8181038181111561096057610960611c7b565b60008351611ccf818460208801611859565b835190830190611ce3818360208801611859565b01949350505050565b600060208284031215611cfe57600080fd5b5051919050565b600060208284031215611d1757600080fd5b8151611852816118da565b7f4e487b7100000000000000000000000000000000000000000000000000000000600052603260045260246000fd5b604080825283519082018190526000906020906060840190828701845b82811015611da057815173ffffffffffffffffffffffffffffffffffffffff1684529284019290840190600101611d6e565b5050508381038285015284518082528583019183019060005b81811015611dd557835183529284019291840191600101611db9565b5090979650505050505050565b808202811582820484141761096057610960611c7b565b600082611e2f577f4e487b7100000000000000000000000000000000000000000000000000000000600052601260045260246000fd5b50049056fea2646970667358221220455e0cb233cc793026c52bea8b71760db0a1425cd0d5f2e435bb31a298246eb864736f6c63430008190033",
  "devdoc": {
    "author": "Venus",
    "custom:security-contact": "https://github.com/VenusProtocol/governance-contracts#discussion",
    "events": {
      "Initialized(uint8)": {
        "details": "Triggered when the contract has been initialized or reinitialized."
      }
    },
    "kind": "dev",
    "methods": {
      "acceptOwnership()": {
        "details": "The new owner accepts the ownership transfer."
      },
      "constructor": {
        "custom:error": "Throws ZeroAddressNotAllowed if the CorePoolComptroller or RiskStewardReceiver addresses are zero",
        "custom:oz-upgrades-unsafe-allow": "constructor",
        "details": "Sets the immutable CorePoolComptroller and RiskStewardReceiver addresses and disables initializers",
        "params": {
          "corePoolComptroller_": "The address of the CorePoolComptroller",
          "riskStewardReceiver_": "The address of the RiskStewardReceiver"
        }
      },
      "initialize(address,uint256)": {
        "custom:error": "Throws InvalidMaxDeltaBps if the max delta bps is 0 or greater than MAX_BPS",
        "details": "Initializes the contract as ownable, access controlled, and pausable. Sets the max delta bps initial value.",
        "params": {
          "accessControlManager_": "The address of the access control manager",
          "maxDeltaBps_": "The max detla bps"
        }
      },
      "owner()": {
        "details": "Returns the address of the current owner."
      },
      "pendingOwner()": {
        "details": "Returns the address of the pending owner."
      },
      "processUpdate((uint256,bytes,string,bytes,string,uint256,address,bytes))": {
        "custom:access": "Only callable by the RiskStewardReceiver",
        "custom:error": "OnlyRiskStewardReceiver Thrown if the sender is not the RiskStewardReceiverUnsupportedUpdateType Thrown if the update type is not supportedUpdateNotInRange Thrown if the update is not within the allowed range",
        "custom:event": "Emits SupplyCapUpdated or BorrowCapUpdated depending on the update with the market and new cap",
        "params": {
          "update": "RiskParameterUpdate update to process."
        }
      },
      "renounceOwnership()": {
        "details": "Disabling renounceOwnership function."
      },
      "setAccessControlManager(address)": {
        "custom:access": "Only Governance",
        "custom:event": "Emits NewAccessControlManager event",
        "details": "Admin function to set address of AccessControlManager",
        "params": {
          "accessControlManager_": "The new address of the AccessControlManager"
        }
      },
      "setMaxDeltaBps(uint256)": {
        "custom:access": "Controlled by AccessControlManager",
        "custom:error": "InvalidMaxDeltaBps if the max delta bps is 0 or greater than MAX_BPS",
        "custom:event": "Emits MaxDeltaBpsUpdated with the old and new max delta bps",
        "params": {
          "maxDeltaBps_": "The new max delta bps"
        }
      },
      "transferOwnership(address)": {
        "details": "Starts the ownership transfer of the contract to a new account. Replaces the pending transfer if there is one. Can only be called by the current owner."
      }
    },
    "stateVariables": {
      "MAX_BPS": {
        "details": "Max basis points i.e., 100%"
      },
      "__gap": {
        "details": "This empty reserved space is put in place to allow future versions to add new variables without shifting down storage in the inheritance chain. See https://docs.openzeppelin.com/contracts/4.x/upgradeable#storage_gaps"
      }
    },
    "title": "MarketCapsRiskSteward",
    "version": 1
  },
  "userdoc": {
    "errors": {
      "InvalidMaxDeltaBps()": [
        {
          "notice": "Thrown when a maxDeltaBps value of 0 is set"
        }
      ],
      "OnlyRiskStewardReceiver()": [
        {
          "notice": "Thrown when the update is not coming from the RiskStewardReceiver"
        }
      ],
      "Unauthorized(address,address,string)": [
        {
          "notice": "Thrown when the action is prohibited by AccessControlManager"
        }
      ],
      "UnsupportedUpdateType()": [
        {
          "notice": "Thrown when an update type that is not supported is operated on"
        }
      ],
      "UpdateNotInRange()": [
        {
          "notice": "Thrown when the new value of an update is out of range"
        }
      ],
      "ZeroAddressNotAllowed()": [
        {
          "notice": "Thrown if the supplied address is a zero address where it is not allowed"
        }
      ]
    },
    "events": {
      "BorrowCapUpdated(address,uint256)": {
        "notice": "Emitted when a borrow cap is updated"
      },
      "MaxDeltaBpsUpdated(uint256,uint256)": {
        "notice": "Emitted when the max delta bps is updated"
      },
      "NewAccessControlManager(address,address)": {
        "notice": "Emitted when access control manager contract address is changed"
      },
      "SupplyCapUpdated(address,uint256)": {
        "notice": "Emitted when a supply cap is updated"
      }
    },
    "kind": "user",
    "methods": {
      "BORROW_CAP()": {
        "notice": "The update type for borrow caps"
      },
      "CORE_POOL_COMPTROLLER()": {
        "notice": "Address of the CorePoolComptroller used for selecting the correct comptroller abi"
      },
      "RISK_STEWARD_RECEIVER()": {
        "notice": "Address of the RiskStewardReceiver used to validate incoming updates"
      },
      "SUPPLY_CAP()": {
        "notice": "The update type for supply caps"
      },
      "accessControlManager()": {
        "notice": "Returns the address of the access control manager contract"
      },
      "maxDeltaBps()": {
        "notice": "The max delta bps for the update relative to the current value"
      },
      "processUpdate((uint256,bytes,string,bytes,string,uint256,address,bytes))": {
        "notice": "Processes a market cap update from the RiskStewardReceiver. Validates that the update is within range and then directly update the market supply or borrow cap on the market's comptroller."
      },
      "setAccessControlManager(address)": {
        "notice": "Sets the address of AccessControlManager"
      },
      "setMaxDeltaBps(uint256)": {
        "notice": "Sets the max delta bps"
      }
    },
    "notice": "Contract that can update supply and borrow caps received from RiskStewardReceiver. Requires that the update is within the max delta. Expects the new value to be an encoded uint256 value of un padded bytes.",
    "version": 1
  },
  "storageLayout": {
    "storage": [
      {
        "astId": 3192,
        "contract": "contracts/RiskSteward/MarketCapsRiskSteward.sol:MarketCapsRiskSteward",
        "label": "_initialized",
        "offset": 0,
        "slot": "0",
        "type": "t_uint8"
      },
      {
        "astId": 3195,
        "contract": "contracts/RiskSteward/MarketCapsRiskSteward.sol:MarketCapsRiskSteward",
        "label": "_initializing",
        "offset": 1,
        "slot": "0",
        "type": "t_bool"
      },
      {
        "astId": 3862,
        "contract": "contracts/RiskSteward/MarketCapsRiskSteward.sol:MarketCapsRiskSteward",
        "label": "__gap",
        "offset": 0,
        "slot": "1",
        "type": "t_array(t_uint256)50_storage"
      },
      {
        "astId": 3064,
        "contract": "contracts/RiskSteward/MarketCapsRiskSteward.sol:MarketCapsRiskSteward",
        "label": "_owner",
        "offset": 0,
        "slot": "51",
        "type": "t_address"
      },
      {
        "astId": 3184,
        "contract": "contracts/RiskSteward/MarketCapsRiskSteward.sol:MarketCapsRiskSteward",
        "label": "__gap",
        "offset": 0,
        "slot": "52",
        "type": "t_array(t_uint256)49_storage"
      },
      {
        "astId": 2957,
        "contract": "contracts/RiskSteward/MarketCapsRiskSteward.sol:MarketCapsRiskSteward",
        "label": "_pendingOwner",
        "offset": 0,
        "slot": "101",
        "type": "t_address"
      },
      {
        "astId": 3051,
        "contract": "contracts/RiskSteward/MarketCapsRiskSteward.sol:MarketCapsRiskSteward",
        "label": "__gap",
        "offset": 0,
        "slot": "102",
        "type": "t_array(t_uint256)49_storage"
      },
      {
        "astId": 8569,
        "contract": "contracts/RiskSteward/MarketCapsRiskSteward.sol:MarketCapsRiskSteward",
        "label": "_accessControlManager",
        "offset": 0,
        "slot": "151",
        "type": "t_contract(IAccessControlManagerV8)8754"
      },
      {
        "astId": 8574,
        "contract": "contracts/RiskSteward/MarketCapsRiskSteward.sol:MarketCapsRiskSteward",
        "label": "__gap",
        "offset": 0,
        "slot": "152",
        "type": "t_array(t_uint256)49_storage"
      },
      {
        "astId": 9404,
        "contract": "contracts/RiskSteward/MarketCapsRiskSteward.sol:MarketCapsRiskSteward",
        "label": "maxDeltaBps",
        "offset": 0,
        "slot": "201",
        "type": "t_uint256"
      },
      {
        "astId": 9425,
        "contract": "contracts/RiskSteward/MarketCapsRiskSteward.sol:MarketCapsRiskSteward",
        "label": "__gap",
        "offset": 0,
        "slot": "202",
        "type": "t_array(t_uint256)49_storage"
      }
    ],
    "types": {
      "t_address": {
        "encoding": "inplace",
        "label": "address",
        "numberOfBytes": "20"
      },
      "t_array(t_uint256)49_storage": {
        "base": "t_uint256",
        "encoding": "inplace",
        "label": "uint256[49]",
        "numberOfBytes": "1568"
      },
      "t_array(t_uint256)50_storage": {
        "base": "t_uint256",
        "encoding": "inplace",
        "label": "uint256[50]",
        "numberOfBytes": "1600"
      },
      "t_bool": {
        "encoding": "inplace",
        "label": "bool",
        "numberOfBytes": "1"
      },
      "t_contract(IAccessControlManagerV8)8754": {
        "encoding": "inplace",
        "label": "contract IAccessControlManagerV8",
        "numberOfBytes": "20"
      },
      "t_uint256": {
        "encoding": "inplace",
        "label": "uint256",
        "numberOfBytes": "32"
      },
      "t_uint8": {
        "encoding": "inplace",
        "label": "uint8",
        "numberOfBytes": "1"
      }
    }
  }
}