{
  "address": "0xFD28623359397880F822cD09d42D54058fc47Ce7",
  "abi": [
    {
      "inputs": [
        {
          "internalType": "string",
          "name": "_description",
          "type": "string"
        },
        {
          "internalType": "address[]",
          "name": "initialSenders",
          "type": "address[]"
        },
        {
          "internalType": "string[]",
          "name": "initialUpdateTypes",
          "type": "string[]"
        }
      ],
      "stateMutability": "nonpayable",
      "type": "constructor"
    },
    {
      "anonymous": false,
      "inputs": [
        {
          "indexed": true,
          "internalType": "address",
          "name": "sender",
          "type": "address"
        }
      ],
      "name": "AuthorizedSenderAdded",
      "type": "event"
    },
    {
      "anonymous": false,
      "inputs": [
        {
          "indexed": true,
          "internalType": "address",
          "name": "sender",
          "type": "address"
        }
      ],
      "name": "AuthorizedSenderRemoved",
      "type": "event"
    },
    {
      "anonymous": false,
      "inputs": [
        {
          "indexed": true,
          "internalType": "address",
          "name": "previousOwner",
          "type": "address"
        },
        {
          "indexed": true,
          "internalType": "address",
          "name": "newOwner",
          "type": "address"
        }
      ],
      "name": "OwnershipTransferred",
      "type": "event"
    },
    {
      "anonymous": false,
      "inputs": [
        {
          "indexed": false,
          "internalType": "string",
          "name": "referenceId",
          "type": "string"
        },
        {
          "indexed": false,
          "internalType": "bytes",
          "name": "newValue",
          "type": "bytes"
        },
        {
          "indexed": false,
          "internalType": "bytes",
          "name": "previousValue",
          "type": "bytes"
        },
        {
          "indexed": false,
          "internalType": "uint256",
          "name": "timestamp",
          "type": "uint256"
        },
        {
          "indexed": true,
          "internalType": "string",
          "name": "updateType",
          "type": "string"
        },
        {
          "indexed": true,
          "internalType": "uint256",
          "name": "updateId",
          "type": "uint256"
        },
        {
          "indexed": true,
          "internalType": "address",
          "name": "market",
          "type": "address"
        },
        {
          "indexed": false,
          "internalType": "bytes",
          "name": "additionalData",
          "type": "bytes"
        }
      ],
      "name": "ParameterUpdated",
      "type": "event"
    },
    {
      "anonymous": false,
      "inputs": [
        {
          "indexed": true,
          "internalType": "string",
          "name": "updateType",
          "type": "string"
        }
      ],
      "name": "UpdateTypeAdded",
      "type": "event"
    },
    {
      "inputs": [
        {
          "internalType": "address",
          "name": "sender",
          "type": "address"
        }
      ],
      "name": "addAuthorizedSender",
      "outputs": [],
      "stateMutability": "nonpayable",
      "type": "function"
    },
    {
      "inputs": [
        {
          "internalType": "string",
          "name": "newUpdateType",
          "type": "string"
        }
      ],
      "name": "addUpdateType",
      "outputs": [],
      "stateMutability": "nonpayable",
      "type": "function"
    },
    {
      "inputs": [],
      "name": "description",
      "outputs": [
        {
          "internalType": "string",
          "name": "",
          "type": "string"
        }
      ],
      "stateMutability": "view",
      "type": "function"
    },
    {
      "inputs": [],
      "name": "getAllUpdateTypes",
      "outputs": [
        {
          "internalType": "string[]",
          "name": "",
          "type": "string[]"
        }
      ],
      "stateMutability": "view",
      "type": "function"
    },
    {
      "inputs": [
        {
          "internalType": "string",
          "name": "updateType",
          "type": "string"
        },
        {
          "internalType": "address",
          "name": "market",
          "type": "address"
        }
      ],
      "name": "getLatestUpdateByParameterAndMarket",
      "outputs": [
        {
          "components": [
            {
              "internalType": "uint256",
              "name": "timestamp",
              "type": "uint256"
            },
            {
              "internalType": "bytes",
              "name": "newValue",
              "type": "bytes"
            },
            {
              "internalType": "string",
              "name": "referenceId",
              "type": "string"
            },
            {
              "internalType": "bytes",
              "name": "previousValue",
              "type": "bytes"
            },
            {
              "internalType": "string",
              "name": "updateType",
              "type": "string"
            },
            {
              "internalType": "uint256",
              "name": "updateId",
              "type": "uint256"
            },
            {
              "internalType": "address",
              "name": "market",
              "type": "address"
            },
            {
              "internalType": "bytes",
              "name": "additionalData",
              "type": "bytes"
            }
          ],
          "internalType": "struct MockRiskOracle.RiskParameterUpdate",
          "name": "",
          "type": "tuple"
        }
      ],
      "stateMutability": "view",
      "type": "function"
    },
    {
      "inputs": [
        {
          "internalType": "uint256",
          "name": "updateId",
          "type": "uint256"
        }
      ],
      "name": "getUpdateById",
      "outputs": [
        {
          "components": [
            {
              "internalType": "uint256",
              "name": "timestamp",
              "type": "uint256"
            },
            {
              "internalType": "bytes",
              "name": "newValue",
              "type": "bytes"
            },
            {
              "internalType": "string",
              "name": "referenceId",
              "type": "string"
            },
            {
              "internalType": "bytes",
              "name": "previousValue",
              "type": "bytes"
            },
            {
              "internalType": "string",
              "name": "updateType",
              "type": "string"
            },
            {
              "internalType": "uint256",
              "name": "updateId",
              "type": "uint256"
            },
            {
              "internalType": "address",
              "name": "market",
              "type": "address"
            },
            {
              "internalType": "bytes",
              "name": "additionalData",
              "type": "bytes"
            }
          ],
          "internalType": "struct MockRiskOracle.RiskParameterUpdate",
          "name": "",
          "type": "tuple"
        }
      ],
      "stateMutability": "view",
      "type": "function"
    },
    {
      "inputs": [
        {
          "internalType": "address",
          "name": "sender",
          "type": "address"
        }
      ],
      "name": "isAuthorized",
      "outputs": [
        {
          "internalType": "bool",
          "name": "",
          "type": "bool"
        }
      ],
      "stateMutability": "view",
      "type": "function"
    },
    {
      "inputs": [
        {
          "internalType": "address",
          "name": "",
          "type": "address"
        },
        {
          "internalType": "string",
          "name": "",
          "type": "string"
        }
      ],
      "name": "latestUpdateIdByMarketAndType",
      "outputs": [
        {
          "internalType": "uint256",
          "name": "",
          "type": "uint256"
        }
      ],
      "stateMutability": "view",
      "type": "function"
    },
    {
      "inputs": [],
      "name": "owner",
      "outputs": [
        {
          "internalType": "address",
          "name": "",
          "type": "address"
        }
      ],
      "stateMutability": "view",
      "type": "function"
    },
    {
      "inputs": [
        {
          "internalType": "string[]",
          "name": "referenceIds",
          "type": "string[]"
        },
        {
          "internalType": "bytes[]",
          "name": "newValues",
          "type": "bytes[]"
        },
        {
          "internalType": "string[]",
          "name": "updateTypes",
          "type": "string[]"
        },
        {
          "internalType": "address[]",
          "name": "markets",
          "type": "address[]"
        },
        {
          "internalType": "bytes[]",
          "name": "additionalData",
          "type": "bytes[]"
        }
      ],
      "name": "publishBulkRiskParameterUpdates",
      "outputs": [],
      "stateMutability": "nonpayable",
      "type": "function"
    },
    {
      "inputs": [
        {
          "internalType": "string",
          "name": "referenceId",
          "type": "string"
        },
        {
          "internalType": "bytes",
          "name": "newValue",
          "type": "bytes"
        },
        {
          "internalType": "string",
          "name": "updateType",
          "type": "string"
        },
        {
          "internalType": "address",
          "name": "market",
          "type": "address"
        },
        {
          "internalType": "bytes",
          "name": "additionalData",
          "type": "bytes"
        }
      ],
      "name": "publishRiskParameterUpdate",
      "outputs": [],
      "stateMutability": "nonpayable",
      "type": "function"
    },
    {
      "inputs": [
        {
          "internalType": "address",
          "name": "sender",
          "type": "address"
        }
      ],
      "name": "removeAuthorizedSender",
      "outputs": [],
      "stateMutability": "nonpayable",
      "type": "function"
    },
    {
      "inputs": [],
      "name": "renounceOwnership",
      "outputs": [],
      "stateMutability": "nonpayable",
      "type": "function"
    },
    {
      "inputs": [
        {
          "internalType": "address",
          "name": "newOwner",
          "type": "address"
        }
      ],
      "name": "transferOwnership",
      "outputs": [],
      "stateMutability": "nonpayable",
      "type": "function"
    },
    {
      "inputs": [],
      "name": "updateCounter",
      "outputs": [
        {
          "internalType": "uint256",
          "name": "",
          "type": "uint256"
        }
      ],
      "stateMutability": "view",
      "type": "function"
    }
  ],
  "transactionHash": "0xbf0933d4ac513eb8367bc319c6742b0ccbcac08fe4e3176da015298e39fb763d",
  "args": [
    "Mock Risk Oracle",
    [
      "0xFEA1c651A47FE29dB9b1bf3cC1f224d8D9CFF68C"
    ],
    [
      "supplyCap",
      "borrowCap"
    ]
  ],
  "numDeployments": 1,
  "solcInputHash": "b9442ed5e7a021705374d7a83eea8b56",
  "bytecode": "0x608060405234801561001057600080fd5b5060405161283838038061283883398101604081905261002f916103be565b610038336101e7565b6007610044848261053b565b5060005b82518110156100a357600160046000858481518110610069576100696105fa565b6020908102919091018101516001600160a01b03168252810191909152604001600020805460ff1916911515919091179055600101610048565b5060005b81518110156101de5760028282815181106100c4576100c46105fa565b60200260200101516040516100d99190610610565b9081526040519081900360200190205460ff166101d65760016002838381518110610106576101066105fa565b602002602001015160405161011b9190610610565b908152602001604051809103902060006101000a81548160ff0219169083151502179055506001828281518110610154576101546105fa565b6020908102919091018101518254600181018455600093845291909220019061017d908261053b565b50818181518110610190576101906105fa565b60200260200101516040516101a59190610610565b604051908190038120907f07d686af6e6b7a2e3d03f5c81f05bba6a5b3686aca218f92f96b84c7d59aabaf90600090a25b6001016100a7565b5050505061062c565b600080546001600160a01b038381166001600160a01b0319831681178455604051919092169283917f8be0079c531659141344cd1fd0a4f28419497f9722a3daafe3b4186f6b6457e09190a35050565b634e487b7160e01b600052604160045260246000fd5b604051601f8201601f191681016001600160401b038111828210171561027557610275610237565b604052919050565b60005b83811015610298578181015183820152602001610280565b50506000910152565b600082601f8301126102b257600080fd5b81516001600160401b038111156102cb576102cb610237565b6102de601f8201601f191660200161024d565b8181528460208386010111156102f357600080fd5b61030482602083016020870161027d565b949350505050565b60006001600160401b0382111561032557610325610237565b5060051b60200190565b600082601f83011261034057600080fd5b815160206103556103508361030c565b61024d565b82815260059290921b8401810191818101908684111561037457600080fd5b8286015b848110156103b35780516001600160401b038111156103975760008081fd5b6103a58986838b01016102a1565b845250918301918301610378565b509695505050505050565b6000806000606084860312156103d357600080fd5b83516001600160401b03808211156103ea57600080fd5b6103f6878388016102a1565b945060209150818601518181111561040d57600080fd5b8601601f8101881361041e57600080fd5b805161042c6103508261030c565b81815260059190911b8201840190848101908a83111561044b57600080fd5b928501925b8284101561047f5783516001600160a01b03811681146104705760008081fd5b82529285019290850190610450565b60408a015190975094505050508082111561049957600080fd5b506104a68682870161032f565b9150509250925092565b600181811c908216806104c457607f821691505b6020821081036104e457634e487b7160e01b600052602260045260246000fd5b50919050565b601f821115610536576000816000526020600020601f850160051c810160208610156105135750805b601f850160051c820191505b818110156105325782815560010161051f565b5050505b505050565b81516001600160401b0381111561055457610554610237565b6105688161056284546104b0565b846104ea565b602080601f83116001811461059d57600084156105855750858301515b600019600386901b1c1916600185901b178555610532565b600085815260208120601f198616915b828110156105cc578886015182559484019460019091019084016105ad565b50858210156105ea5787850151600019600388901b60f8161c191681555b5050505050600190811b01905550565b634e487b7160e01b600052603260045260246000fd5b6000825161062281846020870161027d565b9190910192915050565b6121fd8061063b6000396000f3fe608060405234801561001057600080fd5b50600436106100f55760003560e01c806377abc9bd11610097578063cbd5796711610066578063cbd579671461021a578063f2fde38b1461022d578063fa7229ee14610240578063fe9fbb801461025357600080fd5b806377abc9bd146101b75780638da5cb5b146101ca578063b0be2505146101f2578063c030ce7b1461020557600080fd5b80635decfee4116100d35780635decfee41461014b5780636a309fe91461015e578063715018a61461019a5780637284e416146101a257600080fd5b8063031ed79c146100fa5780631687fe8e1461010f57806337759b9a1461012b575b600080fd5b61010d610108366004611a71565b61029c565b005b61011860065481565b6040519081526020015b60405180910390f35b61013e610139366004611b43565b6103e5565b6040516101229190611bca565b61013e610159366004611cc3565b6107f3565b61011861016c366004611d11565b6005602090815260009283526040909220815180830184018051928152908401929093019190912091525481565b61010d610c5f565b6101aa610c73565b6040516101229190611d5f565b61010d6101c5366004611d79565b610d01565b60005460405173ffffffffffffffffffffffffffffffffffffffff9091168152602001610122565b61010d610200366004611db6565b610edb565b61020d610f8d565b6040516101229190611e67565b61010d610228366004611ee9565b611066565b61010d61023b366004611ee9565b611171565b61010d61024e366004611ee9565b611228565b61028c610261366004611ee9565b73ffffffffffffffffffffffffffffffffffffffff1660009081526004602052604090205460ff1690565b6040519015158152602001610122565b3360009081526004602052604090205460ff1661033f576040517f08c379a0000000000000000000000000000000000000000000000000000000008152602060048201526024808201527f556e617574686f72697a65643a2053656e646572206e6f7420617574686f726960448201527f7a65642e0000000000000000000000000000000000000000000000000000000060648201526084015b60405180910390fd5b60005b85518110156103dd576103d586828151811061036057610360611f04565b602002602001015186838151811061037a5761037a611f04565b602002602001015186848151811061039457610394611f04565b60200260200101518685815181106103ae576103ae611f04565b60200260200101518686815181106103c8576103c8611f04565b6020026020010151611337565b600101610342565b505050505050565b610443604051806101000160405280600081526020016060815260200160608152602001606081526020016060815260200160008152602001600073ffffffffffffffffffffffffffffffffffffffff168152602001606081525090565b60008211801561045557506006548211155b6104bb576040517f08c379a000000000000000000000000000000000000000000000000000000000815260206004820152601260248201527f496e76616c6964207570646174652049442e00000000000000000000000000006044820152606401610336565b6003600083815260200190815260200160002060405180610100016040529081600082015481526020016001820180546104f490611f33565b80601f016020809104026020016040519081016040528092919081815260200182805461052090611f33565b801561056d5780601f106105425761010080835404028352916020019161056d565b820191906000526020600020905b81548152906001019060200180831161055057829003601f168201915b5050505050815260200160028201805461058690611f33565b80601f01602080910402602001604051908101604052809291908181526020018280546105b290611f33565b80156105ff5780601f106105d4576101008083540402835291602001916105ff565b820191906000526020600020905b8154815290600101906020018083116105e257829003601f168201915b5050505050815260200160038201805461061890611f33565b80601f016020809104026020016040519081016040528092919081815260200182805461064490611f33565b80156106915780601f1061066657610100808354040283529160200191610691565b820191906000526020600020905b81548152906001019060200180831161067457829003601f168201915b505050505081526020016004820180546106aa90611f33565b80601f01602080910402602001604051908101604052809291908181526020018280546106d690611f33565b80156107235780601f106106f857610100808354040283529160200191610723565b820191906000526020600020905b81548152906001019060200180831161070657829003601f168201915b505050918352505060058201546020820152600682015473ffffffffffffffffffffffffffffffffffffffff16604082015260078201805460609092019161076a90611f33565b80601f016020809104026020016040519081016040528092919081815260200182805461079690611f33565b80156107e35780601f106107b8576101008083540402835291602001916107e3565b820191906000526020600020905b8154815290600101906020018083116107c657829003601f168201915b5050505050815250509050919050565b610851604051806101000160405280600081526020016060815260200160608152602001606081526020016060815260200160008152602001600073ffffffffffffffffffffffffffffffffffffffff168152602001606081525090565b73ffffffffffffffffffffffffffffffffffffffff82166000908152600560205260408082209051610884908690611f86565b908152602001604051809103902054905060008111610925576040517f08c379a000000000000000000000000000000000000000000000000000000000815260206004820152603760248201527f4e6f2075706461746520666f756e6420666f722074686520737065636966696560448201527f6420706172616d6574657220616e64206d61726b65742e0000000000000000006064820152608401610336565b60036000828152602001908152602001600020604051806101000160405290816000820154815260200160018201805461095e90611f33565b80601f016020809104026020016040519081016040528092919081815260200182805461098a90611f33565b80156109d75780601f106109ac576101008083540402835291602001916109d7565b820191906000526020600020905b8154815290600101906020018083116109ba57829003601f168201915b505050505081526020016002820180546109f090611f33565b80601f0160208091040260200160405190810160405280929190818152602001828054610a1c90611f33565b8015610a695780601f10610a3e57610100808354040283529160200191610a69565b820191906000526020600020905b815481529060010190602001808311610a4c57829003601f168201915b50505050508152602001600382018054610a8290611f33565b80601f0160208091040260200160405190810160405280929190818152602001828054610aae90611f33565b8015610afb5780601f10610ad057610100808354040283529160200191610afb565b820191906000526020600020905b815481529060010190602001808311610ade57829003601f168201915b50505050508152602001600482018054610b1490611f33565b80601f0160208091040260200160405190810160405280929190818152602001828054610b4090611f33565b8015610b8d5780601f10610b6257610100808354040283529160200191610b8d565b820191906000526020600020905b815481529060010190602001808311610b7057829003601f168201915b505050918352505060058201546020820152600682015473ffffffffffffffffffffffffffffffffffffffff166040820152600782018054606090920191610bd490611f33565b80601f0160208091040260200160405190810160405280929190818152602001828054610c0090611f33565b8015610c4d5780601f10610c2257610100808354040283529160200191610c4d565b820191906000526020600020905b815481529060010190602001808311610c3057829003601f168201915b50505050508152505091505092915050565b610c676116ac565b610c71600061172d565b565b60078054610c8090611f33565b80601f0160208091040260200160405190810160405280929190818152602001828054610cac90611f33565b8015610cf95780601f10610cce57610100808354040283529160200191610cf9565b820191906000526020600020905b815481529060010190602001808311610cdc57829003601f168201915b505050505081565b610d096116ac565b8060008151118015610d1d57506040815111155b610d83576040517f08c379a000000000000000000000000000000000000000000000000000000000815260206004820152601a60248201527f496e76616c696420757064617465207479706520737472696e670000000000006044820152606401610336565b600282604051610d939190611f86565b9081526040519081900360200190205460ff1615610e0d576040517f08c379a000000000000000000000000000000000000000000000000000000000815260206004820152601b60248201527f557064617465207479706520616c7265616479206578697374732e00000000006044820152606401610336565b6001600283604051610e1f9190611f86565b90815260405190819003602001902080549115157fffffffffffffffffffffffffffffffffffffffffffffffffffffffffffffff009092169190911790556001805480820182556000919091527fb10e2d527612073b26eecdfd717e6a320cf44b4afac2b0732d9fcbe2b7fa0cf601610e988382611fef565b5081604051610ea79190611f86565b604051908190038120907f07d686af6e6b7a2e3d03f5c81f05bba6a5b3686aca218f92f96b84c7d59aabaf90600090a25050565b3360009081526004602052604090205460ff16610f79576040517f08c379a0000000000000000000000000000000000000000000000000000000008152602060048201526024808201527f556e617574686f72697a65643a2053656e646572206e6f7420617574686f726960448201527f7a65642e000000000000000000000000000000000000000000000000000000006064820152608401610336565b610f868585858585611337565b5050505050565b60606001805480602002602001604051908101604052809291908181526020016000905b8282101561105d578382906000526020600020018054610fd090611f33565b80601f0160208091040260200160405190810160405280929190818152602001828054610ffc90611f33565b80156110495780601f1061101e57610100808354040283529160200191611049565b820191906000526020600020905b81548152906001019060200180831161102c57829003601f168201915b505050505081526020019060010190610fb1565b50505050905090565b61106e6116ac565b73ffffffffffffffffffffffffffffffffffffffff811660009081526004602052604090205460ff166110fd576040517f08c379a000000000000000000000000000000000000000000000000000000000815260206004820152601660248201527f53656e646572206e6f7420617574686f72697a65642e000000000000000000006044820152606401610336565b73ffffffffffffffffffffffffffffffffffffffff811660008181526004602052604080822080547fffffffffffffffffffffffffffffffffffffffffffffffffffffffffffffff00169055517f98f9958a855d78eae670154a7d047d26968849962c3204c2b12c2228634f4ff89190a250565b6111796116ac565b73ffffffffffffffffffffffffffffffffffffffff811661121c576040517f08c379a000000000000000000000000000000000000000000000000000000000815260206004820152602660248201527f4f776e61626c653a206e6577206f776e657220697320746865207a65726f206160448201527f64647265737300000000000000000000000000000000000000000000000000006064820152608401610336565b6112258161172d565b50565b6112306116ac565b73ffffffffffffffffffffffffffffffffffffffff811660009081526004602052604090205460ff16156112c0576040517f08c379a000000000000000000000000000000000000000000000000000000000815260206004820152601a60248201527f53656e64657220616c726561647920617574686f72697a65642e0000000000006044820152606401610336565b73ffffffffffffffffffffffffffffffffffffffff811660008181526004602052604080822080547fffffffffffffffffffffffffffffffffffffffffffffffffffffffffffffff00166001179055517fd06d2241a59677d082959f22e5a5212c57a9e890949a9d0f2426efd49f8c5d7f9190a250565b6002836040516113479190611f86565b9081526040519081900360200190205460ff166113c0576040517f08c379a000000000000000000000000000000000000000000000000000000000815260206004820152601960248201527f556e617574686f72697a65642075706461746520747970652e000000000000006044820152606401610336565b600680549060006113d083612109565b909155505073ffffffffffffffffffffffffffffffffffffffff82166000908152600560205260408082209051611408908690611f86565b9081526020016040518091039020549050600060036000838152602001908152602001600020600101805461143c90611f33565b80601f016020809104026020016040519081016040528092919081815260200182805461146890611f33565b80156114b55780601f1061148a576101008083540402835291602001916114b5565b820191906000526020600020905b81548152906001019060200180831161149857829003601f168201915b5050604080516101008101825242815260208082018d81528284018f905260608301889052608083018d905260065460a0840181905273ffffffffffffffffffffffffffffffffffffffff8d1660c085015260e084018c9052600090815260039092529290208151815591519596509485945090925060018301915061153b9082611fef565b50604082015160028201906115509082611fef565b50606082015160038201906115659082611fef565b506080820151600482019061157a9082611fef565b5060a0820151600582015560c08201516006820180547fffffffffffffffffffffffff00000000000000000000000000000000000000001673ffffffffffffffffffffffffffffffffffffffff90921691909117905560e082015160078201906115e49082611fef565b505060065473ffffffffffffffffffffffffffffffffffffffff871660009081526005602052604090819020905191925090611621908990611f86565b9081526020016040518091039020819055508473ffffffffffffffffffffffffffffffffffffffff166006548760405161165b9190611f86565b60405180910390207ff4ffa2dade992ad974b9415d5dc108fa2a4a6de3822a3a0bb50d5e6991bdb8ae8b8b87428b60405161169a959493929190612168565b60405180910390a45050505050505050565b60005473ffffffffffffffffffffffffffffffffffffffff163314610c71576040517f08c379a000000000000000000000000000000000000000000000000000000000815260206004820181905260248201527f4f776e61626c653a2063616c6c6572206973206e6f7420746865206f776e65726044820152606401610336565b6000805473ffffffffffffffffffffffffffffffffffffffff8381167fffffffffffffffffffffffff0000000000000000000000000000000000000000831681178455604051919092169283917f8be0079c531659141344cd1fd0a4f28419497f9722a3daafe3b4186f6b6457e09190a35050565b7f4e487b7100000000000000000000000000000000000000000000000000000000600052604160045260246000fd5b604051601f82017fffffffffffffffffffffffffffffffffffffffffffffffffffffffffffffffe016810167ffffffffffffffff81118282101715611818576118186117a2565b604052919050565b600067ffffffffffffffff82111561183a5761183a6117a2565b5060051b60200190565b600082601f83011261185557600080fd5b813567ffffffffffffffff81111561186f5761186f6117a2565b6118a060207fffffffffffffffffffffffffffffffffffffffffffffffffffffffffffffffe0601f840116016117d1565b8181528460208386010111156118b557600080fd5b816020850160208301376000918101602001919091529392505050565b600082601f8301126118e357600080fd5b813560206118f86118f383611820565b6117d1565b82815260059290921b8401810191818101908684111561191757600080fd5b8286015b8481101561195757803567ffffffffffffffff81111561193b5760008081fd5b6119498986838b0101611844565b84525091830191830161191b565b509695505050505050565b600082601f83011261197357600080fd5b813560206119836118f383611820565b82815260059290921b840181019181810190868411156119a257600080fd5b8286015b8481101561195757803567ffffffffffffffff8111156119c65760008081fd5b6119d48986838b0101611844565b8452509183019183016119a6565b803573ffffffffffffffffffffffffffffffffffffffff81168114611a0657600080fd5b919050565b600082601f830112611a1c57600080fd5b81356020611a2c6118f383611820565b8083825260208201915060208460051b870101935086841115611a4e57600080fd5b602086015b8481101561195757611a64816119e2565b8352918301918301611a53565b600080600080600060a08688031215611a8957600080fd5b853567ffffffffffffffff80821115611aa157600080fd5b611aad89838a016118d2565b96506020880135915080821115611ac357600080fd5b611acf89838a01611962565b95506040880135915080821115611ae557600080fd5b611af189838a016118d2565b94506060880135915080821115611b0757600080fd5b611b1389838a01611a0b565b93506080880135915080821115611b2957600080fd5b50611b3688828901611962565b9150509295509295909350565b600060208284031215611b5557600080fd5b5035919050565b60005b83811015611b77578181015183820152602001611b5f565b50506000910152565b60008151808452611b98816020860160208601611b5c565b601f017fffffffffffffffffffffffffffffffffffffffffffffffffffffffffffffffe0169290920160200192915050565b602081528151602082015260006020830151610100806040850152611bf3610120850183611b80565b915060408501517fffffffffffffffffffffffffffffffffffffffffffffffffffffffffffffffe080868503016060870152611c2f8483611b80565b93506060870151915080868503016080870152611c4c8483611b80565b935060808701519150808685030160a0870152611c698483611b80565b935060a087015160c087015260c08701519150611c9e60e087018373ffffffffffffffffffffffffffffffffffffffff169052565b60e0870151915080868503018387015250611cb98382611b80565b9695505050505050565b60008060408385031215611cd657600080fd5b823567ffffffffffffffff811115611ced57600080fd5b611cf985828601611844565b925050611d08602084016119e2565b90509250929050565b60008060408385031215611d2457600080fd5b611d2d836119e2565b9150602083013567ffffffffffffffff811115611d4957600080fd5b611d5585828601611844565b9150509250929050565b602081526000611d726020830184611b80565b9392505050565b600060208284031215611d8b57600080fd5b813567ffffffffffffffff811115611da257600080fd5b611dae84828501611844565b949350505050565b600080600080600060a08688031215611dce57600080fd5b853567ffffffffffffffff80821115611de657600080fd5b611df289838a01611844565b96506020880135915080821115611e0857600080fd5b611e1489838a01611844565b95506040880135915080821115611e2a57600080fd5b611e3689838a01611844565b9450611e44606089016119e2565b93506080880135915080821115611e5a57600080fd5b50611b3688828901611844565b600060208083016020845280855180835260408601915060408160051b87010192506020870160005b82811015611edc577fffffffffffffffffffffffffffffffffffffffffffffffffffffffffffffffc0888603018452611eca858351611b80565b94509285019290850190600101611e90565b5092979650505050505050565b600060208284031215611efb57600080fd5b611d72826119e2565b7f4e487b7100000000000000000000000000000000000000000000000000000000600052603260045260246000fd5b600181811c90821680611f4757607f821691505b602082108103611f80577f4e487b7100000000000000000000000000000000000000000000000000000000600052602260045260246000fd5b50919050565b60008251611f98818460208701611b5c565b9190910192915050565b601f821115611fea576000816000526020600020601f850160051c81016020861015611fcb5750805b601f850160051c820191505b818110156103dd57828155600101611fd7565b505050565b815167ffffffffffffffff811115612009576120096117a2565b61201d816120178454611f33565b84611fa2565b602080601f831160018114612070576000841561203a5750858301515b7fffffffffffffffffffffffffffffffffffffffffffffffffffffffffffffffff600386901b1c1916600185901b1785556103dd565b6000858152602081207fffffffffffffffffffffffffffffffffffffffffffffffffffffffffffffffe08616915b828110156120bd5788860151825594840194600190910190840161209e565b50858210156120f957878501517fffffffffffffffffffffffffffffffffffffffffffffffffffffffffffffffff600388901b60f8161c191681555b5050505050600190811b01905550565b60007fffffffffffffffffffffffffffffffffffffffffffffffffffffffffffffffff8203612161577f4e487b7100000000000000000000000000000000000000000000000000000000600052601160045260246000fd5b5060010190565b60a08152600061217b60a0830188611b80565b828103602084015261218d8188611b80565b905082810360408401526121a18187611b80565b905084606084015282810360808401526121bb8185611b80565b9897505050505050505056fea2646970667358221220c51520a24b68af5afa081c68b4188ea4d54b36db53a8eae77ae2ac8df9e3b3e864736f6c63430008190033",
  "devdoc": {
    "author": "Chaos Labs",
    "kind": "dev",
    "methods": {
      "addAuthorizedSender(address)": {
        "params": {
          "sender": "Address to be authorized."
        }
      },
      "addUpdateType(string)": {
        "params": {
          "newUpdateType": "New type of update to allow."
        }
      },
      "constructor": {
        "params": {
          "_description": "Description of contract",
          "initialSenders": "List of addresses that will initially be authorized to perform updates.",
          "initialUpdateTypes": "List of valid update types initially allowed."
        }
      },
      "getLatestUpdateByParameterAndMarket(string,address)": {
        "params": {
          "market": "The market identifier.",
          "updateType": "The identifier for the parameter."
        },
        "returns": {
          "_0": "The most recent RiskParameterUpdate for the specified parameter and market."
        }
      },
      "isAuthorized(address)": {
        "params": {
          "sender": "Address to check."
        },
        "returns": {
          "_0": "Boolean indicating whether the address is authorized."
        }
      },
      "owner()": {
        "details": "Returns the address of the current owner."
      },
      "publishBulkRiskParameterUpdates(string[],bytes[],string[],address[],bytes[])": {
        "params": {
          "additionalData": "Array of additional data for the updates",
          "markets": "Array of addresses for markets of the parameter updates",
          "newValues": "Array of new values for each update.",
          "referenceIds": "Array of external reference IDs.",
          "updateTypes": "Array of types for each update, all must be authorized."
        }
      },
      "publishRiskParameterUpdate(string,bytes,string,address,bytes)": {
        "params": {
          "additionalData": "Additional data for the update",
          "market": "Address for market of the parameter update",
          "newValue": "The new value of the risk parameter being updated.",
          "referenceId": "An external reference ID associated with the update.",
          "updateType": "Type of update performed, must be previously authorized."
        }
      },
      "removeAuthorizedSender(address)": {
        "params": {
          "sender": "Address to be unauthorized."
        }
      },
      "renounceOwnership()": {
        "details": "Leaves the contract without owner. It will not be possible to call `onlyOwner` functions. Can only be called by the current owner. NOTE: Renouncing ownership will leave the contract without an owner, thereby disabling any functionality that is only available to the owner."
      },
      "transferOwnership(address)": {
        "details": "Transfers ownership of the contract to a new account (`newOwner`). Can only be called by the current owner."
      }
    },
    "title": "Risk Oracle",
    "version": 1
  },
  "userdoc": {
    "kind": "user",
    "methods": {
      "addAuthorizedSender(address)": {
        "notice": "Adds a new sender to the list of addresses authorized to perform updates."
      },
      "addUpdateType(string)": {
        "notice": "Adds a new type of update to the list of authorized update types."
      },
      "constructor": {
        "notice": "Constructor to set initial authorized addresses and approved update types."
      },
      "getLatestUpdateByParameterAndMarket(string,address)": {
        "notice": "Fetches the most recent update for a specific parameter in a specific market."
      },
      "isAuthorized(address)": {
        "notice": "Checks if an address is authorized to perform updates."
      },
      "publishBulkRiskParameterUpdates(string[],bytes[],string[],address[],bytes[])": {
        "notice": "Publishes multiple risk parameter updates in a single transaction."
      },
      "publishRiskParameterUpdate(string,bytes,string,address,bytes)": {
        "notice": "Publishes a new risk parameter update."
      },
      "removeAuthorizedSender(address)": {
        "notice": "Removes an address from the list of authorized senders."
      }
    },
    "version": 1
  },
  "storageLayout": {
    "storage": [
      {
        "astId": 4260,
        "contract": "contracts/test/MockRiskOracle.sol:MockRiskOracle",
        "label": "_owner",
        "offset": 0,
        "slot": "0",
        "type": "t_address"
      },
      {
        "astId": 11380,
        "contract": "contracts/test/MockRiskOracle.sol:MockRiskOracle",
        "label": "allUpdateTypes",
        "offset": 0,
        "slot": "1",
        "type": "t_array(t_string_storage)dyn_storage"
      },
      {
        "astId": 11384,
        "contract": "contracts/test/MockRiskOracle.sol:MockRiskOracle",
        "label": "validUpdateTypes",
        "offset": 0,
        "slot": "2",
        "type": "t_mapping(t_string_memory_ptr,t_bool)"
      },
      {
        "astId": 11389,
        "contract": "contracts/test/MockRiskOracle.sol:MockRiskOracle",
        "label": "updatesById",
        "offset": 0,
        "slot": "3",
        "type": "t_mapping(t_uint256,t_struct(RiskParameterUpdate)11377_storage)"
      },
      {
        "astId": 11393,
        "contract": "contracts/test/MockRiskOracle.sol:MockRiskOracle",
        "label": "authorizedSenders",
        "offset": 0,
        "slot": "4",
        "type": "t_mapping(t_address,t_bool)"
      },
      {
        "astId": 11399,
        "contract": "contracts/test/MockRiskOracle.sol:MockRiskOracle",
        "label": "latestUpdateIdByMarketAndType",
        "offset": 0,
        "slot": "5",
        "type": "t_mapping(t_address,t_mapping(t_string_memory_ptr,t_uint256))"
      },
      {
        "astId": 11401,
        "contract": "contracts/test/MockRiskOracle.sol:MockRiskOracle",
        "label": "updateCounter",
        "offset": 0,
        "slot": "6",
        "type": "t_uint256"
      },
      {
        "astId": 11403,
        "contract": "contracts/test/MockRiskOracle.sol:MockRiskOracle",
        "label": "description",
        "offset": 0,
        "slot": "7",
        "type": "t_string_storage"
      }
    ],
    "types": {
      "t_address": {
        "encoding": "inplace",
        "label": "address",
        "numberOfBytes": "20"
      },
      "t_array(t_string_storage)dyn_storage": {
        "base": "t_string_storage",
        "encoding": "dynamic_array",
        "label": "string[]",
        "numberOfBytes": "32"
      },
      "t_bool": {
        "encoding": "inplace",
        "label": "bool",
        "numberOfBytes": "1"
      },
      "t_bytes_storage": {
        "encoding": "bytes",
        "label": "bytes",
        "numberOfBytes": "32"
      },
      "t_mapping(t_address,t_bool)": {
        "encoding": "mapping",
        "key": "t_address",
        "label": "mapping(address => bool)",
        "numberOfBytes": "32",
        "value": "t_bool"
      },
      "t_mapping(t_address,t_mapping(t_string_memory_ptr,t_uint256))": {
        "encoding": "mapping",
        "key": "t_address",
        "label": "mapping(address => mapping(string => uint256))",
        "numberOfBytes": "32",
        "value": "t_mapping(t_string_memory_ptr,t_uint256)"
      },
      "t_mapping(t_string_memory_ptr,t_bool)": {
        "encoding": "mapping",
        "key": "t_string_memory_ptr",
        "label": "mapping(string => bool)",
        "numberOfBytes": "32",
        "value": "t_bool"
      },
      "t_mapping(t_string_memory_ptr,t_uint256)": {
        "encoding": "mapping",
        "key": "t_string_memory_ptr",
        "label": "mapping(string => uint256)",
        "numberOfBytes": "32",
        "value": "t_uint256"
      },
      "t_mapping(t_uint256,t_struct(RiskParameterUpdate)11377_storage)": {
        "encoding": "mapping",
        "key": "t_uint256",
        "label": "mapping(uint256 => struct MockRiskOracle.RiskParameterUpdate)",
        "numberOfBytes": "32",
        "value": "t_struct(RiskParameterUpdate)11377_storage"
      },
      "t_string_memory_ptr": {
        "encoding": "bytes",
        "label": "string",
        "numberOfBytes": "32"
      },
      "t_string_storage": {
        "encoding": "bytes",
        "label": "string",
        "numberOfBytes": "32"
      },
      "t_struct(RiskParameterUpdate)11377_storage": {
        "encoding": "inplace",
        "label": "struct MockRiskOracle.RiskParameterUpdate",
        "members": [
          {
            "astId": 11362,
            "contract": "contracts/test/MockRiskOracle.sol:MockRiskOracle",
            "label": "timestamp",
            "offset": 0,
            "slot": "0",
            "type": "t_uint256"
          },
          {
            "astId": 11364,
            "contract": "contracts/test/MockRiskOracle.sol:MockRiskOracle",
            "label": "newValue",
            "offset": 0,
            "slot": "1",
            "type": "t_bytes_storage"
          },
          {
            "astId": 11366,
            "contract": "contracts/test/MockRiskOracle.sol:MockRiskOracle",
            "label": "referenceId",
            "offset": 0,
            "slot": "2",
            "type": "t_string_storage"
          },
          {
            "astId": 11368,
            "contract": "contracts/test/MockRiskOracle.sol:MockRiskOracle",
            "label": "previousValue",
            "offset": 0,
            "slot": "3",
            "type": "t_bytes_storage"
          },
          {
            "astId": 11370,
            "contract": "contracts/test/MockRiskOracle.sol:MockRiskOracle",
            "label": "updateType",
            "offset": 0,
            "slot": "4",
            "type": "t_string_storage"
          },
          {
            "astId": 11372,
            "contract": "contracts/test/MockRiskOracle.sol:MockRiskOracle",
            "label": "updateId",
            "offset": 0,
            "slot": "5",
            "type": "t_uint256"
          },
          {
            "astId": 11374,
            "contract": "contracts/test/MockRiskOracle.sol:MockRiskOracle",
            "label": "market",
            "offset": 0,
            "slot": "6",
            "type": "t_address"
          },
          {
            "astId": 11376,
            "contract": "contracts/test/MockRiskOracle.sol:MockRiskOracle",
            "label": "additionalData",
            "offset": 0,
            "slot": "7",
            "type": "t_bytes_storage"
          }
        ],
        "numberOfBytes": "256"
      },
      "t_uint256": {
        "encoding": "inplace",
        "label": "uint256",
        "numberOfBytes": "32"
      }
    }
  }
}