{
  "address": "0x02d188Be98CF7676Cd98b03C8470f059fD7799Da",
  "abi": [
    {
      "inputs": [
        {
          "internalType": "contract ILayerZeroEndpoint",
          "name": "lzEndpoint_",
          "type": "address"
        },
        {
          "internalType": "address",
          "name": "accessControlManager_",
          "type": "address"
        }
      ],
      "stateMutability": "nonpayable",
      "type": "constructor"
    },
    {
      "inputs": [],
      "name": "ZeroAddressNotAllowed",
      "type": "error"
    },
    {
      "anonymous": false,
      "inputs": [
        {
          "indexed": true,
          "internalType": "uint256",
          "name": "proposalId",
          "type": "uint256"
        },
        {
          "indexed": false,
          "internalType": "bytes32",
          "name": "executionHash",
          "type": "bytes32"
        }
      ],
      "name": "ClearPayload",
      "type": "event"
    },
    {
      "anonymous": false,
      "inputs": [
        {
          "indexed": true,
          "internalType": "uint16",
          "name": "remoteChainId",
          "type": "uint16"
        },
        {
          "indexed": false,
          "internalType": "uint256",
          "name": "proposalId",
          "type": "uint256"
        },
        {
          "indexed": false,
          "internalType": "bytes",
          "name": "payload",
          "type": "bytes"
        }
      ],
      "name": "ExecuteRemoteProposal",
      "type": "event"
    },
    {
      "anonymous": false,
      "inputs": [
        {
          "indexed": true,
          "internalType": "address",
          "name": "receiver",
          "type": "address"
        },
        {
          "indexed": false,
          "internalType": "uint256",
          "name": "value",
          "type": "uint256"
        }
      ],
      "name": "FallbackWithdraw",
      "type": "event"
    },
    {
      "anonymous": false,
      "inputs": [
        {
          "indexed": true,
          "internalType": "address",
          "name": "oldAccessControlManager",
          "type": "address"
        },
        {
          "indexed": true,
          "internalType": "address",
          "name": "newAccessControlManager",
          "type": "address"
        }
      ],
      "name": "NewAccessControlManager",
      "type": "event"
    },
    {
      "anonymous": false,
      "inputs": [
        {
          "indexed": true,
          "internalType": "address",
          "name": "previousOwner",
          "type": "address"
        },
        {
          "indexed": true,
          "internalType": "address",
          "name": "newOwner",
          "type": "address"
        }
      ],
      "name": "OwnershipTransferred",
      "type": "event"
    },
    {
      "anonymous": false,
      "inputs": [
        {
          "indexed": false,
          "internalType": "address",
          "name": "account",
          "type": "address"
        }
      ],
      "name": "Paused",
      "type": "event"
    },
    {
      "anonymous": false,
      "inputs": [
        {
          "indexed": true,
          "internalType": "uint16",
          "name": "chainId",
          "type": "uint16"
        },
        {
          "indexed": false,
          "internalType": "uint256",
          "name": "oldMaxLimit",
          "type": "uint256"
        },
        {
          "indexed": false,
          "internalType": "uint256",
          "name": "newMaxLimit",
          "type": "uint256"
        }
      ],
      "name": "SetMaxDailyLimit",
      "type": "event"
    },
    {
      "anonymous": false,
      "inputs": [
        {
          "indexed": true,
          "internalType": "uint16",
          "name": "remoteChainId",
          "type": "uint16"
        },
        {
          "indexed": false,
          "internalType": "bytes",
          "name": "oldRemoteAddress",
          "type": "bytes"
        },
        {
          "indexed": false,
          "internalType": "bytes",
          "name": "newRemoteAddress",
          "type": "bytes"
        }
      ],
      "name": "SetTrustedRemoteAddress",
      "type": "event"
    },
    {
      "anonymous": false,
      "inputs": [
        {
          "indexed": true,
          "internalType": "uint256",
          "name": "proposalId",
          "type": "uint256"
        },
        {
          "indexed": true,
          "internalType": "uint16",
          "name": "remoteChainId",
          "type": "uint16"
        },
        {
          "indexed": false,
          "internalType": "bytes",
          "name": "payload",
          "type": "bytes"
        },
        {
          "indexed": false,
          "internalType": "bytes",
          "name": "adapterParams",
          "type": "bytes"
        },
        {
          "indexed": false,
          "internalType": "uint256",
          "name": "value",
          "type": "uint256"
        },
        {
          "indexed": false,
          "internalType": "bytes",
          "name": "reason",
          "type": "bytes"
        }
      ],
      "name": "StorePayload",
      "type": "event"
    },
    {
      "anonymous": false,
      "inputs": [
        {
          "indexed": true,
          "internalType": "uint16",
          "name": "chainId",
          "type": "uint16"
        }
      ],
      "name": "TrustedRemoteRemoved",
      "type": "event"
    },
    {
      "anonymous": false,
      "inputs": [
        {
          "indexed": false,
          "internalType": "address",
          "name": "account",
          "type": "address"
        }
      ],
      "name": "Unpaused",
      "type": "event"
    },
    {
      "inputs": [],
      "name": "LZ_ENDPOINT",
      "outputs": [
        {
          "internalType": "contract ILayerZeroEndpoint",
          "name": "",
          "type": "address"
        }
      ],
      "stateMutability": "view",
      "type": "function"
    },
    {
      "inputs": [],
      "name": "accessControlManager",
      "outputs": [
        {
          "internalType": "address",
          "name": "",
          "type": "address"
        }
      ],
      "stateMutability": "view",
      "type": "function"
    },
    {
      "inputs": [
        {
          "internalType": "uint16",
          "name": "",
          "type": "uint16"
        }
      ],
      "name": "chainIdToLast24HourCommandsSent",
      "outputs": [
        {
          "internalType": "uint256",
          "name": "",
          "type": "uint256"
        }
      ],
      "stateMutability": "view",
      "type": "function"
    },
    {
      "inputs": [
        {
          "internalType": "uint16",
          "name": "",
          "type": "uint16"
        }
      ],
      "name": "chainIdToLast24HourWindowStart",
      "outputs": [
        {
          "internalType": "uint256",
          "name": "",
          "type": "uint256"
        }
      ],
      "stateMutability": "view",
      "type": "function"
    },
    {
      "inputs": [
        {
          "internalType": "uint16",
          "name": "",
          "type": "uint16"
        }
      ],
      "name": "chainIdToLastProposalSentTimestamp",
      "outputs": [
        {
          "internalType": "uint256",
          "name": "",
          "type": "uint256"
        }
      ],
      "stateMutability": "view",
      "type": "function"
    },
    {
      "inputs": [
        {
          "internalType": "uint16",
          "name": "",
          "type": "uint16"
        }
      ],
      "name": "chainIdToMaxDailyLimit",
      "outputs": [
        {
          "internalType": "uint256",
          "name": "",
          "type": "uint256"
        }
      ],
      "stateMutability": "view",
      "type": "function"
    },
    {
      "inputs": [
        {
          "internalType": "uint16",
          "name": "remoteChainId_",
          "type": "uint16"
        },
        {
          "internalType": "bytes",
          "name": "payload_",
          "type": "bytes"
        },
        {
          "internalType": "bytes",
          "name": "adapterParams_",
          "type": "bytes"
        }
      ],
      "name": "estimateFees",
      "outputs": [
        {
          "internalType": "uint256",
          "name": "",
          "type": "uint256"
        },
        {
          "internalType": "uint256",
          "name": "",
          "type": "uint256"
        }
      ],
      "stateMutability": "view",
      "type": "function"
    },
    {
      "inputs": [
        {
          "internalType": "uint16",
          "name": "remoteChainId_",
          "type": "uint16"
        },
        {
          "internalType": "bytes",
          "name": "payload_",
          "type": "bytes"
        },
        {
          "internalType": "bytes",
          "name": "adapterParams_",
          "type": "bytes"
        }
      ],
      "name": "execute",
      "outputs": [],
      "stateMutability": "payable",
      "type": "function"
    },
    {
      "inputs": [
        {
          "internalType": "address",
          "name": "to_",
          "type": "address"
        },
        {
          "internalType": "uint256",
          "name": "pId_",
          "type": "uint256"
        },
        {
          "internalType": "uint16",
          "name": "remoteChainId_",
          "type": "uint16"
        },
        {
          "internalType": "bytes",
          "name": "payload_",
          "type": "bytes"
        },
        {
          "internalType": "bytes",
          "name": "adapterParams_",
          "type": "bytes"
        },
        {
          "internalType": "uint256",
          "name": "originalValue_",
          "type": "uint256"
        }
      ],
      "name": "fallbackWithdraw",
      "outputs": [],
      "stateMutability": "nonpayable",
      "type": "function"
    },
    {
      "inputs": [
        {
          "internalType": "uint16",
          "name": "version_",
          "type": "uint16"
        },
        {
          "internalType": "uint16",
          "name": "chainId_",
          "type": "uint16"
        },
        {
          "internalType": "uint256",
          "name": "configType_",
          "type": "uint256"
        }
      ],
      "name": "getConfig",
      "outputs": [
        {
          "internalType": "bytes",
          "name": "",
          "type": "bytes"
        }
      ],
      "stateMutability": "view",
      "type": "function"
    },
    {
      "inputs": [],
      "name": "owner",
      "outputs": [
        {
          "internalType": "address",
          "name": "",
          "type": "address"
        }
      ],
      "stateMutability": "view",
      "type": "function"
    },
    {
      "inputs": [],
      "name": "pause",
      "outputs": [],
      "stateMutability": "nonpayable",
      "type": "function"
    },
    {
      "inputs": [],
      "name": "paused",
      "outputs": [
        {
          "internalType": "bool",
          "name": "",
          "type": "bool"
        }
      ],
      "stateMutability": "view",
      "type": "function"
    },
    {
      "inputs": [],
      "name": "proposalCount",
      "outputs": [
        {
          "internalType": "uint256",
          "name": "",
          "type": "uint256"
        }
      ],
      "stateMutability": "view",
      "type": "function"
    },
    {
      "inputs": [
        {
          "internalType": "uint16",
          "name": "remoteChainId_",
          "type": "uint16"
        }
      ],
      "name": "removeTrustedRemote",
      "outputs": [],
      "stateMutability": "nonpayable",
      "type": "function"
    },
    {
      "inputs": [],
      "name": "renounceOwnership",
      "outputs": [],
      "stateMutability": "nonpayable",
      "type": "function"
    },
    {
      "inputs": [
        {
          "internalType": "uint256",
          "name": "pId_",
          "type": "uint256"
        },
        {
          "internalType": "uint16",
          "name": "remoteChainId_",
          "type": "uint16"
        },
        {
          "internalType": "bytes",
          "name": "payload_",
          "type": "bytes"
        },
        {
          "internalType": "bytes",
          "name": "adapterParams_",
          "type": "bytes"
        },
        {
          "internalType": "uint256",
          "name": "originalValue_",
          "type": "uint256"
        }
      ],
      "name": "retryExecute",
      "outputs": [],
      "stateMutability": "payable",
      "type": "function"
    },
    {
      "inputs": [
        {
          "internalType": "address",
          "name": "accessControlManager_",
          "type": "address"
        }
      ],
      "name": "setAccessControlManager",
      "outputs": [],
      "stateMutability": "nonpayable",
      "type": "function"
    },
    {
      "inputs": [
        {
          "internalType": "uint16",
          "name": "version_",
          "type": "uint16"
        },
        {
          "internalType": "uint16",
          "name": "chainId_",
          "type": "uint16"
        },
        {
          "internalType": "uint256",
          "name": "configType_",
          "type": "uint256"
        },
        {
          "internalType": "bytes",
          "name": "config_",
          "type": "bytes"
        }
      ],
      "name": "setConfig",
      "outputs": [],
      "stateMutability": "nonpayable",
      "type": "function"
    },
    {
      "inputs": [
        {
          "internalType": "uint16",
          "name": "chainId_",
          "type": "uint16"
        },
        {
          "internalType": "uint256",
          "name": "limit_",
          "type": "uint256"
        }
      ],
      "name": "setMaxDailyLimit",
      "outputs": [],
      "stateMutability": "nonpayable",
      "type": "function"
    },
    {
      "inputs": [
        {
          "internalType": "uint16",
          "name": "version_",
          "type": "uint16"
        }
      ],
      "name": "setSendVersion",
      "outputs": [],
      "stateMutability": "nonpayable",
      "type": "function"
    },
    {
      "inputs": [
        {
          "internalType": "uint16",
          "name": "remoteChainId_",
          "type": "uint16"
        },
        {
          "internalType": "bytes",
          "name": "newRemoteAddress_",
          "type": "bytes"
        }
      ],
      "name": "setTrustedRemoteAddress",
      "outputs": [],
      "stateMutability": "nonpayable",
      "type": "function"
    },
    {
      "inputs": [
        {
          "internalType": "uint256",
          "name": "",
          "type": "uint256"
        }
      ],
      "name": "storedExecutionHashes",
      "outputs": [
        {
          "internalType": "bytes32",
          "name": "",
          "type": "bytes32"
        }
      ],
      "stateMutability": "view",
      "type": "function"
    },
    {
      "inputs": [
        {
          "internalType": "address",
          "name": "newOwner",
          "type": "address"
        }
      ],
      "name": "transferOwnership",
      "outputs": [],
      "stateMutability": "nonpayable",
      "type": "function"
    },
    {
      "inputs": [
        {
          "internalType": "uint16",
          "name": "",
          "type": "uint16"
        }
      ],
      "name": "trustedRemoteLookup",
      "outputs": [
        {
          "internalType": "bytes",
          "name": "",
          "type": "bytes"
        }
      ],
      "stateMutability": "view",
      "type": "function"
    },
    {
      "inputs": [],
      "name": "unpause",
      "outputs": [],
      "stateMutability": "nonpayable",
      "type": "function"
    }
  ],
  "transactionHash": "0xb4c1a2935965eac02c565cd223cf9b902d3ee970d144538e38c603e5ed43d495",
  "args": [
    "0x6Fcb97553D41516Cb228ac03FdC8B9a0a9df04A1",
    "0x45f8a08F534f34A97187626E05d4b6648Eeaa9AA"
  ],
  "numDeployments": 1,
  "solcInputHash": "b379582ce048ce8b7c3cb41f1c420e79",
  "bytecode": "0x60a06040523480156200001157600080fd5b50604051620032063803806200320683398101604081905262000034916200012e565b60016000558062000045336200009b565b6001805460ff60a01b191690556200005d81620000ed565b600280546001600160a01b0319166001600160a01b03929092169190911790556200008882620000ed565b506001600160a01b03166080526200016d565b600180546001600160a01b038381166001600160a01b0319831681179093556040519116919082907f8be0079c531659141344cd1fd0a4f28419497f9722a3daafe3b4186f6b6457e090600090a35050565b6001600160a01b03811662000115576040516342bcdf7f60e11b815260040160405180910390fd5b50565b6001600160a01b03811681146200011557600080fd5b600080604083850312156200014257600080fd5b82516200014f8162000118565b6020840151909250620001628162000118565b809150509250929050565b608051613053620001b3600039600081816104f3015281816105e801528181610bdc01528181610cd80152818161118e01528181611783015261195601526130536000f3fe6080604052600436106101a15760003560e01c80637b4b3933116100e1578063b4a0bdf31161008a578063cd4d1c6411610064578063cd4d1c64146104e1578063da35c66414610515578063e0354d7f1461052b578063f2fde38b1461055857600080fd5b8063b4a0bdf314610481578063bb5a944f146104ae578063cbed8b9c146104c157600080fd5b80638da5cb5b116100bb5780638da5cb5b146103e857806393a61d6c14610434578063a6c3d1651461046157600080fd5b80637b4b3933146103935780637dbb533c146103a65780638456cb59146103d357600080fd5b80633f4ba83a1161014e5780635c975abb116101285780635c975abb146102ff5780635f6716f71461033a578063715018a6146103675780637533d7881461037357600080fd5b80633f4ba83a1461028857806345e380a31461029d5780634f4ba0f4146102d257600080fd5b80632488eec81161017f5780632488eec8146102285780632dbbec081461024857806330fd54a01461026857600080fd5b806307e0db17146101a65780630e32cb86146101c85780631183a3b2146101e8575b600080fd5b3480156101b257600080fd5b506101c66101c13660046121a7565b610578565b005b3480156101d457600080fd5b506101c66101e33660046121e4565b61065c565b3480156101f457600080fd5b506102156102033660046121a7565b60046020526000908152604090205481565b6040519081526020015b60405180910390f35b34801561023457600080fd5b506101c6610243366004612201565b6106fb565b34801561025457600080fd5b506101c66102633660046121a7565b61079e565b34801561027457600080fd5b506101c6610283366004612274565b6107f4565b34801561029457600080fd5b506101c6610b8f565b3480156102a957600080fd5b506102bd6102b8366004612318565b610bd7565b6040805192835260208301919091520161021f565b3480156102de57600080fd5b506102156102ed3660046121a7565b60036020526000908152604090205481565b34801561030b57600080fd5b5060015474010000000000000000000000000000000000000000900460ff16604051901515815260200161021f565b34801561034657600080fd5b5061035a610355366004612399565b610c8e565b60405161021f9190612431565b3480156101c657600080fd5b34801561037f57600080fd5b5061035a61038e3660046121a7565b610d66565b6101c66103a1366004612444565b610e00565b3480156103b257600080fd5b506102156103c13660046124d7565b60086020526000908152604090205481565b3480156103df57600080fd5b506101c661124c565b3480156103f457600080fd5b5060015473ffffffffffffffffffffffffffffffffffffffff165b60405173ffffffffffffffffffffffffffffffffffffffff909116815260200161021f565b34801561044057600080fd5b5061021561044f3660046121a7565b60056020526000908152604090205481565b34801561046d57600080fd5b506101c661047c3660046124f0565b611292565b34801561048d57600080fd5b5060025461040f9073ffffffffffffffffffffffffffffffffffffffff1681565b6101c66104bc366004612318565b611458565b3480156104cd57600080fd5b506101c66104dc366004612543565b6118f8565b3480156104ed57600080fd5b5061040f7f000000000000000000000000000000000000000000000000000000000000000081565b34801561052157600080fd5b5061021560075481565b34801561053757600080fd5b506102156105463660046121a7565b60066020526000908152604090205481565b34801561056457600080fd5b506101c66105733660046121e4565b6119cc565b6105b66040518060400160405280601681526020017f73657453656e6456657273696f6e2875696e7431362900000000000000000000815250611a69565b6040517f07e0db1700000000000000000000000000000000000000000000000000000000815261ffff821660048201527f000000000000000000000000000000000000000000000000000000000000000073ffffffffffffffffffffffffffffffffffffffff16906307e0db1790602401600060405180830381600087803b15801561064157600080fd5b505af1158015610655573d6000803e3d6000fd5b5050505050565b610664611b4e565b61066d81611bb5565b60025460405173ffffffffffffffffffffffffffffffffffffffff8084169216907f66fd58e82f7b31a2a5c30e0888f3093efe4e111b00cd2b0c31fe014601293aa090600090a3600280547fffffffffffffffffffffffff00000000000000000000000000000000000000001673ffffffffffffffffffffffffffffffffffffffff92909216919091179055565b6107396040518060400160405280602081526020017f7365744d61784461696c794c696d69742875696e7431362c75696e7432353629815250611a69565b61ffff82166000818152600360209081526040918290205482519081529081018490527f4dd31065e259d5284e44d1f9265710da72eafcf78dc925e3881189fc3b71f693910160405180910390a261ffff909116600090815260036020526040902055565b6107a6611b4e565b61ffff811660009081526009602052604081206107c2916120bd565b60405161ffff8216907f6d5075c81d4d9e75bec6052f4e44f58f8a8cf1327544addbbf015fb06f83bd3790600090a250565b6107fc611b4e565b610804611c02565b61080d88611bb5565b600081116108885760405162461bcd60e51b815260206004820152602e60248201527f4f6d6e69636861696e50726f706f73616c53656e6465723a20696e76616c696460448201527f206e617469766520616d6f756e7400000000000000000000000000000000000060648201526084015b60405180910390fd5b60008490036108ff5760405162461bcd60e51b815260206004820152602660248201527f4f6d6e69636861696e50726f706f73616c53656e6465723a20456d707479207060448201527f61796c6f61640000000000000000000000000000000000000000000000000000606482015260840161087f565b600087815260086020526040902054806109815760405162461bcd60e51b815260206004820152602a60248201527f4f6d6e69636861696e50726f706f73616c53656e6465723a206e6f2073746f7260448201527f6564207061796c6f616400000000000000000000000000000000000000000000606482015260840161087f565b600087878787878760405160200161099e969594939291906125cc565b604051602081830303815290604052905081818051906020012014610a2b5760405162461bcd60e51b815260206004820152603160248201527f4f6d6e69636861696e50726f706f73616c53656e6465723a20696e76616c696460448201527f20657865637574696f6e20706172616d73000000000000000000000000000000606482015260840161087f565b600089815260086020526040808220919091555173ffffffffffffffffffffffffffffffffffffffff8b16907f22fe8e8ead80ad0961d77107e806ba9bcf9ca3b175a9d446145646d39c36ab9690610a869086815260200190565b60405180910390a2887f2dc7ac5d08fd553243fc66b5f15262e3f3013e27abf660d7bb3fccf133322f6e83604051610ac091815260200190565b60405180910390a260008a73ffffffffffffffffffffffffffffffffffffffff168460405160006040518083038185875af1925050503d8060008114610b22576040519150601f19603f3d011682016040523d82523d6000602084013e610b27565b606091505b5050905080610b785760405162461bcd60e51b815260206004820152600b60248201527f43616c6c206661696c6564000000000000000000000000000000000000000000604482015260640161087f565b505050610b856001600055565b5050505050505050565b610bcd6040518060400160405280600981526020017f756e706175736528290000000000000000000000000000000000000000000000815250611a69565b610bd5611c5b565b565b6000807f000000000000000000000000000000000000000000000000000000000000000073ffffffffffffffffffffffffffffffffffffffff166340a7bb108830898960008a8a6040518863ffffffff1660e01b8152600401610c409796959493929190612611565b6040805180830381865afa158015610c5c573d6000803e3d6000fd5b505050506040513d601f19601f82011682018060405250810190610c809190612674565b915091509550959350505050565b6040517ff5ecbdbc00000000000000000000000000000000000000000000000000000000815261ffff808516600483015283166024820152306044820152606481018290526060907f000000000000000000000000000000000000000000000000000000000000000073ffffffffffffffffffffffffffffffffffffffff169063f5ecbdbc90608401600060405180830381865afa158015610d34573d6000803e3d6000fd5b505050506040513d6000823e601f3d908101601f19168201604052610d5c9190810190612775565b90505b9392505050565b60096020526000908152604090208054610d7f906127b2565b80601f0160208091040260200160405190810160405280929190818152602001828054610dab906127b2565b8015610df85780601f10610dcd57610100808354040283529160200191610df8565b820191906000526020600020905b815481529060010190602001808311610ddb57829003601f168201915b505050505081565b610e08611cd8565b610e10611c02565b610e31604051806060016040528060308152602001612fa360309139611a69565b61ffff861660009081526009602052604081208054610e4f906127b2565b80601f0160208091040260200160405190810160405280929190818152602001828054610e7b906127b2565b8015610ec85780601f10610e9d57610100808354040283529160200191610ec8565b820191906000526020600020905b815481529060010190602001808311610eab57829003601f168201915b505050505090508051600003610f6c5760405162461bcd60e51b815260206004820152604260248201527f4f6d6e69636861696e50726f706f73616c53656e6465723a2064657374696e6160448201527f74696f6e20636861696e206973206e6f742061207472757374656420736f757260648201527f6365000000000000000000000000000000000000000000000000000000000000608482015260a40161087f565b60008881526008602052604090205480610fee5760405162461bcd60e51b815260206004820152602a60248201527f4f6d6e69636861696e50726f706f73616c53656e6465723a206e6f2073746f7260448201527f6564207061796c6f616400000000000000000000000000000000000000000000606482015260840161087f565b60008690036110655760405162461bcd60e51b815260206004820152602660248201527f4f6d6e69636861696e50726f706f73616c53656e6465723a20456d707479207060448201527f61796c6f61640000000000000000000000000000000000000000000000000000606482015260840161087f565b600061107387890189612805565b5090506110808982611d43565b600089898989898960405160200161109d969594939291906125cc565b60405160208183030381529060405290508281805190602001201461112a5760405162461bcd60e51b815260206004820152603160248201527f4f6d6e69636861696e50726f706f73616c53656e6465723a20696e76616c696460448201527f20657865637574696f6e20706172616d73000000000000000000000000000000606482015260840161087f565b60008b81526008602052604080822091909155518b907f2dc7ac5d08fd553243fc66b5f15262e3f3013e27abf660d7bb3fccf133322f6e9061116f9086815260200190565b60405180910390a273ffffffffffffffffffffffffffffffffffffffff7f00000000000000000000000000000000000000000000000000000000000000001663c58031006111bd34886128b1565b8c600960008f61ffff1661ffff1681526020019081526020016000208d8d3360008f8f6040518a63ffffffff1660e01b815260040161120398979695949392919061299f565b6000604051808303818588803b15801561121c57600080fd5b505af1158015611230573d6000803e3d6000fd5b5050505050505050506112436001600055565b50505050505050565b61128a6040518060400160405280600781526020017f7061757365282900000000000000000000000000000000000000000000000000815250611a69565b610bd5611e30565b6112b3604051806060016040528060258152602001612fd360259139611a69565b8261ffff166000036113075760405162461bcd60e51b815260206004820152601860248201527f436861696e4964206d757374206e6f74206265207a65726f0000000000000000604482015260640161087f565b61131c6113148284612a17565b60601c611bb5565b61ffff83166000908152600960205260408120805461133a906127b2565b80601f0160208091040260200160405190810160405280929190818152602001828054611366906127b2565b80156113b35780601f10611388576101008083540402835291602001916113b3565b820191906000526020600020905b81548152906001019060200180831161139657829003601f168201915b505050505090508282306040516020016113cf93929190612a5f565b60408051601f1981840301815291815261ffff86166000908152600960209081529190208251611404939192909101906120f7565b5061ffff84166000818152600960205260409081902090517fe84e609c32d71c678382f7c65cc051810a41dcaf660e55c9f8fcffeba4621a329161144a91859190612a98565b60405180910390a250505050565b611460611cd8565b61149e6040518060400160405280601b81526020017f657865637574652875696e7431362c62797465732c6279746573290000000000815250611a69565b600034116115145760405162461bcd60e51b815260206004820152602d60248201527f4f6d6e69636861696e50726f706f73616c53656e6465723a2076616c7565206360448201527f616e6e6f74206265207a65726f00000000000000000000000000000000000000606482015260840161087f565b600083900361158b5760405162461bcd60e51b815260206004820152602660248201527f4f6d6e69636861696e50726f706f73616c53656e6465723a20456d707479207060448201527f61796c6f61640000000000000000000000000000000000000000000000000000606482015260840161087f565b61ffff8516600090815260096020526040812080546115a9906127b2565b80601f01602080910402602001604051908101604052809291908181526020018280546115d5906127b2565b80156116225780601f106115f757610100808354040283529160200191611622565b820191906000526020600020905b81548152906001019060200180831161160557829003601f168201915b5050505050905080516000036116c65760405162461bcd60e51b815260206004820152604260248201527f4f6d6e69636861696e50726f706f73616c53656e6465723a2064657374696e6160448201527f74696f6e20636861696e206973206e6f742061207472757374656420736f757260648201527f6365000000000000000000000000000000000000000000000000000000000000608482015260a40161087f565b6117068686868080601f016020809104026020016040519081016040528093929190818152602001838380828437600092019190915250611d4392505050565b600060076000815461171790612ac6565b9190508190559050600086868360405160200161173693929190612afe565b60408051601f19818403018152908290527fc5803100000000000000000000000000000000000000000000000000000000008252915073ffffffffffffffffffffffffffffffffffffffff7f0000000000000000000000000000000000000000000000000000000000000000169063c58031009034906117c7908c908890879033906000908e908e90600401612b22565b6000604051808303818588803b1580156117e057600080fd5b505af1935050505080156117f2575060015b6118b0573d808015611820576040519150601f19603f3d011682016040523d82523d6000602084013e611825565b606091505b50888287873460405160200161183f959493929190612b8a565b60408051601f198184030181528282528051602091820120600087815260089092529190205561ffff8a169084907f6d16111647e03d7f1cb2b71c02eafe3355b97dfc17af3de1b94ef39c8a9ee4d9906118a29086908b908b9034908990612bcd565b60405180910390a350610b85565b8761ffff167f95a4fcf4eb9be6f5cf2eb6830782870f8907bccc513f765388a9cb2dae2f325983836040516118e6929190612c19565b60405180910390a25050505050505050565b611919604051806060016040528060268152602001612ff860269139611a69565b6040517fcbed8b9c00000000000000000000000000000000000000000000000000000000815273ffffffffffffffffffffffffffffffffffffffff7f0000000000000000000000000000000000000000000000000000000000000000169063cbed8b9c906119939088908890889088908890600401612c32565b600060405180830381600087803b1580156119ad57600080fd5b505af11580156119c1573d6000803e3d6000fd5b505050505050505050565b6119d4611b4e565b73ffffffffffffffffffffffffffffffffffffffff8116611a5d5760405162461bcd60e51b815260206004820152602660248201527f4f776e61626c653a206e6577206f776e657220697320746865207a65726f206160448201527f6464726573730000000000000000000000000000000000000000000000000000606482015260840161087f565b611a6681611e9f565b50565b6002546040517f18c5e8ab00000000000000000000000000000000000000000000000000000000815273ffffffffffffffffffffffffffffffffffffffff909116906318c5e8ab90611ac19033908590600401612c6b565b602060405180830381865afa158015611ade573d6000803e3d6000fd5b505050506040513d601f19601f82011682018060405250810190611b029190612c9a565b611a665760405162461bcd60e51b815260206004820152600d60248201527f6163636573732064656e69656400000000000000000000000000000000000000604482015260640161087f565b60015473ffffffffffffffffffffffffffffffffffffffff163314610bd55760405162461bcd60e51b815260206004820181905260248201527f4f776e61626c653a2063616c6c6572206973206e6f7420746865206f776e6572604482015260640161087f565b73ffffffffffffffffffffffffffffffffffffffff8116611a66576040517f8579befe00000000000000000000000000000000000000000000000000000000815260040160405180910390fd5b600260005403611c545760405162461bcd60e51b815260206004820152601f60248201527f5265656e7472616e637947756172643a207265656e7472616e742063616c6c00604482015260640161087f565b6002600055565b611c63611f16565b600180547fffffffffffffffffffffff00ffffffffffffffffffffffffffffffffffffffff1690557f5db9ee0a495bf2e6ff9c91a7834c1ba4fdd244a5e8aa4e537bd38aeae4b073aa335b60405173ffffffffffffffffffffffffffffffffffffffff909116815260200160405180910390a1565b60015474010000000000000000000000000000000000000000900460ff1615610bd55760405162461bcd60e51b815260206004820152601060248201527f5061757361626c653a2070617573656400000000000000000000000000000000604482015260640161087f565b60008060008084806020019051810190611d5d9190612e6c565b50935093509350935082518451148015611d78575081518451145b8015611d85575080518451145b611e1d5760405162461bcd60e51b815260206004820152604560248201527f4f6d6e69636861696e50726f706f73616c53656e6465723a2070726f706f736160448201527f6c2066756e6374696f6e20696e666f726d6174696f6e206172697479206d697360648201527f6d61746368000000000000000000000000000000000000000000000000000000608482015260a40161087f565b611e28868551611f80565b505050505050565b611e38611cd8565b600180547fffffffffffffffffffffff00ffffffffffffffffffffffffffffffffffffffff16740100000000000000000000000000000000000000001790557f62e78cea01bee320cd4e420270b5ea74000d11b0c9f74754ebdbfc544b05a258611cae3390565b6001805473ffffffffffffffffffffffffffffffffffffffff8381167fffffffffffffffffffffffff0000000000000000000000000000000000000000831681179093556040519116919082907f8be0079c531659141344cd1fd0a4f28419497f9722a3daafe3b4186f6b6457e090600090a35050565b60015474010000000000000000000000000000000000000000900460ff16610bd55760405162461bcd60e51b815260206004820152601460248201527f5061757361626c653a206e6f7420706175736564000000000000000000000000604482015260640161087f565b61ffff821660009081526005602090815260408083205460048352818420546003845282852054600690945291909320544293929062015180611fc38587612f8b565b1115611fe75761ffff87166000908152600560205260409020859055859250611ff4565b611ff186846128b1565b92505b818311156120445760405162461bcd60e51b815260206004820181905260248201527f4461696c79205472616e73616374696f6e204c696d6974204578636565646564604482015260640161087f565b8481036120935760405162461bcd60e51b815260206004820152601f60248201527f4d756c7469706c65206272696467696e6720696e20612070726f706f73616c00604482015260640161087f565b505061ffff9094166000908152600460209081526040808320969096556006905293909320555050565b5080546120c9906127b2565b6000825580601f106120d9575050565b601f016020900490600052602060002090810190611a66919061217b565b828054612103906127b2565b90600052602060002090601f016020900481019282612125576000855561216b565b82601f1061213e57805160ff191683800117855561216b565b8280016001018555821561216b579182015b8281111561216b578251825591602001919060010190612150565b5061217792915061217b565b5090565b5b80821115612177576000815560010161217c565b803561ffff811681146121a257600080fd5b919050565b6000602082840312156121b957600080fd5b610d5f82612190565b73ffffffffffffffffffffffffffffffffffffffff81168114611a6657600080fd5b6000602082840312156121f657600080fd5b8135610d5f816121c2565b6000806040838503121561221457600080fd5b61221d83612190565b946020939093013593505050565b60008083601f84011261223d57600080fd5b50813567ffffffffffffffff81111561225557600080fd5b60208301915083602082850101111561226d57600080fd5b9250929050565b60008060008060008060008060c0898b03121561229057600080fd5b883561229b816121c2565b9750602089013596506122b060408a01612190565b9550606089013567ffffffffffffffff808211156122cd57600080fd5b6122d98c838d0161222b565b909750955060808b01359150808211156122f257600080fd5b506122ff8b828c0161222b565b999c989b50969995989497949560a00135949350505050565b60008060008060006060868803121561233057600080fd5b61233986612190565b9450602086013567ffffffffffffffff8082111561235657600080fd5b61236289838a0161222b565b9096509450604088013591508082111561237b57600080fd5b506123888882890161222b565b969995985093965092949392505050565b6000806000606084860312156123ae57600080fd5b6123b784612190565b92506123c560208501612190565b9150604084013590509250925092565b60005b838110156123f05781810151838201526020016123d8565b838111156123ff576000848401525b50505050565b6000815180845261241d8160208601602086016123d5565b601f01601f19169290920160200192915050565b602081526000610d5f6020830184612405565b600080600080600080600060a0888a03121561245f57600080fd5b8735965061246f60208901612190565b9550604088013567ffffffffffffffff8082111561248c57600080fd5b6124988b838c0161222b565b909750955060608a01359150808211156124b157600080fd5b506124be8a828b0161222b565b989b979a50959894979596608090950135949350505050565b6000602082840312156124e957600080fd5b5035919050565b60008060006040848603121561250557600080fd5b61250e84612190565b9250602084013567ffffffffffffffff81111561252a57600080fd5b6125368682870161222b565b9497909650939450505050565b60008060008060006080868803121561255b57600080fd5b61256486612190565b945061257260208701612190565b935060408601359250606086013567ffffffffffffffff81111561259557600080fd5b6123888882890161222b565b818352818160208501375060006020828401015260006020601f19601f840116840101905092915050565b61ffff871681526080602082015260006125ea6080830187896125a1565b82810360408401526125fd8186886125a1565b915050826060830152979650505050505050565b61ffff8816815273ffffffffffffffffffffffffffffffffffffffff8716602082015260a06040820152600061264b60a0830187896125a1565b851515606084015282810360808401526126668185876125a1565b9a9950505050505050505050565b6000806040838503121561268757600080fd5b505080516020909101519092909150565b7f4e487b7100000000000000000000000000000000000000000000000000000000600052604160045260246000fd5b604051601f8201601f1916810167ffffffffffffffff811182821017156126f0576126f0612698565b604052919050565b600067ffffffffffffffff82111561271257612712612698565b50601f01601f191660200190565b600061273361272e846126f8565b6126c7565b905082815283838301111561274757600080fd5b610d5f8360208301846123d5565b600082601f83011261276657600080fd5b610d5f83835160208501612720565b60006020828403121561278757600080fd5b815167ffffffffffffffff81111561279e57600080fd5b6127aa84828501612755565b949350505050565b600181811c908216806127c657607f821691505b6020821081036127ff577f4e487b7100000000000000000000000000000000000000000000000000000000600052602260045260246000fd5b50919050565b6000806040838503121561281857600080fd5b823567ffffffffffffffff81111561282f57600080fd5b8301601f8101851361284057600080fd5b803561284e61272e826126f8565b81815286602083850101111561286357600080fd5b8160208401602083013760006020928201830152969401359450505050565b7f4e487b7100000000000000000000000000000000000000000000000000000000600052601160045260246000fd5b600082198211156128c4576128c4612882565b500190565b8054600090600181811c90808316806128e357607f831692505b6020808410820361291d577f4e487b7100000000000000000000000000000000000000000000000000000000600052602260045260246000fd5b83885260208801828015612938576001811461296757612992565b7fffffffffffffffffffffffffffffffffffffffffffffffffffffffffffffff00871682528282019750612992565b60008981526020902060005b8781101561298c57815484820152908601908401612973565b83019850505b5050505050505092915050565b61ffff8916815260c0602082015260006129bc60c083018a6128c9565b82810360408401526129cf81898b6125a1565b73ffffffffffffffffffffffffffffffffffffffff88811660608601528716608085015283810360a08501529050612a088185876125a1565b9b9a5050505050505050505050565b7fffffffffffffffffffffffffffffffffffffffff0000000000000000000000008135818116916014851015612a575780818660140360031b1b83161692505b505092915050565b8284823760609190911b7fffffffffffffffffffffffffffffffffffffffff000000000000000000000000169101908152601401919050565b604081526000612aab6040830185612405565b8281036020840152612abd81856128c9565b95945050505050565b60007fffffffffffffffffffffffffffffffffffffffffffffffffffffffffffffffff8203612af757612af7612882565b5060010190565b604081526000612b126040830185876125a1565b9050826020830152949350505050565b61ffff8816815260c060208201526000612b3f60c0830189612405565b8281036040840152612b518189612405565b73ffffffffffffffffffffffffffffffffffffffff88811660608601528716608085015283810360a085015290506126668185876125a1565b61ffff86168152608060208201526000612ba76080830187612405565b8281036040840152612bba8186886125a1565b9150508260608301529695505050505050565b608081526000612be06080830188612405565b8281036020840152612bf38187896125a1565b90508460408401528281036060840152612c0d8185612405565b98975050505050505050565b828152604060208201526000610d5c6040830184612405565b600061ffff808816835280871660208401525084604083015260806060830152612c606080830184866125a1565b979650505050505050565b73ffffffffffffffffffffffffffffffffffffffff83168152604060208201526000610d5c6040830184612405565b600060208284031215612cac57600080fd5b81518015158114610d5f57600080fd5b600067ffffffffffffffff821115612cd657612cd6612698565b5060051b60200190565b600082601f830112612cf157600080fd5b81516020612d0161272e83612cbc565b82815260059290921b84018101918181019086841115612d2057600080fd5b8286015b84811015612d3b5780518352918301918301612d24565b509695505050505050565b600082601f830112612d5757600080fd5b81516020612d6761272e83612cbc565b82815260059290921b84018101918181019086841115612d8657600080fd5b8286015b84811015612d3b57805167ffffffffffffffff811115612daa5760008081fd5b8701603f81018913612dbc5760008081fd5b612dcd898683015160408401612720565b845250918301918301612d8a565b600082601f830112612dec57600080fd5b81516020612dfc61272e83612cbc565b82815260059290921b84018101918181019086841115612e1b57600080fd5b8286015b84811015612d3b57805167ffffffffffffffff811115612e3f5760008081fd5b612e4d8986838b0101612755565b845250918301918301612e1f565b805160ff811681146121a257600080fd5b600080600080600060a08688031215612e8457600080fd5b855167ffffffffffffffff80821115612e9c57600080fd5b818801915088601f830112612eb057600080fd5b81516020612ec061272e83612cbc565b82815260059290921b8401810191818101908c841115612edf57600080fd5b948201945b83861015612f06578551612ef7816121c2565b82529482019490820190612ee4565b918b0151919950909350505080821115612f1f57600080fd5b612f2b89838a01612ce0565b95506040880151915080821115612f4157600080fd5b612f4d89838a01612d46565b94506060880151915080821115612f6357600080fd5b50612f7088828901612ddb565b925050612f7f60808701612e5b565b90509295509295909350565b600082821015612f9d57612f9d612882565b50039056fe7265747279457865637574652875696e743235362c75696e7431362c62797465732c62797465732c75696e74323536297365745472757374656452656d6f7465416464726573732875696e7431362c627974657329736574436f6e6669672875696e7431362c75696e7431362c75696e743235362c627974657329a2646970667358221220f937064caf0b6749e8c2dc32f5bf36fd8e3f91293e7965f0579a4fec4118e55164736f6c634300080d0033",
  "devdoc": {
    "author": "Venus",
    "custom:security-contact": "https://github.com/VenusProtocol/governance-contracts#discussion",
    "kind": "dev",
    "methods": {
      "estimateFees(uint16,bytes,bytes)": {
        "details": "The estimated fees are the minimum required; it's recommended to increase the fees amount when sending a message. The unused amount will be refunded",
        "params": {
          "adapterParams_": "The params used to specify the custom amount of gas required for the execution on the destination",
          "payload_": "The payload to be sent to the remote chain. It's computed as follows: payload = abi.encode(abi.encode(targets, values, signatures, calldatas), pId)",
          "remoteChainId_": "The LayerZero id of a remote chain"
        },
        "returns": {
          "_0": "nativeFee The amount of fee in the native gas token (e.g. ETH)",
          "_1": "zroFee The amount of fee in ZRO token"
        }
      },
      "execute(uint16,bytes,bytes)": {
        "custom:access": "Controlled by Access Control Manager",
        "custom:event": "Emits ExecuteRemoteProposal with remote chain id and payload on successEmits StorePayload with last stored payload proposal ID ,remote chain id , payload, adapter params , values and reason for failure",
        "details": "Stores the hash of the execution parameters if sending fails (e.g., due to insufficient fees)",
        "params": {
          "adapterParams_": "The params used to specify the custom amount of gas required for the execution on the destination",
          "payload_": "The payload to be sent to the remote chain. It's computed as follows: payload = abi.encode(targets, values, signatures, calldatas, proposalType)",
          "remoteChainId_": "The LayerZero id of the remote chain"
        }
      },
      "fallbackWithdraw(address,uint256,uint16,bytes,bytes,uint256)": {
        "custom:access": "Only owner",
        "custom:event": "Emits ClearPayload with proposal ID and hashEmits FallbackWithdraw with receiver and amount",
        "params": {
          "adapterParams_": "The params used to specify the custom amount of gas required for the execution on the destination",
          "originalValue_": "The msg.value passed when execute() function was called",
          "pId_": "The proposal ID to identify a failed message",
          "payload_": "The payload to be sent to the remote chain. It's computed as follows: payload = abi.encode(abi.encode(targets, values, signatures, calldatas), pId)",
          "remoteChainId_": "The LayerZero id of the remote chain",
          "to_": "Address of the receiver"
        }
      },
      "getConfig(uint16,uint16,uint256)": {
        "params": {
          "chainId_": "The LayerZero chainId",
          "configType_": "Type of configuration. Every messaging library has its own convention.",
          "version_": "Messaging library version"
        }
      },
      "owner()": {
        "details": "Returns the address of the current owner."
      },
      "pause()": {
        "custom:access": "Controlled by AccessControlManager."
      },
      "paused()": {
        "details": "Returns true if the contract is paused, and false otherwise."
      },
      "removeTrustedRemote(uint16)": {
        "custom:access": "Only owner.",
        "custom:event": "Emit TrustedRemoteRemoved with remote chain id.",
        "params": {
          "remoteChainId_": "The chain's id corresponds to setting the trusted remote to empty."
        }
      },
      "retryExecute(uint256,uint16,bytes,bytes,uint256)": {
        "custom:access": "Controlled by Access Control Manager",
        "custom:event": "Emits ClearPayload with proposal ID and hash",
        "details": "Allows providing more fees if needed. The extra fees will be refunded to the caller",
        "params": {
          "adapterParams_": "The params used to specify the custom amount of gas required for the execution on the destination",
          "originalValue_": "The msg.value passed when execute() function was called",
          "pId_": "The proposal ID to identify a failed message",
          "payload_": "The payload to be sent to the remote chain. It's computed as follows: payload = abi.encode(abi.encode(targets, values, signatures, calldatas), pId)",
          "remoteChainId_": "The LayerZero id of the remote chain"
        }
      },
      "setAccessControlManager(address)": {
        "custom:access": "Only owner",
        "custom:event": "Emits NewAccessControlManager with old and new access control manager addresses",
        "params": {
          "accessControlManager_": "The new address of the Access Control Manager."
        }
      },
      "setConfig(uint16,uint16,uint256,bytes)": {
        "custom:access": "Controlled by AccessControlManager.",
        "params": {
          "chainId_": "The LayerZero chainId for the pending config change",
          "configType_": "The type of configuration. Every messaging library has its own convention",
          "config_": "The configuration in bytes. It can encode arbitrary content",
          "version_": "Messaging library version"
        }
      },
      "setMaxDailyLimit(uint16,uint256)": {
        "custom:access": "Controlled by AccessControlManager.",
        "custom:event": "Emits SetMaxDailyLimit with old and new limit and its corresponding chain id",
        "params": {
          "chainId_": "Destination chain ID.",
          "limit_": "Number of commands."
        }
      },
      "setSendVersion(uint16)": {
        "custom:access": "Controlled by AccessControlManager.",
        "params": {
          "version_": "New messaging library version"
        }
      },
      "setTrustedRemoteAddress(uint16,bytes)": {
        "custom:access": "Controlled by AccessControlManager.",
        "custom:event": "Emits SetTrustedRemoteAddress with remote chain Id and remote address",
        "params": {
          "newRemoteAddress_": "The address of the contract on the remote chain to receive messages sent by this contract",
          "remoteChainId_": "The LayerZero id of a remote chain"
        }
      },
      "transferOwnership(address)": {
        "details": "Transfers ownership of the contract to a new account (`newOwner`). Can only be called by the current owner."
      },
      "unpause()": {
        "custom:access": "Controlled by AccessControlManager."
      }
    },
    "stateVariables": {
      "storedExecutionHashes": {
        "details": "[proposalId] -> [executionHash]"
      }
    },
    "title": "OmnichainProposalSender",
    "version": 1
  },
  "userdoc": {
    "errors": {
      "ZeroAddressNotAllowed()": [
        {
          "notice": "Thrown if the supplied address is a zero address where it is not allowed"
        }
      ]
    },
    "events": {
      "ClearPayload(uint256,bytes32)": {
        "notice": "Emitted when a previously failed message is successfully sent to the remote chain"
      },
      "ExecuteRemoteProposal(uint16,uint256,bytes)": {
        "notice": "Emitted when a proposal execution request is sent to the remote chain"
      },
      "FallbackWithdraw(address,uint256)": {
        "notice": "Emitted while fallback withdraw"
      },
      "NewAccessControlManager(address,address)": {
        "notice": "Emitted when the address of ACM is updated."
      },
      "SetMaxDailyLimit(uint16,uint256,uint256)": {
        "notice": "Emitted when the maximum daily limit of commands from the local chain is modified."
      },
      "SetTrustedRemoteAddress(uint16,bytes,bytes)": {
        "notice": "Emitted when a remote message receiver is set for the remote chain"
      },
      "StorePayload(uint256,uint16,bytes,bytes,uint256,bytes)": {
        "notice": "Emitted when an execution hash of a failed message is saved"
      },
      "TrustedRemoteRemoved(uint16)": {
        "notice": "Event emitted when trusted remote sets to empty."
      }
    },
    "kind": "user",
    "methods": {
      "LZ_ENDPOINT()": {
        "notice": "LayerZero endpoint for sending messages to remote chains"
      },
      "accessControlManager()": {
        "notice": "ACM (Access Control Manager) contract address."
      },
      "chainIdToLast24HourCommandsSent(uint16)": {
        "notice": "Total commands transferred within the last 24-hour window from the local chain."
      },
      "chainIdToLast24HourWindowStart(uint16)": {
        "notice": "Timestamp when the last 24-hour window started from the local chain."
      },
      "chainIdToLastProposalSentTimestamp(uint16)": {
        "notice": "Timestamp when the last proposal sent from the local chain to dest chain."
      },
      "chainIdToMaxDailyLimit(uint16)": {
        "notice": "Maximum daily limit for commands from the local chain."
      },
      "estimateFees(uint16,bytes,bytes)": {
        "notice": "Estimates LayerZero fees for cross-chain message delivery to the remote chain"
      },
      "execute(uint16,bytes,bytes)": {
        "notice": "Sends a message to execute a remote proposal"
      },
      "fallbackWithdraw(address,uint256,uint16,bytes,bytes,uint256)": {
        "notice": "Clear previously failed message"
      },
      "getConfig(uint16,uint16,uint256)": {
        "notice": "Gets the configuration of the LayerZero messaging library of the specified version"
      },
      "pause()": {
        "notice": "Triggers the paused state of the controller."
      },
      "proposalCount()": {
        "notice": "Stores the total number of remote proposals"
      },
      "removeTrustedRemote(uint16)": {
        "notice": "Remove trusted remote from storage."
      },
      "renounceOwnership()": {
        "notice": "Empty implementation of renounce ownership to avoid any mishap."
      },
      "retryExecute(uint256,uint16,bytes,bytes,uint256)": {
        "notice": "Resends a previously failed message"
      },
      "setAccessControlManager(address)": {
        "notice": "Sets the address of Access Control Manager (ACM)."
      },
      "setConfig(uint16,uint16,uint256,bytes)": {
        "notice": "Sets the configuration of the LayerZero messaging library of the specified version"
      },
      "setMaxDailyLimit(uint16,uint256)": {
        "notice": "Sets the limit of daily (24 Hour) command amount."
      },
      "setSendVersion(uint16)": {
        "notice": "Sets the configuration of the LayerZero messaging library of the specified version"
      },
      "setTrustedRemoteAddress(uint16,bytes)": {
        "notice": "Sets the remote message receiver address"
      },
      "storedExecutionHashes(uint256)": {
        "notice": "Execution hashes of failed messages"
      },
      "trustedRemoteLookup(uint16)": {
        "notice": "Specifies the allowed path for sending messages (remote chainId => remote app address + local app address)"
      },
      "unpause()": {
        "notice": "Triggers the resume state of the controller."
      }
    },
    "notice": "OmnichainProposalSender contract builds upon the functionality of its parent contract , BaseOmnichainControllerSrc It sends a proposal's data to remote chains for execution after the proposal passes on the main chain when used with GovernorBravo, the owner of this contract must be set to the Timelock contract",
    "version": 1
  },
  "storageLayout": {
    "storage": [
      {
        "astId": 1707,
        "contract": "contracts/Cross-chain/OmnichainProposalSender.sol:OmnichainProposalSender",
        "label": "_status",
        "offset": 0,
        "slot": "0",
        "type": "t_uint256"
      },
      {
        "astId": 1483,
        "contract": "contracts/Cross-chain/OmnichainProposalSender.sol:OmnichainProposalSender",
        "label": "_owner",
        "offset": 0,
        "slot": "1",
        "type": "t_address"
      },
      {
        "astId": 1606,
        "contract": "contracts/Cross-chain/OmnichainProposalSender.sol:OmnichainProposalSender",
        "label": "_paused",
        "offset": 20,
        "slot": "1",
        "type": "t_bool"
      },
      {
        "astId": 1958,
        "contract": "contracts/Cross-chain/OmnichainProposalSender.sol:OmnichainProposalSender",
        "label": "accessControlManager",
        "offset": 0,
        "slot": "2",
        "type": "t_address"
      },
      {
        "astId": 1963,
        "contract": "contracts/Cross-chain/OmnichainProposalSender.sol:OmnichainProposalSender",
        "label": "chainIdToMaxDailyLimit",
        "offset": 0,
        "slot": "3",
        "type": "t_mapping(t_uint16,t_uint256)"
      },
      {
        "astId": 1968,
        "contract": "contracts/Cross-chain/OmnichainProposalSender.sol:OmnichainProposalSender",
        "label": "chainIdToLast24HourCommandsSent",
        "offset": 0,
        "slot": "4",
        "type": "t_mapping(t_uint16,t_uint256)"
      },
      {
        "astId": 1973,
        "contract": "contracts/Cross-chain/OmnichainProposalSender.sol:OmnichainProposalSender",
        "label": "chainIdToLast24HourWindowStart",
        "offset": 0,
        "slot": "5",
        "type": "t_mapping(t_uint16,t_uint256)"
      },
      {
        "astId": 1978,
        "contract": "contracts/Cross-chain/OmnichainProposalSender.sol:OmnichainProposalSender",
        "label": "chainIdToLastProposalSentTimestamp",
        "offset": 0,
        "slot": "6",
        "type": "t_mapping(t_uint16,t_uint256)"
      },
      {
        "astId": 3082,
        "contract": "contracts/Cross-chain/OmnichainProposalSender.sol:OmnichainProposalSender",
        "label": "proposalCount",
        "offset": 0,
        "slot": "7",
        "type": "t_uint256"
      },
      {
        "astId": 3087,
        "contract": "contracts/Cross-chain/OmnichainProposalSender.sol:OmnichainProposalSender",
        "label": "storedExecutionHashes",
        "offset": 0,
        "slot": "8",
        "type": "t_mapping(t_uint256,t_bytes32)"
      },
      {
        "astId": 3096,
        "contract": "contracts/Cross-chain/OmnichainProposalSender.sol:OmnichainProposalSender",
        "label": "trustedRemoteLookup",
        "offset": 0,
        "slot": "9",
        "type": "t_mapping(t_uint16,t_bytes_storage)"
      }
    ],
    "types": {
      "t_address": {
        "encoding": "inplace",
        "label": "address",
        "numberOfBytes": "20"
      },
      "t_bool": {
        "encoding": "inplace",
        "label": "bool",
        "numberOfBytes": "1"
      },
      "t_bytes32": {
        "encoding": "inplace",
        "label": "bytes32",
        "numberOfBytes": "32"
      },
      "t_bytes_storage": {
        "encoding": "bytes",
        "label": "bytes",
        "numberOfBytes": "32"
      },
      "t_mapping(t_uint16,t_bytes_storage)": {
        "encoding": "mapping",
        "key": "t_uint16",
        "label": "mapping(uint16 => bytes)",
        "numberOfBytes": "32",
        "value": "t_bytes_storage"
      },
      "t_mapping(t_uint16,t_uint256)": {
        "encoding": "mapping",
        "key": "t_uint16",
        "label": "mapping(uint16 => uint256)",
        "numberOfBytes": "32",
        "value": "t_uint256"
      },
      "t_mapping(t_uint256,t_bytes32)": {
        "encoding": "mapping",
        "key": "t_uint256",
        "label": "mapping(uint256 => bytes32)",
        "numberOfBytes": "32",
        "value": "t_bytes32"
      },
      "t_uint16": {
        "encoding": "inplace",
        "label": "uint16",
        "numberOfBytes": "2"
      },
      "t_uint256": {
        "encoding": "inplace",
        "label": "uint256",
        "numberOfBytes": "32"
      }
    }
  }
}