{
  "address": "0x24b4A647B005291e97AdFf7078b912A39C905091",
  "abi": [
    {
      "inputs": [
        {
          "internalType": "contract ILayerZeroEndpoint",
          "name": "lzEndpoint_",
          "type": "address"
        },
        {
          "internalType": "address",
          "name": "accessControlManager_",
          "type": "address"
        }
      ],
      "stateMutability": "nonpayable",
      "type": "constructor"
    },
    {
      "inputs": [],
      "name": "ZeroAddressNotAllowed",
      "type": "error"
    },
    {
      "anonymous": false,
      "inputs": [
        {
          "indexed": true,
          "internalType": "uint256",
          "name": "proposalId",
          "type": "uint256"
        },
        {
          "indexed": false,
          "internalType": "bytes32",
          "name": "executionHash",
          "type": "bytes32"
        }
      ],
      "name": "ClearPayload",
      "type": "event"
    },
    {
      "anonymous": false,
      "inputs": [
        {
          "indexed": true,
          "internalType": "uint16",
          "name": "remoteChainId",
          "type": "uint16"
        },
        {
          "indexed": false,
          "internalType": "uint256",
          "name": "proposalId",
          "type": "uint256"
        },
        {
          "indexed": false,
          "internalType": "bytes",
          "name": "payload",
          "type": "bytes"
        }
      ],
      "name": "ExecuteRemoteProposal",
      "type": "event"
    },
    {
      "anonymous": false,
      "inputs": [
        {
          "indexed": true,
          "internalType": "address",
          "name": "receiver",
          "type": "address"
        },
        {
          "indexed": false,
          "internalType": "uint256",
          "name": "value",
          "type": "uint256"
        }
      ],
      "name": "FallbackWithdraw",
      "type": "event"
    },
    {
      "anonymous": false,
      "inputs": [
        {
          "indexed": true,
          "internalType": "address",
          "name": "oldAccessControlManager",
          "type": "address"
        },
        {
          "indexed": true,
          "internalType": "address",
          "name": "newAccessControlManager",
          "type": "address"
        }
      ],
      "name": "NewAccessControlManager",
      "type": "event"
    },
    {
      "anonymous": false,
      "inputs": [
        {
          "indexed": true,
          "internalType": "address",
          "name": "previousOwner",
          "type": "address"
        },
        {
          "indexed": true,
          "internalType": "address",
          "name": "newOwner",
          "type": "address"
        }
      ],
      "name": "OwnershipTransferred",
      "type": "event"
    },
    {
      "anonymous": false,
      "inputs": [
        {
          "indexed": false,
          "internalType": "address",
          "name": "account",
          "type": "address"
        }
      ],
      "name": "Paused",
      "type": "event"
    },
    {
      "anonymous": false,
      "inputs": [
        {
          "indexed": true,
          "internalType": "uint16",
          "name": "chainId",
          "type": "uint16"
        },
        {
          "indexed": false,
          "internalType": "uint256",
          "name": "oldMaxLimit",
          "type": "uint256"
        },
        {
          "indexed": false,
          "internalType": "uint256",
          "name": "newMaxLimit",
          "type": "uint256"
        }
      ],
      "name": "SetMaxDailyLimit",
      "type": "event"
    },
    {
      "anonymous": false,
      "inputs": [
        {
          "indexed": true,
          "internalType": "uint16",
          "name": "remoteChainId",
          "type": "uint16"
        },
        {
          "indexed": false,
          "internalType": "bytes",
          "name": "oldRemoteAddress",
          "type": "bytes"
        },
        {
          "indexed": false,
          "internalType": "bytes",
          "name": "newRemoteAddress",
          "type": "bytes"
        }
      ],
      "name": "SetTrustedRemoteAddress",
      "type": "event"
    },
    {
      "anonymous": false,
      "inputs": [
        {
          "indexed": true,
          "internalType": "uint256",
          "name": "proposalId",
          "type": "uint256"
        },
        {
          "indexed": true,
          "internalType": "uint16",
          "name": "remoteChainId",
          "type": "uint16"
        },
        {
          "indexed": false,
          "internalType": "bytes",
          "name": "payload",
          "type": "bytes"
        },
        {
          "indexed": false,
          "internalType": "bytes",
          "name": "adapterParams",
          "type": "bytes"
        },
        {
          "indexed": false,
          "internalType": "uint256",
          "name": "value",
          "type": "uint256"
        },
        {
          "indexed": false,
          "internalType": "bytes",
          "name": "reason",
          "type": "bytes"
        }
      ],
      "name": "StorePayload",
      "type": "event"
    },
    {
      "anonymous": false,
      "inputs": [
        {
          "indexed": true,
          "internalType": "uint16",
          "name": "chainId",
          "type": "uint16"
        }
      ],
      "name": "TrustedRemoteRemoved",
      "type": "event"
    },
    {
      "anonymous": false,
      "inputs": [
        {
          "indexed": false,
          "internalType": "address",
          "name": "account",
          "type": "address"
        }
      ],
      "name": "Unpaused",
      "type": "event"
    },
    {
      "inputs": [],
      "name": "LZ_ENDPOINT",
      "outputs": [
        {
          "internalType": "contract ILayerZeroEndpoint",
          "name": "",
          "type": "address"
        }
      ],
      "stateMutability": "view",
      "type": "function"
    },
    {
      "inputs": [],
      "name": "accessControlManager",
      "outputs": [
        {
          "internalType": "address",
          "name": "",
          "type": "address"
        }
      ],
      "stateMutability": "view",
      "type": "function"
    },
    {
      "inputs": [
        {
          "internalType": "uint16",
          "name": "",
          "type": "uint16"
        }
      ],
      "name": "chainIdToLast24HourCommandsSent",
      "outputs": [
        {
          "internalType": "uint256",
          "name": "",
          "type": "uint256"
        }
      ],
      "stateMutability": "view",
      "type": "function"
    },
    {
      "inputs": [
        {
          "internalType": "uint16",
          "name": "",
          "type": "uint16"
        }
      ],
      "name": "chainIdToLast24HourWindowStart",
      "outputs": [
        {
          "internalType": "uint256",
          "name": "",
          "type": "uint256"
        }
      ],
      "stateMutability": "view",
      "type": "function"
    },
    {
      "inputs": [
        {
          "internalType": "uint16",
          "name": "",
          "type": "uint16"
        }
      ],
      "name": "chainIdToLastProposalSentTimestamp",
      "outputs": [
        {
          "internalType": "uint256",
          "name": "",
          "type": "uint256"
        }
      ],
      "stateMutability": "view",
      "type": "function"
    },
    {
      "inputs": [
        {
          "internalType": "uint16",
          "name": "",
          "type": "uint16"
        }
      ],
      "name": "chainIdToMaxDailyLimit",
      "outputs": [
        {
          "internalType": "uint256",
          "name": "",
          "type": "uint256"
        }
      ],
      "stateMutability": "view",
      "type": "function"
    },
    {
      "inputs": [
        {
          "internalType": "uint16",
          "name": "remoteChainId_",
          "type": "uint16"
        },
        {
          "internalType": "bytes",
          "name": "payload_",
          "type": "bytes"
        },
        {
          "internalType": "bool",
          "name": "useZro_",
          "type": "bool"
        },
        {
          "internalType": "bytes",
          "name": "adapterParams_",
          "type": "bytes"
        }
      ],
      "name": "estimateFees",
      "outputs": [
        {
          "internalType": "uint256",
          "name": "",
          "type": "uint256"
        },
        {
          "internalType": "uint256",
          "name": "",
          "type": "uint256"
        }
      ],
      "stateMutability": "view",
      "type": "function"
    },
    {
      "inputs": [
        {
          "internalType": "uint16",
          "name": "remoteChainId_",
          "type": "uint16"
        },
        {
          "internalType": "bytes",
          "name": "payload_",
          "type": "bytes"
        },
        {
          "internalType": "bytes",
          "name": "adapterParams_",
          "type": "bytes"
        },
        {
          "internalType": "address",
          "name": "zroPaymentAddress_",
          "type": "address"
        }
      ],
      "name": "execute",
      "outputs": [],
      "stateMutability": "payable",
      "type": "function"
    },
    {
      "inputs": [
        {
          "internalType": "address",
          "name": "to_",
          "type": "address"
        },
        {
          "internalType": "uint256",
          "name": "pId_",
          "type": "uint256"
        },
        {
          "internalType": "uint16",
          "name": "remoteChainId_",
          "type": "uint16"
        },
        {
          "internalType": "bytes",
          "name": "payload_",
          "type": "bytes"
        },
        {
          "internalType": "bytes",
          "name": "adapterParams_",
          "type": "bytes"
        },
        {
          "internalType": "uint256",
          "name": "originalValue_",
          "type": "uint256"
        }
      ],
      "name": "fallbackWithdraw",
      "outputs": [],
      "stateMutability": "nonpayable",
      "type": "function"
    },
    {
      "inputs": [
        {
          "internalType": "uint16",
          "name": "version_",
          "type": "uint16"
        },
        {
          "internalType": "uint16",
          "name": "chainId_",
          "type": "uint16"
        },
        {
          "internalType": "uint256",
          "name": "configType_",
          "type": "uint256"
        }
      ],
      "name": "getConfig",
      "outputs": [
        {
          "internalType": "bytes",
          "name": "",
          "type": "bytes"
        }
      ],
      "stateMutability": "view",
      "type": "function"
    },
    {
      "inputs": [],
      "name": "owner",
      "outputs": [
        {
          "internalType": "address",
          "name": "",
          "type": "address"
        }
      ],
      "stateMutability": "view",
      "type": "function"
    },
    {
      "inputs": [],
      "name": "pause",
      "outputs": [],
      "stateMutability": "nonpayable",
      "type": "function"
    },
    {
      "inputs": [],
      "name": "paused",
      "outputs": [
        {
          "internalType": "bool",
          "name": "",
          "type": "bool"
        }
      ],
      "stateMutability": "view",
      "type": "function"
    },
    {
      "inputs": [],
      "name": "proposalCount",
      "outputs": [
        {
          "internalType": "uint256",
          "name": "",
          "type": "uint256"
        }
      ],
      "stateMutability": "view",
      "type": "function"
    },
    {
      "inputs": [
        {
          "internalType": "uint16",
          "name": "remoteChainId_",
          "type": "uint16"
        }
      ],
      "name": "removeTrustedRemote",
      "outputs": [],
      "stateMutability": "nonpayable",
      "type": "function"
    },
    {
      "inputs": [],
      "name": "renounceOwnership",
      "outputs": [],
      "stateMutability": "nonpayable",
      "type": "function"
    },
    {
      "inputs": [
        {
          "internalType": "uint256",
          "name": "pId_",
          "type": "uint256"
        },
        {
          "internalType": "uint16",
          "name": "remoteChainId_",
          "type": "uint16"
        },
        {
          "internalType": "bytes",
          "name": "payload_",
          "type": "bytes"
        },
        {
          "internalType": "bytes",
          "name": "adapterParams_",
          "type": "bytes"
        },
        {
          "internalType": "address",
          "name": "zroPaymentAddress_",
          "type": "address"
        },
        {
          "internalType": "uint256",
          "name": "originalValue_",
          "type": "uint256"
        }
      ],
      "name": "retryExecute",
      "outputs": [],
      "stateMutability": "payable",
      "type": "function"
    },
    {
      "inputs": [
        {
          "internalType": "address",
          "name": "accessControlManager_",
          "type": "address"
        }
      ],
      "name": "setAccessControlManager",
      "outputs": [],
      "stateMutability": "nonpayable",
      "type": "function"
    },
    {
      "inputs": [
        {
          "internalType": "uint16",
          "name": "version_",
          "type": "uint16"
        },
        {
          "internalType": "uint16",
          "name": "chainId_",
          "type": "uint16"
        },
        {
          "internalType": "uint256",
          "name": "configType_",
          "type": "uint256"
        },
        {
          "internalType": "bytes",
          "name": "config_",
          "type": "bytes"
        }
      ],
      "name": "setConfig",
      "outputs": [],
      "stateMutability": "nonpayable",
      "type": "function"
    },
    {
      "inputs": [
        {
          "internalType": "uint16",
          "name": "chainId_",
          "type": "uint16"
        },
        {
          "internalType": "uint256",
          "name": "limit_",
          "type": "uint256"
        }
      ],
      "name": "setMaxDailyLimit",
      "outputs": [],
      "stateMutability": "nonpayable",
      "type": "function"
    },
    {
      "inputs": [
        {
          "internalType": "uint16",
          "name": "version_",
          "type": "uint16"
        }
      ],
      "name": "setSendVersion",
      "outputs": [],
      "stateMutability": "nonpayable",
      "type": "function"
    },
    {
      "inputs": [
        {
          "internalType": "uint16",
          "name": "remoteChainId_",
          "type": "uint16"
        },
        {
          "internalType": "bytes",
          "name": "newRemoteAddress_",
          "type": "bytes"
        }
      ],
      "name": "setTrustedRemoteAddress",
      "outputs": [],
      "stateMutability": "nonpayable",
      "type": "function"
    },
    {
      "inputs": [
        {
          "internalType": "uint256",
          "name": "",
          "type": "uint256"
        }
      ],
      "name": "storedExecutionHashes",
      "outputs": [
        {
          "internalType": "bytes32",
          "name": "",
          "type": "bytes32"
        }
      ],
      "stateMutability": "view",
      "type": "function"
    },
    {
      "inputs": [
        {
          "internalType": "address",
          "name": "newOwner",
          "type": "address"
        }
      ],
      "name": "transferOwnership",
      "outputs": [],
      "stateMutability": "nonpayable",
      "type": "function"
    },
    {
      "inputs": [
        {
          "internalType": "uint16",
          "name": "",
          "type": "uint16"
        }
      ],
      "name": "trustedRemoteLookup",
      "outputs": [
        {
          "internalType": "bytes",
          "name": "",
          "type": "bytes"
        }
      ],
      "stateMutability": "view",
      "type": "function"
    },
    {
      "inputs": [],
      "name": "unpause",
      "outputs": [],
      "stateMutability": "nonpayable",
      "type": "function"
    }
  ],
  "transactionHash": "0xca0d9b5f2c94149f1774c926ad4b1d300e4fcc8c99bb5abac10b999c54e8a23b",
  "args": [
    "0x6Fcb97553D41516Cb228ac03FdC8B9a0a9df04A1",
    "0x45f8a08F534f34A97187626E05d4b6648Eeaa9AA"
  ],
  "numDeployments": 1,
  "solcInputHash": "de74f931b2a7bdb007222f3d742f6820",
  "bytecode": "0x60a060405234801561000f575f80fd5b5060405161336538038061336583398101604081905261002e9161011c565b60015f558061003c3361008d565b6001805460ff60a01b19169055610052816100de565b600280546001600160a01b0319166001600160a01b039290921691909117905561007b826100de565b506001600160a01b0316608052610154565b600180546001600160a01b038381166001600160a01b0319831681179093556040519116919082907f8be0079c531659141344cd1fd0a4f28419497f9722a3daafe3b4186f6b6457e0905f90a35050565b6001600160a01b038116610105576040516342bcdf7f60e11b815260040160405180910390fd5b50565b6001600160a01b0381168114610105575f80fd5b5f806040838503121561012d575f80fd5b825161013881610108565b602084015190925061014981610108565b809150509250929050565b6080516131cf6101965f395f81816104be015281816105c2015281816106d30152818161101e015281816111da015281816115f101526119d801526131cf5ff3fe608060405260043610610199575f3560e01c80637533d788116100dc578063b4a0bdf311610087578063da35c66411610062578063da35c664146104e0578063e0354d7f146104f5578063e2222b0e14610520578063f2fde38b14610533575f80fd5b8063b4a0bdf314610462578063cbed8b9c1461048e578063cd4d1c64146104ad575f80fd5b80638da5cb5b116100b75780638da5cb5b146103cd57806393a61d6c14610418578063a6c3d16514610443575f80fd5b80637533d7881461036f5780637dbb533c1461038e5780638456cb59146103b9575f80fd5b806330fd54a0116101475780634f4ba0f4116101225780634f4ba0f4146102d35780635c975abb146102fe5780635f6716f714610338578063715018a614610364575f80fd5b806330fd54a01461028d5780633f4ba83a146102ac5780633fd9d7ef146102c0575f80fd5b806321b4eaa11161017757806321b4eaa11461021b5780632488eec81461024f5780632dbbec081461026e575f80fd5b806307e0db171461019d5780630e32cb86146101be5780631183a3b2146101dd575b5f80fd5b3480156101a8575f80fd5b506101bc6101b73660046121b3565b610552565b005b3480156101c9575f80fd5b506101bc6101d83660046121ed565b610631565b3480156101e8575f80fd5b506102086101f73660046121b3565b60046020525f908152604090205481565b6040519081526020015b60405180910390f35b348015610226575f80fd5b5061023a61023536600461225a565b6106cf565b60408051928352602083019190915201610212565b34801561025a575f80fd5b506101bc6102693660046122e9565b610783565b348015610279575f80fd5b506101bc6102883660046121b3565b610824565b348015610298575f80fd5b506101bc6102a7366004612311565b610946565b3480156102b7575f80fd5b506101bc610cd2565b6101bc6102ce3660046123ae565b610d1a565b3480156102de575f80fd5b506102086102ed3660046121b3565b60036020525f908152604090205481565b348015610309575f80fd5b5060015474010000000000000000000000000000000000000000900460ff166040519015158152602001610212565b348015610343575f80fd5b5061035761035236600461243b565b611190565b60405161021291906124c1565b3480156101bc575f80fd5b34801561037a575f80fd5b506103576103893660046121b3565b611264565b348015610399575f80fd5b506102086103a83660046124d3565b60086020525f908152604090205481565b3480156103c4575f80fd5b506101bc6112fb565b3480156103d8575f80fd5b5060015473ffffffffffffffffffffffffffffffffffffffff165b60405173ffffffffffffffffffffffffffffffffffffffff9091168152602001610212565b348015610423575f80fd5b506102086104323660046121b3565b60056020525f908152604090205481565b34801561044e575f80fd5b506101bc61045d3660046124ea565b611341565b34801561046d575f80fd5b506002546103f39073ffffffffffffffffffffffffffffffffffffffff1681565b348015610499575f80fd5b506101bc6104a8366004612539565b611593565b3480156104b8575f80fd5b506103f37f000000000000000000000000000000000000000000000000000000000000000081565b3480156104eb575f80fd5b5061020860075481565b348015610500575f80fd5b5061020861050f3660046121b3565b60066020525f908152604090205481565b6101bc61052e3660046125a3565b611657565b34801561053e575f80fd5b506101bc61054d3660046121ed565b611a6c565b6105906040518060400160405280601681526020017f73657453656e6456657273696f6e2875696e7431362900000000000000000000815250611b09565b6040517f07e0db1700000000000000000000000000000000000000000000000000000000815261ffff821660048201527f000000000000000000000000000000000000000000000000000000000000000073ffffffffffffffffffffffffffffffffffffffff16906307e0db17906024015f604051808303815f87803b158015610618575f80fd5b505af115801561062a573d5f803e3d5ffd5b5050505050565b610639611bec565b61064281611c53565b60025460405173ffffffffffffffffffffffffffffffffffffffff8084169216907f66fd58e82f7b31a2a5c30e0888f3093efe4e111b00cd2b0c31fe014601293aa0905f90a3600280547fffffffffffffffffffffffff00000000000000000000000000000000000000001673ffffffffffffffffffffffffffffffffffffffff92909216919091179055565b5f807f000000000000000000000000000000000000000000000000000000000000000073ffffffffffffffffffffffffffffffffffffffff166340a7bb1089308a8a8a8a8a6040518863ffffffff1660e01b8152600401610736979695949392919061266c565b6040805180830381865afa158015610750573d5f803e3d5ffd5b505050506040513d601f19601f8201168201806040525081019061077491906126ce565b91509150965096945050505050565b6107c16040518060400160405280602081526020017f7365744d61784461696c794c696d69742875696e7431362c75696e7432353629815250611b09565b61ffff82165f818152600360209081526040918290205482519081529081018490527f4dd31065e259d5284e44d1f9265710da72eafcf78dc925e3881189fc3b71f693910160405180910390a261ffff9091165f90815260036020526040902055565b6108626040518060400160405280601b81526020017f72656d6f76655472757374656452656d6f74652875696e743136290000000000815250611b09565b61ffff81165f908152600960205260409020805461087f906126f0565b90505f036108fa5760405162461bcd60e51b815260206004820152603160248201527f4f6d6e69636861696e50726f706f73616c53656e6465723a207472757374656460448201527f2072656d6f7465206e6f7420666f756e6400000000000000000000000000000060648201526084015b60405180910390fd5b61ffff81165f90815260096020526040812061091591612153565b60405161ffff8216907f6d5075c81d4d9e75bec6052f4e44f58f8a8cf1327544addbbf015fb06f83bd37905f90a250565b61094e611bec565b610956611ca0565b61095f88611c53565b5f81116109d45760405162461bcd60e51b815260206004820152602e60248201527f4f6d6e69636861696e50726f706f73616c53656e6465723a20696e76616c696460448201527f206e617469766520616d6f756e7400000000000000000000000000000000000060648201526084016108f1565b5f849003610a4a5760405162461bcd60e51b815260206004820152602660248201527f4f6d6e69636861696e50726f706f73616c53656e6465723a20656d707479207060448201527f61796c6f6164000000000000000000000000000000000000000000000000000060648201526084016108f1565b5f8781526008602052604090205480610acb5760405162461bcd60e51b815260206004820152602a60248201527f4f6d6e69636861696e50726f706f73616c53656e6465723a206e6f2073746f7260448201527f6564207061796c6f61640000000000000000000000000000000000000000000060648201526084016108f1565b5f878787878787604051602001610ae796959493929190612741565b604051602081830303815290604052905081818051906020012014610b745760405162461bcd60e51b815260206004820152603160248201527f4f6d6e69636861696e50726f706f73616c53656e6465723a20696e76616c696460448201527f20657865637574696f6e20706172616d7300000000000000000000000000000060648201526084016108f1565b5f89815260086020526040808220919091555173ffffffffffffffffffffffffffffffffffffffff8b16907f22fe8e8ead80ad0961d77107e806ba9bcf9ca3b175a9d446145646d39c36ab9690610bce9086815260200190565b60405180910390a2887f2dc7ac5d08fd553243fc66b5f15262e3f3013e27abf660d7bb3fccf133322f6e83604051610c0891815260200190565b60405180910390a25f8a73ffffffffffffffffffffffffffffffffffffffff16846040515f6040518083038185875af1925050503d805f8114610c66576040519150601f19603f3d011682016040523d82523d5f602084013e610c6b565b606091505b5050905080610cbc5760405162461bcd60e51b815260206004820152600b60248201527f43616c6c206661696c656400000000000000000000000000000000000000000060448201526064016108f1565b505050610cc860015f55565b5050505050505050565b610d106040518060400160405280600981526020017f756e706175736528290000000000000000000000000000000000000000000000815250611b09565b610d18611cf7565b565b610d22611d74565b610d436040518060600160405280602381526020016130f460239139611b09565b5f3411610db85760405162461bcd60e51b815260206004820152602d60248201527f4f6d6e69636861696e50726f706f73616c53656e6465723a2076616c7565206360448201527f616e6e6f74206265207a65726f0000000000000000000000000000000000000060648201526084016108f1565b5f849003610e2e5760405162461bcd60e51b815260206004820152602660248201527f4f6d6e69636861696e50726f706f73616c53656e6465723a20656d707479207060448201527f61796c6f6164000000000000000000000000000000000000000000000000000060648201526084016108f1565b61ffff86165f9081526009602052604081208054610e4b906126f0565b80601f0160208091040260200160405190810160405280929190818152602001828054610e77906126f0565b8015610ec25780601f10610e9957610100808354040283529160200191610ec2565b820191905f5260205f20905b815481529060010190602001808311610ea557829003601f168201915b5050505050905080515f03610f655760405162461bcd60e51b815260206004820152604260248201527f4f6d6e69636861696e50726f706f73616c53656e6465723a2064657374696e6160448201527f74696f6e20636861696e206973206e6f742061207472757374656420736f757260648201527f6365000000000000000000000000000000000000000000000000000000000000608482015260a4016108f1565b610fa48787878080601f0160208091040260200160405190810160405280939291908181526020018383808284375f92019190915250611ddf92505050565b5f60075f8154610fb3906127b2565b91905081905590505f878783604051602001610fd1939291906127e9565b60408051601f19818403018152908290527fc5803100000000000000000000000000000000000000000000000000000000008252915073ffffffffffffffffffffffffffffffffffffffff7f0000000000000000000000000000000000000000000000000000000000000000169063c5803100903490611061908d908890879033908c908f908f9060040161280c565b5f604051808303818588803b158015611078575f80fd5b505af19350505050801561108a575060015b611146573d8080156110b7576040519150601f19603f3d011682016040523d82523d5f602084013e6110bc565b606091505b5089828888346040516020016110d6959493929190612873565b60408051601f1981840301815282825280516020918201205f87815260089092529190205561ffff8b169084907f6d16111647e03d7f1cb2b71c02eafe3355b97dfc17af3de1b94ef39c8a9ee4d9906111389086908c908c90349089906128b5565b60405180910390a350611185565b8861ffff167f95a4fcf4eb9be6f5cf2eb6830782870f8907bccc513f765388a9cb2dae2f3259838360405161117c929190612900565b60405180910390a25b505050505050505050565b6040517ff5ecbdbc00000000000000000000000000000000000000000000000000000000815261ffff808516600483015283166024820152306044820152606481018290526060907f000000000000000000000000000000000000000000000000000000000000000073ffffffffffffffffffffffffffffffffffffffff169063f5ecbdbc906084015f60405180830381865afa158015611233573d5f803e3d5ffd5b505050506040513d5f823e601f3d908101601f1916820160405261125a91908101906129ee565b90505b9392505050565b60096020525f90815260409020805461127c906126f0565b80601f01602080910402602001604051908101604052809291908181526020018280546112a8906126f0565b80156112f35780601f106112ca576101008083540402835291602001916112f3565b820191905f5260205f20905b8154815290600101906020018083116112d657829003601f168201915b505050505081565b6113396040518060400160405280600781526020017f7061757365282900000000000000000000000000000000000000000000000000815250611b09565b610d18611eca565b61136260405180606001604052806025815260200161311760259139611b09565b8261ffff165f036113db5760405162461bcd60e51b815260206004820152603160248201527f4f6d6e69636861696e50726f706f73616c53656e6465723a20636861696e496460448201527f206d757374206e6f74206265207a65726f00000000000000000000000000000060648201526084016108f1565b6113f06113e88284612a28565b60601c611c53565b601481146114665760405162461bcd60e51b815260206004820152603d60248201527f4f6d6e69636861696e50726f706f73616c53656e6465723a2072656d6f74652060448201527f61646472657373206d757374206265203230206279746573206c6f6e6700000060648201526084016108f1565b61ffff83165f9081526009602052604081208054611483906126f0565b80601f01602080910402602001604051908101604052809291908181526020018280546114af906126f0565b80156114fa5780601f106114d1576101008083540402835291602001916114fa565b820191905f5260205f20905b8154815290600101906020018083116114dd57829003601f168201915b5050505050905082823060405160200161151693929190612a70565b60408051601f1981840301815291815261ffff86165f908152600960205220906115409082612af2565b5061ffff84165f818152600960205260409081902090517fe84e609c32d71c678382f7c65cc051810a41dcaf660e55c9f8fcffeba4621a329161158591859190612bec565b60405180910390a250505050565b6115b460405180606001604052806026815260200161313c60269139611b09565b6040517fcbed8b9c00000000000000000000000000000000000000000000000000000000815273ffffffffffffffffffffffffffffffffffffffff7f0000000000000000000000000000000000000000000000000000000000000000169063cbed8b9c9061162e9088908890889088908890600401612ca0565b5f604051808303815f87803b158015611645575f80fd5b505af1158015611185573d5f803e3d5ffd5b61165f611d74565b611667611ca0565b61168860405180606001604052806038815260200161316260389139611b09565b61ffff87165f90815260096020526040812080546116a5906126f0565b80601f01602080910402602001604051908101604052809291908181526020018280546116d1906126f0565b801561171c5780601f106116f35761010080835404028352916020019161171c565b820191905f5260205f20905b8154815290600101906020018083116116ff57829003601f168201915b5050505050905080515f036117bf5760405162461bcd60e51b815260206004820152604260248201527f4f6d6e69636861696e50726f706f73616c53656e6465723a2064657374696e6160448201527f74696f6e20636861696e206973206e6f742061207472757374656420736f757260648201527f6365000000000000000000000000000000000000000000000000000000000000608482015260a4016108f1565b5f89815260086020526040902054806118405760405162461bcd60e51b815260206004820152602a60248201527f4f6d6e69636861696e50726f706f73616c53656e6465723a206e6f2073746f7260448201527f6564207061796c6f61640000000000000000000000000000000000000000000060648201526084016108f1565b5f8790036118b65760405162461bcd60e51b815260206004820152602660248201527f4f6d6e69636861696e50726f706f73616c53656e6465723a20656d707479207060448201527f61796c6f6164000000000000000000000000000000000000000000000000000060648201526084016108f1565b5f6118c3888a018a612cd8565b5090506118d08a82611ddf565b818a8a8a8a8a896040516020016118ec96959493929190612741565b60405160208183030381529060405280519060200120146119755760405162461bcd60e51b815260206004820152603160248201527f4f6d6e69636861696e50726f706f73616c53656e6465723a20696e76616c696460448201527f20657865637574696f6e20706172616d7300000000000000000000000000000060648201526084016108f1565b5f8b81526008602052604080822091909155518b907f2dc7ac5d08fd553243fc66b5f15262e3f3013e27abf660d7bb3fccf133322f6e906119b99085815260200190565b60405180910390a273ffffffffffffffffffffffffffffffffffffffff7f00000000000000000000000000000000000000000000000000000000000000001663c5803100611a073487612d4f565b8c868d8d338c8f8f6040518a63ffffffff1660e01b8152600401611a32989796959493929190612d68565b5f604051808303818588803b158015611a49575f80fd5b505af1158015611a5b573d5f803e3d5ffd5b5050505050505050610cc860015f55565b611a74611bec565b73ffffffffffffffffffffffffffffffffffffffff8116611afd5760405162461bcd60e51b815260206004820152602660248201527f4f776e61626c653a206e6577206f776e657220697320746865207a65726f206160448201527f646472657373000000000000000000000000000000000000000000000000000060648201526084016108f1565b611b0681611f39565b50565b6002546040517f18c5e8ab00000000000000000000000000000000000000000000000000000000815273ffffffffffffffffffffffffffffffffffffffff909116906318c5e8ab90611b619033908590600401612ddf565b602060405180830381865afa158015611b7c573d5f803e3d5ffd5b505050506040513d601f19601f82011682018060405250810190611ba09190612e0d565b611b065760405162461bcd60e51b815260206004820152600d60248201527f6163636573732064656e6965640000000000000000000000000000000000000060448201526064016108f1565b60015473ffffffffffffffffffffffffffffffffffffffff163314610d185760405162461bcd60e51b815260206004820181905260248201527f4f776e61626c653a2063616c6c6572206973206e6f7420746865206f776e657260448201526064016108f1565b73ffffffffffffffffffffffffffffffffffffffff8116611b06576040517f8579befe00000000000000000000000000000000000000000000000000000000815260040160405180910390fd5b60025f5403611cf15760405162461bcd60e51b815260206004820152601f60248201527f5265656e7472616e637947756172643a207265656e7472616e742063616c6c0060448201526064016108f1565b60025f55565b611cff611faf565b600180547fffffffffffffffffffffff00ffffffffffffffffffffffffffffffffffffffff1690557f5db9ee0a495bf2e6ff9c91a7834c1ba4fdd244a5e8aa4e537bd38aeae4b073aa335b60405173ffffffffffffffffffffffffffffffffffffffff909116815260200160405180910390a1565b60015474010000000000000000000000000000000000000000900460ff1615610d185760405162461bcd60e51b815260206004820152601060248201527f5061757361626c653a207061757365640000000000000000000000000000000060448201526064016108f1565b5f805f8084806020019051810190611df79190612fcb565b50935093509350935082518451148015611e12575081518451145b8015611e1f575080518451145b611eb75760405162461bcd60e51b815260206004820152604560248201527f4f6d6e69636861696e50726f706f73616c53656e6465723a2070726f706f736160448201527f6c2066756e6374696f6e20696e666f726d6174696f6e206172697479206d697360648201527f6d61746368000000000000000000000000000000000000000000000000000000608482015260a4016108f1565b611ec2868551612019565b505050505050565b611ed2611d74565b600180547fffffffffffffffffffffff00ffffffffffffffffffffffffffffffffffffffff16740100000000000000000000000000000000000000001790557f62e78cea01bee320cd4e420270b5ea74000d11b0c9f74754ebdbfc544b05a258611d4a3390565b6001805473ffffffffffffffffffffffffffffffffffffffff8381167fffffffffffffffffffffffff0000000000000000000000000000000000000000831681179093556040519116919082907f8be0079c531659141344cd1fd0a4f28419497f9722a3daafe3b4186f6b6457e0905f90a35050565b60015474010000000000000000000000000000000000000000900460ff16610d185760405162461bcd60e51b815260206004820152601460248201527f5061757361626c653a206e6f742070617573656400000000000000000000000060448201526064016108f1565b61ffff82165f908152600560209081526040808320546004835281842054600384528285205460069094529190932054429392906201518061205b85876130e0565b111561207e5761ffff87165f90815260056020526040902085905585925061208b565b6120888684612d4f565b92505b818311156120db5760405162461bcd60e51b815260206004820181905260248201527f4461696c79205472616e73616374696f6e204c696d697420457863656564656460448201526064016108f1565b84810361212a5760405162461bcd60e51b815260206004820152601f60248201527f4d756c7469706c65206272696467696e6720696e20612070726f706f73616c0060448201526064016108f1565b505061ffff9094165f908152600460209081526040808320969096556006905293909320555050565b50805461215f906126f0565b5f825580601f1061216e575050565b601f0160209004905f5260205f2090810190611b0691905b80821115612199575f8155600101612186565b5090565b803561ffff811681146121ae575f80fd5b919050565b5f602082840312156121c3575f80fd5b61125d8261219d565b73ffffffffffffffffffffffffffffffffffffffff81168114611b06575f80fd5b5f602082840312156121fd575f80fd5b813561125d816121cc565b5f8083601f840112612218575f80fd5b50813567ffffffffffffffff81111561222f575f80fd5b602083019150836020828501011115612246575f80fd5b9250929050565b8015158114611b06575f80fd5b5f805f805f806080878903121561226f575f80fd5b6122788761219d565b9550602087013567ffffffffffffffff80821115612294575f80fd5b6122a08a838b01612208565b9097509550604089013591506122b58261224d565b909350606088013590808211156122ca575f80fd5b506122d789828a01612208565b979a9699509497509295939492505050565b5f80604083850312156122fa575f80fd5b6123038361219d565b946020939093013593505050565b5f805f805f805f8060c0898b031215612328575f80fd5b8835612333816121cc565b97506020890135965061234860408a0161219d565b9550606089013567ffffffffffffffff80821115612364575f80fd5b6123708c838d01612208565b909750955060808b0135915080821115612388575f80fd5b506123958b828c01612208565b999c989b50969995989497949560a00135949350505050565b5f805f805f80608087890312156123c3575f80fd5b6123cc8761219d565b9550602087013567ffffffffffffffff808211156123e8575f80fd5b6123f48a838b01612208565b9097509550604089013591508082111561240c575f80fd5b5061241989828a01612208565b909450925050606087013561242d816121cc565b809150509295509295509295565b5f805f6060848603121561244d575f80fd5b6124568461219d565b92506124646020850161219d565b9150604084013590509250925092565b5f5b8381101561248e578181015183820152602001612476565b50505f910152565b5f81518084526124ad816020860160208601612474565b601f01601f19169290920160200192915050565b602081525f61125d6020830184612496565b5f602082840312156124e3575f80fd5b5035919050565b5f805f604084860312156124fc575f80fd5b6125058461219d565b9250602084013567ffffffffffffffff811115612520575f80fd5b61252c86828701612208565b9497909650939450505050565b5f805f805f6080868803121561254d575f80fd5b6125568661219d565b94506125646020870161219d565b935060408601359250606086013567ffffffffffffffff811115612586575f80fd5b61259288828901612208565b969995985093965092949392505050565b5f805f805f805f8060c0898b0312156125ba575f80fd5b883597506125ca60208a0161219d565b9650604089013567ffffffffffffffff808211156125e6575f80fd5b6125f28c838d01612208565b909850965060608b013591508082111561260a575f80fd5b506126178b828c01612208565b909550935050608089013561262b816121cc565b8092505060a089013590509295985092959890939650565b81835281816020850137505f602082840101525f6020601f19601f840116840101905092915050565b61ffff8816815273ffffffffffffffffffffffffffffffffffffffff8716602082015260a060408201525f6126a560a083018789612643565b851515606084015282810360808401526126c0818587612643565b9a9950505050505050505050565b5f80604083850312156126df575f80fd5b505080516020909101519092909150565b600181811c9082168061270457607f821691505b60208210810361273b577f4e487b71000000000000000000000000000000000000000000000000000000005f52602260045260245ffd5b50919050565b61ffff87168152608060208201525f61275e608083018789612643565b8281036040840152612771818688612643565b915050826060830152979650505050505050565b7f4e487b71000000000000000000000000000000000000000000000000000000005f52601160045260245ffd5b5f7fffffffffffffffffffffffffffffffffffffffffffffffffffffffffffffffff82036127e2576127e2612785565b5060010190565b604081525f6127fc604083018587612643565b9050826020830152949350505050565b61ffff8816815260c060208201525f61282860c0830189612496565b828103604084015261283a8189612496565b73ffffffffffffffffffffffffffffffffffffffff88811660608601528716608085015283810360a085015290506126c0818587612643565b61ffff86168152608060208201525f61288f6080830187612496565b82810360408401526128a2818688612643565b9150508260608301529695505050505050565b608081525f6128c76080830188612496565b82810360208401526128da818789612643565b905084604084015282810360608401526128f48185612496565b98975050505050505050565b828152604060208201525f61125a6040830184612496565b7f4e487b71000000000000000000000000000000000000000000000000000000005f52604160045260245ffd5b604051601f8201601f1916810167ffffffffffffffff8111828210171561296e5761296e612918565b604052919050565b5f67ffffffffffffffff82111561298f5761298f612918565b50601f01601f191660200190565b5f6129af6129aa84612976565b612945565b90508281528383830111156129c2575f80fd5b61125d836020830184612474565b5f82601f8301126129df575f80fd5b61125d8383516020850161299d565b5f602082840312156129fe575f80fd5b815167ffffffffffffffff811115612a14575f80fd5b612a20848285016129d0565b949350505050565b7fffffffffffffffffffffffffffffffffffffffff0000000000000000000000008135818116916014851015612a685780818660140360031b1b83161692505b505092915050565b8284823760609190911b7fffffffffffffffffffffffffffffffffffffffff000000000000000000000000169101908152601401919050565b601f821115612aed57805f5260205f20601f840160051c81016020851015612ace5750805b601f840160051c820191505b8181101561062a575f8155600101612ada565b505050565b815167ffffffffffffffff811115612b0c57612b0c612918565b612b2081612b1a84546126f0565b84612aa9565b602080601f831160018114612b72575f8415612b3c5750858301515b7fffffffffffffffffffffffffffffffffffffffffffffffffffffffffffffffff600386901b1c1916600185901b178555611ec2565b5f85815260208120601f198616915b82811015612ba057888601518255948401946001909101908401612b81565b5085821015612bdc57878501517fffffffffffffffffffffffffffffffffffffffffffffffffffffffffffffffff600388901b60f8161c191681555b5050505050600190811b01905550565b604081525f612bfe6040830185612496565b6020838203818501525f8554612c13816126f0565b80855260018281168015612c2e5760018114612c6657612c91565b7fffffffffffffffffffffffffffffffffffffffffffffffffffffffffffffff008416868801528583151560051b8801019450612c91565b895f52855f205f5b84811015612c89578154898201890152908301908701612c6e565b880187019550505b50929998505050505050505050565b5f61ffff808816835280871660208401525084604083015260806060830152612ccd608083018486612643565b979650505050505050565b5f8060408385031215612ce9575f80fd5b823567ffffffffffffffff811115612cff575f80fd5b8301601f81018513612d0f575f80fd5b8035612d1d6129aa82612976565b818152866020838501011115612d31575f80fd5b816020840160208301375f6020928201830152969401359450505050565b80820180821115612d6257612d62612785565b92915050565b61ffff8916815260c060208201525f612d8460c083018a612496565b8281036040840152612d9781898b612643565b73ffffffffffffffffffffffffffffffffffffffff88811660608601528716608085015283810360a08501529050612dd0818587612643565b9b9a5050505050505050505050565b73ffffffffffffffffffffffffffffffffffffffff83168152604060208201525f61125a6040830184612496565b5f60208284031215612e1d575f80fd5b815161125d8161224d565b5f67ffffffffffffffff821115612e4157612e41612918565b5060051b60200190565b5f82601f830112612e5a575f80fd5b81516020612e6a6129aa83612e28565b8083825260208201915060208460051b870101935086841115612e8b575f80fd5b602086015b84811015612ea75780518352918301918301612e90565b509695505050505050565b5f82601f830112612ec1575f80fd5b81516020612ed16129aa83612e28565b82815260059290921b84018101918181019086841115612eef575f80fd5b8286015b84811015612ea757805167ffffffffffffffff811115612f11575f80fd5b8701603f81018913612f21575f80fd5b612f3289868301516040840161299d565b845250918301918301612ef3565b5f82601f830112612f4f575f80fd5b81516020612f5f6129aa83612e28565b82815260059290921b84018101918181019086841115612f7d575f80fd5b8286015b84811015612ea757805167ffffffffffffffff811115612f9f575f80fd5b612fad8986838b01016129d0565b845250918301918301612f81565b805160ff811681146121ae575f80fd5b5f805f805f60a08688031215612fdf575f80fd5b855167ffffffffffffffff80821115612ff6575f80fd5b818801915088601f830112613009575f80fd5b815160206130196129aa83612e28565b82815260059290921b8401810191818101908c841115613037575f80fd5b948201945b8386101561305e57855161304f816121cc565b8252948201949082019061303c565b918b0151919950909350505080821115613076575f80fd5b61308289838a01612e4b565b95506040880151915080821115613097575f80fd5b6130a389838a01612eb2565b945060608801519150808211156130b8575f80fd5b506130c588828901612f40565b9250506130d460808701612fbb565b90509295509295909350565b81810381811115612d6257612d6261278556fe657865637574652875696e7431362c62797465732c62797465732c61646472657373297365745472757374656452656d6f7465416464726573732875696e7431362c627974657329736574436f6e6669672875696e7431362c75696e7431362c75696e743235362c6279746573297265747279457865637574652875696e743235362c75696e7431362c62797465732c62797465732c616464726573732c75696e7432353629a26469706673582212202ddd96a4e97380efe7db67774753cba8c2364271276e6aac0166c8b8832ec33564736f6c63430008190033",
  "devdoc": {
    "author": "Venus",
    "custom:security-contact": "https://github.com/VenusProtocol/governance-contracts#discussion",
    "events": {
      "Paused(address)": {
        "details": "Emitted when the pause is triggered by `account`."
      },
      "Unpaused(address)": {
        "details": "Emitted when the pause is lifted by `account`."
      }
    },
    "kind": "dev",
    "methods": {
      "estimateFees(uint16,bytes,bool,bytes)": {
        "details": "The estimated fees are the minimum required; it's recommended to increase the fees amount when sending a message. The unused amount will be refunded",
        "params": {
          "adapterParams_": "The params used to specify the custom amount of gas required for the execution on the destination",
          "payload_": "The payload to be sent to the remote chain. It's computed as follows: payload = abi.encode(abi.encode(targets, values, signatures, calldatas, proposalType), pId)",
          "remoteChainId_": "The LayerZero id of a remote chain",
          "useZro_": "Bool that indicates whether to pay in ZRO tokens or not"
        },
        "returns": {
          "_0": "nativeFee The amount of fee in the native gas token (e.g. ETH)",
          "_1": "zroFee The amount of fee in ZRO token"
        }
      },
      "execute(uint16,bytes,bytes,address)": {
        "custom:access": "Controlled by Access Control Manager",
        "custom:event": "Emits ExecuteRemoteProposal with remote chain id, proposal ID and payload on successEmits StorePayload with last stored payload proposal ID ,remote chain id , payload, adapter params , values and reason for failure",
        "details": "Stores the hash of the execution parameters if sending fails (e.g., due to insufficient fees)",
        "params": {
          "adapterParams_": "The params used to specify the custom amount of gas required for the execution on the destination",
          "payload_": "The payload to be sent to the remote chain It's computed as follows: payload = abi.encode(targets, values, signatures, calldatas, proposalType)",
          "remoteChainId_": "The LayerZero id of the remote chain",
          "zroPaymentAddress_": "The address of the ZRO token holder who would pay for the transaction. This must be either address(this) or tx.origin"
        }
      },
      "fallbackWithdraw(address,uint256,uint16,bytes,bytes,uint256)": {
        "custom:access": "Only owner",
        "custom:event": "Emits ClearPayload with proposal ID and hashEmits FallbackWithdraw with receiver and amount",
        "params": {
          "adapterParams_": "The params used to specify the custom amount of gas required for the execution on the destination",
          "originalValue_": "The msg.value passed when execute() function was called",
          "pId_": "The proposal ID to identify a failed message",
          "payload_": "The payload to be sent to the remote chain It's computed as follows: payload = abi.encode(abi.encode(targets, values, signatures, calldatas, proposalType), pId)",
          "remoteChainId_": "The LayerZero id of the remote chain",
          "to_": "Address of the receiver"
        }
      },
      "getConfig(uint16,uint16,uint256)": {
        "params": {
          "chainId_": "The LayerZero chainId",
          "configType_": "Type of configuration. Every messaging library has its own convention",
          "version_": "Messaging library version"
        }
      },
      "owner()": {
        "details": "Returns the address of the current owner."
      },
      "pause()": {
        "custom:access": "Controlled by AccessControlManager"
      },
      "paused()": {
        "details": "Returns true if the contract is paused, and false otherwise."
      },
      "removeTrustedRemote(uint16)": {
        "custom:access": "Controlled by Access Control Manager",
        "custom:event": "Emit TrustedRemoteRemoved with remote chain id",
        "params": {
          "remoteChainId_": "The chain's id corresponds to setting the trusted remote to empty"
        }
      },
      "retryExecute(uint256,uint16,bytes,bytes,address,uint256)": {
        "custom:access": "Controlled by Access Control Manager",
        "custom:event": "Emits ClearPayload with proposal ID and hash",
        "details": "Allows providing more fees if needed. The extra fees will be refunded to the caller",
        "params": {
          "adapterParams_": "The params used to specify the custom amount of gas required for the execution on the destination",
          "originalValue_": "The msg.value passed when execute() function was called",
          "pId_": "The proposal ID to identify a failed message",
          "payload_": "The payload to be sent to the remote chain It's computed as follows: payload = abi.encode(abi.encode(targets, values, signatures, calldatas, proposalType), pId)",
          "remoteChainId_": "The LayerZero id of the remote chain",
          "zroPaymentAddress_": "The address of the ZRO token holder who would pay for the transaction."
        }
      },
      "setAccessControlManager(address)": {
        "custom:access": "Only owner",
        "custom:event": "Emits NewAccessControlManager with old and new access control manager addresses",
        "params": {
          "accessControlManager_": "The new address of the Access Control Manager"
        }
      },
      "setConfig(uint16,uint16,uint256,bytes)": {
        "custom:access": "Controlled by AccessControlManager",
        "params": {
          "chainId_": "The LayerZero chainId for the pending config change",
          "configType_": "The type of configuration. Every messaging library has its own convention",
          "config_": "The configuration in bytes. It can encode arbitrary content",
          "version_": "Messaging library version"
        }
      },
      "setMaxDailyLimit(uint16,uint256)": {
        "custom:access": "Controlled by AccessControlManager",
        "custom:event": "Emits SetMaxDailyLimit with old and new limit and its corresponding chain id",
        "params": {
          "chainId_": "Destination chain id",
          "limit_": "Number of commands"
        }
      },
      "setSendVersion(uint16)": {
        "custom:access": "Controlled by AccessControlManager",
        "params": {
          "version_": "New messaging library version"
        }
      },
      "setTrustedRemoteAddress(uint16,bytes)": {
        "custom:access": "Controlled by AccessControlManager",
        "custom:event": "Emits SetTrustedRemoteAddress with remote chain Id and remote address",
        "params": {
          "newRemoteAddress_": "The address of the contract on the remote chain to receive messages sent by this contract",
          "remoteChainId_": "The LayerZero id of a remote chain"
        }
      },
      "transferOwnership(address)": {
        "details": "Transfers ownership of the contract to a new account (`newOwner`). Can only be called by the current owner."
      },
      "unpause()": {
        "custom:access": "Controlled by AccessControlManager"
      }
    },
    "stateVariables": {
      "storedExecutionHashes": {
        "details": "[proposalId] -> [executionHash]"
      }
    },
    "title": "OmnichainProposalSender",
    "version": 1
  },
  "userdoc": {
    "errors": {
      "ZeroAddressNotAllowed()": [
        {
          "notice": "Thrown if the supplied address is a zero address where it is not allowed"
        }
      ]
    },
    "events": {
      "ClearPayload(uint256,bytes32)": {
        "notice": "Emitted when a previously failed message is successfully sent to the remote chain"
      },
      "ExecuteRemoteProposal(uint16,uint256,bytes)": {
        "notice": "Emitted when a proposal execution request is sent to the remote chain"
      },
      "FallbackWithdraw(address,uint256)": {
        "notice": "Emitted while fallback withdraw"
      },
      "SetMaxDailyLimit(uint16,uint256,uint256)": {
        "notice": "Emitted when the maximum daily limit of commands from the local chain is modified"
      },
      "SetTrustedRemoteAddress(uint16,bytes,bytes)": {
        "notice": "Emitted when a remote message receiver is set for the remote chain"
      },
      "StorePayload(uint256,uint16,bytes,bytes,uint256,bytes)": {
        "notice": "Emitted when an execution hash of a failed message is saved"
      },
      "TrustedRemoteRemoved(uint16)": {
        "notice": "Event emitted when trusted remote sets to empty"
      }
    },
    "kind": "user",
    "methods": {
      "LZ_ENDPOINT()": {
        "notice": "LayerZero endpoint for sending messages to remote chains"
      },
      "accessControlManager()": {
        "notice": "ACM (Access Control Manager) contract address"
      },
      "chainIdToLast24HourCommandsSent(uint16)": {
        "notice": "Total commands transferred within the last 24-hour window from the local chain"
      },
      "chainIdToLast24HourWindowStart(uint16)": {
        "notice": "Timestamp when the last 24-hour window started from the local chain"
      },
      "chainIdToLastProposalSentTimestamp(uint16)": {
        "notice": "Timestamp when the last proposal sent from the local chain to dest chain"
      },
      "chainIdToMaxDailyLimit(uint16)": {
        "notice": "Maximum daily limit for commands from the local chain"
      },
      "estimateFees(uint16,bytes,bool,bytes)": {
        "notice": "Estimates LayerZero fees for cross-chain message delivery to the remote chain"
      },
      "execute(uint16,bytes,bytes,address)": {
        "notice": "Sends a message to execute a remote proposal"
      },
      "fallbackWithdraw(address,uint256,uint16,bytes,bytes,uint256)": {
        "notice": "Clear previously failed message"
      },
      "getConfig(uint16,uint16,uint256)": {
        "notice": "Gets the configuration of the LayerZero messaging library of the specified version"
      },
      "pause()": {
        "notice": "Triggers the paused state of the controller"
      },
      "proposalCount()": {
        "notice": "Stores the total number of remote proposals"
      },
      "removeTrustedRemote(uint16)": {
        "notice": "Remove trusted remote from storage"
      },
      "renounceOwnership()": {
        "notice": "Empty implementation of renounce ownership to avoid any mishap"
      },
      "retryExecute(uint256,uint16,bytes,bytes,address,uint256)": {
        "notice": "Resends a previously failed message"
      },
      "setAccessControlManager(address)": {
        "notice": "Sets the address of Access Control Manager (ACM)"
      },
      "setConfig(uint16,uint16,uint256,bytes)": {
        "notice": "Sets the configuration of the LayerZero messaging library of the specified version"
      },
      "setMaxDailyLimit(uint16,uint256)": {
        "notice": "Sets the limit of daily (24 Hour) command amount"
      },
      "setSendVersion(uint16)": {
        "notice": "Sets the configuration of the LayerZero messaging library of the specified version"
      },
      "setTrustedRemoteAddress(uint16,bytes)": {
        "notice": "Sets the remote message receiver address"
      },
      "storedExecutionHashes(uint256)": {
        "notice": "Execution hashes of failed messages"
      },
      "trustedRemoteLookup(uint16)": {
        "notice": "Specifies the allowed path for sending messages (remote chainId => remote app address + local app address)"
      },
      "unpause()": {
        "notice": "Triggers the resume state of the controller"
      }
    },
    "notice": "OmnichainProposalSender contract builds upon the functionality of its parent contract , BaseOmnichainControllerSrc It sends a proposal's data to remote chains for execution after the proposal passes on the main chain when used with GovernorBravo, the owner of this contract must be set to the Timelock contract",
    "version": 1
  },
  "storageLayout": {
    "storage": [
      {
        "astId": 480,
        "contract": "contracts/Cross-chain/OmnichainProposalSender.sol:OmnichainProposalSender",
        "label": "_status",
        "offset": 0,
        "slot": "0",
        "type": "t_uint256"
      },
      {
        "astId": 256,
        "contract": "contracts/Cross-chain/OmnichainProposalSender.sol:OmnichainProposalSender",
        "label": "_owner",
        "offset": 0,
        "slot": "1",
        "type": "t_address"
      },
      {
        "astId": 379,
        "contract": "contracts/Cross-chain/OmnichainProposalSender.sol:OmnichainProposalSender",
        "label": "_paused",
        "offset": 20,
        "slot": "1",
        "type": "t_bool"
      },
      {
        "astId": 604,
        "contract": "contracts/Cross-chain/OmnichainProposalSender.sol:OmnichainProposalSender",
        "label": "accessControlManager",
        "offset": 0,
        "slot": "2",
        "type": "t_address"
      },
      {
        "astId": 609,
        "contract": "contracts/Cross-chain/OmnichainProposalSender.sol:OmnichainProposalSender",
        "label": "chainIdToMaxDailyLimit",
        "offset": 0,
        "slot": "3",
        "type": "t_mapping(t_uint16,t_uint256)"
      },
      {
        "astId": 614,
        "contract": "contracts/Cross-chain/OmnichainProposalSender.sol:OmnichainProposalSender",
        "label": "chainIdToLast24HourCommandsSent",
        "offset": 0,
        "slot": "4",
        "type": "t_mapping(t_uint16,t_uint256)"
      },
      {
        "astId": 619,
        "contract": "contracts/Cross-chain/OmnichainProposalSender.sol:OmnichainProposalSender",
        "label": "chainIdToLast24HourWindowStart",
        "offset": 0,
        "slot": "5",
        "type": "t_mapping(t_uint16,t_uint256)"
      },
      {
        "astId": 624,
        "contract": "contracts/Cross-chain/OmnichainProposalSender.sol:OmnichainProposalSender",
        "label": "chainIdToLastProposalSentTimestamp",
        "offset": 0,
        "slot": "6",
        "type": "t_mapping(t_uint16,t_uint256)"
      },
      {
        "astId": 856,
        "contract": "contracts/Cross-chain/OmnichainProposalSender.sol:OmnichainProposalSender",
        "label": "proposalCount",
        "offset": 0,
        "slot": "7",
        "type": "t_uint256"
      },
      {
        "astId": 861,
        "contract": "contracts/Cross-chain/OmnichainProposalSender.sol:OmnichainProposalSender",
        "label": "storedExecutionHashes",
        "offset": 0,
        "slot": "8",
        "type": "t_mapping(t_uint256,t_bytes32)"
      },
      {
        "astId": 870,
        "contract": "contracts/Cross-chain/OmnichainProposalSender.sol:OmnichainProposalSender",
        "label": "trustedRemoteLookup",
        "offset": 0,
        "slot": "9",
        "type": "t_mapping(t_uint16,t_bytes_storage)"
      }
    ],
    "types": {
      "t_address": {
        "encoding": "inplace",
        "label": "address",
        "numberOfBytes": "20"
      },
      "t_bool": {
        "encoding": "inplace",
        "label": "bool",
        "numberOfBytes": "1"
      },
      "t_bytes32": {
        "encoding": "inplace",
        "label": "bytes32",
        "numberOfBytes": "32"
      },
      "t_bytes_storage": {
        "encoding": "bytes",
        "label": "bytes",
        "numberOfBytes": "32"
      },
      "t_mapping(t_uint16,t_bytes_storage)": {
        "encoding": "mapping",
        "key": "t_uint16",
        "label": "mapping(uint16 => bytes)",
        "numberOfBytes": "32",
        "value": "t_bytes_storage"
      },
      "t_mapping(t_uint16,t_uint256)": {
        "encoding": "mapping",
        "key": "t_uint16",
        "label": "mapping(uint16 => uint256)",
        "numberOfBytes": "32",
        "value": "t_uint256"
      },
      "t_mapping(t_uint256,t_bytes32)": {
        "encoding": "mapping",
        "key": "t_uint256",
        "label": "mapping(uint256 => bytes32)",
        "numberOfBytes": "32",
        "value": "t_bytes32"
      },
      "t_uint16": {
        "encoding": "inplace",
        "label": "uint16",
        "numberOfBytes": "2"
      },
      "t_uint256": {
        "encoding": "inplace",
        "label": "uint256",
        "numberOfBytes": "32"
      }
    }
  }
}