{
  "address": "0x7DfC686A2db405b5bC0Ca1dE54e061b287Fb61C6",
  "abi": [
    {
      "inputs": [
        {
          "internalType": "address",
          "name": "riskOracle_",
          "type": "address"
        }
      ],
      "stateMutability": "nonpayable",
      "type": "constructor"
    },
    {
      "inputs": [],
      "name": "ConfigAlreadyProcessed",
      "type": "error"
    },
    {
      "inputs": [],
      "name": "ConfigNotActive",
      "type": "error"
    },
    {
      "inputs": [],
      "name": "InvalidDebounce",
      "type": "error"
    },
    {
      "inputs": [
        {
          "internalType": "address",
          "name": "sender",
          "type": "address"
        },
        {
          "internalType": "address",
          "name": "calledContract",
          "type": "address"
        },
        {
          "internalType": "string",
          "name": "methodSignature",
          "type": "string"
        }
      ],
      "name": "Unauthorized",
      "type": "error"
    },
    {
      "inputs": [],
      "name": "UnsupportedUpdateType",
      "type": "error"
    },
    {
      "inputs": [],
      "name": "UpdateIsExpired",
      "type": "error"
    },
    {
      "inputs": [],
      "name": "UpdateTooFrequent",
      "type": "error"
    },
    {
      "inputs": [],
      "name": "ZeroAddressNotAllowed",
      "type": "error"
    },
    {
      "anonymous": false,
      "inputs": [
        {
          "indexed": false,
          "internalType": "uint8",
          "name": "version",
          "type": "uint8"
        }
      ],
      "name": "Initialized",
      "type": "event"
    },
    {
      "anonymous": false,
      "inputs": [
        {
          "indexed": false,
          "internalType": "address",
          "name": "oldAccessControlManager",
          "type": "address"
        },
        {
          "indexed": false,
          "internalType": "address",
          "name": "newAccessControlManager",
          "type": "address"
        }
      ],
      "name": "NewAccessControlManager",
      "type": "event"
    },
    {
      "anonymous": false,
      "inputs": [
        {
          "indexed": true,
          "internalType": "address",
          "name": "previousOwner",
          "type": "address"
        },
        {
          "indexed": true,
          "internalType": "address",
          "name": "newOwner",
          "type": "address"
        }
      ],
      "name": "OwnershipTransferStarted",
      "type": "event"
    },
    {
      "anonymous": false,
      "inputs": [
        {
          "indexed": true,
          "internalType": "address",
          "name": "previousOwner",
          "type": "address"
        },
        {
          "indexed": true,
          "internalType": "address",
          "name": "newOwner",
          "type": "address"
        }
      ],
      "name": "OwnershipTransferred",
      "type": "event"
    },
    {
      "anonymous": false,
      "inputs": [
        {
          "indexed": false,
          "internalType": "address",
          "name": "account",
          "type": "address"
        }
      ],
      "name": "Paused",
      "type": "event"
    },
    {
      "anonymous": false,
      "inputs": [
        {
          "indexed": true,
          "internalType": "string",
          "name": "updateType",
          "type": "string"
        },
        {
          "indexed": true,
          "internalType": "address",
          "name": "riskSteward",
          "type": "address"
        },
        {
          "indexed": false,
          "internalType": "uint256",
          "name": "debounce",
          "type": "uint256"
        }
      ],
      "name": "RiskParameterConfigSet",
      "type": "event"
    },
    {
      "anonymous": false,
      "inputs": [
        {
          "indexed": true,
          "internalType": "uint256",
          "name": "updateId",
          "type": "uint256"
        }
      ],
      "name": "RiskParameterUpdated",
      "type": "event"
    },
    {
      "anonymous": false,
      "inputs": [
        {
          "indexed": false,
          "internalType": "address",
          "name": "account",
          "type": "address"
        }
      ],
      "name": "Unpaused",
      "type": "event"
    },
    {
      "inputs": [],
      "name": "RISK_ORACLE",
      "outputs": [
        {
          "internalType": "contract IRiskOracle",
          "name": "",
          "type": "address"
        }
      ],
      "stateMutability": "view",
      "type": "function"
    },
    {
      "inputs": [],
      "name": "UPDATE_EXPIRATION_TIME",
      "outputs": [
        {
          "internalType": "uint256",
          "name": "",
          "type": "uint256"
        }
      ],
      "stateMutability": "view",
      "type": "function"
    },
    {
      "inputs": [],
      "name": "acceptOwnership",
      "outputs": [],
      "stateMutability": "nonpayable",
      "type": "function"
    },
    {
      "inputs": [],
      "name": "accessControlManager",
      "outputs": [
        {
          "internalType": "contract IAccessControlManagerV8",
          "name": "",
          "type": "address"
        }
      ],
      "stateMutability": "view",
      "type": "function"
    },
    {
      "inputs": [
        {
          "internalType": "string",
          "name": "updateType",
          "type": "string"
        }
      ],
      "name": "getRiskParameterConfig",
      "outputs": [
        {
          "components": [
            {
              "internalType": "bool",
              "name": "active",
              "type": "bool"
            },
            {
              "internalType": "uint256",
              "name": "debounce",
              "type": "uint256"
            },
            {
              "internalType": "address",
              "name": "riskSteward",
              "type": "address"
            }
          ],
          "internalType": "struct RiskParamConfig",
          "name": "",
          "type": "tuple"
        }
      ],
      "stateMutability": "view",
      "type": "function"
    },
    {
      "inputs": [
        {
          "internalType": "address",
          "name": "accessControlManager_",
          "type": "address"
        }
      ],
      "name": "initialize",
      "outputs": [],
      "stateMutability": "nonpayable",
      "type": "function"
    },
    {
      "inputs": [
        {
          "internalType": "bytes",
          "name": "marketUpdateType",
          "type": "bytes"
        }
      ],
      "name": "lastProcessedTime",
      "outputs": [
        {
          "internalType": "uint256",
          "name": "",
          "type": "uint256"
        }
      ],
      "stateMutability": "view",
      "type": "function"
    },
    {
      "inputs": [],
      "name": "owner",
      "outputs": [
        {
          "internalType": "address",
          "name": "",
          "type": "address"
        }
      ],
      "stateMutability": "view",
      "type": "function"
    },
    {
      "inputs": [],
      "name": "pause",
      "outputs": [],
      "stateMutability": "nonpayable",
      "type": "function"
    },
    {
      "inputs": [],
      "name": "paused",
      "outputs": [
        {
          "internalType": "bool",
          "name": "",
          "type": "bool"
        }
      ],
      "stateMutability": "view",
      "type": "function"
    },
    {
      "inputs": [],
      "name": "pendingOwner",
      "outputs": [
        {
          "internalType": "address",
          "name": "",
          "type": "address"
        }
      ],
      "stateMutability": "view",
      "type": "function"
    },
    {
      "inputs": [
        {
          "internalType": "uint256",
          "name": "updateId",
          "type": "uint256"
        }
      ],
      "name": "processUpdateById",
      "outputs": [],
      "stateMutability": "nonpayable",
      "type": "function"
    },
    {
      "inputs": [
        {
          "internalType": "string",
          "name": "updateType",
          "type": "string"
        },
        {
          "internalType": "address",
          "name": "market",
          "type": "address"
        }
      ],
      "name": "processUpdateByParameterAndMarket",
      "outputs": [],
      "stateMutability": "nonpayable",
      "type": "function"
    },
    {
      "inputs": [
        {
          "internalType": "uint256",
          "name": "updateId",
          "type": "uint256"
        }
      ],
      "name": "processedUpdates",
      "outputs": [
        {
          "internalType": "bool",
          "name": "",
          "type": "bool"
        }
      ],
      "stateMutability": "view",
      "type": "function"
    },
    {
      "inputs": [],
      "name": "renounceOwnership",
      "outputs": [],
      "stateMutability": "nonpayable",
      "type": "function"
    },
    {
      "inputs": [
        {
          "internalType": "address",
          "name": "accessControlManager_",
          "type": "address"
        }
      ],
      "name": "setAccessControlManager",
      "outputs": [],
      "stateMutability": "nonpayable",
      "type": "function"
    },
    {
      "inputs": [
        {
          "internalType": "string",
          "name": "updateType",
          "type": "string"
        },
        {
          "internalType": "address",
          "name": "riskSteward",
          "type": "address"
        },
        {
          "internalType": "uint256",
          "name": "debounce",
          "type": "uint256"
        }
      ],
      "name": "setRiskParameterConfig",
      "outputs": [],
      "stateMutability": "nonpayable",
      "type": "function"
    },
    {
      "inputs": [
        {
          "internalType": "string",
          "name": "updateType",
          "type": "string"
        }
      ],
      "name": "toggleConfigActive",
      "outputs": [],
      "stateMutability": "nonpayable",
      "type": "function"
    },
    {
      "inputs": [
        {
          "internalType": "address",
          "name": "newOwner",
          "type": "address"
        }
      ],
      "name": "transferOwnership",
      "outputs": [],
      "stateMutability": "nonpayable",
      "type": "function"
    },
    {
      "inputs": [],
      "name": "unpause",
      "outputs": [],
      "stateMutability": "nonpayable",
      "type": "function"
    }
  ],
  "transactionHash": "0xa626c0a8dcfd03b0bd93b806ade42dee37f60b48b00896f6dbf0d5d36fab5723",
  "args": [
    "0x7bd97dd6c199532d11cf5f55e13a120db6dd0f4f"
  ],
  "numDeployments": 1,
  "solcInputHash": "1aa98abccc0c79521d01e234ccaa2f56",
  "bytecode": "0x60a060405234801561001057600080fd5b5060405161203038038061203083398101604081905261002f9161013d565b61003881610053565b6001600160a01b03811660805261004d61007d565b5061016d565b6001600160a01b03811661007a576040516342bcdf7f60e11b815260040160405180910390fd5b50565b600054610100900460ff16156100e95760405162461bcd60e51b815260206004820152602760248201527f496e697469616c697a61626c653a20636f6e747261637420697320696e697469604482015266616c697a696e6760c81b606482015260840160405180910390fd5b60005460ff908116101561013b576000805460ff191660ff9081179091556040519081527f7f26b83ff96e1f2b6a682f133852f6798a09c465da95921460cefb38474024989060200160405180910390a15b565b60006020828403121561014f57600080fd5b81516001600160a01b038116811461016657600080fd5b9392505050565b608051611e9a6101966000396000818161025a015281816104a901526106750152611e9a6000f3fe608060405234801561001057600080fd5b506004361061016c5760003560e01c80638456cb59116100cd578063b4a0bdf311610081578063cdd231d211610066578063cdd231d214610341578063e30c397814610354578063f2fde38b1461037257600080fd5b8063b4a0bdf314610310578063c4d66de81461032e57600080fd5b8063a7faee3c116100b2578063a7faee3c146102c7578063ada26f60146102ea578063b080d71d146102fd57600080fd5b80638456cb59146102a15780638da5cb5b146102a957600080fd5b80635f1f8afd11610124578063715018a611610109578063715018a61461018457806379ba50971461024d5780637dd8f5221461025557600080fd5b80635f1f8afd1461020f5780636391c14a1461023a57600080fd5b8063282071411161015557806328207141146101a35780633f4ba83a146101f05780635c975abb146101f857600080fd5b80630e32cb8614610171578063233dd0da14610186575b600080fd5b61018461017f366004611730565b610385565b005b6101906201518081565b6040519081526020015b60405180910390f35b6101b66101b136600461179d565b610399565b60408051825115158152602080840151908201529181015173ffffffffffffffffffffffffffffffffffffffff169082015260600161019a565b610184610419565b60975460ff165b604051901515815260200161019a565b61019061021d3660046118cf565b805160208183018101805160fc8252928201919093012091525481565b610184610248366004611920565b610461565b61018461053e565b61027c7f000000000000000000000000000000000000000000000000000000000000000081565b60405173ffffffffffffffffffffffffffffffffffffffff909116815260200161019a565b6101846105f5565b60335473ffffffffffffffffffffffffffffffffffffffff1661027c565b6101ff6102d5366004611986565b60fd6020526000908152604090205460ff1681565b6101846102f8366004611986565b61063b565b61018461030b36600461199f565b610711565b60c95473ffffffffffffffffffffffffffffffffffffffff1661027c565b61018461033c366004611730565b6108f1565b61018461034f36600461179d565b610a77565b60655473ffffffffffffffffffffffffffffffffffffffff1661027c565b610184610380366004611730565b610b9a565b61038d610c4a565b61039681610ccb565b50565b6040805160608101825260008082526020820181905281830152905160fb906103c590859085906119fc565b908152604080519182900360209081018320606084018352805460ff16151584526001810154918401919091526002015473ffffffffffffffffffffffffffffffffffffffff169082015290505b92915050565b6104576040518060400160405280600981526020017f756e706175736528290000000000000000000000000000000000000000000000815250610ded565b61045f610ec6565b565b610469610f25565b6040517f5decfee400000000000000000000000000000000000000000000000000000000815260009073ffffffffffffffffffffffffffffffffffffffff7f00000000000000000000000000000000000000000000000000000000000000001690635decfee4906104e09086908690600401611a5c565b600060405180830381865afa1580156104fd573d6000803e3d6000fd5b505050506040513d6000823e601f3d908101601f191682016040526105259190810190611ae9565b905061053081610f92565b6105398161113e565b505050565b606554339073ffffffffffffffffffffffffffffffffffffffff1681146105ec576040517f08c379a000000000000000000000000000000000000000000000000000000000815260206004820152602960248201527f4f776e61626c6532537465703a2063616c6c6572206973206e6f74207468652060448201527f6e6577206f776e6572000000000000000000000000000000000000000000000060648201526084015b60405180910390fd5b61039681611263565b6106336040518060400160405280600781526020017f7061757365282900000000000000000000000000000000000000000000000000815250610ded565b61045f611294565b610643610f25565b6040517f37759b9a000000000000000000000000000000000000000000000000000000008152600481018290526000907f000000000000000000000000000000000000000000000000000000000000000073ffffffffffffffffffffffffffffffffffffffff16906337759b9a90602401600060405180830381865afa1580156106d1573d6000803e3d6000fd5b505050506040513d6000823e601f3d908101601f191682016040526106f99190810190611ae9565b905061070481610f92565b61070d8161113e565b5050565b6107326040518060600160405280602e8152602001611e37602e9139610ded565b61077f84848080601f0160208091040260200160405190810160405280939291908181526020018383808284376000920182905250604080516020810190915290815292506112d1915050565b156107b6576040517f80919d7b00000000000000000000000000000000000000000000000000000000815260040160405180910390fd5b806000036107f0576040517ff6ea4e0600000000000000000000000000000000000000000000000000000000815260040160405180910390fd5b60408051606081018252600181526020810183905273ffffffffffffffffffffffffffffffffffffffff841681830152905160fb9061083290879087906119fc565b90815260408051602092819003830181208451815460ff1916901515178155928401516001840155920151600290910180547fffffffffffffffffffffffff00000000000000000000000000000000000000001673ffffffffffffffffffffffffffffffffffffffff9283161790558316906108b190869086906119fc565b604051908190038120838252907f86eaa9468ea02474aca24f2fa44195668e7d4311917190e2cf7ae301ed8cfb179060200160405180910390a350505050565b600054610100900460ff16158080156109115750600054600160ff909116105b8061092b5750303b15801561092b575060005460ff166001145b6109b7576040517f08c379a000000000000000000000000000000000000000000000000000000000815260206004820152602e60248201527f496e697469616c697a61626c653a20636f6e747261637420697320616c72656160448201527f647920696e697469616c697a656400000000000000000000000000000000000060648201526084016105e3565b6000805460ff1916600117905580156109f757600080547fffffffffffffffffffffffffffffffffffffffffffffffffffffffffffff00ff166101001790555b6109ff6112e7565b610a07611386565b610a1082611425565b801561070d57600080547fffffffffffffffffffffffffffffffffffffffffffffffffffffffffffff00ff169055604051600181527f7f26b83ff96e1f2b6a682f133852f6798a09c465da95921460cefb3847402498906020015b60405180910390a15050565b610ab56040518060400160405280601a81526020017f746f67676c65436f6e66696741637469766528737472696e6729000000000000815250610ded565b600073ffffffffffffffffffffffffffffffffffffffff1660fb8383604051610adf9291906119fc565b9081526040519081900360200190206002015473ffffffffffffffffffffffffffffffffffffffff1603610b3f576040517f80919d7b00000000000000000000000000000000000000000000000000000000815260040160405180910390fd5b60fb8282604051610b519291906119fc565b9081526040519081900360200181205460ff16159060fb90610b7690859085906119fc565b908152604051908190036020019020805491151560ff199092169190911790555050565b610ba2610c4a565b6065805473ffffffffffffffffffffffffffffffffffffffff83167fffffffffffffffffffffffff00000000000000000000000000000000000000009091168117909155610c0560335473ffffffffffffffffffffffffffffffffffffffff1690565b73ffffffffffffffffffffffffffffffffffffffff167f38d16b8cac22d99fc7c124b9cd0de2d3fa1faef420bfe791d8c362d765e2270060405160405180910390a350565b60335473ffffffffffffffffffffffffffffffffffffffff16331461045f576040517f08c379a000000000000000000000000000000000000000000000000000000000815260206004820181905260248201527f4f776e61626c653a2063616c6c6572206973206e6f7420746865206f776e657260448201526064016105e3565b73ffffffffffffffffffffffffffffffffffffffff8116610d6e576040517f08c379a000000000000000000000000000000000000000000000000000000000815260206004820152602560248201527f696e76616c696420616365737320636f6e74726f6c206d616e6167657220616460448201527f647265737300000000000000000000000000000000000000000000000000000060648201526084016105e3565b60c9805473ffffffffffffffffffffffffffffffffffffffff8381167fffffffffffffffffffffffff000000000000000000000000000000000000000083168117909355604080519190921680825260208201939093527f66fd58e82f7b31a2a5c30e0888f3093efe4e111b00cd2b0c31fe014601293aa09101610a6b565b60c9546040517f18c5e8ab00000000000000000000000000000000000000000000000000000000815260009173ffffffffffffffffffffffffffffffffffffffff16906318c5e8ab90610e469033908690600401611c0c565b602060405180830381865afa158015610e63573d6000803e3d6000fd5b505050506040513d601f19601f82011682018060405250810190610e879190611c3b565b90508061070d573330836040517f4a3fa2930000000000000000000000000000000000000000000000000000000081526004016105e393929190611c5d565b610ece6114bc565b6097805460ff191690557f5db9ee0a495bf2e6ff9c91a7834c1ba4fdd244a5e8aa4e537bd38aeae4b073aa335b60405173ffffffffffffffffffffffffffffffffffffffff909116815260200160405180910390a1565b60975460ff161561045f576040517f08c379a000000000000000000000000000000000000000000000000000000000815260206004820152601060248201527f5061757361626c653a207061757365640000000000000000000000000000000060448201526064016105e3565b600060fb8260800151604051610fa89190611c9f565b9081526040805160209281900383018120606082018352805460ff1615158083526001820154948301949094526002015473ffffffffffffffffffffffffffffffffffffffff1691810191909152915061102e576040517fdea2a21200000000000000000000000000000000000000000000000000000000815260040160405180910390fd5b81514290611040906201518090611cea565b1015611078576040517fc2a16f1400000000000000000000000000000000000000000000000000000000815260040160405180910390fd5b60a0820151600090815260fd602052604090205460ff16156110c6576040517f0bebf69800000000000000000000000000000000000000000000000000000000815260040160405180910390fd5b806020015160fc6110df8460c001518560800151611528565b6040516110ec9190611c9f565b908152602001604051809103902054426111069190611cfd565b101561070d576040517f53f7a6ee00000000000000000000000000000000000000000000000000000000815260040160405180910390fd5b60fb81608001516040516111529190611c9f565b908152604051908190036020018120600201547f04a6fcd600000000000000000000000000000000000000000000000000000000825273ffffffffffffffffffffffffffffffffffffffff16906304a6fcd6906111b3908490600401611d10565b600060405180830381600087803b1580156111cd57600080fd5b505af11580156111e1573d6000803e3d6000fd5b505050504260fc6111fa8360c001518460800151611528565b6040516112079190611c9f565b9081526040805191829003602090810183209390935560a084018051600090815260fd909452908320805460ff1916600117905551917fad8b54d3eef2f73d25758a2a5b53a3b97e4b947ca025d60b44adacd7fec450a791a250565b606580547fffffffffffffffffffffffff000000000000000000000000000000000000000016905561039681611554565b61129c610f25565b6097805460ff191660011790557f62e78cea01bee320cd4e420270b5ea74000d11b0c9f74754ebdbfc544b05a258610efb3390565b8051602091820120825192909101919091201490565b600054610100900460ff1661137e576040517f08c379a000000000000000000000000000000000000000000000000000000000815260206004820152602b60248201527f496e697469616c697a61626c653a20636f6e7472616374206973206e6f74206960448201527f6e697469616c697a696e6700000000000000000000000000000000000000000060648201526084016105e3565b61045f6115cb565b600054610100900460ff1661141d576040517f08c379a000000000000000000000000000000000000000000000000000000000815260206004820152602b60248201527f496e697469616c697a61626c653a20636f6e7472616374206973206e6f74206960448201527f6e697469616c697a696e6700000000000000000000000000000000000000000060648201526084016105e3565b61045f61166b565b600054610100900460ff1661038d576040517f08c379a000000000000000000000000000000000000000000000000000000000815260206004820152602b60248201527f496e697469616c697a61626c653a20636f6e7472616374206973206e6f74206960448201527f6e697469616c697a696e6700000000000000000000000000000000000000000060648201526084016105e3565b60975460ff1661045f576040517f08c379a000000000000000000000000000000000000000000000000000000000815260206004820152601460248201527f5061757361626c653a206e6f742070617573656400000000000000000000000060448201526064016105e3565b6060828260405160200161153d929190611deb565b604051602081830303815290604052905092915050565b6033805473ffffffffffffffffffffffffffffffffffffffff8381167fffffffffffffffffffffffff0000000000000000000000000000000000000000831681179093556040519116919082907f8be0079c531659141344cd1fd0a4f28419497f9722a3daafe3b4186f6b6457e090600090a35050565b600054610100900460ff16611662576040517f08c379a000000000000000000000000000000000000000000000000000000000815260206004820152602b60248201527f496e697469616c697a61626c653a20636f6e7472616374206973206e6f74206960448201527f6e697469616c697a696e6700000000000000000000000000000000000000000060648201526084016105e3565b61045f33611263565b600054610100900460ff16611702576040517f08c379a000000000000000000000000000000000000000000000000000000000815260206004820152602b60248201527f496e697469616c697a61626c653a20636f6e7472616374206973206e6f74206960448201527f6e697469616c697a696e6700000000000000000000000000000000000000000060648201526084016105e3565b6097805460ff19169055565b73ffffffffffffffffffffffffffffffffffffffff8116811461039657600080fd5b60006020828403121561174257600080fd5b813561174d8161170e565b9392505050565b60008083601f84011261176657600080fd5b50813567ffffffffffffffff81111561177e57600080fd5b60208301915083602082850101111561179657600080fd5b9250929050565b600080602083850312156117b057600080fd5b823567ffffffffffffffff8111156117c757600080fd5b6117d385828601611754565b90969095509350505050565b7f4e487b7100000000000000000000000000000000000000000000000000000000600052604160045260246000fd5b604051610100810167ffffffffffffffff81118282101715611832576118326117df565b60405290565b604051601f8201601f1916810167ffffffffffffffff81118282101715611861576118616117df565b604052919050565b600067ffffffffffffffff821115611883576118836117df565b50601f01601f191660200190565b60006118a461189f84611869565b611838565b90508281528383830111156118b857600080fd5b828260208301376000602084830101529392505050565b6000602082840312156118e157600080fd5b813567ffffffffffffffff8111156118f857600080fd5b8201601f8101841361190957600080fd5b61191884823560208401611891565b949350505050565b6000806040838503121561193357600080fd5b823567ffffffffffffffff81111561194a57600080fd5b8301601f8101851361195b57600080fd5b61196a85823560208401611891565b925050602083013561197b8161170e565b809150509250929050565b60006020828403121561199857600080fd5b5035919050565b600080600080606085870312156119b557600080fd5b843567ffffffffffffffff8111156119cc57600080fd5b6119d887828801611754565b90955093505060208501356119ec8161170e565b9396929550929360400135925050565b8183823760009101908152919050565b60005b83811015611a27578181015183820152602001611a0f565b50506000910152565b60008151808452611a48816020860160208601611a0c565b601f01601f19169290920160200192915050565b604081526000611a6f6040830185611a30565b905073ffffffffffffffffffffffffffffffffffffffff831660208301529392505050565b600082601f830112611aa557600080fd5b8151611ab361189f82611869565b818152846020838601011115611ac857600080fd5b611918826020830160208701611a0c565b8051611ae48161170e565b919050565b600060208284031215611afb57600080fd5b815167ffffffffffffffff80821115611b1357600080fd5b908301906101008286031215611b2857600080fd5b611b3061180e565b82518152602083015182811115611b4657600080fd5b611b5287828601611a94565b602083015250604083015182811115611b6a57600080fd5b611b7687828601611a94565b604083015250606083015182811115611b8e57600080fd5b611b9a87828601611a94565b606083015250608083015182811115611bb257600080fd5b611bbe87828601611a94565b60808301525060a083015160a0820152611bda60c08401611ad9565b60c082015260e083015182811115611bf157600080fd5b611bfd87828601611a94565b60e08301525095945050505050565b73ffffffffffffffffffffffffffffffffffffffff831681526040602082015260006119186040830184611a30565b600060208284031215611c4d57600080fd5b8151801515811461174d57600080fd5b600073ffffffffffffffffffffffffffffffffffffffff808616835280851660208401525060606040830152611c966060830184611a30565b95945050505050565b60008251611cb1818460208701611a0c565b9190910192915050565b7f4e487b7100000000000000000000000000000000000000000000000000000000600052601160045260246000fd5b8082018082111561041357610413611cbb565b8181038181111561041357610413611cbb565b602081528151602082015260006020830151610100806040850152611d39610120850183611a30565b91506040850151601f1980868503016060870152611d578483611a30565b93506060870151915080868503016080870152611d748483611a30565b935060808701519150808685030160a0870152611d918483611a30565b935060a087015160c087015260c08701519150611dc660e087018373ffffffffffffffffffffffffffffffffffffffff169052565b60e0870151915080868503018387015250611de18382611a30565b9695505050505050565b7fffffffffffffffffffffffffffffffffffffffff0000000000000000000000008360601b16815260008251611e28816014850160208701611a0c565b91909101601401939250505056fe7365745269736b506172616d65746572436f6e66696728737472696e672c616464726573732c75696e7432353629a2646970667358221220934f7cd54143137a1f4e1a22894592087608e8f36de73e448f4fc5b2eec445ad64736f6c63430008190033",
  "devdoc": {
    "author": "Venus",
    "custom:security-contact": "https://github.com/VenusProtocol/governance-contracts#discussion",
    "events": {
      "Initialized(uint8)": {
        "details": "Triggered when the contract has been initialized or reinitialized."
      },
      "Paused(address)": {
        "details": "Emitted when the pause is triggered by `account`."
      },
      "Unpaused(address)": {
        "details": "Emitted when the pause is lifted by `account`."
      }
    },
    "kind": "dev",
    "methods": {
      "acceptOwnership()": {
        "details": "The new owner accepts the ownership transfer."
      },
      "constructor": {
        "custom:oz-upgrades-unsafe-allow": "constructor"
      },
      "getRiskParameterConfig(string)": {
        "params": {
          "updateType": "The type of update to get the config for"
        },
        "returns": {
          "_0": "The risk parameter config for the given update type"
        }
      },
      "owner()": {
        "details": "Returns the address of the current owner."
      },
      "pause()": {
        "custom:access": "AccessControlledV8"
      },
      "paused()": {
        "details": "Returns true if the contract is paused, and false otherwise."
      },
      "pendingOwner()": {
        "details": "Returns the address of the pending owner."
      },
      "processUpdateById(uint256)": {
        "custom:error": "Throws ConfigNotActive if the config is not activeThrows UpdateIsExpired if the update is expiredThrows ConfigAlreadyProcessed if the update has already been processedThrows UpdateTooFrequent if the update is too frequentThrows UpdateNotInRange if the update is not in rangeThrows UnsupportedUpdateType if the update type is not supported",
        "custom:event": "Emits RiskParameterUpdated with the update ID",
        "params": {
          "updateId": "The ID of the update to process"
        }
      },
      "processUpdateByParameterAndMarket(string,address)": {
        "params": {
          "market": "The market to process the update for",
          "updateType": "The type of update to process"
        }
      },
      "renounceOwnership()": {
        "details": "Disabling renounceOwnership function."
      },
      "setAccessControlManager(address)": {
        "custom:access": "Only Governance",
        "custom:event": "Emits NewAccessControlManager event",
        "details": "Admin function to set address of AccessControlManager",
        "params": {
          "accessControlManager_": "The new address of the AccessControlManager"
        }
      },
      "setRiskParameterConfig(string,address,uint256)": {
        "params": {
          "debounce": "The debounce period for the update",
          "updateType": "The type of update to set the config for"
        }
      },
      "toggleConfigActive(string)": {
        "params": {
          "updateType": "The type of update to toggle the config for"
        }
      },
      "transferOwnership(address)": {
        "details": "Starts the ownership transfer of the contract to a new account. Replaces the pending transfer if there is one. Can only be called by the current owner."
      },
      "unpause()": {
        "custom:access": "AccessControlledV8"
      }
    },
    "title": "RiskStewardReceiver",
    "version": 1
  },
  "userdoc": {
    "errors": {
      "ConfigAlreadyProcessed()": [
        {
          "notice": "Thrown when an update has already been processed"
        }
      ],
      "ConfigNotActive()": [
        {
          "notice": "Flag for if a risk parameter type can be updated by the steward"
        }
      ],
      "InvalidDebounce()": [
        {
          "notice": "Thrown when a debounce value of 0 is set"
        }
      ],
      "Unauthorized(address,address,string)": [
        {
          "notice": "Thrown when the action is prohibited by AccessControlManager"
        }
      ],
      "UnsupportedUpdateType()": [
        {
          "notice": "Thrown when an updateType that is not supported is operated on"
        }
      ],
      "UpdateIsExpired()": [
        {
          "notice": "Error for when an update was not applied within the required timeframe"
        }
      ],
      "UpdateTooFrequent()": [
        {
          "notice": "Thrown when the debounce period hasn't passed for applying an update to a specific market/ update type"
        }
      ],
      "ZeroAddressNotAllowed()": [
        {
          "notice": "Thrown if the supplied address is a zero address where it is not allowed"
        }
      ]
    },
    "events": {
      "NewAccessControlManager(address,address)": {
        "notice": "Emitted when access control manager contract address is changed"
      },
      "RiskParameterConfigSet(string,address,uint256)": {
        "notice": "Event emitted when a risk parameter config is set"
      },
      "RiskParameterUpdated(uint256)": {
        "notice": "Event emitted when an update is successfully applied"
      }
    },
    "kind": "user",
    "methods": {
      "RISK_ORACLE()": {
        "notice": "Whitelisted oracle address to receive updates from"
      },
      "UPDATE_EXPIRATION_TIME()": {
        "notice": "Time before a submitted update is considered stale"
      },
      "accessControlManager()": {
        "notice": "Returns the address of the access control manager contract"
      },
      "getRiskParameterConfig(string)": {
        "notice": "Gets the risk parameter config for a given update type"
      },
      "lastProcessedTime(bytes)": {
        "notice": "Mapping of market and update type to last update. Used for debouncing updates."
      },
      "pause()": {
        "notice": "Pauses processing of updates"
      },
      "processUpdateById(uint256)": {
        "notice": "Processes an update by its ID"
      },
      "processUpdateByParameterAndMarket(string,address)": {
        "notice": "Processes the latest update for a given parameter and market"
      },
      "processedUpdates(uint256)": {
        "notice": "Mapping of processed updates. Used to prevent re-execution"
      },
      "setAccessControlManager(address)": {
        "notice": "Sets the address of AccessControlManager"
      },
      "setRiskParameterConfig(string,address,uint256)": {
        "notice": "Sets the risk parameter config for a given update type"
      },
      "toggleConfigActive(string)": {
        "notice": "Toggles the active status of a risk parameter config"
      },
      "unpause()": {
        "notice": "Unpauses processing of updates"
      }
    },
    "notice": "Contract that can receive updates from the risk oracle and then validate and push them to the correct RiskSteward",
    "version": 1
  },
  "storageLayout": {
    "storage": [
      {
        "astId": 244,
        "contract": "contracts/RiskSteward/RiskStewardReceiver.sol:RiskStewardReceiver",
        "label": "_initialized",
        "offset": 0,
        "slot": "0",
        "type": "t_uint8"
      },
      {
        "astId": 247,
        "contract": "contracts/RiskSteward/RiskStewardReceiver.sol:RiskStewardReceiver",
        "label": "_initializing",
        "offset": 1,
        "slot": "0",
        "type": "t_bool"
      },
      {
        "astId": 858,
        "contract": "contracts/RiskSteward/RiskStewardReceiver.sol:RiskStewardReceiver",
        "label": "__gap",
        "offset": 0,
        "slot": "1",
        "type": "t_array(t_uint256)50_storage"
      },
      {
        "astId": 116,
        "contract": "contracts/RiskSteward/RiskStewardReceiver.sol:RiskStewardReceiver",
        "label": "_owner",
        "offset": 0,
        "slot": "51",
        "type": "t_address"
      },
      {
        "astId": 236,
        "contract": "contracts/RiskSteward/RiskStewardReceiver.sol:RiskStewardReceiver",
        "label": "__gap",
        "offset": 0,
        "slot": "52",
        "type": "t_array(t_uint256)49_storage"
      },
      {
        "astId": 25,
        "contract": "contracts/RiskSteward/RiskStewardReceiver.sol:RiskStewardReceiver",
        "label": "_pendingOwner",
        "offset": 0,
        "slot": "101",
        "type": "t_address"
      },
      {
        "astId": 104,
        "contract": "contracts/RiskSteward/RiskStewardReceiver.sol:RiskStewardReceiver",
        "label": "__gap",
        "offset": 0,
        "slot": "102",
        "type": "t_array(t_uint256)49_storage"
      },
      {
        "astId": 427,
        "contract": "contracts/RiskSteward/RiskStewardReceiver.sol:RiskStewardReceiver",
        "label": "_paused",
        "offset": 0,
        "slot": "151",
        "type": "t_bool"
      },
      {
        "astId": 532,
        "contract": "contracts/RiskSteward/RiskStewardReceiver.sol:RiskStewardReceiver",
        "label": "__gap",
        "offset": 0,
        "slot": "152",
        "type": "t_array(t_uint256)49_storage"
      },
      {
        "astId": 2187,
        "contract": "contracts/RiskSteward/RiskStewardReceiver.sol:RiskStewardReceiver",
        "label": "_accessControlManager",
        "offset": 0,
        "slot": "201",
        "type": "t_contract(IAccessControlManagerV8)2372"
      },
      {
        "astId": 2192,
        "contract": "contracts/RiskSteward/RiskStewardReceiver.sol:RiskStewardReceiver",
        "label": "__gap",
        "offset": 0,
        "slot": "202",
        "type": "t_array(t_uint256)49_storage"
      },
      {
        "astId": 3045,
        "contract": "contracts/RiskSteward/RiskStewardReceiver.sol:RiskStewardReceiver",
        "label": "riskParameterConfigs",
        "offset": 0,
        "slot": "251",
        "type": "t_mapping(t_string_memory_ptr,t_struct(RiskParamConfig)2409_storage)"
      },
      {
        "astId": 3054,
        "contract": "contracts/RiskSteward/RiskStewardReceiver.sol:RiskStewardReceiver",
        "label": "lastProcessedTime",
        "offset": 0,
        "slot": "252",
        "type": "t_mapping(t_bytes_memory_ptr,t_uint256)"
      },
      {
        "astId": 3059,
        "contract": "contracts/RiskSteward/RiskStewardReceiver.sol:RiskStewardReceiver",
        "label": "processedUpdates",
        "offset": 0,
        "slot": "253",
        "type": "t_mapping(t_uint256,t_bool)"
      },
      {
        "astId": 3440,
        "contract": "contracts/RiskSteward/RiskStewardReceiver.sol:RiskStewardReceiver",
        "label": "__gap",
        "offset": 0,
        "slot": "254",
        "type": "t_array(t_uint256)50_storage"
      }
    ],
    "types": {
      "t_address": {
        "encoding": "inplace",
        "label": "address",
        "numberOfBytes": "20"
      },
      "t_array(t_uint256)49_storage": {
        "base": "t_uint256",
        "encoding": "inplace",
        "label": "uint256[49]",
        "numberOfBytes": "1568"
      },
      "t_array(t_uint256)50_storage": {
        "base": "t_uint256",
        "encoding": "inplace",
        "label": "uint256[50]",
        "numberOfBytes": "1600"
      },
      "t_bool": {
        "encoding": "inplace",
        "label": "bool",
        "numberOfBytes": "1"
      },
      "t_bytes_memory_ptr": {
        "encoding": "bytes",
        "label": "bytes",
        "numberOfBytes": "32"
      },
      "t_contract(IAccessControlManagerV8)2372": {
        "encoding": "inplace",
        "label": "contract IAccessControlManagerV8",
        "numberOfBytes": "20"
      },
      "t_mapping(t_bytes_memory_ptr,t_uint256)": {
        "encoding": "mapping",
        "key": "t_bytes_memory_ptr",
        "label": "mapping(bytes => uint256)",
        "numberOfBytes": "32",
        "value": "t_uint256"
      },
      "t_mapping(t_string_memory_ptr,t_struct(RiskParamConfig)2409_storage)": {
        "encoding": "mapping",
        "key": "t_string_memory_ptr",
        "label": "mapping(string => struct RiskParamConfig)",
        "numberOfBytes": "32",
        "value": "t_struct(RiskParamConfig)2409_storage"
      },
      "t_mapping(t_uint256,t_bool)": {
        "encoding": "mapping",
        "key": "t_uint256",
        "label": "mapping(uint256 => bool)",
        "numberOfBytes": "32",
        "value": "t_bool"
      },
      "t_string_memory_ptr": {
        "encoding": "bytes",
        "label": "string",
        "numberOfBytes": "32"
      },
      "t_struct(RiskParamConfig)2409_storage": {
        "encoding": "inplace",
        "label": "struct RiskParamConfig",
        "members": [
          {
            "astId": 2404,
            "contract": "contracts/RiskSteward/RiskStewardReceiver.sol:RiskStewardReceiver",
            "label": "active",
            "offset": 0,
            "slot": "0",
            "type": "t_bool"
          },
          {
            "astId": 2406,
            "contract": "contracts/RiskSteward/RiskStewardReceiver.sol:RiskStewardReceiver",
            "label": "debounce",
            "offset": 0,
            "slot": "1",
            "type": "t_uint256"
          },
          {
            "astId": 2408,
            "contract": "contracts/RiskSteward/RiskStewardReceiver.sol:RiskStewardReceiver",
            "label": "riskSteward",
            "offset": 0,
            "slot": "2",
            "type": "t_address"
          }
        ],
        "numberOfBytes": "96"
      },
      "t_uint256": {
        "encoding": "inplace",
        "label": "uint256",
        "numberOfBytes": "32"
      },
      "t_uint8": {
        "encoding": "inplace",
        "label": "uint8",
        "numberOfBytes": "1"
      }
    }
  }
}