{
  "address": "0x72a256f67AcD6a06d39dE6f82E9341dB252c42D4",
  "abi": [
    {
      "inputs": [
        {
          "internalType": "address",
          "name": "omnichainGovernanceExecutor_",
          "type": "address"
        }
      ],
      "stateMutability": "nonpayable",
      "type": "constructor"
    },
    {
      "inputs": [
        {
          "internalType": "address",
          "name": "sender",
          "type": "address"
        },
        {
          "internalType": "address",
          "name": "calledContract",
          "type": "address"
        },
        {
          "internalType": "string",
          "name": "methodSignature",
          "type": "string"
        }
      ],
      "name": "Unauthorized",
      "type": "error"
    },
    {
      "inputs": [],
      "name": "ZeroAddressNotAllowed",
      "type": "error"
    },
    {
      "anonymous": false,
      "inputs": [
        {
          "indexed": true,
          "internalType": "string",
          "name": "signature",
          "type": "string"
        },
        {
          "indexed": false,
          "internalType": "bool",
          "name": "active",
          "type": "bool"
        }
      ],
      "name": "FunctionRegistryChanged",
      "type": "event"
    },
    {
      "anonymous": false,
      "inputs": [
        {
          "indexed": false,
          "internalType": "uint8",
          "name": "version",
          "type": "uint8"
        }
      ],
      "name": "Initialized",
      "type": "event"
    },
    {
      "anonymous": false,
      "inputs": [
        {
          "indexed": false,
          "internalType": "address",
          "name": "oldAccessControlManager",
          "type": "address"
        },
        {
          "indexed": false,
          "internalType": "address",
          "name": "newAccessControlManager",
          "type": "address"
        }
      ],
      "name": "NewAccessControlManager",
      "type": "event"
    },
    {
      "anonymous": false,
      "inputs": [
        {
          "indexed": true,
          "internalType": "address",
          "name": "previousOwner",
          "type": "address"
        },
        {
          "indexed": true,
          "internalType": "address",
          "name": "newOwner",
          "type": "address"
        }
      ],
      "name": "OwnershipTransferStarted",
      "type": "event"
    },
    {
      "anonymous": false,
      "inputs": [
        {
          "indexed": true,
          "internalType": "address",
          "name": "previousOwner",
          "type": "address"
        },
        {
          "indexed": true,
          "internalType": "address",
          "name": "newOwner",
          "type": "address"
        }
      ],
      "name": "OwnershipTransferred",
      "type": "event"
    },
    {
      "stateMutability": "nonpayable",
      "type": "fallback"
    },
    {
      "inputs": [],
      "name": "OMNICHAIN_GOVERNANCE_EXECUTOR",
      "outputs": [
        {
          "internalType": "contract IOmnichainGovernanceExecutor",
          "name": "",
          "type": "address"
        }
      ],
      "stateMutability": "view",
      "type": "function"
    },
    {
      "inputs": [],
      "name": "acceptOwnership",
      "outputs": [],
      "stateMutability": "nonpayable",
      "type": "function"
    },
    {
      "inputs": [],
      "name": "accessControlManager",
      "outputs": [
        {
          "internalType": "contract IAccessControlManagerV8",
          "name": "",
          "type": "address"
        }
      ],
      "stateMutability": "view",
      "type": "function"
    },
    {
      "inputs": [
        {
          "internalType": "bytes4",
          "name": "",
          "type": "bytes4"
        }
      ],
      "name": "functionRegistry",
      "outputs": [
        {
          "internalType": "string",
          "name": "",
          "type": "string"
        }
      ],
      "stateMutability": "view",
      "type": "function"
    },
    {
      "inputs": [
        {
          "internalType": "address",
          "name": "accessControlManager_",
          "type": "address"
        }
      ],
      "name": "initialize",
      "outputs": [],
      "stateMutability": "nonpayable",
      "type": "function"
    },
    {
      "inputs": [],
      "name": "owner",
      "outputs": [
        {
          "internalType": "address",
          "name": "",
          "type": "address"
        }
      ],
      "stateMutability": "view",
      "type": "function"
    },
    {
      "inputs": [],
      "name": "pendingOwner",
      "outputs": [
        {
          "internalType": "address",
          "name": "",
          "type": "address"
        }
      ],
      "stateMutability": "view",
      "type": "function"
    },
    {
      "inputs": [],
      "name": "renounceOwnership",
      "outputs": [],
      "stateMutability": "nonpayable",
      "type": "function"
    },
    {
      "inputs": [
        {
          "internalType": "address",
          "name": "accessControlManager_",
          "type": "address"
        }
      ],
      "name": "setAccessControlManager",
      "outputs": [],
      "stateMutability": "nonpayable",
      "type": "function"
    },
    {
      "inputs": [
        {
          "internalType": "uint16",
          "name": "srcChainId_",
          "type": "uint16"
        },
        {
          "internalType": "bytes",
          "name": "srcAddress_",
          "type": "bytes"
        }
      ],
      "name": "setTrustedRemoteAddress",
      "outputs": [],
      "stateMutability": "nonpayable",
      "type": "function"
    },
    {
      "inputs": [
        {
          "internalType": "address",
          "name": "newOwner_",
          "type": "address"
        }
      ],
      "name": "transferBridgeOwnership",
      "outputs": [],
      "stateMutability": "nonpayable",
      "type": "function"
    },
    {
      "inputs": [
        {
          "internalType": "address",
          "name": "newOwner",
          "type": "address"
        }
      ],
      "name": "transferOwnership",
      "outputs": [],
      "stateMutability": "nonpayable",
      "type": "function"
    },
    {
      "inputs": [
        {
          "internalType": "string[]",
          "name": "signatures_",
          "type": "string[]"
        },
        {
          "internalType": "bool[]",
          "name": "active_",
          "type": "bool[]"
        }
      ],
      "name": "upsertSignature",
      "outputs": [],
      "stateMutability": "nonpayable",
      "type": "function"
    }
  ],
  "transactionHash": "0x4cf564aa8cdd7d6e109e1b55fb8809dd81d98706a381e3f9b8969beacd77053e",
  "args": [
    "0x92c6f22d9059d50bac82cd9eb1aa72142a76339a"
  ],
  "numDeployments": 1,
  "solcInputHash": "194b1900c6dbb950edb65af08b134702",
  "bytecode": "0x60a060405234801561000f575f80fd5b50604051611bfa380380611bfa83398101604081905261002e9161015d565b6001600160a01b0381166100895760405162461bcd60e51b815260206004820152601860248201527f41646472657373206d757374206e6f74206265207a65726f000000000000000060448201526064015b60405180910390fd5b6001600160a01b03811660805261009e6100a4565b5061018a565b5f54610100900460ff161561010b5760405162461bcd60e51b815260206004820152602760248201527f496e697469616c697a61626c653a20636f6e747261637420697320696e697469604482015266616c697a696e6760c81b6064820152608401610080565b5f5460ff908116101561015b575f805460ff191660ff9081179091556040519081527f7f26b83ff96e1f2b6a682f133852f6798a09c465da95921460cefb38474024989060200160405180910390a15b565b5f6020828403121561016d575f80fd5b81516001600160a01b0381168114610183575f80fd5b9392505050565b608051611a436101b75f395f81816102000152818161034c015281816106990152610c450152611a435ff3fe608060405234801561000f575f80fd5b50600436106100dd575f3560e01c806379ba50971161008a578063b4a0bdf311610064578063b4a0bdf3146103cc578063c4d66de8146103ea578063e30c3978146103fd578063f2fde38b1461041b576100dd565b806379ba5097146103935780638da5cb5b1461039b578063a6c3d165146103b9576100dd565b80634bb7453e116100bb5780634bb7453e146103345780635f21f75e14610347578063715018a6146102f6576100dd565b80630e32cb86146102e3578063180d295c146102f85780633f90b54014610321575b5f80357fffffffff0000000000000000000000000000000000000000000000000000000016815260c96020526040812080543691606091849190610120906113f6565b80601f016020809104026020016040519081016040528092919081815260200182805461014c906113f6565b80156101975780601f1061016e57610100808354040283529160200191610197565b820191905f5260205f20905b81548152906001019060200180831161017a57829003601f168201915b5050505050905080515f036101f35760405162461bcd60e51b815260206004820152601260248201527f46756e6374696f6e206e6f7420666f756e64000000000000000000000000000060448201526064015b60405180910390fd5b6101fc8161042e565b5f807f000000000000000000000000000000000000000000000000000000000000000073ffffffffffffffffffffffffffffffffffffffff168686604051610245929190611447565b5f604051808303815f865af19150503d805f811461027e576040519150601f19603f3d011682016040523d82523d5f602084013e610283565b606091505b5091509150816102d55760405162461bcd60e51b815260206004820152600b60248201527f63616c6c206661696c656400000000000000000000000000000000000000000060448201526064016101ea565b805195506020019350505050f35b6102f66102f1366004611456565b610508565b005b61030b610306366004611490565b61051c565b6040516103189190611530565b60405180910390f35b6102f661032f366004611456565b6105b3565b6102f661034236600461158a565b6106f3565b61036e7f000000000000000000000000000000000000000000000000000000000000000081565b60405173ffffffffffffffffffffffffffffffffffffffff9091168152602001610318565b6102f6610a72565b60335473ffffffffffffffffffffffffffffffffffffffff1661036e565b6102f66103c73660046115f1565b610b0a565b60975473ffffffffffffffffffffffffffffffffffffffff1661036e565b6102f66103f8366004611456565b610cb0565b60655473ffffffffffffffffffffffffffffffffffffffff1661036e565b6102f6610429366004611456565b610e87565b6097546040517f18c5e8ab0000000000000000000000000000000000000000000000000000000081525f9173ffffffffffffffffffffffffffffffffffffffff16906318c5e8ab906104869033908690600401611675565b602060405180830381865afa1580156104a1573d5f803e3d5ffd5b505050506040513d601f19601f820116820180604052508101906104c591906116b8565b905080610504573330836040517f4a3fa2930000000000000000000000000000000000000000000000000000000081526004016101ea939291906116d3565b5050565b610510610f37565b61051981610f9e565b50565b60c96020525f908152604090208054610534906113f6565b80601f0160208091040260200160405190810160405280929190818152602001828054610560906113f6565b80156105ab5780601f10610582576101008083540402835291602001916105ab565b820191905f5260205f20905b81548152906001019060200180831161058e57829003601f168201915b505050505081565b6105f16040518060400160405280602081526020017f7472616e736665724272696467654f776e65727368697028616464726573732981525061042e565b73ffffffffffffffffffffffffffffffffffffffff81166106545760405162461bcd60e51b815260206004820152601860248201527f41646472657373206d757374206e6f74206265207a65726f000000000000000060448201526064016101ea565b6040517ff2fde38b00000000000000000000000000000000000000000000000000000000815273ffffffffffffffffffffffffffffffffffffffff82811660048301527f0000000000000000000000000000000000000000000000000000000000000000169063f2fde38b906024015f604051808303815f87803b1580156106da575f80fd5b505af11580156106ec573d5f803e3d5ffd5b5050505050565b6106fb610f37565b828181146107715760405162461bcd60e51b815260206004820152602660248201527f496e70757420617272617973206d7573742068617665207468652073616d652060448201527f6c656e677468000000000000000000000000000000000000000000000000000060648201526084016101ea565b5f5b81811015610a68575f86868381811061078e5761078e611714565b90506020028101906107a09190611741565b6040516107ae929190611447565b60408051918290039091207fffffffff0000000000000000000000000000000000000000000000000000000081165f90815260c96020529182208054919350906107f7906113f6565b80601f0160208091040260200160405190810160405280929190818152602001828054610823906113f6565b801561086e5780601f106108455761010080835404028352916020019161086e565b820191905f5260205f20905b81548152906001019060200180831161085157829003601f168201915b5050505050905085858481811061088757610887611714565b905060200201602081019061089c91906117a2565b80156108a757508051155b1561097f578787848181106108be576108be611714565b90506020028101906108d09190611741565b7fffffffff0000000000000000000000000000000000000000000000000000000084165f90815260c9602052604090209161090c919083611833565b5087878481811061091f5761091f611714565b90506020028101906109319190611741565b60405161093f929190611447565b60405190819003812060018252907f9d424e54f4d851aabd288f6cc4946e5726d6b5c0e66ea4ef159a3c40bcc470fa9060200160405180910390a2610a5e565b85858481811061099157610991611714565b90506020020160208101906109a691906117a2565b1580156109b35750805115155b15610a5e577fffffffff0000000000000000000000000000000000000000000000000000000082165f90815260c9602052604081206109f1916113ac565b878784818110610a0357610a03611714565b9050602002810190610a159190611741565b604051610a23929190611447565b6040519081900381205f8252907f9d424e54f4d851aabd288f6cc4946e5726d6b5c0e66ea4ef159a3c40bcc470fa9060200160405180910390a25b5050600101610773565b505050505050565b565b606554339073ffffffffffffffffffffffffffffffffffffffff168114610b015760405162461bcd60e51b815260206004820152602960248201527f4f776e61626c6532537465703a2063616c6c6572206973206e6f74207468652060448201527f6e6577206f776e6572000000000000000000000000000000000000000000000060648201526084016101ea565b610519816110a6565b610b2b6040518060600160405280602581526020016119e96025913961042e565b8261ffff165f03610b7e5760405162461bcd60e51b815260206004820152601860248201527f436861696e4964206d757374206e6f74206265207a65726f000000000000000060448201526064016101ea565b610b93610b8b8284611949565b60601c6110d7565b60148114610c085760405162461bcd60e51b8152602060048201526024808201527f536f757263652061646472657373206d7573742062652032302062797465732060448201527f6c6f6e670000000000000000000000000000000000000000000000000000000060648201526084016101ea565b6040517fa6c3d16500000000000000000000000000000000000000000000000000000000815273ffffffffffffffffffffffffffffffffffffffff7f0000000000000000000000000000000000000000000000000000000000000000169063a6c3d16590610c7e90869086908690600401611991565b5f604051808303815f87803b158015610c95575f80fd5b505af1158015610ca7573d5f803e3d5ffd5b50505050505050565b5f54610100900460ff1615808015610cce57505f54600160ff909116105b80610ce75750303b158015610ce757505f5460ff166001145b610d595760405162461bcd60e51b815260206004820152602e60248201527f496e697469616c697a61626c653a20636f6e747261637420697320616c72656160448201527f647920696e697469616c697a656400000000000000000000000000000000000060648201526084016101ea565b5f80547fffffffffffffffffffffffffffffffffffffffffffffffffffffffffffffff001660011790558015610db5575f80547fffffffffffffffffffffffffffffffffffffffffffffffffffffffffffff00ff166101001790555b73ffffffffffffffffffffffffffffffffffffffff8216610e185760405162461bcd60e51b815260206004820152601860248201527f41646472657373206d757374206e6f74206265207a65726f000000000000000060448201526064016101ea565b610e2182611124565b8015610504575f80547fffffffffffffffffffffffffffffffffffffffffffffffffffffffffffff00ff169055604051600181527f7f26b83ff96e1f2b6a682f133852f6798a09c465da95921460cefb3847402498906020015b60405180910390a15050565b610e8f610f37565b6065805473ffffffffffffffffffffffffffffffffffffffff83167fffffffffffffffffffffffff00000000000000000000000000000000000000009091168117909155610ef260335473ffffffffffffffffffffffffffffffffffffffff1690565b73ffffffffffffffffffffffffffffffffffffffff167f38d16b8cac22d99fc7c124b9cd0de2d3fa1faef420bfe791d8c362d765e2270060405160405180910390a350565b60335473ffffffffffffffffffffffffffffffffffffffff163314610a705760405162461bcd60e51b815260206004820181905260248201527f4f776e61626c653a2063616c6c6572206973206e6f7420746865206f776e657260448201526064016101ea565b73ffffffffffffffffffffffffffffffffffffffff81166110275760405162461bcd60e51b815260206004820152602560248201527f696e76616c696420616365737320636f6e74726f6c206d616e6167657220616460448201527f647265737300000000000000000000000000000000000000000000000000000060648201526084016101ea565b6097805473ffffffffffffffffffffffffffffffffffffffff8381167fffffffffffffffffffffffff000000000000000000000000000000000000000083168117909355604080519190921680825260208201939093527f66fd58e82f7b31a2a5c30e0888f3093efe4e111b00cd2b0c31fe014601293aa09101610e7b565b606580547fffffffffffffffffffffffff0000000000000000000000000000000000000000169055610519816111b1565b73ffffffffffffffffffffffffffffffffffffffff8116610519576040517f8579befe00000000000000000000000000000000000000000000000000000000815260040160405180910390fd5b5f54610100900460ff166111a05760405162461bcd60e51b815260206004820152602b60248201527f496e697469616c697a61626c653a20636f6e7472616374206973206e6f74206960448201527f6e697469616c697a696e6700000000000000000000000000000000000000000060648201526084016101ea565b6111a8611227565b610519816112ab565b6033805473ffffffffffffffffffffffffffffffffffffffff8381167fffffffffffffffffffffffff0000000000000000000000000000000000000000831681179093556040519116919082907f8be0079c531659141344cd1fd0a4f28419497f9722a3daafe3b4186f6b6457e0905f90a35050565b5f54610100900460ff166112a35760405162461bcd60e51b815260206004820152602b60248201527f496e697469616c697a61626c653a20636f6e7472616374206973206e6f74206960448201527f6e697469616c697a696e6700000000000000000000000000000000000000000060648201526084016101ea565b610a70611327565b5f54610100900460ff166105105760405162461bcd60e51b815260206004820152602b60248201527f496e697469616c697a61626c653a20636f6e7472616374206973206e6f74206960448201527f6e697469616c697a696e6700000000000000000000000000000000000000000060648201526084016101ea565b5f54610100900460ff166113a35760405162461bcd60e51b815260206004820152602b60248201527f496e697469616c697a61626c653a20636f6e7472616374206973206e6f74206960448201527f6e697469616c697a696e6700000000000000000000000000000000000000000060648201526084016101ea565b610a70336110a6565b5080546113b8906113f6565b5f825580601f106113c7575050565b601f0160209004905f5260205f209081019061051991905b808211156113f2575f81556001016113df565b5090565b600181811c9082168061140a57607f821691505b602082108103611441577f4e487b71000000000000000000000000000000000000000000000000000000005f52602260045260245ffd5b50919050565b818382375f9101908152919050565b5f60208284031215611466575f80fd5b813573ffffffffffffffffffffffffffffffffffffffff81168114611489575f80fd5b9392505050565b5f602082840312156114a0575f80fd5b81357fffffffff0000000000000000000000000000000000000000000000000000000081168114611489575f80fd5b5f81518084525f5b818110156114f3576020818501810151868301820152016114d7565b505f6020828601015260207fffffffffffffffffffffffffffffffffffffffffffffffffffffffffffffffe0601f83011685010191505092915050565b602081525f61148960208301846114cf565b5f8083601f840112611552575f80fd5b50813567ffffffffffffffff811115611569575f80fd5b6020830191508360208260051b8501011115611583575f80fd5b9250929050565b5f805f806040858703121561159d575f80fd5b843567ffffffffffffffff808211156115b4575f80fd5b6115c088838901611542565b909650945060208701359150808211156115d8575f80fd5b506115e587828801611542565b95989497509550505050565b5f805f60408486031215611603575f80fd5b833561ffff81168114611614575f80fd5b9250602084013567ffffffffffffffff80821115611630575f80fd5b818601915086601f830112611643575f80fd5b813581811115611651575f80fd5b876020828501011115611662575f80fd5b6020830194508093505050509250925092565b73ffffffffffffffffffffffffffffffffffffffff83168152604060208201525f6116a360408301846114cf565b949350505050565b8015158114610519575f80fd5b5f602082840312156116c8575f80fd5b8151611489816116ab565b5f73ffffffffffffffffffffffffffffffffffffffff80861683528085166020840152506060604083015261170b60608301846114cf565b95945050505050565b7f4e487b71000000000000000000000000000000000000000000000000000000005f52603260045260245ffd5b5f8083357fffffffffffffffffffffffffffffffffffffffffffffffffffffffffffffffe1843603018112611774575f80fd5b83018035915067ffffffffffffffff82111561178e575f80fd5b602001915036819003821315611583575f80fd5b5f602082840312156117b2575f80fd5b8135611489816116ab565b7f4e487b71000000000000000000000000000000000000000000000000000000005f52604160045260245ffd5b601f82111561182e57805f5260205f20601f840160051c8101602085101561180f5750805b601f840160051c820191505b818110156106ec575f815560010161181b565b505050565b67ffffffffffffffff83111561184b5761184b6117bd565b61185f8361185983546113f6565b836117ea565b5f601f8411600181146118af575f85156118795750838201355b7fffffffffffffffffffffffffffffffffffffffffffffffffffffffffffffffff600387901b1c1916600186901b1783556106ec565b5f838152602081207fffffffffffffffffffffffffffffffffffffffffffffffffffffffffffffffe08716915b828110156118fc57868501358255602094850194600190920191016118dc565b5086821015611937577fffffffffffffffffffffffffffffffffffffffffffffffffffffffffffffffff60f88860031b161c19848701351681555b505060018560011b0183555050505050565b7fffffffffffffffffffffffffffffffffffffffff00000000000000000000000081358181169160148510156119895780818660140360031b1b83161692505b505092915050565b61ffff8416815260406020820152816040820152818360608301375f818301606090810191909152601f9092017fffffffffffffffffffffffffffffffffffffffffffffffffffffffffffffffe01601019291505056fe7365745472757374656452656d6f7465416464726573732875696e7431362c627974657329a264697066735822122002950f0e18ae61bb09e61dcd03833ee38e9122795598266fedb5eebc1a9f947d64736f6c63430008190033",
  "devdoc": {
    "author": "Venus",
    "custom:security-contact": "https://github.com/VenusProtocol/governance-contracts#discussion",
    "events": {
      "Initialized(uint8)": {
        "details": "Triggered when the contract has been initialized or reinitialized."
      }
    },
    "kind": "dev",
    "methods": {
      "acceptOwnership()": {
        "details": "The new owner accepts the ownership transfer."
      },
      "constructor": {
        "custom:oz-upgrades-unsafe-allow": "constructor"
      },
      "initialize(address)": {
        "params": {
          "accessControlManager_": "Address of access control manager"
        }
      },
      "owner()": {
        "details": "Returns the address of the current owner."
      },
      "pendingOwner()": {
        "details": "Returns the address of the pending owner."
      },
      "setAccessControlManager(address)": {
        "custom:access": "Only Governance",
        "custom:event": "Emits NewAccessControlManager event",
        "details": "Admin function to set address of AccessControlManager",
        "params": {
          "accessControlManager_": "The new address of the AccessControlManager"
        }
      },
      "setTrustedRemoteAddress(uint16,bytes)": {
        "custom:access": "Controlled by AccessControlManager",
        "custom:event": "Emits SetTrustedRemoteAddress with source chain Id and source address",
        "params": {
          "srcAddress_": "The address of the contract on the source chain",
          "srcChainId_": "The LayerZero id of a source chain"
        }
      },
      "transferBridgeOwnership(address)": {
        "custom:access": "Controlled by AccessControlManager",
        "params": {
          "newOwner_": "New owner of the governanceExecutor"
        }
      },
      "transferOwnership(address)": {
        "details": "Starts the ownership transfer of the contract to a new account. Replaces the pending transfer if there is one. Can only be called by the current owner."
      },
      "upsertSignature(string[],bool[])": {
        "custom:access": "Only owner",
        "params": {
          "active_": "bool value, should be true to add function",
          "signatures_": "Function signature to be added or removed"
        }
      }
    },
    "stateVariables": {
      "OMNICHAIN_GOVERNANCE_EXECUTOR": {
        "custom:oz-upgrades-unsafe-allow": "state-variable-immutable"
      }
    },
    "title": "OmnichainExecutorOwner",
    "version": 1
  },
  "userdoc": {
    "errors": {
      "Unauthorized(address,address,string)": [
        {
          "notice": "Thrown when the action is prohibited by AccessControlManager"
        }
      ],
      "ZeroAddressNotAllowed()": [
        {
          "notice": "Thrown if the supplied address is a zero address where it is not allowed"
        }
      ]
    },
    "events": {
      "FunctionRegistryChanged(string,bool)": {
        "notice": "Event emitted when function registry updated"
      },
      "NewAccessControlManager(address,address)": {
        "notice": "Emitted when access control manager contract address is changed"
      }
    },
    "kind": "user",
    "methods": {
      "accessControlManager()": {
        "notice": "Returns the address of the access control manager contract"
      },
      "functionRegistry(bytes4)": {
        "notice": "Stores function signature corresponding to their 4 bytes hash value"
      },
      "initialize(address)": {
        "notice": "Initialize the contract"
      },
      "renounceOwnership()": {
        "notice": "Empty implementation of renounce ownership to avoid any mishappening"
      },
      "setAccessControlManager(address)": {
        "notice": "Sets the address of AccessControlManager"
      },
      "setTrustedRemoteAddress(uint16,bytes)": {
        "notice": "Sets the source message sender address"
      },
      "transferBridgeOwnership(address)": {
        "notice": "This function transfer the ownership of the executor from this contract to new owner"
      },
      "upsertSignature(string[],bool[])": {
        "notice": "A registry of functions that are allowed to be executed from proposals"
      }
    },
    "notice": "OmnichainProposalSender contract acts as a governance and access control mechanism, allowing owner to upsert signature of OmnichainGovernanceExecutor contract, also contains function to transfer the ownership of contract as well.",
    "version": 1
  },
  "storageLayout": {
    "storage": [
      {
        "astId": 3190,
        "contract": "contracts/Cross-chain/OmnichainExecutorOwner.sol:OmnichainExecutorOwner",
        "label": "_initialized",
        "offset": 0,
        "slot": "0",
        "type": "t_uint8"
      },
      {
        "astId": 3193,
        "contract": "contracts/Cross-chain/OmnichainExecutorOwner.sol:OmnichainExecutorOwner",
        "label": "_initializing",
        "offset": 1,
        "slot": "0",
        "type": "t_bool"
      },
      {
        "astId": 3677,
        "contract": "contracts/Cross-chain/OmnichainExecutorOwner.sol:OmnichainExecutorOwner",
        "label": "__gap",
        "offset": 0,
        "slot": "1",
        "type": "t_array(t_uint256)50_storage"
      },
      {
        "astId": 3062,
        "contract": "contracts/Cross-chain/OmnichainExecutorOwner.sol:OmnichainExecutorOwner",
        "label": "_owner",
        "offset": 0,
        "slot": "51",
        "type": "t_address"
      },
      {
        "astId": 3182,
        "contract": "contracts/Cross-chain/OmnichainExecutorOwner.sol:OmnichainExecutorOwner",
        "label": "__gap",
        "offset": 0,
        "slot": "52",
        "type": "t_array(t_uint256)49_storage"
      },
      {
        "astId": 2971,
        "contract": "contracts/Cross-chain/OmnichainExecutorOwner.sol:OmnichainExecutorOwner",
        "label": "_pendingOwner",
        "offset": 0,
        "slot": "101",
        "type": "t_address"
      },
      {
        "astId": 3050,
        "contract": "contracts/Cross-chain/OmnichainExecutorOwner.sol:OmnichainExecutorOwner",
        "label": "__gap",
        "offset": 0,
        "slot": "102",
        "type": "t_array(t_uint256)49_storage"
      },
      {
        "astId": 8144,
        "contract": "contracts/Cross-chain/OmnichainExecutorOwner.sol:OmnichainExecutorOwner",
        "label": "_accessControlManager",
        "offset": 0,
        "slot": "151",
        "type": "t_contract(IAccessControlManagerV8)8329"
      },
      {
        "astId": 8149,
        "contract": "contracts/Cross-chain/OmnichainExecutorOwner.sol:OmnichainExecutorOwner",
        "label": "__gap",
        "offset": 0,
        "slot": "152",
        "type": "t_array(t_uint256)49_storage"
      },
      {
        "astId": 5887,
        "contract": "contracts/Cross-chain/OmnichainExecutorOwner.sol:OmnichainExecutorOwner",
        "label": "functionRegistry",
        "offset": 0,
        "slot": "201",
        "type": "t_mapping(t_bytes4,t_string_storage)"
      }
    ],
    "types": {
      "t_address": {
        "encoding": "inplace",
        "label": "address",
        "numberOfBytes": "20"
      },
      "t_array(t_uint256)49_storage": {
        "base": "t_uint256",
        "encoding": "inplace",
        "label": "uint256[49]",
        "numberOfBytes": "1568"
      },
      "t_array(t_uint256)50_storage": {
        "base": "t_uint256",
        "encoding": "inplace",
        "label": "uint256[50]",
        "numberOfBytes": "1600"
      },
      "t_bool": {
        "encoding": "inplace",
        "label": "bool",
        "numberOfBytes": "1"
      },
      "t_bytes4": {
        "encoding": "inplace",
        "label": "bytes4",
        "numberOfBytes": "4"
      },
      "t_contract(IAccessControlManagerV8)8329": {
        "encoding": "inplace",
        "label": "contract IAccessControlManagerV8",
        "numberOfBytes": "20"
      },
      "t_mapping(t_bytes4,t_string_storage)": {
        "encoding": "mapping",
        "key": "t_bytes4",
        "label": "mapping(bytes4 => string)",
        "numberOfBytes": "32",
        "value": "t_string_storage"
      },
      "t_string_storage": {
        "encoding": "bytes",
        "label": "string",
        "numberOfBytes": "32"
      },
      "t_uint256": {
        "encoding": "inplace",
        "label": "uint256",
        "numberOfBytes": "32"
      },
      "t_uint8": {
        "encoding": "inplace",
        "label": "uint8",
        "numberOfBytes": "1"
      }
    }
  }
}