{
  "address": "0x599385ED68a06801Ccd02b0f08a64A4C9Fa8dE7c",
  "abi": [
    {
      "inputs": [
        {
          "internalType": "address",
          "name": "omnichainGovernanceExecutor_",
          "type": "address"
        }
      ],
      "stateMutability": "nonpayable",
      "type": "constructor"
    },
    {
      "inputs": [
        {
          "internalType": "address",
          "name": "sender",
          "type": "address"
        },
        {
          "internalType": "address",
          "name": "calledContract",
          "type": "address"
        },
        {
          "internalType": "string",
          "name": "methodSignature",
          "type": "string"
        }
      ],
      "name": "Unauthorized",
      "type": "error"
    },
    {
      "anonymous": false,
      "inputs": [
        {
          "indexed": true,
          "internalType": "string",
          "name": "signature",
          "type": "string"
        },
        {
          "indexed": false,
          "internalType": "bool",
          "name": "active",
          "type": "bool"
        }
      ],
      "name": "FunctionRegistryChanged",
      "type": "event"
    },
    {
      "anonymous": false,
      "inputs": [
        {
          "indexed": false,
          "internalType": "uint8",
          "name": "version",
          "type": "uint8"
        }
      ],
      "name": "Initialized",
      "type": "event"
    },
    {
      "anonymous": false,
      "inputs": [
        {
          "indexed": false,
          "internalType": "address",
          "name": "oldAccessControlManager",
          "type": "address"
        },
        {
          "indexed": false,
          "internalType": "address",
          "name": "newAccessControlManager",
          "type": "address"
        }
      ],
      "name": "NewAccessControlManager",
      "type": "event"
    },
    {
      "anonymous": false,
      "inputs": [
        {
          "indexed": true,
          "internalType": "address",
          "name": "previousOwner",
          "type": "address"
        },
        {
          "indexed": true,
          "internalType": "address",
          "name": "newOwner",
          "type": "address"
        }
      ],
      "name": "OwnershipTransferStarted",
      "type": "event"
    },
    {
      "anonymous": false,
      "inputs": [
        {
          "indexed": true,
          "internalType": "address",
          "name": "previousOwner",
          "type": "address"
        },
        {
          "indexed": true,
          "internalType": "address",
          "name": "newOwner",
          "type": "address"
        }
      ],
      "name": "OwnershipTransferred",
      "type": "event"
    },
    {
      "stateMutability": "nonpayable",
      "type": "fallback"
    },
    {
      "inputs": [],
      "name": "OMNICHAIN_GOVERNANCE_EXECUTOR",
      "outputs": [
        {
          "internalType": "contract IOmnichainGovernanceExecutor",
          "name": "",
          "type": "address"
        }
      ],
      "stateMutability": "view",
      "type": "function"
    },
    {
      "inputs": [],
      "name": "acceptOwnership",
      "outputs": [],
      "stateMutability": "nonpayable",
      "type": "function"
    },
    {
      "inputs": [],
      "name": "accessControlManager",
      "outputs": [
        {
          "internalType": "contract IAccessControlManagerV8",
          "name": "",
          "type": "address"
        }
      ],
      "stateMutability": "view",
      "type": "function"
    },
    {
      "inputs": [
        {
          "internalType": "bytes4",
          "name": "",
          "type": "bytes4"
        }
      ],
      "name": "functionRegistry",
      "outputs": [
        {
          "internalType": "string",
          "name": "",
          "type": "string"
        }
      ],
      "stateMutability": "view",
      "type": "function"
    },
    {
      "inputs": [
        {
          "internalType": "address",
          "name": "accessControlManager_",
          "type": "address"
        }
      ],
      "name": "initialize",
      "outputs": [],
      "stateMutability": "nonpayable",
      "type": "function"
    },
    {
      "inputs": [],
      "name": "owner",
      "outputs": [
        {
          "internalType": "address",
          "name": "",
          "type": "address"
        }
      ],
      "stateMutability": "view",
      "type": "function"
    },
    {
      "inputs": [],
      "name": "pendingOwner",
      "outputs": [
        {
          "internalType": "address",
          "name": "",
          "type": "address"
        }
      ],
      "stateMutability": "view",
      "type": "function"
    },
    {
      "inputs": [],
      "name": "renounceOwnership",
      "outputs": [],
      "stateMutability": "nonpayable",
      "type": "function"
    },
    {
      "inputs": [
        {
          "internalType": "address",
          "name": "accessControlManager_",
          "type": "address"
        }
      ],
      "name": "setAccessControlManager",
      "outputs": [],
      "stateMutability": "nonpayable",
      "type": "function"
    },
    {
      "inputs": [
        {
          "internalType": "address",
          "name": "newOwner_",
          "type": "address"
        }
      ],
      "name": "transferBridgeOwnership",
      "outputs": [],
      "stateMutability": "nonpayable",
      "type": "function"
    },
    {
      "inputs": [
        {
          "internalType": "address",
          "name": "newOwner",
          "type": "address"
        }
      ],
      "name": "transferOwnership",
      "outputs": [],
      "stateMutability": "nonpayable",
      "type": "function"
    },
    {
      "inputs": [
        {
          "internalType": "string[]",
          "name": "signatures_",
          "type": "string[]"
        },
        {
          "internalType": "bool[]",
          "name": "active_",
          "type": "bool[]"
        }
      ],
      "name": "upsertSignature",
      "outputs": [],
      "stateMutability": "nonpayable",
      "type": "function"
    }
  ],
  "transactionHash": "0x9c9ae14a58f0d244b0c1abf6078677148aba9b8a9b43248f9479c9992cb251f5",
  "args": [
    "0x481eb7A1c319d24CE4bE36EF0F4D445CfeE610A5"
  ],
  "numDeployments": 1,
  "solcInputHash": "810de9f7eb17f3dbd78f359b5de58bc4",
  "bytecode": "0x60a060405234801561000f575f80fd5b5060405161189a38038061189a83398101604081905261002e9161015d565b6001600160a01b0381166100895760405162461bcd60e51b815260206004820152601860248201527f41646472657373206d757374206e6f74206265207a65726f000000000000000060448201526064015b60405180910390fd5b6001600160a01b03811660805261009e6100a4565b5061018a565b5f54610100900460ff161561010b5760405162461bcd60e51b815260206004820152602760248201527f496e697469616c697a61626c653a20636f6e747261637420697320696e697469604482015266616c697a696e6760c81b6064820152608401610080565b5f5460ff908116101561015b575f805460ff191660ff9081179091556040519081527f7f26b83ff96e1f2b6a682f133852f6798a09c465da95921460cefb38474024989060200160405180910390a15b565b5f6020828403121561016d575f80fd5b81516001600160a01b0381168114610183575f80fd5b9392505050565b6080516116ea6101b05f395f81816101f501528181610341015261067b01526116ea5ff3fe608060405234801561000f575f80fd5b50600436106100d2575f3560e01c806379ba50971161007f578063c4d66de811610059578063c4d66de8146103cc578063e30c3978146103df578063f2fde38b146103fd576100d2565b806379ba5097146103885780638da5cb5b14610390578063b4a0bdf3146103ae576100d2565b80634bb7453e116100b05780634bb7453e146103295780635f21f75e1461033c578063715018a6146102eb576100d2565b80630e32cb86146102d8578063180d295c146102ed5780633f90b54014610316575b5f80357fffffffff0000000000000000000000000000000000000000000000000000000016815260c96020526040812080543691606091849190610115906111e5565b80601f0160208091040260200160405190810160405280929190818152602001828054610141906111e5565b801561018c5780601f106101635761010080835404028352916020019161018c565b820191905f5260205f20905b81548152906001019060200180831161016f57829003601f168201915b5050505050905080515f036101e85760405162461bcd60e51b815260206004820152601260248201527f46756e6374696f6e206e6f7420666f756e64000000000000000000000000000060448201526064015b60405180910390fd5b6101f181610410565b5f807f000000000000000000000000000000000000000000000000000000000000000073ffffffffffffffffffffffffffffffffffffffff16868660405161023a929190611236565b5f604051808303815f865af19150503d805f8114610273576040519150601f19603f3d011682016040523d82523d5f602084013e610278565b606091505b5091509150816102ca5760405162461bcd60e51b815260206004820152600b60248201527f63616c6c206661696c656400000000000000000000000000000000000000000060448201526064016101df565b805195506020019350505050f35b6102eb6102e6366004611245565b6104ea565b005b6103006102fb36600461127f565b6104fe565b60405161030d919061131f565b60405180910390f35b6102eb610324366004611245565b610595565b6102eb610337366004611379565b6106d5565b6103637f000000000000000000000000000000000000000000000000000000000000000081565b60405173ffffffffffffffffffffffffffffffffffffffff909116815260200161030d565b6102eb610a54565b60335473ffffffffffffffffffffffffffffffffffffffff16610363565b60975473ffffffffffffffffffffffffffffffffffffffff16610363565b6102eb6103da366004611245565b610aec565b60655473ffffffffffffffffffffffffffffffffffffffff16610363565b6102eb61040b366004611245565b610cc3565b6097546040517f18c5e8ab0000000000000000000000000000000000000000000000000000000081525f9173ffffffffffffffffffffffffffffffffffffffff16906318c5e8ab9061046890339086906004016113e0565b602060405180830381865afa158015610483573d5f803e3d5ffd5b505050506040513d601f19601f820116820180604052508101906104a79190611423565b9050806104e6573330836040517f4a3fa2930000000000000000000000000000000000000000000000000000000081526004016101df9392919061143e565b5050565b6104f2610d73565b6104fb81610dda565b50565b60c96020525f908152604090208054610516906111e5565b80601f0160208091040260200160405190810160405280929190818152602001828054610542906111e5565b801561058d5780601f106105645761010080835404028352916020019161058d565b820191905f5260205f20905b81548152906001019060200180831161057057829003601f168201915b505050505081565b6105d36040518060400160405280602081526020017f7472616e736665724272696467654f776e657273686970286164647265737329815250610410565b73ffffffffffffffffffffffffffffffffffffffff81166106365760405162461bcd60e51b815260206004820152601860248201527f41646472657373206d757374206e6f74206265207a65726f000000000000000060448201526064016101df565b6040517ff2fde38b00000000000000000000000000000000000000000000000000000000815273ffffffffffffffffffffffffffffffffffffffff82811660048301527f0000000000000000000000000000000000000000000000000000000000000000169063f2fde38b906024015f604051808303815f87803b1580156106bc575f80fd5b505af11580156106ce573d5f803e3d5ffd5b5050505050565b6106dd610d73565b828181146107535760405162461bcd60e51b815260206004820152602660248201527f496e70757420617272617973206d7573742068617665207468652073616d652060448201527f6c656e677468000000000000000000000000000000000000000000000000000060648201526084016101df565b5f5b81811015610a4a575f8686838181106107705761077061147f565b905060200281019061078291906114ac565b604051610790929190611236565b60408051918290039091207fffffffff0000000000000000000000000000000000000000000000000000000081165f90815260c96020529182208054919350906107d9906111e5565b80601f0160208091040260200160405190810160405280929190818152602001828054610805906111e5565b80156108505780601f1061082757610100808354040283529160200191610850565b820191905f5260205f20905b81548152906001019060200180831161083357829003601f168201915b505050505090508585848181106108695761086961147f565b905060200201602081019061087e919061150d565b801561088957508051155b15610961578787848181106108a0576108a061147f565b90506020028101906108b291906114ac565b7fffffffff0000000000000000000000000000000000000000000000000000000084165f90815260c960205260409020916108ee91908361159e565b508787848181106109015761090161147f565b905060200281019061091391906114ac565b604051610921929190611236565b60405190819003812060018252907f9d424e54f4d851aabd288f6cc4946e5726d6b5c0e66ea4ef159a3c40bcc470fa9060200160405180910390a2610a40565b8585848181106109735761097361147f565b9050602002016020810190610988919061150d565b1580156109955750805115155b15610a40577fffffffff0000000000000000000000000000000000000000000000000000000082165f90815260c9602052604081206109d39161119b565b8787848181106109e5576109e561147f565b90506020028101906109f791906114ac565b604051610a05929190611236565b6040519081900381205f8252907f9d424e54f4d851aabd288f6cc4946e5726d6b5c0e66ea4ef159a3c40bcc470fa9060200160405180910390a25b5050600101610755565b505050505050565b565b606554339073ffffffffffffffffffffffffffffffffffffffff168114610ae35760405162461bcd60e51b815260206004820152602960248201527f4f776e61626c6532537465703a2063616c6c6572206973206e6f74207468652060448201527f6e6577206f776e6572000000000000000000000000000000000000000000000060648201526084016101df565b6104fb81610ee2565b5f54610100900460ff1615808015610b0a57505f54600160ff909116105b80610b235750303b158015610b2357505f5460ff166001145b610b955760405162461bcd60e51b815260206004820152602e60248201527f496e697469616c697a61626c653a20636f6e747261637420697320616c72656160448201527f647920696e697469616c697a656400000000000000000000000000000000000060648201526084016101df565b5f80547fffffffffffffffffffffffffffffffffffffffffffffffffffffffffffffff001660011790558015610bf1575f80547fffffffffffffffffffffffffffffffffffffffffffffffffffffffffffff00ff166101001790555b73ffffffffffffffffffffffffffffffffffffffff8216610c545760405162461bcd60e51b815260206004820152601860248201527f41646472657373206d757374206e6f74206265207a65726f000000000000000060448201526064016101df565b610c5d82610f13565b80156104e6575f80547fffffffffffffffffffffffffffffffffffffffffffffffffffffffffffff00ff169055604051600181527f7f26b83ff96e1f2b6a682f133852f6798a09c465da95921460cefb3847402498906020015b60405180910390a15050565b610ccb610d73565b6065805473ffffffffffffffffffffffffffffffffffffffff83167fffffffffffffffffffffffff00000000000000000000000000000000000000009091168117909155610d2e60335473ffffffffffffffffffffffffffffffffffffffff1690565b73ffffffffffffffffffffffffffffffffffffffff167f38d16b8cac22d99fc7c124b9cd0de2d3fa1faef420bfe791d8c362d765e2270060405160405180910390a350565b60335473ffffffffffffffffffffffffffffffffffffffff163314610a525760405162461bcd60e51b815260206004820181905260248201527f4f776e61626c653a2063616c6c6572206973206e6f7420746865206f776e657260448201526064016101df565b73ffffffffffffffffffffffffffffffffffffffff8116610e635760405162461bcd60e51b815260206004820152602560248201527f696e76616c696420616365737320636f6e74726f6c206d616e6167657220616460448201527f647265737300000000000000000000000000000000000000000000000000000060648201526084016101df565b6097805473ffffffffffffffffffffffffffffffffffffffff8381167fffffffffffffffffffffffff000000000000000000000000000000000000000083168117909355604080519190921680825260208201939093527f66fd58e82f7b31a2a5c30e0888f3093efe4e111b00cd2b0c31fe014601293aa09101610cb7565b606580547fffffffffffffffffffffffff00000000000000000000000000000000000000001690556104fb81610fa0565b5f54610100900460ff16610f8f5760405162461bcd60e51b815260206004820152602b60248201527f496e697469616c697a61626c653a20636f6e7472616374206973206e6f74206960448201527f6e697469616c697a696e6700000000000000000000000000000000000000000060648201526084016101df565b610f97611016565b6104fb8161109a565b6033805473ffffffffffffffffffffffffffffffffffffffff8381167fffffffffffffffffffffffff0000000000000000000000000000000000000000831681179093556040519116919082907f8be0079c531659141344cd1fd0a4f28419497f9722a3daafe3b4186f6b6457e0905f90a35050565b5f54610100900460ff166110925760405162461bcd60e51b815260206004820152602b60248201527f496e697469616c697a61626c653a20636f6e7472616374206973206e6f74206960448201527f6e697469616c697a696e6700000000000000000000000000000000000000000060648201526084016101df565b610a52611116565b5f54610100900460ff166104f25760405162461bcd60e51b815260206004820152602b60248201527f496e697469616c697a61626c653a20636f6e7472616374206973206e6f74206960448201527f6e697469616c697a696e6700000000000000000000000000000000000000000060648201526084016101df565b5f54610100900460ff166111925760405162461bcd60e51b815260206004820152602b60248201527f496e697469616c697a61626c653a20636f6e7472616374206973206e6f74206960448201527f6e697469616c697a696e6700000000000000000000000000000000000000000060648201526084016101df565b610a5233610ee2565b5080546111a7906111e5565b5f825580601f106111b6575050565b601f0160209004905f5260205f20908101906104fb91905b808211156111e1575f81556001016111ce565b5090565b600181811c908216806111f957607f821691505b602082108103611230577f4e487b71000000000000000000000000000000000000000000000000000000005f52602260045260245ffd5b50919050565b818382375f9101908152919050565b5f60208284031215611255575f80fd5b813573ffffffffffffffffffffffffffffffffffffffff81168114611278575f80fd5b9392505050565b5f6020828403121561128f575f80fd5b81357fffffffff0000000000000000000000000000000000000000000000000000000081168114611278575f80fd5b5f81518084525f5b818110156112e2576020818501810151868301820152016112c6565b505f6020828601015260207fffffffffffffffffffffffffffffffffffffffffffffffffffffffffffffffe0601f83011685010191505092915050565b602081525f61127860208301846112be565b5f8083601f840112611341575f80fd5b50813567ffffffffffffffff811115611358575f80fd5b6020830191508360208260051b8501011115611372575f80fd5b9250929050565b5f805f806040858703121561138c575f80fd5b843567ffffffffffffffff808211156113a3575f80fd5b6113af88838901611331565b909650945060208701359150808211156113c7575f80fd5b506113d487828801611331565b95989497509550505050565b73ffffffffffffffffffffffffffffffffffffffff83168152604060208201525f61140e60408301846112be565b949350505050565b80151581146104fb575f80fd5b5f60208284031215611433575f80fd5b815161127881611416565b5f73ffffffffffffffffffffffffffffffffffffffff80861683528085166020840152506060604083015261147660608301846112be565b95945050505050565b7f4e487b71000000000000000000000000000000000000000000000000000000005f52603260045260245ffd5b5f8083357fffffffffffffffffffffffffffffffffffffffffffffffffffffffffffffffe18436030181126114df575f80fd5b83018035915067ffffffffffffffff8211156114f9575f80fd5b602001915036819003821315611372575f80fd5b5f6020828403121561151d575f80fd5b813561127881611416565b7f4e487b71000000000000000000000000000000000000000000000000000000005f52604160045260245ffd5b601f82111561159957805f5260205f20601f840160051c8101602085101561157a5750805b601f840160051c820191505b818110156106ce575f8155600101611586565b505050565b67ffffffffffffffff8311156115b6576115b6611528565b6115ca836115c483546111e5565b83611555565b5f601f84116001811461161a575f85156115e45750838201355b7fffffffffffffffffffffffffffffffffffffffffffffffffffffffffffffffff600387901b1c1916600186901b1783556106ce565b5f838152602081207fffffffffffffffffffffffffffffffffffffffffffffffffffffffffffffffe08716915b828110156116675786850135825560209485019460019092019101611647565b50868210156116a2577fffffffffffffffffffffffffffffffffffffffffffffffffffffffffffffffff60f88860031b161c19848701351681555b505060018560011b018355505050505056fea2646970667358221220e5354fe150503a335898d42f425efd33b002d7bfe7418e79b627bf7a7a9e1d8264736f6c63430008190033",
  "devdoc": {
    "author": "Venus",
    "custom:security-contact": "https://github.com/VenusProtocol/governance-contracts#discussion",
    "events": {
      "Initialized(uint8)": {
        "details": "Triggered when the contract has been initialized or reinitialized."
      }
    },
    "kind": "dev",
    "methods": {
      "acceptOwnership()": {
        "details": "The new owner accepts the ownership transfer."
      },
      "constructor": {
        "custom:oz-upgrades-unsafe-allow": "constructor"
      },
      "initialize(address)": {
        "params": {
          "accessControlManager_": "Address of access control manager"
        }
      },
      "owner()": {
        "details": "Returns the address of the current owner."
      },
      "pendingOwner()": {
        "details": "Returns the address of the pending owner."
      },
      "setAccessControlManager(address)": {
        "custom:access": "Only Governance",
        "custom:event": "Emits NewAccessControlManager event",
        "details": "Admin function to set address of AccessControlManager",
        "params": {
          "accessControlManager_": "The new address of the AccessControlManager"
        }
      },
      "transferBridgeOwnership(address)": {
        "custom:access": "Controlled by AccessControlManager",
        "params": {
          "newOwner_": "New owner of the governanceExecutor"
        }
      },
      "transferOwnership(address)": {
        "details": "Starts the ownership transfer of the contract to a new account. Replaces the pending transfer if there is one. Can only be called by the current owner."
      },
      "upsertSignature(string[],bool[])": {
        "custom:access": "Only owner",
        "params": {
          "active_": "bool value, should be true to add function",
          "signatures_": "Function signature to be added or removed"
        }
      }
    },
    "stateVariables": {
      "OMNICHAIN_GOVERNANCE_EXECUTOR": {
        "custom:oz-upgrades-unsafe-allow": "state-variable-immutable"
      }
    },
    "title": "OmnichainExecutorOwner",
    "version": 1
  },
  "userdoc": {
    "errors": {
      "Unauthorized(address,address,string)": [
        {
          "notice": "Thrown when the action is prohibited by AccessControlManager"
        }
      ]
    },
    "events": {
      "FunctionRegistryChanged(string,bool)": {
        "notice": "Event emitted when function registry updated"
      },
      "NewAccessControlManager(address,address)": {
        "notice": "Emitted when access control manager contract address is changed"
      }
    },
    "kind": "user",
    "methods": {
      "accessControlManager()": {
        "notice": "Returns the address of the access control manager contract"
      },
      "functionRegistry(bytes4)": {
        "notice": "Stores function signature corresponding to their 4 bytes hash value"
      },
      "initialize(address)": {
        "notice": "Initialize the contract"
      },
      "renounceOwnership()": {
        "notice": "Empty implementation of renounce ownership to avoid any mishappening"
      },
      "setAccessControlManager(address)": {
        "notice": "Sets the address of AccessControlManager"
      },
      "transferBridgeOwnership(address)": {
        "notice": "This function transfer the ownership of the executor from this contract to new owner"
      },
      "upsertSignature(string[],bool[])": {
        "notice": "A registry of functions that are allowed to be executed from proposals"
      }
    },
    "notice": "OmnichainProposalSender contract acts as a governance and access control mechanism, allowing owner to upsert signature of OmnichainGovernanceExecutor contract, also contains function to transfer the ownership of contract as well.",
    "version": 1
  },
  "storageLayout": {
    "storage": [
      {
        "astId": 3190,
        "contract": "contracts/Cross-chain/OmnichainExecutorOwner.sol:OmnichainExecutorOwner",
        "label": "_initialized",
        "offset": 0,
        "slot": "0",
        "type": "t_uint8"
      },
      {
        "astId": 3193,
        "contract": "contracts/Cross-chain/OmnichainExecutorOwner.sol:OmnichainExecutorOwner",
        "label": "_initializing",
        "offset": 1,
        "slot": "0",
        "type": "t_bool"
      },
      {
        "astId": 3677,
        "contract": "contracts/Cross-chain/OmnichainExecutorOwner.sol:OmnichainExecutorOwner",
        "label": "__gap",
        "offset": 0,
        "slot": "1",
        "type": "t_array(t_uint256)50_storage"
      },
      {
        "astId": 3062,
        "contract": "contracts/Cross-chain/OmnichainExecutorOwner.sol:OmnichainExecutorOwner",
        "label": "_owner",
        "offset": 0,
        "slot": "51",
        "type": "t_address"
      },
      {
        "astId": 3182,
        "contract": "contracts/Cross-chain/OmnichainExecutorOwner.sol:OmnichainExecutorOwner",
        "label": "__gap",
        "offset": 0,
        "slot": "52",
        "type": "t_array(t_uint256)49_storage"
      },
      {
        "astId": 2971,
        "contract": "contracts/Cross-chain/OmnichainExecutorOwner.sol:OmnichainExecutorOwner",
        "label": "_pendingOwner",
        "offset": 0,
        "slot": "101",
        "type": "t_address"
      },
      {
        "astId": 3050,
        "contract": "contracts/Cross-chain/OmnichainExecutorOwner.sol:OmnichainExecutorOwner",
        "label": "__gap",
        "offset": 0,
        "slot": "102",
        "type": "t_array(t_uint256)49_storage"
      },
      {
        "astId": 8089,
        "contract": "contracts/Cross-chain/OmnichainExecutorOwner.sol:OmnichainExecutorOwner",
        "label": "_accessControlManager",
        "offset": 0,
        "slot": "151",
        "type": "t_contract(IAccessControlManagerV8)8274"
      },
      {
        "astId": 8094,
        "contract": "contracts/Cross-chain/OmnichainExecutorOwner.sol:OmnichainExecutorOwner",
        "label": "__gap",
        "offset": 0,
        "slot": "152",
        "type": "t_array(t_uint256)49_storage"
      },
      {
        "astId": 5885,
        "contract": "contracts/Cross-chain/OmnichainExecutorOwner.sol:OmnichainExecutorOwner",
        "label": "functionRegistry",
        "offset": 0,
        "slot": "201",
        "type": "t_mapping(t_bytes4,t_string_storage)"
      }
    ],
    "types": {
      "t_address": {
        "encoding": "inplace",
        "label": "address",
        "numberOfBytes": "20"
      },
      "t_array(t_uint256)49_storage": {
        "base": "t_uint256",
        "encoding": "inplace",
        "label": "uint256[49]",
        "numberOfBytes": "1568"
      },
      "t_array(t_uint256)50_storage": {
        "base": "t_uint256",
        "encoding": "inplace",
        "label": "uint256[50]",
        "numberOfBytes": "1600"
      },
      "t_bool": {
        "encoding": "inplace",
        "label": "bool",
        "numberOfBytes": "1"
      },
      "t_bytes4": {
        "encoding": "inplace",
        "label": "bytes4",
        "numberOfBytes": "4"
      },
      "t_contract(IAccessControlManagerV8)8274": {
        "encoding": "inplace",
        "label": "contract IAccessControlManagerV8",
        "numberOfBytes": "20"
      },
      "t_mapping(t_bytes4,t_string_storage)": {
        "encoding": "mapping",
        "key": "t_bytes4",
        "label": "mapping(bytes4 => string)",
        "numberOfBytes": "32",
        "value": "t_string_storage"
      },
      "t_string_storage": {
        "encoding": "bytes",
        "label": "string",
        "numberOfBytes": "32"
      },
      "t_uint256": {
        "encoding": "inplace",
        "label": "uint256",
        "numberOfBytes": "32"
      },
      "t_uint8": {
        "encoding": "inplace",
        "label": "uint8",
        "numberOfBytes": "1"
      }
    }
  }
}