{
  "address": "0x25E034878C9873D780f2D82D22A25481aA8c74F6",
  "abi": [
    {
      "inputs": [
        {
          "internalType": "address",
          "name": "endpoint_",
          "type": "address"
        },
        {
          "internalType": "address",
          "name": "guardian_",
          "type": "address"
        },
        {
          "internalType": "uint16",
          "name": "srcChainId_",
          "type": "uint16"
        }
      ],
      "stateMutability": "nonpayable",
      "type": "constructor"
    },
    {
      "inputs": [],
      "name": "InvalidProposalId",
      "type": "error"
    },
    {
      "inputs": [],
      "name": "ZeroAddressNotAllowed",
      "type": "error"
    },
    {
      "anonymous": false,
      "inputs": [
        {
          "indexed": false,
          "internalType": "uint16",
          "name": "_srcChainId",
          "type": "uint16"
        },
        {
          "indexed": false,
          "internalType": "bytes",
          "name": "_srcAddress",
          "type": "bytes"
        },
        {
          "indexed": false,
          "internalType": "uint64",
          "name": "_nonce",
          "type": "uint64"
        },
        {
          "indexed": false,
          "internalType": "bytes",
          "name": "_payload",
          "type": "bytes"
        },
        {
          "indexed": false,
          "internalType": "bytes",
          "name": "_reason",
          "type": "bytes"
        }
      ],
      "name": "MessageFailed",
      "type": "event"
    },
    {
      "anonymous": false,
      "inputs": [
        {
          "indexed": true,
          "internalType": "address",
          "name": "previousOwner",
          "type": "address"
        },
        {
          "indexed": true,
          "internalType": "address",
          "name": "newOwner",
          "type": "address"
        }
      ],
      "name": "OwnershipTransferred",
      "type": "event"
    },
    {
      "anonymous": false,
      "inputs": [
        {
          "indexed": false,
          "internalType": "address",
          "name": "account",
          "type": "address"
        }
      ],
      "name": "Paused",
      "type": "event"
    },
    {
      "anonymous": false,
      "inputs": [
        {
          "indexed": true,
          "internalType": "uint256",
          "name": "id",
          "type": "uint256"
        }
      ],
      "name": "ProposalCanceled",
      "type": "event"
    },
    {
      "anonymous": false,
      "inputs": [
        {
          "indexed": true,
          "internalType": "uint256",
          "name": "id",
          "type": "uint256"
        }
      ],
      "name": "ProposalExecuted",
      "type": "event"
    },
    {
      "anonymous": false,
      "inputs": [
        {
          "indexed": true,
          "internalType": "uint256",
          "name": "id",
          "type": "uint256"
        },
        {
          "indexed": false,
          "internalType": "uint256",
          "name": "eta",
          "type": "uint256"
        }
      ],
      "name": "ProposalQueued",
      "type": "event"
    },
    {
      "anonymous": false,
      "inputs": [
        {
          "indexed": true,
          "internalType": "uint256",
          "name": "proposalId",
          "type": "uint256"
        },
        {
          "indexed": false,
          "internalType": "address[]",
          "name": "targets",
          "type": "address[]"
        },
        {
          "indexed": false,
          "internalType": "uint256[]",
          "name": "values",
          "type": "uint256[]"
        },
        {
          "indexed": false,
          "internalType": "string[]",
          "name": "signatures",
          "type": "string[]"
        },
        {
          "indexed": false,
          "internalType": "bytes[]",
          "name": "calldatas",
          "type": "bytes[]"
        },
        {
          "indexed": false,
          "internalType": "uint8",
          "name": "proposalType",
          "type": "uint8"
        }
      ],
      "name": "ProposalReceived",
      "type": "event"
    },
    {
      "anonymous": false,
      "inputs": [
        {
          "indexed": true,
          "internalType": "uint16",
          "name": "srcChainId",
          "type": "uint16"
        },
        {
          "indexed": true,
          "internalType": "bytes",
          "name": "srcAddress",
          "type": "bytes"
        },
        {
          "indexed": false,
          "internalType": "uint64",
          "name": "nonce",
          "type": "uint64"
        },
        {
          "indexed": false,
          "internalType": "bytes",
          "name": "reason",
          "type": "bytes"
        }
      ],
      "name": "ReceivePayloadFailed",
      "type": "event"
    },
    {
      "anonymous": false,
      "inputs": [
        {
          "indexed": false,
          "internalType": "uint16",
          "name": "_srcChainId",
          "type": "uint16"
        },
        {
          "indexed": false,
          "internalType": "bytes",
          "name": "_srcAddress",
          "type": "bytes"
        },
        {
          "indexed": false,
          "internalType": "uint64",
          "name": "_nonce",
          "type": "uint64"
        },
        {
          "indexed": false,
          "internalType": "bytes32",
          "name": "_payloadHash",
          "type": "bytes32"
        }
      ],
      "name": "RetryMessageSuccess",
      "type": "event"
    },
    {
      "anonymous": false,
      "inputs": [
        {
          "indexed": false,
          "internalType": "uint256",
          "name": "oldMaxLimit",
          "type": "uint256"
        },
        {
          "indexed": false,
          "internalType": "uint256",
          "name": "newMaxLimit",
          "type": "uint256"
        }
      ],
      "name": "SetMaxDailyReceiveLimit",
      "type": "event"
    },
    {
      "anonymous": false,
      "inputs": [
        {
          "indexed": false,
          "internalType": "uint16",
          "name": "_dstChainId",
          "type": "uint16"
        },
        {
          "indexed": false,
          "internalType": "uint16",
          "name": "_type",
          "type": "uint16"
        },
        {
          "indexed": false,
          "internalType": "uint256",
          "name": "_minDstGas",
          "type": "uint256"
        }
      ],
      "name": "SetMinDstGas",
      "type": "event"
    },
    {
      "anonymous": false,
      "inputs": [
        {
          "indexed": false,
          "internalType": "address",
          "name": "precrime",
          "type": "address"
        }
      ],
      "name": "SetPrecrime",
      "type": "event"
    },
    {
      "anonymous": false,
      "inputs": [
        {
          "indexed": true,
          "internalType": "uint16",
          "name": "oldSrcChainId",
          "type": "uint16"
        },
        {
          "indexed": true,
          "internalType": "uint16",
          "name": "newSrcChainId",
          "type": "uint16"
        }
      ],
      "name": "SetSrcChainId",
      "type": "event"
    },
    {
      "anonymous": false,
      "inputs": [
        {
          "indexed": false,
          "internalType": "address",
          "name": "",
          "type": "address"
        },
        {
          "indexed": false,
          "internalType": "uint8",
          "name": "",
          "type": "uint8"
        }
      ],
      "name": "SetTimelockPendingAdmin",
      "type": "event"
    },
    {
      "anonymous": false,
      "inputs": [
        {
          "indexed": false,
          "internalType": "uint16",
          "name": "_remoteChainId",
          "type": "uint16"
        },
        {
          "indexed": false,
          "internalType": "bytes",
          "name": "_path",
          "type": "bytes"
        }
      ],
      "name": "SetTrustedRemote",
      "type": "event"
    },
    {
      "anonymous": false,
      "inputs": [
        {
          "indexed": false,
          "internalType": "uint16",
          "name": "_remoteChainId",
          "type": "uint16"
        },
        {
          "indexed": false,
          "internalType": "bytes",
          "name": "_remoteAddress",
          "type": "bytes"
        }
      ],
      "name": "SetTrustedRemoteAddress",
      "type": "event"
    },
    {
      "anonymous": false,
      "inputs": [
        {
          "indexed": false,
          "internalType": "uint8",
          "name": "routeType",
          "type": "uint8"
        },
        {
          "indexed": true,
          "internalType": "address",
          "name": "oldTimelock",
          "type": "address"
        },
        {
          "indexed": true,
          "internalType": "address",
          "name": "newTimelock",
          "type": "address"
        }
      ],
      "name": "TimelockAdded",
      "type": "event"
    },
    {
      "anonymous": false,
      "inputs": [
        {
          "indexed": false,
          "internalType": "address",
          "name": "account",
          "type": "address"
        }
      ],
      "name": "Unpaused",
      "type": "event"
    },
    {
      "inputs": [],
      "name": "DEFAULT_PAYLOAD_SIZE_LIMIT",
      "outputs": [
        {
          "internalType": "uint256",
          "name": "",
          "type": "uint256"
        }
      ],
      "stateMutability": "view",
      "type": "function"
    },
    {
      "inputs": [],
      "name": "GUARDIAN",
      "outputs": [
        {
          "internalType": "address",
          "name": "",
          "type": "address"
        }
      ],
      "stateMutability": "view",
      "type": "function"
    },
    {
      "inputs": [
        {
          "internalType": "contract ITimelock[]",
          "name": "timelocks_",
          "type": "address[]"
        }
      ],
      "name": "addTimelocks",
      "outputs": [],
      "stateMutability": "nonpayable",
      "type": "function"
    },
    {
      "inputs": [
        {
          "internalType": "uint256",
          "name": "proposalId_",
          "type": "uint256"
        }
      ],
      "name": "cancel",
      "outputs": [],
      "stateMutability": "nonpayable",
      "type": "function"
    },
    {
      "inputs": [
        {
          "internalType": "uint256",
          "name": "proposalId_",
          "type": "uint256"
        }
      ],
      "name": "execute",
      "outputs": [],
      "stateMutability": "nonpayable",
      "type": "function"
    },
    {
      "inputs": [
        {
          "internalType": "uint16",
          "name": "",
          "type": "uint16"
        },
        {
          "internalType": "bytes",
          "name": "",
          "type": "bytes"
        },
        {
          "internalType": "uint64",
          "name": "",
          "type": "uint64"
        }
      ],
      "name": "failedMessages",
      "outputs": [
        {
          "internalType": "bytes32",
          "name": "",
          "type": "bytes32"
        }
      ],
      "stateMutability": "view",
      "type": "function"
    },
    {
      "inputs": [
        {
          "internalType": "uint16",
          "name": "_srcChainId",
          "type": "uint16"
        },
        {
          "internalType": "bytes",
          "name": "_srcAddress",
          "type": "bytes"
        }
      ],
      "name": "forceResumeReceive",
      "outputs": [],
      "stateMutability": "nonpayable",
      "type": "function"
    },
    {
      "inputs": [
        {
          "internalType": "uint16",
          "name": "_version",
          "type": "uint16"
        },
        {
          "internalType": "uint16",
          "name": "_chainId",
          "type": "uint16"
        },
        {
          "internalType": "address",
          "name": "",
          "type": "address"
        },
        {
          "internalType": "uint256",
          "name": "_configType",
          "type": "uint256"
        }
      ],
      "name": "getConfig",
      "outputs": [
        {
          "internalType": "bytes",
          "name": "",
          "type": "bytes"
        }
      ],
      "stateMutability": "view",
      "type": "function"
    },
    {
      "inputs": [
        {
          "internalType": "uint16",
          "name": "_remoteChainId",
          "type": "uint16"
        }
      ],
      "name": "getTrustedRemoteAddress",
      "outputs": [
        {
          "internalType": "bytes",
          "name": "",
          "type": "bytes"
        }
      ],
      "stateMutability": "view",
      "type": "function"
    },
    {
      "inputs": [
        {
          "internalType": "uint16",
          "name": "_srcChainId",
          "type": "uint16"
        },
        {
          "internalType": "bytes",
          "name": "_srcAddress",
          "type": "bytes"
        }
      ],
      "name": "isTrustedRemote",
      "outputs": [
        {
          "internalType": "bool",
          "name": "",
          "type": "bool"
        }
      ],
      "stateMutability": "view",
      "type": "function"
    },
    {
      "inputs": [],
      "name": "last24HourCommandsReceived",
      "outputs": [
        {
          "internalType": "uint256",
          "name": "",
          "type": "uint256"
        }
      ],
      "stateMutability": "view",
      "type": "function"
    },
    {
      "inputs": [],
      "name": "last24HourReceiveWindowStart",
      "outputs": [
        {
          "internalType": "uint256",
          "name": "",
          "type": "uint256"
        }
      ],
      "stateMutability": "view",
      "type": "function"
    },
    {
      "inputs": [],
      "name": "lastProposalReceived",
      "outputs": [
        {
          "internalType": "uint256",
          "name": "",
          "type": "uint256"
        }
      ],
      "stateMutability": "view",
      "type": "function"
    },
    {
      "inputs": [],
      "name": "lzEndpoint",
      "outputs": [
        {
          "internalType": "contract ILayerZeroEndpoint",
          "name": "",
          "type": "address"
        }
      ],
      "stateMutability": "view",
      "type": "function"
    },
    {
      "inputs": [
        {
          "internalType": "uint16",
          "name": "_srcChainId",
          "type": "uint16"
        },
        {
          "internalType": "bytes",
          "name": "_srcAddress",
          "type": "bytes"
        },
        {
          "internalType": "uint64",
          "name": "_nonce",
          "type": "uint64"
        },
        {
          "internalType": "bytes",
          "name": "_payload",
          "type": "bytes"
        }
      ],
      "name": "lzReceive",
      "outputs": [],
      "stateMutability": "nonpayable",
      "type": "function"
    },
    {
      "inputs": [],
      "name": "maxDailyReceiveLimit",
      "outputs": [
        {
          "internalType": "uint256",
          "name": "",
          "type": "uint256"
        }
      ],
      "stateMutability": "view",
      "type": "function"
    },
    {
      "inputs": [
        {
          "internalType": "uint16",
          "name": "",
          "type": "uint16"
        },
        {
          "internalType": "uint16",
          "name": "",
          "type": "uint16"
        }
      ],
      "name": "minDstGasLookup",
      "outputs": [
        {
          "internalType": "uint256",
          "name": "",
          "type": "uint256"
        }
      ],
      "stateMutability": "view",
      "type": "function"
    },
    {
      "inputs": [
        {
          "internalType": "uint16",
          "name": "_srcChainId",
          "type": "uint16"
        },
        {
          "internalType": "bytes",
          "name": "_srcAddress",
          "type": "bytes"
        },
        {
          "internalType": "uint64",
          "name": "_nonce",
          "type": "uint64"
        },
        {
          "internalType": "bytes",
          "name": "_payload",
          "type": "bytes"
        }
      ],
      "name": "nonblockingLzReceive",
      "outputs": [],
      "stateMutability": "nonpayable",
      "type": "function"
    },
    {
      "inputs": [],
      "name": "owner",
      "outputs": [
        {
          "internalType": "address",
          "name": "",
          "type": "address"
        }
      ],
      "stateMutability": "view",
      "type": "function"
    },
    {
      "inputs": [],
      "name": "pause",
      "outputs": [],
      "stateMutability": "nonpayable",
      "type": "function"
    },
    {
      "inputs": [],
      "name": "paused",
      "outputs": [
        {
          "internalType": "bool",
          "name": "",
          "type": "bool"
        }
      ],
      "stateMutability": "view",
      "type": "function"
    },
    {
      "inputs": [
        {
          "internalType": "uint16",
          "name": "",
          "type": "uint16"
        }
      ],
      "name": "payloadSizeLimitLookup",
      "outputs": [
        {
          "internalType": "uint256",
          "name": "",
          "type": "uint256"
        }
      ],
      "stateMutability": "view",
      "type": "function"
    },
    {
      "inputs": [],
      "name": "precrime",
      "outputs": [
        {
          "internalType": "address",
          "name": "",
          "type": "address"
        }
      ],
      "stateMutability": "view",
      "type": "function"
    },
    {
      "inputs": [
        {
          "internalType": "uint256",
          "name": "",
          "type": "uint256"
        }
      ],
      "name": "proposalTimelocks",
      "outputs": [
        {
          "internalType": "contract ITimelock",
          "name": "",
          "type": "address"
        }
      ],
      "stateMutability": "view",
      "type": "function"
    },
    {
      "inputs": [
        {
          "internalType": "uint256",
          "name": "",
          "type": "uint256"
        }
      ],
      "name": "proposals",
      "outputs": [
        {
          "internalType": "uint256",
          "name": "id",
          "type": "uint256"
        },
        {
          "internalType": "uint256",
          "name": "eta",
          "type": "uint256"
        },
        {
          "internalType": "bool",
          "name": "canceled",
          "type": "bool"
        },
        {
          "internalType": "bool",
          "name": "executed",
          "type": "bool"
        },
        {
          "internalType": "uint8",
          "name": "proposalType",
          "type": "uint8"
        }
      ],
      "stateMutability": "view",
      "type": "function"
    },
    {
      "inputs": [
        {
          "internalType": "uint256",
          "name": "",
          "type": "uint256"
        }
      ],
      "name": "queued",
      "outputs": [
        {
          "internalType": "bool",
          "name": "",
          "type": "bool"
        }
      ],
      "stateMutability": "view",
      "type": "function"
    },
    {
      "inputs": [],
      "name": "renounceOwnership",
      "outputs": [],
      "stateMutability": "nonpayable",
      "type": "function"
    },
    {
      "inputs": [
        {
          "internalType": "uint16",
          "name": "srcChainId_",
          "type": "uint16"
        },
        {
          "internalType": "bytes",
          "name": "srcAddress_",
          "type": "bytes"
        },
        {
          "internalType": "uint64",
          "name": "nonce_",
          "type": "uint64"
        },
        {
          "internalType": "bytes",
          "name": "payload_",
          "type": "bytes"
        }
      ],
      "name": "retryMessage",
      "outputs": [],
      "stateMutability": "payable",
      "type": "function"
    },
    {
      "inputs": [
        {
          "internalType": "uint16",
          "name": "_version",
          "type": "uint16"
        },
        {
          "internalType": "uint16",
          "name": "_chainId",
          "type": "uint16"
        },
        {
          "internalType": "uint256",
          "name": "_configType",
          "type": "uint256"
        },
        {
          "internalType": "bytes",
          "name": "_config",
          "type": "bytes"
        }
      ],
      "name": "setConfig",
      "outputs": [],
      "stateMutability": "nonpayable",
      "type": "function"
    },
    {
      "inputs": [
        {
          "internalType": "uint256",
          "name": "limit_",
          "type": "uint256"
        }
      ],
      "name": "setMaxDailyReceiveLimit",
      "outputs": [],
      "stateMutability": "nonpayable",
      "type": "function"
    },
    {
      "inputs": [
        {
          "internalType": "uint16",
          "name": "_dstChainId",
          "type": "uint16"
        },
        {
          "internalType": "uint16",
          "name": "_packetType",
          "type": "uint16"
        },
        {
          "internalType": "uint256",
          "name": "_minGas",
          "type": "uint256"
        }
      ],
      "name": "setMinDstGas",
      "outputs": [],
      "stateMutability": "nonpayable",
      "type": "function"
    },
    {
      "inputs": [
        {
          "internalType": "uint16",
          "name": "_dstChainId",
          "type": "uint16"
        },
        {
          "internalType": "uint256",
          "name": "_size",
          "type": "uint256"
        }
      ],
      "name": "setPayloadSizeLimit",
      "outputs": [],
      "stateMutability": "nonpayable",
      "type": "function"
    },
    {
      "inputs": [
        {
          "internalType": "address",
          "name": "_precrime",
          "type": "address"
        }
      ],
      "name": "setPrecrime",
      "outputs": [],
      "stateMutability": "nonpayable",
      "type": "function"
    },
    {
      "inputs": [
        {
          "internalType": "uint16",
          "name": "_version",
          "type": "uint16"
        }
      ],
      "name": "setReceiveVersion",
      "outputs": [],
      "stateMutability": "nonpayable",
      "type": "function"
    },
    {
      "inputs": [
        {
          "internalType": "uint16",
          "name": "_version",
          "type": "uint16"
        }
      ],
      "name": "setSendVersion",
      "outputs": [],
      "stateMutability": "nonpayable",
      "type": "function"
    },
    {
      "inputs": [
        {
          "internalType": "uint16",
          "name": "srcChainId_",
          "type": "uint16"
        }
      ],
      "name": "setSrcChainId",
      "outputs": [],
      "stateMutability": "nonpayable",
      "type": "function"
    },
    {
      "inputs": [
        {
          "internalType": "address",
          "name": "pendingAdmin_",
          "type": "address"
        },
        {
          "internalType": "uint8",
          "name": "proposalType_",
          "type": "uint8"
        }
      ],
      "name": "setTimelockPendingAdmin",
      "outputs": [],
      "stateMutability": "nonpayable",
      "type": "function"
    },
    {
      "inputs": [
        {
          "internalType": "uint16",
          "name": "_remoteChainId",
          "type": "uint16"
        },
        {
          "internalType": "bytes",
          "name": "_path",
          "type": "bytes"
        }
      ],
      "name": "setTrustedRemote",
      "outputs": [],
      "stateMutability": "nonpayable",
      "type": "function"
    },
    {
      "inputs": [
        {
          "internalType": "uint16",
          "name": "_remoteChainId",
          "type": "uint16"
        },
        {
          "internalType": "bytes",
          "name": "_remoteAddress",
          "type": "bytes"
        }
      ],
      "name": "setTrustedRemoteAddress",
      "outputs": [],
      "stateMutability": "nonpayable",
      "type": "function"
    },
    {
      "inputs": [],
      "name": "srcChainId",
      "outputs": [
        {
          "internalType": "uint16",
          "name": "",
          "type": "uint16"
        }
      ],
      "stateMutability": "view",
      "type": "function"
    },
    {
      "inputs": [
        {
          "internalType": "uint256",
          "name": "proposalId_",
          "type": "uint256"
        }
      ],
      "name": "state",
      "outputs": [
        {
          "internalType": "enum OmnichainGovernanceExecutor.ProposalState",
          "name": "",
          "type": "uint8"
        }
      ],
      "stateMutability": "view",
      "type": "function"
    },
    {
      "inputs": [
        {
          "internalType": "address",
          "name": "newOwner",
          "type": "address"
        }
      ],
      "name": "transferOwnership",
      "outputs": [],
      "stateMutability": "nonpayable",
      "type": "function"
    },
    {
      "inputs": [
        {
          "internalType": "uint16",
          "name": "",
          "type": "uint16"
        }
      ],
      "name": "trustedRemoteLookup",
      "outputs": [
        {
          "internalType": "bytes",
          "name": "",
          "type": "bytes"
        }
      ],
      "stateMutability": "view",
      "type": "function"
    },
    {
      "inputs": [],
      "name": "unpause",
      "outputs": [],
      "stateMutability": "nonpayable",
      "type": "function"
    }
  ],
  "transactionHash": "0x13fa023e6ff2968e7f1492b6d11f782e4b278f56a64a983a1c82f7766797435c",
  "args": [
    "0xae92d5aD7583AD66E49A0c67BAd18F6ba52dDDc1",
    "0x94fa6078b6b8a26f0b6edffbe6501b22a10470fb",
    10102
  ],
  "numDeployments": 2,
  "solcInputHash": "810de9f7eb17f3dbd78f359b5de58bc4",
  "bytecode": "0x60c060405234801561000f575f80fd5b5060405161490a38038061490a83398101604081905261002e91610128565b60015f5582808061003e33610092565b6001600160a01b0316608052506007805460ff1916905561005e816100e3565b50610068826100e3565b6001600160a01b039190911660a052600b805461ffff191661ffff90921691909117905550610172565b600180546001600160a01b038381166001600160a01b0319831681179093556040519116919082907f8be0079c531659141344cd1fd0a4f28419497f9722a3daafe3b4186f6b6457e0905f90a35050565b6001600160a01b03811661010a576040516342bcdf7f60e11b815260040160405180910390fd5b50565b80516001600160a01b0381168114610123575f80fd5b919050565b5f805f6060848603121561013a575f80fd5b6101438461010d565b92506101516020850161010d565b9150604084015161ffff81168114610167575f80fd5b809150509250925092565b60805160a0516147466101c45f395f81816105cf01526111dc01525f81816107930152818161095701528181610bdd01528181610ca501528181611459015281816119650152611f5001526147465ff3fe6080604052600436106102d6575f3560e01c8063876919e81161017b578063c8b42e5b116100d1578063ed66039b11610087578063f4fcfcca11610062578063f4fcfcca146108f7578063f5ecbdbc14610916578063fe0d94c114610935575f80fd5b8063ed66039b14610878578063ee9799ee14610897578063f2fde38b146108d8575f80fd5b8063d1deba1f116100b7578063d1deba1f14610827578063df2a5b3b1461083a578063eb8d72b714610859575f80fd5b8063c8b42e5b146107e9578063cbed8b9c14610808575f80fd5b80639f0c310111610131578063b353aaa71161010c578063b353aaa714610782578063baf3292d146107b5578063c4461834146107d4575f80fd5b80639f0c3101146107165780639f38369a14610744578063a6c3d16514610763575f80fd5b80638da5cb5b116101615780638da5cb5b146106a15780639493ffad146106cb578063950c8a74146106ea575f80fd5b8063876919e8146106565780638cfd8f5c1461066b575f80fd5b806342d65a8d1161023057806366ad5c8a116101e6578063724c184c116101c1578063724c184c146105be5780637533d788146106165780638456cb5914610642575f80fd5b806366ad5c8a1461057f57806370f6ad9a1461059e578063715018a6146105b3575f80fd5b806349d126051161021657806349d12605146104ee5780635b8c41e61461051b5780635c975abb14610568575f80fd5b806342d65a8d146104ba5780634406baaf146104d9575f80fd5b806310ddb137116102905780633f1f4fa41161026b5780633f1f4fa41461045c5780633f4ba83a1461048757806340e58ee51461049b575f80fd5b806310ddb137146103e25780633d8b38f6146104015780633e4f49e614610430575f80fd5b80630435bb56116102c05780630435bb561461038157806307e0db17146103a45780630df37483146103c3575f80fd5b80621d3567146102da578063013cf08b146102fb575b5f80fd5b3480156102e5575f80fd5b506102f96102f4366004613741565b610954565b005b348015610306575f80fd5b5061034b6103153660046137cf565b600d6020525f908152604090208054600182015460069092015490919060ff808216916101008104821691620100009091041685565b60408051958652602086019490945291151592840192909252901515606083015260ff16608082015260a0015b60405180910390f35b34801561038c575f80fd5b5061039660085481565b604051908152602001610378565b3480156103af575f80fd5b506102f96103be3660046137e6565b610ba3565b3480156103ce575f80fd5b506102f96103dd3660046137ff565b610c4d565b3480156103ed575f80fd5b506102f96103fc3660046137e6565b610c6b565b34801561040c575f80fd5b5061042061041b366004613827565b610ce9565b6040519015158152602001610378565b34801561043b575f80fd5b5061044f61044a3660046137cf565b610db3565b60405161037891906138a3565b348015610467575f80fd5b506103966104763660046137e6565b60046020525f908152604090205481565b348015610492575f80fd5b506102f96110f0565b3480156104a6575f80fd5b506102f96104b53660046137cf565b611102565b3480156104c5575f80fd5b506102f96104d4366004613827565b611414565b3480156104e4575f80fd5b50610396600c5481565b3480156104f9575f80fd5b50600b546105089061ffff1681565b60405161ffff9091168152602001610378565b348015610526575f80fd5b50610396610535366004613967565b600660209081525f9384526040808520845180860184018051928152908401958401959095209452929052825290205481565b348015610573575f80fd5b5060075460ff16610420565b34801561058a575f80fd5b506102f9610599366004613741565b6114bb565b3480156105a9575f80fd5b5061039660095481565b3480156102f9575f80fd5b3480156105c9575f80fd5b506105f17f000000000000000000000000000000000000000000000000000000000000000081565b60405173ffffffffffffffffffffffffffffffffffffffff9091168152602001610378565b348015610621575f80fd5b506106356106303660046137e6565b6115ac565b6040516103789190613a4e565b34801561064d575f80fd5b506102f9611643565b348015610661575f80fd5b50610396600a5481565b348015610676575f80fd5b50610396610685366004613a60565b600360209081525f928352604080842090915290825290205481565b3480156106ac575f80fd5b5060015473ffffffffffffffffffffffffffffffffffffffff166105f1565b3480156106d6575f80fd5b506102f96106e53660046137cf565b611653565b3480156106f5575f80fd5b506005546105f19073ffffffffffffffffffffffffffffffffffffffff1681565b348015610721575f80fd5b506104206107303660046137cf565b600f6020525f908152604090205460ff1681565b34801561074f575f80fd5b5061063561075e3660046137e6565b61169c565b34801561076e575f80fd5b506102f961077d366004613827565b6117a6565b34801561078d575f80fd5b506105f17f000000000000000000000000000000000000000000000000000000000000000081565b3480156107c0575f80fd5b506102f96107cf366004613ab2565b61182e565b3480156107df575f80fd5b5061039661271081565b3480156107f4575f80fd5b506102f96108033660046137e6565b6118af565b348015610813575f80fd5b506102f9610822366004613acd565b611920565b6102f9610835366004613741565b6119d6565b348015610845575f80fd5b506102f9610854366004613b37565b6119fd565b348015610864575f80fd5b506102f9610873366004613827565b611a66565b348015610883575f80fd5b506102f9610892366004613b93565b611abf565b3480156108a2575f80fd5b506105f16108b13660046137cf565b600e6020525f908152604090205473ffffffffffffffffffffffffffffffffffffffff1681565b3480156108e3575f80fd5b506102f96108f2366004613ab2565b611cd2565b348015610902575f80fd5b506102f9610911366004613c36565b611d6f565b348015610921575f80fd5b50610635610930366004613c6d565b611f06565b348015610940575f80fd5b506102f961094f3660046137cf565b611fd9565b337f000000000000000000000000000000000000000000000000000000000000000073ffffffffffffffffffffffffffffffffffffffff16146109de5760405162461bcd60e51b815260206004820152601e60248201527f4c7a4170703a20696e76616c696420656e64706f696e742063616c6c6572000060448201526064015b60405180910390fd5b61ffff86165f90815260026020526040812080546109fb90613cb7565b80601f0160208091040260200160405190810160405280929190818152602001828054610a2790613cb7565b8015610a725780601f10610a4957610100808354040283529160200191610a72565b820191905f5260205f20905b815481529060010190602001808311610a5557829003601f168201915b50505050509050805186869050148015610a8c57505f8151115b8015610ab4575080516020820120604051610aaa9088908890613d02565b6040518091039020145b610b265760405162461bcd60e51b815260206004820152602660248201527f4c7a4170703a20696e76616c696420736f757263652073656e64696e6720636f60448201527f6e7472616374000000000000000000000000000000000000000000000000000060648201526084016109d5565b610b9a8787878080601f0160208091040260200160405190810160405280939291908181526020018383808284375f9201919091525050604080516020601f8a018190048102820181019092528881528a9350915088908890819084018382808284375f9201919091525061228292505050565b50505050505050565b610bab612460565b6040517f07e0db1700000000000000000000000000000000000000000000000000000000815261ffff821660048201527f000000000000000000000000000000000000000000000000000000000000000073ffffffffffffffffffffffffffffffffffffffff16906307e0db17906024015b5f604051808303815f87803b158015610c34575f80fd5b505af1158015610c46573d5f803e3d5ffd5b5050505050565b610c55612460565b61ffff9091165f90815260046020526040902055565b610c73612460565b6040517f10ddb13700000000000000000000000000000000000000000000000000000000815261ffff821660048201527f000000000000000000000000000000000000000000000000000000000000000073ffffffffffffffffffffffffffffffffffffffff16906310ddb13790602401610c1d565b61ffff83165f9081526002602052604081208054829190610d0990613cb7565b80601f0160208091040260200160405190810160405280929190818152602001828054610d3590613cb7565b8015610d805780601f10610d5757610100808354040283529160200191610d80565b820191905f5260205f20905b815481529060010190602001808311610d6357829003601f168201915b505050505090508383604051610d97929190613d02565b60405180910390208180519060200120149150505b9392505050565b5f818152600d602090815260408083208151610120810183528154815260018201548185015260028201805484518187028101870186528181528796939586019390929190830182828015610e3c57602002820191905f5260205f20905b815473ffffffffffffffffffffffffffffffffffffffff168152600190910190602001808311610e11575b5050505050815260200160038201805480602002602001604051908101604052809291908181526020018280548015610e9257602002820191905f5260205f20905b815481526020019060010190808311610e7e575b5050505050815260200160048201805480602002602001604051908101604052809291908181526020015f905b82821015610f67578382905f5260205f20018054610edc90613cb7565b80601f0160208091040260200160405190810160405280929190818152602001828054610f0890613cb7565b8015610f535780601f10610f2a57610100808354040283529160200191610f53565b820191905f5260205f20905b815481529060010190602001808311610f3657829003601f168201915b505050505081526020019060010190610ebf565b50505050815260200160058201805480602002602001604051908101604052809291908181526020015f905b8282101561103b578382905f5260205f20018054610fb090613cb7565b80601f0160208091040260200160405190810160405280929190818152602001828054610fdc90613cb7565b80156110275780601f10610ffe57610100808354040283529160200191611027565b820191905f5260205f20905b81548152906001019060200180831161100a57829003601f168201915b505050505081526020019060010190610f93565b505050908252506006919091015460ff808216151560208401526101008204811615156040840152620100009091041660609091015260c08101519091501561108657505f92915050565b8060e00151156110995750600292915050565b5f838152600f602052604090205460ff16156110b85750600192915050565b6040517f0992f7ad00000000000000000000000000000000000000000000000000000000815260040160405180910390fd5b50919050565b6110f8612460565b6111006124c7565b565b600161110d82610db3565b600281111561111e5761111e613876565b146111b75760405162461bcd60e51b815260206004820152604f60248201527f4f6d6e69636861696e476f7665726e616e63654578656375746f723a3a63616e60448201527f63656c3a2070726f706f73616c2073686f756c6420626520717565756564206160648201527f6e64206e6f742065786563757465640000000000000000000000000000000000608482015260a4016109d5565b5f818152600d602052604090203373ffffffffffffffffffffffffffffffffffffffff7f0000000000000000000000000000000000000000000000000000000000000000161461126f5760405162461bcd60e51b815260206004820152603c60248201527f4f6d6e69636861696e476f7665726e616e63654578656375746f723a3a63616e60448201527f63656c3a2073656e646572206d75737420626520677561726469616e0000000060648201526084016109d5565b60068101805460ff19166001908117918290556201000090910460ff165f908152600e602052604080822054928401546002850154915173ffffffffffffffffffffffffffffffffffffffff90941693909286917f789cf55be980739dad1d0699b93b58e806b51c9d96619bfa8fe0a28abaa7b30c9190a25f5b818110156113f8578373ffffffffffffffffffffffffffffffffffffffff1663591fcdfe86600201838154811061132257611322613d11565b5f9182526020909120015460038801805473ffffffffffffffffffffffffffffffffffffffff909216918590811061135c5761135c613d11565b905f5260205f20015488600401858154811061137a5761137a613d11565b905f5260205f200189600501868154811061139757611397613d11565b905f5260205f2001886040518663ffffffff1660e01b81526004016113c0959493929190613db7565b5f604051808303815f87803b1580156113d7575f80fd5b505af11580156113e9573d5f803e3d5ffd5b505050508060010190506112e9565b5050505f9283525050600f60205260409020805460ff19169055565b61141c612460565b6040517f42d65a8d00000000000000000000000000000000000000000000000000000000815273ffffffffffffffffffffffffffffffffffffffff7f000000000000000000000000000000000000000000000000000000000000000016906342d65a8d9061149290869086908690600401613e39565b5f604051808303815f87803b1580156114a9575f80fd5b505af1158015610b9a573d5f803e3d5ffd5b3330146115305760405162461bcd60e51b815260206004820152602660248201527f4e6f6e626c6f636b696e674c7a4170703a2063616c6c6572206d75737420626560448201527f204c7a417070000000000000000000000000000000000000000000000000000060648201526084016109d5565b6115a48686868080601f0160208091040260200160405190810160405280939291908181526020018383808284375f9201919091525050604080516020601f8901819004810282018101909252878152899350915087908790819084018382808284375f9201919091525061252692505050565b505050505050565b60026020525f9081526040902080546115c490613cb7565b80601f01602080910402602001604051908101604052809291908181526020018280546115f090613cb7565b801561163b5780601f106116125761010080835404028352916020019161163b565b820191905f5260205f20905b81548152906001019060200180831161161e57829003601f168201915b505050505081565b61164b612460565b611100612952565b61165b612460565b60085460408051918252602082018390527f0a653bb1a57e62cfd43f0dc557c7223e8b58896238b5f9b300ef646d37b82d1b910160405180910390a1600855565b61ffff81165f908152600260205260408120805460609291906116be90613cb7565b80601f01602080910402602001604051908101604052809291908181526020018280546116ea90613cb7565b80156117355780601f1061170c57610100808354040283529160200191611735565b820191905f5260205f20905b81548152906001019060200180831161171857829003601f168201915b5050505050905080515f0361178c5760405162461bcd60e51b815260206004820152601d60248201527f4c7a4170703a206e6f20747275737465642070617468207265636f726400000060448201526064016109d5565b610dac5f6014835161179e9190613e83565b83919061298f565b6117ae612460565b8181306040516020016117c393929190613e9c565b60408051601f1981840301815291815261ffff85165f908152600260205220906117ed9082613f19565b507f8c0400cfe2d1199b1a725c78960bcc2a344d869b80590d0f2bd005db15a572ce83838360405161182193929190613e39565b60405180910390a1505050565b611836612460565b600580547fffffffffffffffffffffffff00000000000000000000000000000000000000001673ffffffffffffffffffffffffffffffffffffffff83169081179091556040519081527f5db758e995a17ec1ad84bdef7e8c3293a0bd6179bcce400dff5d4c3d87db726b9060200160405180910390a150565b6118b7612460565b600b5460405161ffff8084169216907fb17c58d5977290696b6eea77c81c725f3dc83e426252bd9ece6287c1b8d0e968905f90a3600b80547fffffffffffffffffffffffffffffffffffffffffffffffffffffffffffff00001661ffff92909216919091179055565b611928612460565b6040517fcbed8b9c00000000000000000000000000000000000000000000000000000000815273ffffffffffffffffffffffffffffffffffffffff7f0000000000000000000000000000000000000000000000000000000000000000169063cbed8b9c906119a29088908890889088908890600401614013565b5f604051808303815f87803b1580156119b9575f80fd5b505af11580156119cb573d5f803e3d5ffd5b505050505050505050565b6119de612460565b6119e6612ab6565b6119f4868686868686612b0d565b6115a460015f55565b611a05612460565b61ffff8381165f8181526003602090815260408083209487168084529482529182902085905581519283528201929092529081018290527f9d5c7c0b934da8fefa9c7760c98383778a12dfbfc0c3b3106518f43fb9508ac090606001611821565b611a6e612460565b61ffff83165f908152600260205260409020611a8b828483614040565b507ffa41487ad5d6728f0b19276fa1eddc16558578f5109fc39d2dc33c3230470dab83838360405161182193929190613e39565b611ac7612460565b5f611ad460026001614138565b90508060ff16825114611b9b5760405162461bcd60e51b815260206004820152606860248201527f4f6d6e69636861696e476f7665726e616e63654578656375746f723a3a696e6960448201527f7469616c697a653a6e756d626572206f662074696d656c6f636b732073686f7560648201527f6c64206d6174636820746865206e756d626572206f6620676f7665726e616e6360848201527f6520726f7574657300000000000000000000000000000000000000000000000060a482015260c4016109d5565b5f5b8160ff168160ff161015611ccd57611bd0838260ff1681518110611bc357611bc3613d11565b6020026020010151612d55565b828160ff1681518110611be557611be5613d11565b60209081029190910181015160ff83165f818152600e845260409081902054905191825273ffffffffffffffffffffffffffffffffffffffff928316939216917ffc45ae51ac4893a3f843d030fbfd4037c0c196109c9e667645b8f144c83c16ea910160405180910390a3828160ff1681518110611c6557611c65613d11565b60209081029190910181015160ff83165f908152600e909252604090912080547fffffffffffffffffffffffff00000000000000000000000000000000000000001673ffffffffffffffffffffffffffffffffffffffff909216919091179055600101611b9d565b505050565b611cda612460565b73ffffffffffffffffffffffffffffffffffffffff8116611d635760405162461bcd60e51b815260206004820152602660248201527f4f776e61626c653a206e6577206f776e657220697320746865207a65726f206160448201527f646472657373000000000000000000000000000000000000000000000000000060648201526084016109d5565b611d6c81612da2565b50565b611d77612460565b5f611d8460026001614138565b90508060ff168260ff1610611e275760405162461bcd60e51b815260206004820152604b60248201527f4f6d6e69636861696e476f7665726e616e63654578656375746f723a3a73657460448201527f54696d656c6f636b50656e64696e6741646d696e3a20696e76616c696420707260648201527f6f706f73616c2074797065000000000000000000000000000000000000000000608482015260a4016109d5565b60ff82165f908152600e6020526040908190205490517f4dd18bf500000000000000000000000000000000000000000000000000000000815273ffffffffffffffffffffffffffffffffffffffff858116600483015290911690634dd18bf5906024015f604051808303815f87803b158015611ea1575f80fd5b505af1158015611eb3573d5f803e3d5ffd5b50506040805173ffffffffffffffffffffffffffffffffffffffff8716815260ff861660208201527f6ac0b2c896b49975f12891f83c573bdf05490fe6b707cbaa2ba84c36094cbaec9350019050611821565b6040517ff5ecbdbc00000000000000000000000000000000000000000000000000000000815261ffff808616600483015284166024820152306044820152606481018290526060907f000000000000000000000000000000000000000000000000000000000000000073ffffffffffffffffffffffffffffffffffffffff169063f5ecbdbc906084015f60405180830381865afa158015611fa9573d5f803e3d5ffd5b505050506040513d5f823e601f3d908101601f19168201604052611fd0919081019061419d565b95945050505050565b611fe1612ab6565b6001611fec82610db3565b6002811115611ffd57611ffd613876565b146120965760405162461bcd60e51b815260206004820152605360248201527f4f6d6e69636861696e476f7665726e616e63654578656375746f723a3a65786560448201527f637574653a2070726f706f73616c2063616e206f6e6c7920626520657865637560648201527f7465642069662069742069732071756575656400000000000000000000000000608482015260a4016109d5565b5f818152600d602090815260408083206006810180547fffffffffffffffffffffffffffffffffffffffffffffffffffffffffffff00ff16610100179081905562010000900460ff168452600e90925280832054600183015460028401549251939473ffffffffffffffffffffffffffffffffffffffff9092169390929186917f712ae1383f79ac853f8d882153778e0260ef8f03b504e2866e0593e04d2b291f9190a25f5b8181101561225e578373ffffffffffffffffffffffffffffffffffffffff16630825f38f86600201838154811061217557612175613d11565b5f9182526020909120015460038801805473ffffffffffffffffffffffffffffffffffffffff90921691859081106121af576121af613d11565b905f5260205f2001548860040185815481106121cd576121cd613d11565b905f5260205f20018960050186815481106121ea576121ea613d11565b905f5260205f2001886040518663ffffffff1660e01b8152600401612213959493929190613db7565b5f604051808303815f875af115801561222e573d5f803e3d5ffd5b505050506040513d5f823e601f3d908101601f19168201604052612255919081019061419d565b5060010161213c565b5050505f838152600f60205260409020805460ff1916905550611d6c905060015f55565b600b5461ffff8581169116146123265760405162461bcd60e51b815260206004820152604860248201527f4f6d6e69636861696e476f7665726e616e63654578656375746f723a3a5f626c60448201527f6f636b696e674c7a526563656976653a20696e76616c696420736f757263652060648201527f636861696e206964000000000000000000000000000000000000000000000000608482015260a4016109d5565b805160208201206040515f9030906366ad5c8a9061234e9089908990899089906024016141d7565b604051602081830303815290604052915060e01b6020820180517bffffffffffffffffffffffffffffffffffffffffffffffffffffffff838183161783525050505090505f806123af6175305a6123a59190613e83565b3090609686612e18565b91509150816124565761ffff88165f908152600660205260409081902090518591906123dc908a90614215565b90815260408051918290036020908101832067ffffffffffffffff8b165f9081529152209190915561240f908890614215565b60405180910390208861ffff167f41d73ce7be31a588d59fe9013cdcfe583bc0aab25093d042b64cade0df730656888460405161244d929190614230565b60405180910390a35b5050505050505050565b60015473ffffffffffffffffffffffffffffffffffffffff1633146111005760405162461bcd60e51b815260206004820181905260248201527f4f776e61626c653a2063616c6c6572206973206e6f7420746865206f776e657260448201526064016109d5565b6124cf612e9d565b6007805460ff191690557f5db9ee0a495bf2e6ff9c91a7834c1ba4fdd244a5e8aa4e537bd38aeae4b073aa335b60405173ffffffffffffffffffffffffffffffffffffffff909116815260200160405180910390a1565b61252e612eef565b5f80828060200190518101906125449190614252565b915091505f805f805f868060200190518101906125619190614411565b5f8b8152600d602052604090205494995092975090955093509150156126155760405162461bcd60e51b815260206004820152604660248201527f4f6d6e69636861696e476f7665726e616e63654578656375746f723a3a5f6e6f60448201527f6e626c6f636b696e674c7a526563656976653a206475706c696361746520707260648201527f6f706f73616c0000000000000000000000000000000000000000000000000000608482015260a4016109d5565b83518551148015612627575082518551145b8015612634575081518551145b6126cc5760405162461bcd60e51b815260206004820152606060248201527f4f6d6e69636861696e476f7665726e616e63654578656375746f723a3a5f6e6f60448201527f6e626c6f636b696e674c7a526563656976653a2070726f706f73616c2066756e60648201527f6374696f6e20696e666f726d6174696f6e206172697479206d69736d61746368608482015260a4016109d5565b6126d860026001614138565b60ff168160ff16106127785760405162461bcd60e51b815260206004820152604960248201527f4f6d6e69636861696e476f7665726e616e63654578656375746f723a3a5f6e6f60448201527f6e626c6f636b696e674c7a526563656976653a20696e76616c69642070726f7060648201527f6f73616c20747970650000000000000000000000000000000000000000000000608482015260a4016109d5565b6127828551612f42565b60408051610120810182528781525f60208083018281528385018a8152606085018a90526080850189905260a0850188905260c0850184905260e0850184905260ff87166101008601528b8452600d835294909220835181559151600183015592518051929384936127fa92600285019201906134eb565b5060608201518051612816916003840191602090910190613573565b50608082015180516128329160048401916020909101906135ac565b5060a0820151805161284e9160058401916020909101906135fc565b5060c08201516006909101805460e08401516101009485015160ff1662010000027fffffffffffffffffffffffffffffffffffffffffffffffffffffffffff00ffff9115159095027fffffffffffffffffffffffffffffffffffffffffffffffffffffffffffff00ff941515949094167fffffffffffffffffffffffffffffffffffffffffffffffffffffffffffff0000909216919091179290921791909116919091179055600c87905580516040517fc37d19c9a6a9a568b5071658f9b5082ff8f142df3cf090385c5621ab1193806590612933908990899089908990899061457e565b60405180910390a261294487612fd2565b505050505050505050505050565b61295a612eef565b6007805460ff191660011790557f62e78cea01bee320cd4e420270b5ea74000d11b0c9f74754ebdbfc544b05a2586124fc3390565b60608161299d81601f614646565b10156129eb5760405162461bcd60e51b815260206004820152600e60248201527f736c6963655f6f766572666c6f7700000000000000000000000000000000000060448201526064016109d5565b6129f58284614646565b84511015612a455760405162461bcd60e51b815260206004820152601160248201527f736c6963655f6f75744f66426f756e647300000000000000000000000000000060448201526064016109d5565b606082158015612a635760405191505f825260208201604052612aad565b6040519150601f8416801560200281840101858101878315602002848b0101015b81831015612a9c578051835260209283019201612a84565b5050858452601f01601f1916604052505b50949350505050565b60025f5403612b075760405162461bcd60e51b815260206004820152601f60248201527f5265656e7472616e637947756172643a207265656e7472616e742063616c6c0060448201526064016109d5565b60025f55565b61ffff86165f908152600660205260408082209051612b2f9088908890613d02565b908152604080516020928190038301902067ffffffffffffffff87165f9081529252902054905080612bc95760405162461bcd60e51b815260206004820152602360248201527f4e6f6e626c6f636b696e674c7a4170703a206e6f2073746f726564206d65737360448201527f616765000000000000000000000000000000000000000000000000000000000060648201526084016109d5565b808383604051612bda929190613d02565b604051809103902014612c555760405162461bcd60e51b815260206004820152602160248201527f4e6f6e626c6f636b696e674c7a4170703a20696e76616c6964207061796c6f6160448201527f640000000000000000000000000000000000000000000000000000000000000060648201526084016109d5565b61ffff87165f908152600660205260408082209051612c779089908990613d02565b908152604080516020928190038301812067ffffffffffffffff89165f90815290845282902093909355601f88018290048202830182019052868252612d0d91899189908990819084018382808284375f9201919091525050604080516020601f8a018190048102820181019092528881528a9350915088908890819084018382808284375f9201919091525061252692505050565b7fc264d91f3adc5588250e1551f547752ca0cfa8f6b530d243b9f9f4cab10ea8e58787878785604051612d44959493929190614659565b60405180910390a150505050505050565b73ffffffffffffffffffffffffffffffffffffffff8116611d6c576040517f8579befe00000000000000000000000000000000000000000000000000000000815260040160405180910390fd5b6001805473ffffffffffffffffffffffffffffffffffffffff8381167fffffffffffffffffffffffff0000000000000000000000000000000000000000831681179093556040519116919082907f8be0079c531659141344cd1fd0a4f28419497f9722a3daafe3b4186f6b6457e0905f90a35050565b5f60605f805f8661ffff1667ffffffffffffffff811115612e3b57612e3b6138e2565b6040519080825280601f01601f191660200182016040528015612e65576020820181803683370190505b5090505f808751602089015f8d8df191503d925086831115612e85578692505b828152825f602083013e909890975095505050505050565b60075460ff166111005760405162461bcd60e51b815260206004820152601460248201527f5061757361626c653a206e6f742070617573656400000000000000000000000060448201526064016109d5565b60075460ff16156111005760405162461bcd60e51b815260206004820152601060248201527f5061757361626c653a207061757365640000000000000000000000000000000060448201526064016109d5565b600954600a544291906201518090612f5a9084613e83565b1115612f6c5750600a81905581612f79565b612f768382614646565b90505b600854811115612fcb5760405162461bcd60e51b815260206004820181905260248201527f4461696c79205472616e73616374696f6e204c696d697420457863656564656460448201526064016109d5565b6009555050565b5f818152600d60209081526040808320600681015462010000900460ff168452600e83528184205482517f6a42b8f8000000000000000000000000000000000000000000000000000000008152925191949373ffffffffffffffffffffffffffffffffffffffff90911692636a42b8f892600480830193928290030181865afa158015613061573d5f803e3d5ffd5b505050506040513d601f19601f820116820180604052508101906130859190614694565b61308f9042614646565b60018084018290555f858152600f602052604090819020805460ff191690921790915560068401546002850154915192935062010000900460ff169185907f9a2e42fd6722813d69113e7d0079d3d940171428df7373df9c7f7617cfda2892906130fc9086815260200190565b60405180910390a25f5b818110156115a4576132b885600201828154811061312657613126613d11565b5f9182526020909120015460038701805473ffffffffffffffffffffffffffffffffffffffff909216918490811061316057613160613d11565b905f5260205f20015487600401848154811061317e5761317e613d11565b905f5260205f2001805461319190613cb7565b80601f01602080910402602001604051908101604052809291908181526020018280546131bd90613cb7565b80156132085780601f106131df57610100808354040283529160200191613208565b820191905f5260205f20905b8154815290600101906020018083116131eb57829003601f168201915b505050505088600501858154811061322257613222613d11565b905f5260205f2001805461323590613cb7565b80601f016020809104026020016040519081016040528092919081815260200182805461326190613cb7565b80156132ac5780601f10613283576101008083540402835291602001916132ac565b820191905f5260205f20905b81548152906001019060200180831161328f57829003601f168201915b505050505088886132c0565b600101613106565b60ff81165f908152600e602090815260409182902054915173ffffffffffffffffffffffffffffffffffffffff9092169163f2b065379161330b918a918a918a918a918a91016146ab565b604051602081830303815290604052805190602001206040518263ffffffff1660e01b815260040161333f91815260200190565b602060405180830381865afa15801561335a573d5f803e3d5ffd5b505050506040513d601f19601f8201168201806040525081019061337e91906146f1565b1561343d5760405162461bcd60e51b815260206004820152606360248201527f4f6d6e69636861696e476f7665726e616e63654578656375746f723a3a71756560448201527f75654f72526576657274496e7465726e616c3a206964656e746963616c20707260648201527f6f706f73616c20616374696f6e20616c7265616479207175657565642061742060848201527f657461000000000000000000000000000000000000000000000000000000000060a482015260c4016109d5565b60ff81165f908152600e6020526040908190205490517f3a66f90100000000000000000000000000000000000000000000000000000000815273ffffffffffffffffffffffffffffffffffffffff90911690633a66f901906134ab90899089908990899089906004016146ab565b6020604051808303815f875af11580156134c7573d5f803e3d5ffd5b505050506040513d601f19601f82011682018060405250810190610b9a9190614694565b828054828255905f5260205f20908101928215613563579160200282015b8281111561356357825182547fffffffffffffffffffffffff00000000000000000000000000000000000000001673ffffffffffffffffffffffffffffffffffffffff909116178255602090920191600190910190613509565b5061356f92915061364c565b5090565b828054828255905f5260205f20908101928215613563579160200282015b82811115613563578251825591602001919060010190613591565b828054828255905f5260205f209081019282156135f0579160200282015b828111156135f057825182906135e09082613f19565b50916020019190600101906135ca565b5061356f929150613660565b828054828255905f5260205f20908101928215613640579160200282015b8281111561364057825182906136309082613f19565b509160200191906001019061361a565b5061356f92915061367c565b5b8082111561356f575f815560010161364d565b8082111561356f575f6136738282613698565b50600101613660565b8082111561356f575f61368f8282613698565b5060010161367c565b5080546136a490613cb7565b5f825580601f106136b3575050565b601f0160209004905f5260205f2090810190611d6c919061364c565b803561ffff811681146136e0575f80fd5b919050565b5f8083601f8401126136f5575f80fd5b50813567ffffffffffffffff81111561370c575f80fd5b602083019150836020828501011115613723575f80fd5b9250929050565b803567ffffffffffffffff811681146136e0575f80fd5b5f805f805f8060808789031215613756575f80fd5b61375f876136cf565b9550602087013567ffffffffffffffff8082111561377b575f80fd5b6137878a838b016136e5565b909750955085915061379b60408a0161372a565b945060608901359150808211156137b0575f80fd5b506137bd89828a016136e5565b979a9699509497509295939492505050565b5f602082840312156137df575f80fd5b5035919050565b5f602082840312156137f6575f80fd5b610dac826136cf565b5f8060408385031215613810575f80fd5b613819836136cf565b946020939093013593505050565b5f805f60408486031215613839575f80fd5b613842846136cf565b9250602084013567ffffffffffffffff81111561385d575f80fd5b613869868287016136e5565b9497909650939450505050565b7f4e487b71000000000000000000000000000000000000000000000000000000005f52602160045260245ffd5b60208101600383106138dc577f4e487b71000000000000000000000000000000000000000000000000000000005f52602160045260245ffd5b91905290565b7f4e487b71000000000000000000000000000000000000000000000000000000005f52604160045260245ffd5b604051601f8201601f1916810167ffffffffffffffff81118282101715613938576139386138e2565b604052919050565b5f67ffffffffffffffff821115613959576139596138e2565b50601f01601f191660200190565b5f805f60608486031215613979575f80fd5b613982846136cf565b9250602084013567ffffffffffffffff81111561399d575f80fd5b8401601f810186136139ad575f80fd5b80356139c06139bb82613940565b61390f565b8181528760208385010111156139d4575f80fd5b816020840160208301375f602083830101528094505050506139f86040850161372a565b90509250925092565b5f5b83811015613a1b578181015183820152602001613a03565b50505f910152565b5f8151808452613a3a816020860160208601613a01565b601f01601f19169290920160200192915050565b602081525f610dac6020830184613a23565b5f8060408385031215613a71575f80fd5b613a7a836136cf565b9150613a88602084016136cf565b90509250929050565b73ffffffffffffffffffffffffffffffffffffffff81168114611d6c575f80fd5b5f60208284031215613ac2575f80fd5b8135610dac81613a91565b5f805f805f60808688031215613ae1575f80fd5b613aea866136cf565b9450613af8602087016136cf565b935060408601359250606086013567ffffffffffffffff811115613b1a575f80fd5b613b26888289016136e5565b969995985093965092949392505050565b5f805f60608486031215613b49575f80fd5b613b52846136cf565b9250613b60602085016136cf565b9150604084013590509250925092565b5f67ffffffffffffffff821115613b8957613b896138e2565b5060051b60200190565b5f6020808385031215613ba4575f80fd5b823567ffffffffffffffff811115613bba575f80fd5b8301601f81018513613bca575f80fd5b8035613bd86139bb82613b70565b81815260059190911b82018301908381019087831115613bf6575f80fd5b928401925b82841015613c1d578335613c0e81613a91565b82529284019290840190613bfb565b979650505050505050565b60ff81168114611d6c575f80fd5b5f8060408385031215613c47575f80fd5b8235613c5281613a91565b91506020830135613c6281613c28565b809150509250929050565b5f805f8060808587031215613c80575f80fd5b613c89856136cf565b9350613c97602086016136cf565b92506040850135613ca781613a91565b9396929550929360600135925050565b600181811c90821680613ccb57607f821691505b6020821081036110ea577f4e487b71000000000000000000000000000000000000000000000000000000005f52602260045260245ffd5b818382375f9101908152919050565b7f4e487b71000000000000000000000000000000000000000000000000000000005f52603260045260245ffd5b5f8154613d4a81613cb7565b808552602060018381168015613d675760018114613d8157613dac565b60ff198516838901528284151560051b8901019550613dac565b865f52825f205f5b85811015613da45781548a8201860152908301908401613d89565b890184019650505b505050505092915050565b73ffffffffffffffffffffffffffffffffffffffff8616815284602082015260a060408201525f613deb60a0830186613d3e565b8281036060840152613dfd8186613d3e565b9150508260808301529695505050505050565b81835281816020850137505f602082840101525f6020601f19601f840116840101905092915050565b61ffff84168152604060208201525f611fd0604083018486613e10565b7f4e487b71000000000000000000000000000000000000000000000000000000005f52601160045260245ffd5b81810381811115613e9657613e96613e56565b92915050565b8284823760609190911b7fffffffffffffffffffffffffffffffffffffffff000000000000000000000000169101908152601401919050565b601f821115611ccd57805f5260205f20601f840160051c81016020851015613efa5750805b601f840160051c820191505b81811015610c46575f8155600101613f06565b815167ffffffffffffffff811115613f3357613f336138e2565b613f4781613f418454613cb7565b84613ed5565b602080601f831160018114613f99575f8415613f635750858301515b7fffffffffffffffffffffffffffffffffffffffffffffffffffffffffffffffff600386901b1c1916600185901b1785556115a4565b5f85815260208120601f198616915b82811015613fc757888601518255948401946001909101908401613fa8565b508582101561400357878501517fffffffffffffffffffffffffffffffffffffffffffffffffffffffffffffffff600388901b60f8161c191681555b5050505050600190811b01905550565b5f61ffff808816835280871660208401525084604083015260806060830152613c1d608083018486613e10565b67ffffffffffffffff831115614058576140586138e2565b61406c836140668354613cb7565b83613ed5565b5f601f8411600181146140bc575f85156140865750838201355b7fffffffffffffffffffffffffffffffffffffffffffffffffffffffffffffffff600387901b1c1916600186901b178355610c46565b5f83815260208120601f198716915b828110156140eb57868501358255602094850194600190920191016140cb565b5086821015614126577fffffffffffffffffffffffffffffffffffffffffffffffffffffffffffffffff60f88860031b161c19848701351681555b505060018560011b0183555050505050565b60ff8181168382160190811115613e9657613e96613e56565b5f61415e6139bb84613940565b9050828152838383011115614171575f80fd5b610dac836020830184613a01565b5f82601f83011261418e575f80fd5b610dac83835160208501614151565b5f602082840312156141ad575f80fd5b815167ffffffffffffffff8111156141c3575f80fd5b6141cf8482850161417f565b949350505050565b61ffff85168152608060208201525f6141f36080830186613a23565b67ffffffffffffffff851660408401528281036060840152613c1d8185613a23565b5f8251614226818460208701613a01565b9190910192915050565b67ffffffffffffffff83168152604060208201525f6141cf6040830184613a23565b5f8060408385031215614263575f80fd5b825167ffffffffffffffff811115614279575f80fd5b6142858582860161417f565b925050602083015190509250929050565b5f82601f8301126142a5575f80fd5b815160206142b56139bb83613b70565b8083825260208201915060208460051b8701019350868411156142d6575f80fd5b602086015b848110156142f257805183529183019183016142db565b509695505050505050565b5f82601f83011261430c575f80fd5b8151602061431c6139bb83613b70565b82815260059290921b8401810191818101908684111561433a575f80fd5b8286015b848110156142f257805167ffffffffffffffff81111561435c575f80fd5b8701603f8101891361436c575f80fd5b61437d898683015160408401614151565b84525091830191830161433e565b5f82601f83011261439a575f80fd5b815160206143aa6139bb83613b70565b82815260059290921b840181019181810190868411156143c8575f80fd5b8286015b848110156142f257805167ffffffffffffffff8111156143ea575f80fd5b6143f88986838b010161417f565b8452509183019183016143cc565b80516136e081613c28565b5f805f805f60a08688031215614425575f80fd5b855167ffffffffffffffff8082111561443c575f80fd5b818801915088601f83011261444f575f80fd5b8151602061445f6139bb83613b70565b82815260059290921b8401810191818101908c84111561447d575f80fd5b948201945b838610156144a457855161449581613a91565b82529482019490820190614482565b918b01519199509093505050808211156144bc575f80fd5b6144c889838a01614296565b955060408801519150808211156144dd575f80fd5b6144e989838a016142fd565b945060608801519150808211156144fe575f80fd5b5061450b8882890161438b565b92505061451a60808701614406565b90509295509295909350565b5f8282518085526020808601955060208260051b840101602086015f5b8481101561457157601f1986840301895261455f838351613a23565b98840198925090830190600101614543565b5090979650505050505050565b60a080825286519082018190525f9060209060c0840190828a01845b828110156145cc57815173ffffffffffffffffffffffffffffffffffffffff168452928401929084019060010161459a565b505050838103828501528751808252888301918301905f5b81811015614600578351835292840192918401916001016145e4565b505084810360408601526146148189614526565b92505050828103606084015261462a8186614526565b91505061463c608083018460ff169052565b9695505050505050565b80820180821115613e9657613e96613e56565b61ffff86168152608060208201525f614676608083018688613e10565b67ffffffffffffffff94909416604083015250606001529392505050565b5f602082840312156146a4575f80fd5b5051919050565b73ffffffffffffffffffffffffffffffffffffffff8616815284602082015260a060408201525f6146df60a0830186613a23565b8281036060840152613dfd8186613a23565b5f60208284031215614701575f80fd5b81518015158114610dac575f80fdfea2646970667358221220b5647048305f5d2b736f59291a7b969e2b9e416b72cba26bbb0015e2754020a864736f6c63430008190033",
  "devdoc": {
    "custom:security-contact": "https://github.com/VenusProtocol/governance-contracts#discussion",
    "details": "The owner of this contract controls LayerZero configuration. When used in production the owner will be OmnichainExecutor This implementation is non-blocking, meaning the failed messages will not block the future messages from the source. For the blocking behavior, derive the contract from LzApp.",
    "events": {
      "Paused(address)": {
        "details": "Emitted when the pause is triggered by `account`."
      },
      "Unpaused(address)": {
        "details": "Emitted when the pause is lifted by `account`."
      }
    },
    "kind": "dev",
    "methods": {
      "addTimelocks(address[])": {
        "custom:access": "Only owner",
        "custom:event": "Emits TimelockAdded with old and new timelock and route type",
        "params": {
          "timelocks_": "Array of addresses of all 3 timelocks"
        }
      },
      "cancel(uint256)": {
        "custom:access": "Sender must be the guardian",
        "custom:event": "Emits ProposalCanceled with proposal id of the canceled proposal",
        "params": {
          "proposalId_": "Id of proposal that is to be canceled"
        }
      },
      "execute(uint256)": {
        "custom:event": "Emits ProposalExecuted with proposal id of executed proposal",
        "params": {
          "proposalId_": "Id of proposal that is to be executed"
        }
      },
      "owner()": {
        "details": "Returns the address of the current owner."
      },
      "pause()": {
        "custom:access": "Only owner"
      },
      "paused()": {
        "details": "Returns true if the contract is paused, and false otherwise."
      },
      "retryMessage(uint16,bytes,uint64,bytes)": {
        "custom:access": "Only owner",
        "params": {
          "nonce_": "Nonce to identify failed message",
          "payload_": "The payload of the message to be retried",
          "srcAddress_": "Source address => local app address + remote app address",
          "srcChainId_": "Source chain Id"
        }
      },
      "setMaxDailyReceiveLimit(uint256)": {
        "custom:access": "Only Owner",
        "custom:event": "Emits SetMaxDailyReceiveLimit with old and new limit",
        "params": {
          "limit_": "Number of commands"
        }
      },
      "setSrcChainId(uint16)": {
        "custom:access": "Only owner",
        "custom:event": "Emit SetSrcChainId with old and new source id",
        "params": {
          "srcChainId_": "The new source chain id to be set"
        }
      },
      "setTimelockPendingAdmin(address,uint8)": {
        "custom:access": "Only owner",
        "custom:event": "Emits SetTimelockPendingAdmin with new pending admin and proposal type",
        "params": {
          "pendingAdmin_": "Address of new pending admin",
          "proposalType_": "Type of proposal"
        }
      },
      "state(uint256)": {
        "params": {
          "proposalId_": "The id of the proposal"
        },
        "returns": {
          "_0": "Proposal state"
        }
      },
      "transferOwnership(address)": {
        "details": "Transfers ownership of the contract to a new account (`newOwner`). Can only be called by the current owner."
      },
      "unpause()": {
        "custom:access": "Only owner"
      }
    },
    "title": "OmnichainGovernanceExecutor",
    "version": 1
  },
  "userdoc": {
    "errors": {
      "InvalidProposalId()": [
        {
          "notice": "Thrown when proposal ID is invalid"
        }
      ],
      "ZeroAddressNotAllowed()": [
        {
          "notice": "Thrown if the supplied address is a zero address where it is not allowed"
        }
      ]
    },
    "events": {
      "ProposalCanceled(uint256)": {
        "notice": "Emitted when proposal is canceled"
      },
      "ProposalExecuted(uint256)": {
        "notice": "Emitted when proposal executed"
      },
      "ProposalQueued(uint256,uint256)": {
        "notice": "Emitted when proposal is queued"
      },
      "ProposalReceived(uint256,address[],uint256[],string[],bytes[],uint8)": {
        "notice": "Emitted when proposal is received"
      },
      "ReceivePayloadFailed(uint16,bytes,uint64,bytes)": {
        "notice": "Emitted when proposal failed"
      },
      "SetMaxDailyReceiveLimit(uint256,uint256)": {
        "notice": "Emitted when the maximum daily limit for receiving command from Binance chain is modified"
      },
      "SetSrcChainId(uint16,uint16)": {
        "notice": "Emitted when source layerzero endpoint id is updated"
      },
      "SetTimelockPendingAdmin(address,uint8)": {
        "notice": "Emitted when pending admin of Timelock is updated"
      },
      "TimelockAdded(uint8,address,address)": {
        "notice": "Emitted when timelock added"
      }
    },
    "kind": "user",
    "methods": {
      "GUARDIAN()": {
        "notice": "A privileged role that can cancel any proposal"
      },
      "addTimelocks(address[])": {
        "notice": "Add timelocks to the ProposalTimelocks mapping"
      },
      "cancel(uint256)": {
        "notice": "Cancels a proposal only if sender is the guardian and proposal is not executed"
      },
      "execute(uint256)": {
        "notice": "Executes a queued proposal if eta has passed"
      },
      "last24HourCommandsReceived()": {
        "notice": "Total received commands within the last 24-hour window from Binance chain"
      },
      "last24HourReceiveWindowStart()": {
        "notice": "Timestamp when the last 24-hour window started from Binance chain"
      },
      "lastProposalReceived()": {
        "notice": "Last proposal count received"
      },
      "maxDailyReceiveLimit()": {
        "notice": "Maximum daily limit for receiving commands from Binance chain"
      },
      "pause()": {
        "notice": "Triggers the paused state of the controller"
      },
      "proposalTimelocks(uint256)": {
        "notice": "Mapping containing Timelock addresses for each proposal type"
      },
      "proposals(uint256)": {
        "notice": "The official record of all proposals ever proposed"
      },
      "queued(uint256)": {
        "notice": "Represents queue state of proposal"
      },
      "renounceOwnership()": {
        "notice": "Empty implementation of renounce ownership to avoid any mishappening"
      },
      "retryMessage(uint16,bytes,uint64,bytes)": {
        "notice": "Resends a previously failed message"
      },
      "setMaxDailyReceiveLimit(uint256)": {
        "notice": "Sets the maximum daily limit for receiving commands"
      },
      "setSrcChainId(uint16)": {
        "notice": "Update source layerzero endpoint id"
      },
      "setTimelockPendingAdmin(address,uint8)": {
        "notice": "Sets the new pending admin of the Timelock"
      },
      "srcChainId()": {
        "notice": "Stores Binance layerzero endpoint id"
      },
      "state(uint256)": {
        "notice": "Gets the state of a proposal"
      },
      "unpause()": {
        "notice": "Triggers the resume state of the controller"
      }
    },
    "notice": "Executes the proposal transactions sent from the main chain",
    "version": 1
  },
  "storageLayout": {
    "storage": [
      {
        "astId": 4299,
        "contract": "contracts/Cross-chain/OmnichainGovernanceExecutor.sol:OmnichainGovernanceExecutor",
        "label": "_status",
        "offset": 0,
        "slot": "0",
        "type": "t_uint256"
      },
      {
        "astId": 4075,
        "contract": "contracts/Cross-chain/OmnichainGovernanceExecutor.sol:OmnichainGovernanceExecutor",
        "label": "_owner",
        "offset": 0,
        "slot": "1",
        "type": "t_address"
      },
      {
        "astId": 455,
        "contract": "contracts/Cross-chain/OmnichainGovernanceExecutor.sol:OmnichainGovernanceExecutor",
        "label": "trustedRemoteLookup",
        "offset": 0,
        "slot": "2",
        "type": "t_mapping(t_uint16,t_bytes_storage)"
      },
      {
        "astId": 461,
        "contract": "contracts/Cross-chain/OmnichainGovernanceExecutor.sol:OmnichainGovernanceExecutor",
        "label": "minDstGasLookup",
        "offset": 0,
        "slot": "3",
        "type": "t_mapping(t_uint16,t_mapping(t_uint16,t_uint256))"
      },
      {
        "astId": 465,
        "contract": "contracts/Cross-chain/OmnichainGovernanceExecutor.sol:OmnichainGovernanceExecutor",
        "label": "payloadSizeLimitLookup",
        "offset": 0,
        "slot": "4",
        "type": "t_mapping(t_uint16,t_uint256)"
      },
      {
        "astId": 467,
        "contract": "contracts/Cross-chain/OmnichainGovernanceExecutor.sol:OmnichainGovernanceExecutor",
        "label": "precrime",
        "offset": 0,
        "slot": "5",
        "type": "t_address"
      },
      {
        "astId": 997,
        "contract": "contracts/Cross-chain/OmnichainGovernanceExecutor.sol:OmnichainGovernanceExecutor",
        "label": "failedMessages",
        "offset": 0,
        "slot": "6",
        "type": "t_mapping(t_uint16,t_mapping(t_bytes_memory_ptr,t_mapping(t_uint64,t_bytes32)))"
      },
      {
        "astId": 4198,
        "contract": "contracts/Cross-chain/OmnichainGovernanceExecutor.sol:OmnichainGovernanceExecutor",
        "label": "_paused",
        "offset": 0,
        "slot": "7",
        "type": "t_bool"
      },
      {
        "astId": 5497,
        "contract": "contracts/Cross-chain/OmnichainGovernanceExecutor.sol:OmnichainGovernanceExecutor",
        "label": "maxDailyReceiveLimit",
        "offset": 0,
        "slot": "8",
        "type": "t_uint256"
      },
      {
        "astId": 5500,
        "contract": "contracts/Cross-chain/OmnichainGovernanceExecutor.sol:OmnichainGovernanceExecutor",
        "label": "last24HourCommandsReceived",
        "offset": 0,
        "slot": "9",
        "type": "t_uint256"
      },
      {
        "astId": 5503,
        "contract": "contracts/Cross-chain/OmnichainGovernanceExecutor.sol:OmnichainGovernanceExecutor",
        "label": "last24HourReceiveWindowStart",
        "offset": 0,
        "slot": "10",
        "type": "t_uint256"
      },
      {
        "astId": 6205,
        "contract": "contracts/Cross-chain/OmnichainGovernanceExecutor.sol:OmnichainGovernanceExecutor",
        "label": "srcChainId",
        "offset": 0,
        "slot": "11",
        "type": "t_uint16"
      },
      {
        "astId": 6208,
        "contract": "contracts/Cross-chain/OmnichainGovernanceExecutor.sol:OmnichainGovernanceExecutor",
        "label": "lastProposalReceived",
        "offset": 0,
        "slot": "12",
        "type": "t_uint256"
      },
      {
        "astId": 6214,
        "contract": "contracts/Cross-chain/OmnichainGovernanceExecutor.sol:OmnichainGovernanceExecutor",
        "label": "proposals",
        "offset": 0,
        "slot": "13",
        "type": "t_mapping(t_uint256,t_struct(Proposal)6195_storage)"
      },
      {
        "astId": 6220,
        "contract": "contracts/Cross-chain/OmnichainGovernanceExecutor.sol:OmnichainGovernanceExecutor",
        "label": "proposalTimelocks",
        "offset": 0,
        "slot": "14",
        "type": "t_mapping(t_uint256,t_contract(ITimelock)7896)"
      },
      {
        "astId": 6225,
        "contract": "contracts/Cross-chain/OmnichainGovernanceExecutor.sol:OmnichainGovernanceExecutor",
        "label": "queued",
        "offset": 0,
        "slot": "15",
        "type": "t_mapping(t_uint256,t_bool)"
      }
    ],
    "types": {
      "t_address": {
        "encoding": "inplace",
        "label": "address",
        "numberOfBytes": "20"
      },
      "t_array(t_address)dyn_storage": {
        "base": "t_address",
        "encoding": "dynamic_array",
        "label": "address[]",
        "numberOfBytes": "32"
      },
      "t_array(t_bytes_storage)dyn_storage": {
        "base": "t_bytes_storage",
        "encoding": "dynamic_array",
        "label": "bytes[]",
        "numberOfBytes": "32"
      },
      "t_array(t_string_storage)dyn_storage": {
        "base": "t_string_storage",
        "encoding": "dynamic_array",
        "label": "string[]",
        "numberOfBytes": "32"
      },
      "t_array(t_uint256)dyn_storage": {
        "base": "t_uint256",
        "encoding": "dynamic_array",
        "label": "uint256[]",
        "numberOfBytes": "32"
      },
      "t_bool": {
        "encoding": "inplace",
        "label": "bool",
        "numberOfBytes": "1"
      },
      "t_bytes32": {
        "encoding": "inplace",
        "label": "bytes32",
        "numberOfBytes": "32"
      },
      "t_bytes_memory_ptr": {
        "encoding": "bytes",
        "label": "bytes",
        "numberOfBytes": "32"
      },
      "t_bytes_storage": {
        "encoding": "bytes",
        "label": "bytes",
        "numberOfBytes": "32"
      },
      "t_contract(ITimelock)7896": {
        "encoding": "inplace",
        "label": "contract ITimelock",
        "numberOfBytes": "20"
      },
      "t_mapping(t_bytes_memory_ptr,t_mapping(t_uint64,t_bytes32))": {
        "encoding": "mapping",
        "key": "t_bytes_memory_ptr",
        "label": "mapping(bytes => mapping(uint64 => bytes32))",
        "numberOfBytes": "32",
        "value": "t_mapping(t_uint64,t_bytes32)"
      },
      "t_mapping(t_uint16,t_bytes_storage)": {
        "encoding": "mapping",
        "key": "t_uint16",
        "label": "mapping(uint16 => bytes)",
        "numberOfBytes": "32",
        "value": "t_bytes_storage"
      },
      "t_mapping(t_uint16,t_mapping(t_bytes_memory_ptr,t_mapping(t_uint64,t_bytes32)))": {
        "encoding": "mapping",
        "key": "t_uint16",
        "label": "mapping(uint16 => mapping(bytes => mapping(uint64 => bytes32)))",
        "numberOfBytes": "32",
        "value": "t_mapping(t_bytes_memory_ptr,t_mapping(t_uint64,t_bytes32))"
      },
      "t_mapping(t_uint16,t_mapping(t_uint16,t_uint256))": {
        "encoding": "mapping",
        "key": "t_uint16",
        "label": "mapping(uint16 => mapping(uint16 => uint256))",
        "numberOfBytes": "32",
        "value": "t_mapping(t_uint16,t_uint256)"
      },
      "t_mapping(t_uint16,t_uint256)": {
        "encoding": "mapping",
        "key": "t_uint16",
        "label": "mapping(uint16 => uint256)",
        "numberOfBytes": "32",
        "value": "t_uint256"
      },
      "t_mapping(t_uint256,t_bool)": {
        "encoding": "mapping",
        "key": "t_uint256",
        "label": "mapping(uint256 => bool)",
        "numberOfBytes": "32",
        "value": "t_bool"
      },
      "t_mapping(t_uint256,t_contract(ITimelock)7896)": {
        "encoding": "mapping",
        "key": "t_uint256",
        "label": "mapping(uint256 => contract ITimelock)",
        "numberOfBytes": "32",
        "value": "t_contract(ITimelock)7896"
      },
      "t_mapping(t_uint256,t_struct(Proposal)6195_storage)": {
        "encoding": "mapping",
        "key": "t_uint256",
        "label": "mapping(uint256 => struct OmnichainGovernanceExecutor.Proposal)",
        "numberOfBytes": "32",
        "value": "t_struct(Proposal)6195_storage"
      },
      "t_mapping(t_uint64,t_bytes32)": {
        "encoding": "mapping",
        "key": "t_uint64",
        "label": "mapping(uint64 => bytes32)",
        "numberOfBytes": "32",
        "value": "t_bytes32"
      },
      "t_string_storage": {
        "encoding": "bytes",
        "label": "string",
        "numberOfBytes": "32"
      },
      "t_struct(Proposal)6195_storage": {
        "encoding": "inplace",
        "label": "struct OmnichainGovernanceExecutor.Proposal",
        "members": [
          {
            "astId": 6166,
            "contract": "contracts/Cross-chain/OmnichainGovernanceExecutor.sol:OmnichainGovernanceExecutor",
            "label": "id",
            "offset": 0,
            "slot": "0",
            "type": "t_uint256"
          },
          {
            "astId": 6169,
            "contract": "contracts/Cross-chain/OmnichainGovernanceExecutor.sol:OmnichainGovernanceExecutor",
            "label": "eta",
            "offset": 0,
            "slot": "1",
            "type": "t_uint256"
          },
          {
            "astId": 6173,
            "contract": "contracts/Cross-chain/OmnichainGovernanceExecutor.sol:OmnichainGovernanceExecutor",
            "label": "targets",
            "offset": 0,
            "slot": "2",
            "type": "t_array(t_address)dyn_storage"
          },
          {
            "astId": 6177,
            "contract": "contracts/Cross-chain/OmnichainGovernanceExecutor.sol:OmnichainGovernanceExecutor",
            "label": "values",
            "offset": 0,
            "slot": "3",
            "type": "t_array(t_uint256)dyn_storage"
          },
          {
            "astId": 6181,
            "contract": "contracts/Cross-chain/OmnichainGovernanceExecutor.sol:OmnichainGovernanceExecutor",
            "label": "signatures",
            "offset": 0,
            "slot": "4",
            "type": "t_array(t_string_storage)dyn_storage"
          },
          {
            "astId": 6185,
            "contract": "contracts/Cross-chain/OmnichainGovernanceExecutor.sol:OmnichainGovernanceExecutor",
            "label": "calldatas",
            "offset": 0,
            "slot": "5",
            "type": "t_array(t_bytes_storage)dyn_storage"
          },
          {
            "astId": 6188,
            "contract": "contracts/Cross-chain/OmnichainGovernanceExecutor.sol:OmnichainGovernanceExecutor",
            "label": "canceled",
            "offset": 0,
            "slot": "6",
            "type": "t_bool"
          },
          {
            "astId": 6191,
            "contract": "contracts/Cross-chain/OmnichainGovernanceExecutor.sol:OmnichainGovernanceExecutor",
            "label": "executed",
            "offset": 1,
            "slot": "6",
            "type": "t_bool"
          },
          {
            "astId": 6194,
            "contract": "contracts/Cross-chain/OmnichainGovernanceExecutor.sol:OmnichainGovernanceExecutor",
            "label": "proposalType",
            "offset": 2,
            "slot": "6",
            "type": "t_uint8"
          }
        ],
        "numberOfBytes": "224"
      },
      "t_uint16": {
        "encoding": "inplace",
        "label": "uint16",
        "numberOfBytes": "2"
      },
      "t_uint256": {
        "encoding": "inplace",
        "label": "uint256",
        "numberOfBytes": "32"
      },
      "t_uint64": {
        "encoding": "inplace",
        "label": "uint64",
        "numberOfBytes": "8"
      },
      "t_uint8": {
        "encoding": "inplace",
        "label": "uint8",
        "numberOfBytes": "1"
      }
    }
  }
}