{
  "address": "0x2a32fF4B6750Fa70be6c493C42b9337500197983",
  "abi": [
    {
      "inputs": [
        {
          "internalType": "address",
          "name": "endpoint_",
          "type": "address"
        },
        {
          "internalType": "address",
          "name": "guardian_",
          "type": "address"
        },
        {
          "internalType": "uint16",
          "name": "srcChainId_",
          "type": "uint16"
        }
      ],
      "stateMutability": "nonpayable",
      "type": "constructor"
    },
    {
      "inputs": [],
      "name": "InvalidProposalId",
      "type": "error"
    },
    {
      "inputs": [],
      "name": "ZeroAddressNotAllowed",
      "type": "error"
    },
    {
      "anonymous": false,
      "inputs": [
        {
          "indexed": false,
          "internalType": "uint16",
          "name": "_srcChainId",
          "type": "uint16"
        },
        {
          "indexed": false,
          "internalType": "bytes",
          "name": "_srcAddress",
          "type": "bytes"
        },
        {
          "indexed": false,
          "internalType": "uint64",
          "name": "_nonce",
          "type": "uint64"
        },
        {
          "indexed": false,
          "internalType": "bytes",
          "name": "_payload",
          "type": "bytes"
        },
        {
          "indexed": false,
          "internalType": "bytes",
          "name": "_reason",
          "type": "bytes"
        }
      ],
      "name": "MessageFailed",
      "type": "event"
    },
    {
      "anonymous": false,
      "inputs": [
        {
          "indexed": true,
          "internalType": "address",
          "name": "previousOwner",
          "type": "address"
        },
        {
          "indexed": true,
          "internalType": "address",
          "name": "newOwner",
          "type": "address"
        }
      ],
      "name": "OwnershipTransferred",
      "type": "event"
    },
    {
      "anonymous": false,
      "inputs": [
        {
          "indexed": false,
          "internalType": "address",
          "name": "account",
          "type": "address"
        }
      ],
      "name": "Paused",
      "type": "event"
    },
    {
      "anonymous": false,
      "inputs": [
        {
          "indexed": true,
          "internalType": "uint256",
          "name": "id",
          "type": "uint256"
        }
      ],
      "name": "ProposalCanceled",
      "type": "event"
    },
    {
      "anonymous": false,
      "inputs": [
        {
          "indexed": true,
          "internalType": "uint256",
          "name": "id",
          "type": "uint256"
        }
      ],
      "name": "ProposalExecuted",
      "type": "event"
    },
    {
      "anonymous": false,
      "inputs": [
        {
          "indexed": true,
          "internalType": "uint256",
          "name": "id",
          "type": "uint256"
        },
        {
          "indexed": false,
          "internalType": "uint256",
          "name": "eta",
          "type": "uint256"
        }
      ],
      "name": "ProposalQueued",
      "type": "event"
    },
    {
      "anonymous": false,
      "inputs": [
        {
          "indexed": true,
          "internalType": "uint256",
          "name": "proposalId",
          "type": "uint256"
        },
        {
          "indexed": false,
          "internalType": "address[]",
          "name": "targets",
          "type": "address[]"
        },
        {
          "indexed": false,
          "internalType": "uint256[]",
          "name": "values",
          "type": "uint256[]"
        },
        {
          "indexed": false,
          "internalType": "string[]",
          "name": "signatures",
          "type": "string[]"
        },
        {
          "indexed": false,
          "internalType": "bytes[]",
          "name": "calldatas",
          "type": "bytes[]"
        },
        {
          "indexed": false,
          "internalType": "uint8",
          "name": "proposalType",
          "type": "uint8"
        }
      ],
      "name": "ProposalReceived",
      "type": "event"
    },
    {
      "anonymous": false,
      "inputs": [
        {
          "indexed": true,
          "internalType": "uint16",
          "name": "srcChainId",
          "type": "uint16"
        },
        {
          "indexed": true,
          "internalType": "bytes",
          "name": "srcAddress",
          "type": "bytes"
        },
        {
          "indexed": false,
          "internalType": "uint64",
          "name": "nonce",
          "type": "uint64"
        },
        {
          "indexed": false,
          "internalType": "bytes",
          "name": "reason",
          "type": "bytes"
        }
      ],
      "name": "ReceivePayloadFailed",
      "type": "event"
    },
    {
      "anonymous": false,
      "inputs": [
        {
          "indexed": false,
          "internalType": "uint16",
          "name": "_srcChainId",
          "type": "uint16"
        },
        {
          "indexed": false,
          "internalType": "bytes",
          "name": "_srcAddress",
          "type": "bytes"
        },
        {
          "indexed": false,
          "internalType": "uint64",
          "name": "_nonce",
          "type": "uint64"
        },
        {
          "indexed": false,
          "internalType": "bytes32",
          "name": "_payloadHash",
          "type": "bytes32"
        }
      ],
      "name": "RetryMessageSuccess",
      "type": "event"
    },
    {
      "anonymous": false,
      "inputs": [
        {
          "indexed": false,
          "internalType": "uint256",
          "name": "oldMaxLimit",
          "type": "uint256"
        },
        {
          "indexed": false,
          "internalType": "uint256",
          "name": "newMaxLimit",
          "type": "uint256"
        }
      ],
      "name": "SetMaxDailyReceiveLimit",
      "type": "event"
    },
    {
      "anonymous": false,
      "inputs": [
        {
          "indexed": false,
          "internalType": "uint16",
          "name": "_dstChainId",
          "type": "uint16"
        },
        {
          "indexed": false,
          "internalType": "uint16",
          "name": "_type",
          "type": "uint16"
        },
        {
          "indexed": false,
          "internalType": "uint256",
          "name": "_minDstGas",
          "type": "uint256"
        }
      ],
      "name": "SetMinDstGas",
      "type": "event"
    },
    {
      "anonymous": false,
      "inputs": [
        {
          "indexed": false,
          "internalType": "address",
          "name": "precrime",
          "type": "address"
        }
      ],
      "name": "SetPrecrime",
      "type": "event"
    },
    {
      "anonymous": false,
      "inputs": [
        {
          "indexed": true,
          "internalType": "uint16",
          "name": "oldSrcChainId",
          "type": "uint16"
        },
        {
          "indexed": true,
          "internalType": "uint16",
          "name": "newSrcChainId",
          "type": "uint16"
        }
      ],
      "name": "SetSrcChainId",
      "type": "event"
    },
    {
      "anonymous": false,
      "inputs": [
        {
          "indexed": false,
          "internalType": "address",
          "name": "",
          "type": "address"
        },
        {
          "indexed": false,
          "internalType": "uint8",
          "name": "",
          "type": "uint8"
        }
      ],
      "name": "SetTimelockPendingAdmin",
      "type": "event"
    },
    {
      "anonymous": false,
      "inputs": [
        {
          "indexed": false,
          "internalType": "uint16",
          "name": "_remoteChainId",
          "type": "uint16"
        },
        {
          "indexed": false,
          "internalType": "bytes",
          "name": "_path",
          "type": "bytes"
        }
      ],
      "name": "SetTrustedRemote",
      "type": "event"
    },
    {
      "anonymous": false,
      "inputs": [
        {
          "indexed": false,
          "internalType": "uint16",
          "name": "_remoteChainId",
          "type": "uint16"
        },
        {
          "indexed": false,
          "internalType": "bytes",
          "name": "_remoteAddress",
          "type": "bytes"
        }
      ],
      "name": "SetTrustedRemoteAddress",
      "type": "event"
    },
    {
      "anonymous": false,
      "inputs": [
        {
          "indexed": false,
          "internalType": "uint8",
          "name": "routeType",
          "type": "uint8"
        },
        {
          "indexed": true,
          "internalType": "address",
          "name": "oldTimelock",
          "type": "address"
        },
        {
          "indexed": true,
          "internalType": "address",
          "name": "newTimelock",
          "type": "address"
        }
      ],
      "name": "TimelockAdded",
      "type": "event"
    },
    {
      "anonymous": false,
      "inputs": [
        {
          "indexed": false,
          "internalType": "address",
          "name": "account",
          "type": "address"
        }
      ],
      "name": "Unpaused",
      "type": "event"
    },
    {
      "inputs": [],
      "name": "DEFAULT_PAYLOAD_SIZE_LIMIT",
      "outputs": [
        {
          "internalType": "uint256",
          "name": "",
          "type": "uint256"
        }
      ],
      "stateMutability": "view",
      "type": "function"
    },
    {
      "inputs": [],
      "name": "GUARDIAN",
      "outputs": [
        {
          "internalType": "address",
          "name": "",
          "type": "address"
        }
      ],
      "stateMutability": "view",
      "type": "function"
    },
    {
      "inputs": [
        {
          "internalType": "contract ITimelock[]",
          "name": "timelocks_",
          "type": "address[]"
        }
      ],
      "name": "addTimelocks",
      "outputs": [],
      "stateMutability": "nonpayable",
      "type": "function"
    },
    {
      "inputs": [
        {
          "internalType": "uint256",
          "name": "proposalId_",
          "type": "uint256"
        }
      ],
      "name": "cancel",
      "outputs": [],
      "stateMutability": "nonpayable",
      "type": "function"
    },
    {
      "inputs": [
        {
          "internalType": "uint256",
          "name": "proposalId_",
          "type": "uint256"
        }
      ],
      "name": "execute",
      "outputs": [],
      "stateMutability": "nonpayable",
      "type": "function"
    },
    {
      "inputs": [
        {
          "internalType": "uint16",
          "name": "",
          "type": "uint16"
        },
        {
          "internalType": "bytes",
          "name": "",
          "type": "bytes"
        },
        {
          "internalType": "uint64",
          "name": "",
          "type": "uint64"
        }
      ],
      "name": "failedMessages",
      "outputs": [
        {
          "internalType": "bytes32",
          "name": "",
          "type": "bytes32"
        }
      ],
      "stateMutability": "view",
      "type": "function"
    },
    {
      "inputs": [
        {
          "internalType": "uint16",
          "name": "_srcChainId",
          "type": "uint16"
        },
        {
          "internalType": "bytes",
          "name": "_srcAddress",
          "type": "bytes"
        }
      ],
      "name": "forceResumeReceive",
      "outputs": [],
      "stateMutability": "nonpayable",
      "type": "function"
    },
    {
      "inputs": [
        {
          "internalType": "uint16",
          "name": "_version",
          "type": "uint16"
        },
        {
          "internalType": "uint16",
          "name": "_chainId",
          "type": "uint16"
        },
        {
          "internalType": "address",
          "name": "",
          "type": "address"
        },
        {
          "internalType": "uint256",
          "name": "_configType",
          "type": "uint256"
        }
      ],
      "name": "getConfig",
      "outputs": [
        {
          "internalType": "bytes",
          "name": "",
          "type": "bytes"
        }
      ],
      "stateMutability": "view",
      "type": "function"
    },
    {
      "inputs": [
        {
          "internalType": "uint16",
          "name": "_remoteChainId",
          "type": "uint16"
        }
      ],
      "name": "getTrustedRemoteAddress",
      "outputs": [
        {
          "internalType": "bytes",
          "name": "",
          "type": "bytes"
        }
      ],
      "stateMutability": "view",
      "type": "function"
    },
    {
      "inputs": [
        {
          "internalType": "uint16",
          "name": "_srcChainId",
          "type": "uint16"
        },
        {
          "internalType": "bytes",
          "name": "_srcAddress",
          "type": "bytes"
        }
      ],
      "name": "isTrustedRemote",
      "outputs": [
        {
          "internalType": "bool",
          "name": "",
          "type": "bool"
        }
      ],
      "stateMutability": "view",
      "type": "function"
    },
    {
      "inputs": [],
      "name": "last24HourCommandsReceived",
      "outputs": [
        {
          "internalType": "uint256",
          "name": "",
          "type": "uint256"
        }
      ],
      "stateMutability": "view",
      "type": "function"
    },
    {
      "inputs": [],
      "name": "last24HourReceiveWindowStart",
      "outputs": [
        {
          "internalType": "uint256",
          "name": "",
          "type": "uint256"
        }
      ],
      "stateMutability": "view",
      "type": "function"
    },
    {
      "inputs": [],
      "name": "lastProposalReceived",
      "outputs": [
        {
          "internalType": "uint256",
          "name": "",
          "type": "uint256"
        }
      ],
      "stateMutability": "view",
      "type": "function"
    },
    {
      "inputs": [],
      "name": "lzEndpoint",
      "outputs": [
        {
          "internalType": "contract ILayerZeroEndpoint",
          "name": "",
          "type": "address"
        }
      ],
      "stateMutability": "view",
      "type": "function"
    },
    {
      "inputs": [
        {
          "internalType": "uint16",
          "name": "_srcChainId",
          "type": "uint16"
        },
        {
          "internalType": "bytes",
          "name": "_srcAddress",
          "type": "bytes"
        },
        {
          "internalType": "uint64",
          "name": "_nonce",
          "type": "uint64"
        },
        {
          "internalType": "bytes",
          "name": "_payload",
          "type": "bytes"
        }
      ],
      "name": "lzReceive",
      "outputs": [],
      "stateMutability": "nonpayable",
      "type": "function"
    },
    {
      "inputs": [],
      "name": "maxDailyReceiveLimit",
      "outputs": [
        {
          "internalType": "uint256",
          "name": "",
          "type": "uint256"
        }
      ],
      "stateMutability": "view",
      "type": "function"
    },
    {
      "inputs": [
        {
          "internalType": "uint16",
          "name": "",
          "type": "uint16"
        },
        {
          "internalType": "uint16",
          "name": "",
          "type": "uint16"
        }
      ],
      "name": "minDstGasLookup",
      "outputs": [
        {
          "internalType": "uint256",
          "name": "",
          "type": "uint256"
        }
      ],
      "stateMutability": "view",
      "type": "function"
    },
    {
      "inputs": [
        {
          "internalType": "uint16",
          "name": "_srcChainId",
          "type": "uint16"
        },
        {
          "internalType": "bytes",
          "name": "_srcAddress",
          "type": "bytes"
        },
        {
          "internalType": "uint64",
          "name": "_nonce",
          "type": "uint64"
        },
        {
          "internalType": "bytes",
          "name": "_payload",
          "type": "bytes"
        }
      ],
      "name": "nonblockingLzReceive",
      "outputs": [],
      "stateMutability": "nonpayable",
      "type": "function"
    },
    {
      "inputs": [],
      "name": "owner",
      "outputs": [
        {
          "internalType": "address",
          "name": "",
          "type": "address"
        }
      ],
      "stateMutability": "view",
      "type": "function"
    },
    {
      "inputs": [],
      "name": "pause",
      "outputs": [],
      "stateMutability": "nonpayable",
      "type": "function"
    },
    {
      "inputs": [],
      "name": "paused",
      "outputs": [
        {
          "internalType": "bool",
          "name": "",
          "type": "bool"
        }
      ],
      "stateMutability": "view",
      "type": "function"
    },
    {
      "inputs": [
        {
          "internalType": "uint16",
          "name": "",
          "type": "uint16"
        }
      ],
      "name": "payloadSizeLimitLookup",
      "outputs": [
        {
          "internalType": "uint256",
          "name": "",
          "type": "uint256"
        }
      ],
      "stateMutability": "view",
      "type": "function"
    },
    {
      "inputs": [],
      "name": "precrime",
      "outputs": [
        {
          "internalType": "address",
          "name": "",
          "type": "address"
        }
      ],
      "stateMutability": "view",
      "type": "function"
    },
    {
      "inputs": [
        {
          "internalType": "uint256",
          "name": "",
          "type": "uint256"
        }
      ],
      "name": "proposalTimelocks",
      "outputs": [
        {
          "internalType": "contract ITimelock",
          "name": "",
          "type": "address"
        }
      ],
      "stateMutability": "view",
      "type": "function"
    },
    {
      "inputs": [
        {
          "internalType": "uint256",
          "name": "",
          "type": "uint256"
        }
      ],
      "name": "proposals",
      "outputs": [
        {
          "internalType": "uint256",
          "name": "id",
          "type": "uint256"
        },
        {
          "internalType": "uint256",
          "name": "eta",
          "type": "uint256"
        },
        {
          "internalType": "bool",
          "name": "canceled",
          "type": "bool"
        },
        {
          "internalType": "bool",
          "name": "executed",
          "type": "bool"
        },
        {
          "internalType": "uint8",
          "name": "proposalType",
          "type": "uint8"
        }
      ],
      "stateMutability": "view",
      "type": "function"
    },
    {
      "inputs": [
        {
          "internalType": "uint256",
          "name": "",
          "type": "uint256"
        }
      ],
      "name": "queued",
      "outputs": [
        {
          "internalType": "bool",
          "name": "",
          "type": "bool"
        }
      ],
      "stateMutability": "view",
      "type": "function"
    },
    {
      "inputs": [],
      "name": "renounceOwnership",
      "outputs": [],
      "stateMutability": "nonpayable",
      "type": "function"
    },
    {
      "inputs": [
        {
          "internalType": "uint16",
          "name": "srcChainId_",
          "type": "uint16"
        },
        {
          "internalType": "bytes",
          "name": "srcAddress_",
          "type": "bytes"
        },
        {
          "internalType": "uint64",
          "name": "nonce_",
          "type": "uint64"
        },
        {
          "internalType": "bytes",
          "name": "payload_",
          "type": "bytes"
        }
      ],
      "name": "retryMessage",
      "outputs": [],
      "stateMutability": "payable",
      "type": "function"
    },
    {
      "inputs": [
        {
          "internalType": "uint16",
          "name": "_version",
          "type": "uint16"
        },
        {
          "internalType": "uint16",
          "name": "_chainId",
          "type": "uint16"
        },
        {
          "internalType": "uint256",
          "name": "_configType",
          "type": "uint256"
        },
        {
          "internalType": "bytes",
          "name": "_config",
          "type": "bytes"
        }
      ],
      "name": "setConfig",
      "outputs": [],
      "stateMutability": "nonpayable",
      "type": "function"
    },
    {
      "inputs": [
        {
          "internalType": "uint256",
          "name": "limit_",
          "type": "uint256"
        }
      ],
      "name": "setMaxDailyReceiveLimit",
      "outputs": [],
      "stateMutability": "nonpayable",
      "type": "function"
    },
    {
      "inputs": [
        {
          "internalType": "uint16",
          "name": "_dstChainId",
          "type": "uint16"
        },
        {
          "internalType": "uint16",
          "name": "_packetType",
          "type": "uint16"
        },
        {
          "internalType": "uint256",
          "name": "_minGas",
          "type": "uint256"
        }
      ],
      "name": "setMinDstGas",
      "outputs": [],
      "stateMutability": "nonpayable",
      "type": "function"
    },
    {
      "inputs": [
        {
          "internalType": "uint16",
          "name": "_dstChainId",
          "type": "uint16"
        },
        {
          "internalType": "uint256",
          "name": "_size",
          "type": "uint256"
        }
      ],
      "name": "setPayloadSizeLimit",
      "outputs": [],
      "stateMutability": "nonpayable",
      "type": "function"
    },
    {
      "inputs": [
        {
          "internalType": "address",
          "name": "_precrime",
          "type": "address"
        }
      ],
      "name": "setPrecrime",
      "outputs": [],
      "stateMutability": "nonpayable",
      "type": "function"
    },
    {
      "inputs": [
        {
          "internalType": "uint16",
          "name": "_version",
          "type": "uint16"
        }
      ],
      "name": "setReceiveVersion",
      "outputs": [],
      "stateMutability": "nonpayable",
      "type": "function"
    },
    {
      "inputs": [
        {
          "internalType": "uint16",
          "name": "_version",
          "type": "uint16"
        }
      ],
      "name": "setSendVersion",
      "outputs": [],
      "stateMutability": "nonpayable",
      "type": "function"
    },
    {
      "inputs": [
        {
          "internalType": "uint16",
          "name": "srcChainId_",
          "type": "uint16"
        }
      ],
      "name": "setSrcChainId",
      "outputs": [],
      "stateMutability": "nonpayable",
      "type": "function"
    },
    {
      "inputs": [
        {
          "internalType": "address",
          "name": "pendingAdmin_",
          "type": "address"
        },
        {
          "internalType": "uint8",
          "name": "proposalType_",
          "type": "uint8"
        }
      ],
      "name": "setTimelockPendingAdmin",
      "outputs": [],
      "stateMutability": "nonpayable",
      "type": "function"
    },
    {
      "inputs": [
        {
          "internalType": "uint16",
          "name": "_remoteChainId",
          "type": "uint16"
        },
        {
          "internalType": "bytes",
          "name": "_path",
          "type": "bytes"
        }
      ],
      "name": "setTrustedRemote",
      "outputs": [],
      "stateMutability": "nonpayable",
      "type": "function"
    },
    {
      "inputs": [
        {
          "internalType": "uint16",
          "name": "_remoteChainId",
          "type": "uint16"
        },
        {
          "internalType": "bytes",
          "name": "_remoteAddress",
          "type": "bytes"
        }
      ],
      "name": "setTrustedRemoteAddress",
      "outputs": [],
      "stateMutability": "nonpayable",
      "type": "function"
    },
    {
      "inputs": [],
      "name": "srcChainId",
      "outputs": [
        {
          "internalType": "uint16",
          "name": "",
          "type": "uint16"
        }
      ],
      "stateMutability": "view",
      "type": "function"
    },
    {
      "inputs": [
        {
          "internalType": "uint256",
          "name": "proposalId_",
          "type": "uint256"
        }
      ],
      "name": "state",
      "outputs": [
        {
          "internalType": "enum OmnichainGovernanceExecutor.ProposalState",
          "name": "",
          "type": "uint8"
        }
      ],
      "stateMutability": "view",
      "type": "function"
    },
    {
      "inputs": [
        {
          "internalType": "address",
          "name": "newOwner",
          "type": "address"
        }
      ],
      "name": "transferOwnership",
      "outputs": [],
      "stateMutability": "nonpayable",
      "type": "function"
    },
    {
      "inputs": [
        {
          "internalType": "uint16",
          "name": "",
          "type": "uint16"
        }
      ],
      "name": "trustedRemoteLookup",
      "outputs": [
        {
          "internalType": "bytes",
          "name": "",
          "type": "bytes"
        }
      ],
      "stateMutability": "view",
      "type": "function"
    },
    {
      "inputs": [],
      "name": "unpause",
      "outputs": [],
      "stateMutability": "nonpayable",
      "type": "function"
    }
  ],
  "transactionHash": "0xa978c7a7d485284eca8436d470186fa812f4261264d1a6040b19af7f6f67e57b",
  "args": [
    "0x83c73Da98cf733B03315aFa8758834b36a195b87",
    "0xb15f6EfEbC276A3b9805df81b5FB3D50C2A62BDf",
    10102
  ],
  "numDeployments": 1,
  "solcInputHash": "8bed5544c34de83a1d41311cbe2f9d93",
  "bytecode": "0x60c060405234801561001057600080fd5b50604051614bb5380380614bb583398101604081905261002f9161012c565b600160005582808061004033610094565b6001600160a01b0316608052506007805460ff19169055610060816100e6565b5061006a826100e6565b6001600160a01b039190911660a052600b805461ffff191661ffff9092169190911790555061017a565b600180546001600160a01b038381166001600160a01b0319831681179093556040519116919082907f8be0079c531659141344cd1fd0a4f28419497f9722a3daafe3b4186f6b6457e090600090a35050565b6001600160a01b03811661010d576040516342bcdf7f60e11b815260040160405180910390fd5b50565b80516001600160a01b038116811461012757600080fd5b919050565b60008060006060848603121561014157600080fd5b61014a84610110565b925061015860208501610110565b9150604084015161ffff8116811461016f57600080fd5b809150509250925092565b60805160a0516149e56101d0600039600081816105f7015261123f0152600081816107c80152818161099901528181610c2501528181610cf3015281816114cb015281816119e8015261209a01526149e56000f3fe6080604052600436106102e65760003560e01c8063876919e811610184578063c8b42e5b116100d6578063ed66039b1161008a578063f4fcfcca11610064578063f4fcfcca14610936578063f5ecbdbc14610956578063fe0d94c11461097657600080fd5b8063ed66039b146108b3578063ee9799ee146108d3578063f2fde38b1461091657600080fd5b8063d1deba1f116100bb578063d1deba1f14610860578063df2a5b3b14610873578063eb8d72b71461089357600080fd5b8063c8b42e5b14610820578063cbed8b9c1461084057600080fd5b80639f0c310111610138578063b353aaa711610112578063b353aaa7146107b6578063baf3292d146107ea578063c44618341461080a57600080fd5b80639f0c3101146107465780639f38369a14610776578063a6c3d1651461079657600080fd5b80638da5cb5b116101695780638da5cb5b146106ce5780639493ffad146106f9578063950c8a741461071957600080fd5b8063876919e8146106805780638cfd8f5c1461069657600080fd5b806342d65a8d1161023d57806366ad5c8a116101f1578063724c184c116101cb578063724c184c146105e55780637533d7881461063e5780638456cb591461066b57600080fd5b806366ad5c8a146105a357806370f6ad9a146105c3578063715018a6146105d957600080fd5b806349d126051161022257806349d126051461050e5780635b8c41e61461053c5780635c975abb1461058b57600080fd5b806342d65a8d146104d85780634406baaf146104f857600080fd5b806310ddb1371161029f5780633f1f4fa4116102795780633f1f4fa4146104765780633f4ba83a146104a357806340e58ee5146104b857600080fd5b806310ddb137146103f95780633d8b38f6146104195780633e4f49e61461044957600080fd5b80630435bb56116102d05780630435bb561461039557806307e0db17146103b95780630df37483146103d957600080fd5b80621d3567146102eb578063013cf08b1461030d575b600080fd5b3480156102f757600080fd5b5061030b6103063660046138e4565b610996565b005b34801561031957600080fd5b5061035f610328366004613978565b600d6020526000908152604090208054600182015460069092015490919060ff808216916101008104821691620100009091041685565b60408051958652602086019490945291151592840192909252901515606083015260ff16608082015260a0015b60405180910390f35b3480156103a157600080fd5b506103ab60085481565b60405190815260200161038c565b3480156103c557600080fd5b5061030b6103d4366004613991565b610beb565b3480156103e557600080fd5b5061030b6103f43660046139ac565b610c9a565b34801561040557600080fd5b5061030b610414366004613991565b610cb9565b34801561042557600080fd5b506104396104343660046139d6565b610d37565b604051901515815260200161038c565b34801561045557600080fd5b50610469610464366004613978565b610e04565b60405161038c9190613a58565b34801561048257600080fd5b506103ab610491366004613991565b60046020526000908152604090205481565b3480156104af57600080fd5b5061030b611152565b3480156104c457600080fd5b5061030b6104d3366004613978565b611164565b3480156104e457600080fd5b5061030b6104f33660046139d6565b611486565b34801561050457600080fd5b506103ab600c5481565b34801561051a57600080fd5b50600b546105299061ffff1681565b60405161ffff909116815260200161038c565b34801561054857600080fd5b506103ab610557366004613b21565b6006602090815260009384526040808520845180860184018051928152908401958401959095209452929052825290205481565b34801561059757600080fd5b5060075460ff16610439565b3480156105af57600080fd5b5061030b6105be3660046138e4565b611532565b3480156105cf57600080fd5b506103ab60095481565b34801561030b57600080fd5b3480156105f157600080fd5b506106197f000000000000000000000000000000000000000000000000000000000000000081565b60405173ffffffffffffffffffffffffffffffffffffffff909116815260200161038c565b34801561064a57600080fd5b5061065e610659366004613991565b611625565b60405161038c9190613c12565b34801561067757600080fd5b5061030b6116bf565b34801561068c57600080fd5b506103ab600a5481565b3480156106a257600080fd5b506103ab6106b1366004613c25565b600360209081526000928352604080842090915290825290205481565b3480156106da57600080fd5b5060015473ffffffffffffffffffffffffffffffffffffffff16610619565b34801561070557600080fd5b5061030b610714366004613978565b6116cf565b34801561072557600080fd5b506005546106199073ffffffffffffffffffffffffffffffffffffffff1681565b34801561075257600080fd5b50610439610761366004613978565b600f6020526000908152604090205460ff1681565b34801561078257600080fd5b5061065e610791366004613991565b611718565b3480156107a257600080fd5b5061030b6107b13660046139d6565b611827565b3480156107c257600080fd5b506106197f000000000000000000000000000000000000000000000000000000000000000081565b3480156107f657600080fd5b5061030b610805366004613c7a565b6118b0565b34801561081657600080fd5b506103ab61271081565b34801561082c57600080fd5b5061030b61083b366004613991565b611931565b34801561084c57600080fd5b5061030b61085b366004613c97565b6119a3565b61030b61086e3660046138e4565b611a5e565b34801561087f57600080fd5b5061030b61088e366004613d06565b611b3a565b34801561089f57600080fd5b5061030b6108ae3660046139d6565b611ba4565b3480156108bf57600080fd5b5061030b6108ce366004613d66565b611bfe565b3480156108df57600080fd5b506106196108ee366004613978565b600e6020526000908152604090205473ffffffffffffffffffffffffffffffffffffffff1681565b34801561092257600080fd5b5061030b610931366004613c7a565b611e15565b34801561094257600080fd5b5061030b610951366004613e0f565b611eb2565b34801561096257600080fd5b5061065e610971366004613e48565b612050565b34801561098257600080fd5b5061030b610991366004613978565b612127565b337f000000000000000000000000000000000000000000000000000000000000000073ffffffffffffffffffffffffffffffffffffffff1614610a205760405162461bcd60e51b815260206004820152601e60248201527f4c7a4170703a20696e76616c696420656e64706f696e742063616c6c6572000060448201526064015b60405180910390fd5b61ffff861660009081526002602052604081208054610a3e90613e95565b80601f0160208091040260200160405190810160405280929190818152602001828054610a6a90613e95565b8015610ab75780601f10610a8c57610100808354040283529160200191610ab7565b820191906000526020600020905b815481529060010190602001808311610a9a57829003601f168201915b50505050509050805186869050148015610ad2575060008151115b8015610afa575080516020820120604051610af09088908890613ee2565b6040518091039020145b610b6c5760405162461bcd60e51b815260206004820152602660248201527f4c7a4170703a20696e76616c696420736f757263652073656e64696e6720636f60448201527f6e747261637400000000000000000000000000000000000000000000000000006064820152608401610a17565b610be28787878080601f01602080910402602001604051908101604052809392919081815260200183838082843760009201919091525050604080516020601f8a018190048102820181019092528881528a9350915088908890819084018382808284376000920191909152506123e092505050565b50505050505050565b610bf36125c2565b6040517f07e0db1700000000000000000000000000000000000000000000000000000000815261ffff821660048201527f000000000000000000000000000000000000000000000000000000000000000073ffffffffffffffffffffffffffffffffffffffff16906307e0db17906024015b600060405180830381600087803b158015610c7f57600080fd5b505af1158015610c93573d6000803e3d6000fd5b5050505050565b610ca26125c2565b61ffff909116600090815260046020526040902055565b610cc16125c2565b6040517f10ddb13700000000000000000000000000000000000000000000000000000000815261ffff821660048201527f000000000000000000000000000000000000000000000000000000000000000073ffffffffffffffffffffffffffffffffffffffff16906310ddb13790602401610c65565b61ffff831660009081526002602052604081208054829190610d5890613e95565b80601f0160208091040260200160405190810160405280929190818152602001828054610d8490613e95565b8015610dd15780601f10610da657610100808354040283529160200191610dd1565b820191906000526020600020905b815481529060010190602001808311610db457829003601f168201915b505050505090508383604051610de8929190613ee2565b60405180910390208180519060200120149150505b9392505050565b6000818152600d602090815260408083208151610120810183528154815260018201548185015260028201805484518187028101870186528181528796939586019390929190830182828015610e9057602002820191906000526020600020905b815473ffffffffffffffffffffffffffffffffffffffff168152600190910190602001808311610e65575b5050505050815260200160038201805480602002602001604051908101604052809291908181526020018280548015610ee857602002820191906000526020600020905b815481526020019060010190808311610ed4575b5050505050815260200160048201805480602002602001604051908101604052809291908181526020016000905b82821015610fc2578382906000526020600020018054610f3590613e95565b80601f0160208091040260200160405190810160405280929190818152602001828054610f6190613e95565b8015610fae5780601f10610f8357610100808354040283529160200191610fae565b820191906000526020600020905b815481529060010190602001808311610f9157829003601f168201915b505050505081526020019060010190610f16565b50505050815260200160058201805480602002602001604051908101604052809291908181526020016000905b8282101561109b57838290600052602060002001805461100e90613e95565b80601f016020809104026020016040519081016040528092919081815260200182805461103a90613e95565b80156110875780601f1061105c57610100808354040283529160200191611087565b820191906000526020600020905b81548152906001019060200180831161106a57829003601f168201915b505050505081526020019060010190610fef565b505050908252506006919091015460ff808216151560208401526101008204811615156040840152620100009091041660609091015260c0810151909150156110e75750600092915050565b8060e00151156110fa5750600292915050565b6000838152600f602052604090205460ff161561111a5750600192915050565b6040517f0992f7ad00000000000000000000000000000000000000000000000000000000815260040160405180910390fd5b50919050565b61115a6125c2565b611162612629565b565b600161116f82610e04565b600281111561118057611180613a29565b146112195760405162461bcd60e51b815260206004820152604f60248201527f4f6d6e69636861696e476f7665726e616e63654578656375746f723a3a63616e60448201527f63656c3a2070726f706f73616c2073686f756c6420626520717565756564206160648201527f6e64206e6f742065786563757465640000000000000000000000000000000000608482015260a401610a17565b6000818152600d602052604090203373ffffffffffffffffffffffffffffffffffffffff7f000000000000000000000000000000000000000000000000000000000000000016146112d25760405162461bcd60e51b815260206004820152603c60248201527f4f6d6e69636861696e476f7665726e616e63654578656375746f723a3a63616e60448201527f63656c3a2073656e646572206d75737420626520677561726469616e000000006064820152608401610a17565b60068101805460ff19166001908117918290556201000090910460ff166000908152600e602052604080822054928401546002850154915173ffffffffffffffffffffffffffffffffffffffff90941693909286917f789cf55be980739dad1d0699b93b58e806b51c9d96619bfa8fe0a28abaa7b30c9190a260005b81811015611469578373ffffffffffffffffffffffffffffffffffffffff1663591fcdfe86600201838154811061138757611387613ef2565b60009182526020909120015460038801805473ffffffffffffffffffffffffffffffffffffffff90921691859081106113c2576113c2613ef2565b90600052602060002001548860040185815481106113e2576113e2613ef2565b9060005260206000200189600501868154811061140157611401613ef2565b90600052602060002001886040518663ffffffff1660e01b815260040161142c959493929190613f9e565b600060405180830381600087803b15801561144657600080fd5b505af115801561145a573d6000803e3d6000fd5b5050505080600101905061134e565b50505060009283525050600f60205260409020805460ff19169055565b61148e6125c2565b6040517f42d65a8d00000000000000000000000000000000000000000000000000000000815273ffffffffffffffffffffffffffffffffffffffff7f000000000000000000000000000000000000000000000000000000000000000016906342d65a8d9061150490869086908690600401614023565b600060405180830381600087803b15801561151e57600080fd5b505af1158015610be2573d6000803e3d6000fd5b3330146115a75760405162461bcd60e51b815260206004820152602660248201527f4e6f6e626c6f636b696e674c7a4170703a2063616c6c6572206d75737420626560448201527f204c7a41707000000000000000000000000000000000000000000000000000006064820152608401610a17565b61161d8686868080601f01602080910402602001604051908101604052809392919081815260200183838082843760009201919091525050604080516020601f89018190048102820181019092528781528993509150879087908190840183828082843760009201919091525061268892505050565b505050505050565b6002602052600090815260409020805461163e90613e95565b80601f016020809104026020016040519081016040528092919081815260200182805461166a90613e95565b80156116b75780601f1061168c576101008083540402835291602001916116b7565b820191906000526020600020905b81548152906001019060200180831161169a57829003601f168201915b505050505081565b6116c76125c2565b611162612aba565b6116d76125c2565b60085460408051918252602082018390527f0a653bb1a57e62cfd43f0dc557c7223e8b58896238b5f9b300ef646d37b82d1b910160405180910390a1600855565b61ffff811660009081526002602052604081208054606092919061173b90613e95565b80601f016020809104026020016040519081016040528092919081815260200182805461176790613e95565b80156117b45780601f10611789576101008083540402835291602001916117b4565b820191906000526020600020905b81548152906001019060200180831161179757829003601f168201915b50505050509050805160000361180c5760405162461bcd60e51b815260206004820152601d60248201527f4c7a4170703a206e6f20747275737465642070617468207265636f72640000006044820152606401610a17565b610dfd60006014835161181f9190614070565b839190612af7565b61182f6125c2565b81813060405160200161184493929190614089565b60408051601f1981840301815291815261ffff851660009081526002602052209061186f908261410a565b507f8c0400cfe2d1199b1a725c78960bcc2a344d869b80590d0f2bd005db15a572ce8383836040516118a393929190614023565b60405180910390a1505050565b6118b86125c2565b600580547fffffffffffffffffffffffff00000000000000000000000000000000000000001673ffffffffffffffffffffffffffffffffffffffff83169081179091556040519081527f5db758e995a17ec1ad84bdef7e8c3293a0bd6179bcce400dff5d4c3d87db726b9060200160405180910390a150565b6119396125c2565b600b5460405161ffff8084169216907fb17c58d5977290696b6eea77c81c725f3dc83e426252bd9ece6287c1b8d0e96890600090a3600b80547fffffffffffffffffffffffffffffffffffffffffffffffffffffffffffff00001661ffff92909216919091179055565b6119ab6125c2565b6040517fcbed8b9c00000000000000000000000000000000000000000000000000000000815273ffffffffffffffffffffffffffffffffffffffff7f0000000000000000000000000000000000000000000000000000000000000000169063cbed8b9c90611a259088908890889088908890600401614206565b600060405180830381600087803b158015611a3f57600080fd5b505af1158015611a53573d6000803e3d6000fd5b505050505050505050565b611a666125c2565b611a6e612c1f565b8484604051611a7e929190613ee2565b6040805191829003822061ffff891660009081526002602052919091209091611aa79190614234565b604051809103902014611b225760405162461bcd60e51b815260206004820152603f60248201527f4f6d6e69636861696e476f7665726e616e63654578656375746f723a3a72657460448201527f72794d6573736167653a206e6f74206120747275737465642072656d6f7465006064820152608401610a17565b611b30868686868686612c78565b61161d6001600055565b611b426125c2565b61ffff83811660008181526003602090815260408083209487168084529482529182902085905581519283528201929092529081018290527f9d5c7c0b934da8fefa9c7760c98383778a12dfbfc0c3b3106518f43fb9508ac0906060016118a3565b611bac6125c2565b61ffff83166000908152600260205260409020611bca8284836142aa565b507ffa41487ad5d6728f0b19276fa1eddc16558578f5109fc39d2dc33c3230470dab8383836040516118a393929190614023565b611c066125c2565b6000611c14600260016143a6565b90508060ff16825114611cdb5760405162461bcd60e51b815260206004820152606860248201527f4f6d6e69636861696e476f7665726e616e63654578656375746f723a3a696e6960448201527f7469616c697a653a6e756d626572206f662074696d656c6f636b732073686f7560648201527f6c64206d6174636820746865206e756d626572206f6620676f7665726e616e6360848201527f6520726f7574657300000000000000000000000000000000000000000000000060a482015260c401610a17565b60005b8160ff168160ff161015611e1057611d11838260ff1681518110611d0457611d04613ef2565b6020026020010151612ec6565b828160ff1681518110611d2657611d26613ef2565b60209081029190910181015160ff83166000818152600e845260409081902054905191825273ffffffffffffffffffffffffffffffffffffffff928316939216917ffc45ae51ac4893a3f843d030fbfd4037c0c196109c9e667645b8f144c83c16ea910160405180910390a3828160ff1681518110611da757611da7613ef2565b60209081029190910181015160ff83166000908152600e909252604090912080547fffffffffffffffffffffffff00000000000000000000000000000000000000001673ffffffffffffffffffffffffffffffffffffffff909216919091179055600101611cde565b505050565b611e1d6125c2565b73ffffffffffffffffffffffffffffffffffffffff8116611ea65760405162461bcd60e51b815260206004820152602660248201527f4f776e61626c653a206e6577206f776e657220697320746865207a65726f206160448201527f64647265737300000000000000000000000000000000000000000000000000006064820152608401610a17565b611eaf81612f13565b50565b611eba6125c2565b6000611ec8600260016143a6565b90508060ff168260ff1610611f6b5760405162461bcd60e51b815260206004820152604b60248201527f4f6d6e69636861696e476f7665726e616e63654578656375746f723a3a73657460448201527f54696d656c6f636b50656e64696e6741646d696e3a20696e76616c696420707260648201527f6f706f73616c2074797065000000000000000000000000000000000000000000608482015260a401610a17565b60ff82166000908152600e6020526040908190205490517f4dd18bf500000000000000000000000000000000000000000000000000000000815273ffffffffffffffffffffffffffffffffffffffff858116600483015290911690634dd18bf590602401600060405180830381600087803b158015611fe957600080fd5b505af1158015611ffd573d6000803e3d6000fd5b50506040805173ffffffffffffffffffffffffffffffffffffffff8716815260ff861660208201527f6ac0b2c896b49975f12891f83c573bdf05490fe6b707cbaa2ba84c36094cbaec93500190506118a3565b6040517ff5ecbdbc00000000000000000000000000000000000000000000000000000000815261ffff808616600483015284166024820152306044820152606481018290526060907f000000000000000000000000000000000000000000000000000000000000000073ffffffffffffffffffffffffffffffffffffffff169063f5ecbdbc90608401600060405180830381865afa1580156120f6573d6000803e3d6000fd5b505050506040513d6000823e601f3d908101601f1916820160405261211e919081019061440f565b95945050505050565b61212f612c1f565b600161213a82610e04565b600281111561214b5761214b613a29565b146121e45760405162461bcd60e51b815260206004820152605360248201527f4f6d6e69636861696e476f7665726e616e63654578656375746f723a3a65786560448201527f637574653a2070726f706f73616c2063616e206f6e6c7920626520657865637560648201527f7465642069662069742069732071756575656400000000000000000000000000608482015260a401610a17565b6000818152600d602090815260408083206006810180547fffffffffffffffffffffffffffffffffffffffffffffffffffffffffffff00ff16610100179081905562010000900460ff168452600e90925280832054600183015460028401549251939473ffffffffffffffffffffffffffffffffffffffff9092169390929186917f712ae1383f79ac853f8d882153778e0260ef8f03b504e2866e0593e04d2b291f9190a260005b818110156123ba578373ffffffffffffffffffffffffffffffffffffffff16630825f38f8660020183815481106122c5576122c5613ef2565b60009182526020909120015460038801805473ffffffffffffffffffffffffffffffffffffffff909216918590811061230057612300613ef2565b906000526020600020015488600401858154811061232057612320613ef2565b9060005260206000200189600501868154811061233f5761233f613ef2565b90600052602060002001886040518663ffffffff1660e01b815260040161236a959493929190613f9e565b6000604051808303816000875af1158015612389573d6000803e3d6000fd5b505050506040513d6000823e601f3d908101601f191682016040526123b1919081019061440f565b5060010161228c565b5050506000838152600f60205260409020805460ff1916905550611eaf90506001600055565b600b5461ffff8581169116146124845760405162461bcd60e51b815260206004820152604860248201527f4f6d6e69636861696e476f7665726e616e63654578656375746f723a3a5f626c60448201527f6f636b696e674c7a526563656976653a20696e76616c696420736f757263652060648201527f636861696e206964000000000000000000000000000000000000000000000000608482015260a401610a17565b8051602082012060405160009030906366ad5c8a906124ad90899089908990899060240161444c565b604051602081830303815290604052915060e01b6020820180517bffffffffffffffffffffffffffffffffffffffffffffffffffffffff8381831617835250505050905060008061250f6175305a6125059190614070565b3090609686612f8a565b91509150816125b85761ffff881660009081526006602052604090819020905185919061253d908a9061448b565b90815260408051918290036020908101832067ffffffffffffffff8b1660009081529152209190915561257190889061448b565b60405180910390208861ffff167f41d73ce7be31a588d59fe9013cdcfe583bc0aab25093d042b64cade0df73065688846040516125af9291906144a7565b60405180910390a35b5050505050505050565b60015473ffffffffffffffffffffffffffffffffffffffff1633146111625760405162461bcd60e51b815260206004820181905260248201527f4f776e61626c653a2063616c6c6572206973206e6f7420746865206f776e65726044820152606401610a17565b612631613015565b6007805460ff191690557f5db9ee0a495bf2e6ff9c91a7834c1ba4fdd244a5e8aa4e537bd38aeae4b073aa335b60405173ffffffffffffffffffffffffffffffffffffffff909116815260200160405180910390a1565b612690613067565b600080828060200190518101906126a791906144ca565b915091506000806000806000868060200190518101906126c7919061469b565b60008b8152600d6020526040902054949950929750909550935091501561277c5760405162461bcd60e51b815260206004820152604660248201527f4f6d6e69636861696e476f7665726e616e63654578656375746f723a3a5f6e6f60448201527f6e626c6f636b696e674c7a526563656976653a206475706c696361746520707260648201527f6f706f73616c0000000000000000000000000000000000000000000000000000608482015260a401610a17565b8351855114801561278e575082518551145b801561279b575081518551145b6128335760405162461bcd60e51b815260206004820152606060248201527f4f6d6e69636861696e476f7665726e616e63654578656375746f723a3a5f6e6f60448201527f6e626c6f636b696e674c7a526563656976653a2070726f706f73616c2066756e60648201527f6374696f6e20696e666f726d6174696f6e206172697479206d69736d61746368608482015260a401610a17565b61283f600260016143a6565b60ff168160ff16106128df5760405162461bcd60e51b815260206004820152604960248201527f4f6d6e69636861696e476f7665726e616e63654578656375746f723a3a5f6e6f60448201527f6e626c6f636b696e674c7a526563656976653a20696e76616c69642070726f7060648201527f6f73616c20747970650000000000000000000000000000000000000000000000608482015260a401610a17565b6128e985516130ba565b6040805161012081018252878152600060208083018281528385018a8152606085018a90526080850189905260a0850188905260c0850184905260e0850184905260ff87166101008601528b8452600d83529490922083518155915160018301559251805192938493612962926002850192019061367a565b506060820151805161297e916003840191602090910190613704565b506080820151805161299a91600484019160209091019061373f565b5060a082015180516129b6916005840191602090910190613791565b5060c08201516006909101805460e08401516101009485015160ff1662010000027fffffffffffffffffffffffffffffffffffffffffffffffffffffffffff00ffff9115159095027fffffffffffffffffffffffffffffffffffffffffffffffffffffffffffff00ff941515949094167fffffffffffffffffffffffffffffffffffffffffffffffffffffffffffff0000909216919091179290921791909116919091179055600c87905580516040517fc37d19c9a6a9a568b5071658f9b5082ff8f142df3cf090385c5621ab1193806590612a9b9089908990899089908990614814565b60405180910390a2612aac8761314a565b505050505050505050505050565b612ac2613067565b6007805460ff191660011790557f62e78cea01bee320cd4e420270b5ea74000d11b0c9f74754ebdbfc544b05a25861265e3390565b606081612b0581601f6148de565b1015612b535760405162461bcd60e51b815260206004820152600e60248201527f736c6963655f6f766572666c6f770000000000000000000000000000000000006044820152606401610a17565b612b5d82846148de565b84511015612bad5760405162461bcd60e51b815260206004820152601160248201527f736c6963655f6f75744f66426f756e64730000000000000000000000000000006044820152606401610a17565b606082158015612bcc5760405191506000825260208201604052612c16565b6040519150601f8416801560200281840101858101878315602002848b0101015b81831015612c05578051835260209283019201612bed565b5050858452601f01601f1916604052505b50949350505050565b600260005403612c715760405162461bcd60e51b815260206004820152601f60248201527f5265656e7472616e637947756172643a207265656e7472616e742063616c6c006044820152606401610a17565b6002600055565b61ffff86166000908152600660205260408082209051612c9b9088908890613ee2565b908152604080516020928190038301902067ffffffffffffffff871660009081529252902054905080612d365760405162461bcd60e51b815260206004820152602360248201527f4e6f6e626c6f636b696e674c7a4170703a206e6f2073746f726564206d65737360448201527f61676500000000000000000000000000000000000000000000000000000000006064820152608401610a17565b808383604051612d47929190613ee2565b604051809103902014612dc25760405162461bcd60e51b815260206004820152602160248201527f4e6f6e626c6f636b696e674c7a4170703a20696e76616c6964207061796c6f6160448201527f64000000000000000000000000000000000000000000000000000000000000006064820152608401610a17565b61ffff87166000908152600660205260408082209051612de59089908990613ee2565b908152604080516020928190038301812067ffffffffffffffff8916600090815290845282902093909355601f88018290048202830182019052868252612e7e918991899089908190840183828082843760009201919091525050604080516020601f8a018190048102820181019092528881528a93509150889088908190840183828082843760009201919091525061268892505050565b7fc264d91f3adc5588250e1551f547752ca0cfa8f6b530d243b9f9f4cab10ea8e58787878785604051612eb59594939291906148f1565b60405180910390a150505050505050565b73ffffffffffffffffffffffffffffffffffffffff8116611eaf576040517f8579befe00000000000000000000000000000000000000000000000000000000815260040160405180910390fd5b6001805473ffffffffffffffffffffffffffffffffffffffff8381167fffffffffffffffffffffffff0000000000000000000000000000000000000000831681179093556040519116919082907f8be0079c531659141344cd1fd0a4f28419497f9722a3daafe3b4186f6b6457e090600090a35050565b6000606060008060008661ffff1667ffffffffffffffff811115612fb057612fb0613a99565b6040519080825280601f01601f191660200182016040528015612fda576020820181803683370190505b50905060008087516020890160008d8df191503d925086831115612ffc578692505b828152826000602083013e909890975095505050505050565b60075460ff166111625760405162461bcd60e51b815260206004820152601460248201527f5061757361626c653a206e6f74207061757365640000000000000000000000006044820152606401610a17565b60075460ff16156111625760405162461bcd60e51b815260206004820152601060248201527f5061757361626c653a20706175736564000000000000000000000000000000006044820152606401610a17565b600954600a5442919062015180906130d29084614070565b11156130e45750600a819055816130f1565b6130ee83826148de565b90505b6008548111156131435760405162461bcd60e51b815260206004820181905260248201527f4461696c79205472616e73616374696f6e204c696d69742045786365656465646044820152606401610a17565b6009555050565b6000818152600d60209081526040808320600681015462010000900460ff168452600e83528184205482517f6a42b8f8000000000000000000000000000000000000000000000000000000008152925191949373ffffffffffffffffffffffffffffffffffffffff90911692636a42b8f892600480830193928290030181865afa1580156131dc573d6000803e3d6000fd5b505050506040513d601f19601f82011682018060405250810190613200919061492d565b61320a90426148de565b60018084018290556000858152600f602052604090819020805460ff191690921790915560068401546002850154915192935062010000900460ff169185907f9a2e42fd6722813d69113e7d0079d3d940171428df7373df9c7f7617cfda2892906132789086815260200190565b60405180910390a260005b8181101561161d576134408560020182815481106132a3576132a3613ef2565b60009182526020909120015460038701805473ffffffffffffffffffffffffffffffffffffffff90921691849081106132de576132de613ef2565b90600052602060002001548760040184815481106132fe576132fe613ef2565b90600052602060002001805461331390613e95565b80601f016020809104026020016040519081016040528092919081815260200182805461333f90613e95565b801561338c5780601f106133615761010080835404028352916020019161338c565b820191906000526020600020905b81548152906001019060200180831161336f57829003601f168201915b50505050508860050185815481106133a6576133a6613ef2565b9060005260206000200180546133bb90613e95565b80601f01602080910402602001604051908101604052809291908181526020018280546133e790613e95565b80156134345780601f1061340957610100808354040283529160200191613434565b820191906000526020600020905b81548152906001019060200180831161341757829003601f168201915b50505050508888613448565b600101613283565b60ff81166000908152600e602090815260409182902054915173ffffffffffffffffffffffffffffffffffffffff9092169163f2b0653791613494918a918a918a918a918a9101614946565b604051602081830303815290604052805190602001206040518263ffffffff1660e01b81526004016134c891815260200190565b602060405180830381865afa1580156134e5573d6000803e3d6000fd5b505050506040513d601f19601f82011682018060405250810190613509919061498d565b156135c85760405162461bcd60e51b815260206004820152606360248201527f4f6d6e69636861696e476f7665726e616e63654578656375746f723a3a71756560448201527f75654f72526576657274496e7465726e616c3a206964656e746963616c20707260648201527f6f706f73616c20616374696f6e20616c7265616479207175657565642061742060848201527f657461000000000000000000000000000000000000000000000000000000000060a482015260c401610a17565b60ff81166000908152600e6020526040908190205490517f3a66f90100000000000000000000000000000000000000000000000000000000815273ffffffffffffffffffffffffffffffffffffffff90911690633a66f901906136379089908990899089908990600401614946565b6020604051808303816000875af1158015613656573d6000803e3d6000fd5b505050506040513d601f19601f82011682018060405250810190610be2919061492d565b8280548282559060005260206000209081019282156136f4579160200282015b828111156136f457825182547fffffffffffffffffffffffff00000000000000000000000000000000000000001673ffffffffffffffffffffffffffffffffffffffff90911617825560209092019160019091019061369a565b506137009291506137e3565b5090565b8280548282559060005260206000209081019282156136f4579160200282015b828111156136f4578251825591602001919060010190613724565b828054828255906000526020600020908101928215613785579160200282015b828111156137855782518290613775908261410a565b509160200191906001019061375f565b506137009291506137f8565b8280548282559060005260206000209081019282156137d7579160200282015b828111156137d757825182906137c7908261410a565b50916020019190600101906137b1565b50613700929150613815565b5b8082111561370057600081556001016137e4565b8082111561370057600061380c8282613832565b506001016137f8565b808211156137005760006138298282613832565b50600101613815565b50805461383e90613e95565b6000825580601f1061384e575050565b601f016020900490600052602060002090810190611eaf91906137e3565b803561ffff8116811461387e57600080fd5b919050565b60008083601f84011261389557600080fd5b50813567ffffffffffffffff8111156138ad57600080fd5b6020830191508360208285010111156138c557600080fd5b9250929050565b803567ffffffffffffffff8116811461387e57600080fd5b600080600080600080608087890312156138fd57600080fd5b6139068761386c565b9550602087013567ffffffffffffffff8082111561392357600080fd5b61392f8a838b01613883565b909750955085915061394360408a016138cc565b9450606089013591508082111561395957600080fd5b5061396689828a01613883565b979a9699509497509295939492505050565b60006020828403121561398a57600080fd5b5035919050565b6000602082840312156139a357600080fd5b610dfd8261386c565b600080604083850312156139bf57600080fd5b6139c88361386c565b946020939093013593505050565b6000806000604084860312156139eb57600080fd5b6139f48461386c565b9250602084013567ffffffffffffffff811115613a1057600080fd5b613a1c86828701613883565b9497909650939450505050565b7f4e487b7100000000000000000000000000000000000000000000000000000000600052602160045260246000fd5b6020810160038310613a93577f4e487b7100000000000000000000000000000000000000000000000000000000600052602160045260246000fd5b91905290565b7f4e487b7100000000000000000000000000000000000000000000000000000000600052604160045260246000fd5b604051601f8201601f1916810167ffffffffffffffff81118282101715613af157613af1613a99565b604052919050565b600067ffffffffffffffff821115613b1357613b13613a99565b50601f01601f191660200190565b600080600060608486031215613b3657600080fd5b613b3f8461386c565b9250602084013567ffffffffffffffff811115613b5b57600080fd5b8401601f81018613613b6c57600080fd5b8035613b7f613b7a82613af9565b613ac8565b818152876020838501011115613b9457600080fd5b81602084016020830137600060208383010152809450505050613bb9604085016138cc565b90509250925092565b60005b83811015613bdd578181015183820152602001613bc5565b50506000910152565b60008151808452613bfe816020860160208601613bc2565b601f01601f19169290920160200192915050565b602081526000610dfd6020830184613be6565b60008060408385031215613c3857600080fd5b613c418361386c565b9150613c4f6020840161386c565b90509250929050565b73ffffffffffffffffffffffffffffffffffffffff81168114611eaf57600080fd5b600060208284031215613c8c57600080fd5b8135610dfd81613c58565b600080600080600060808688031215613caf57600080fd5b613cb88661386c565b9450613cc66020870161386c565b935060408601359250606086013567ffffffffffffffff811115613ce957600080fd5b613cf588828901613883565b969995985093965092949392505050565b600080600060608486031215613d1b57600080fd5b613d248461386c565b9250613d326020850161386c565b9150604084013590509250925092565b600067ffffffffffffffff821115613d5c57613d5c613a99565b5060051b60200190565b60006020808385031215613d7957600080fd5b823567ffffffffffffffff811115613d9057600080fd5b8301601f81018513613da157600080fd5b8035613daf613b7a82613d42565b81815260059190911b82018301908381019087831115613dce57600080fd5b928401925b82841015613df5578335613de681613c58565b82529284019290840190613dd3565b979650505050505050565b60ff81168114611eaf57600080fd5b60008060408385031215613e2257600080fd5b8235613e2d81613c58565b91506020830135613e3d81613e00565b809150509250929050565b60008060008060808587031215613e5e57600080fd5b613e678561386c565b9350613e756020860161386c565b92506040850135613e8581613c58565b9396929550929360600135925050565b600181811c90821680613ea957607f821691505b60208210810361114c577f4e487b7100000000000000000000000000000000000000000000000000000000600052602260045260246000fd5b8183823760009101908152919050565b7f4e487b7100000000000000000000000000000000000000000000000000000000600052603260045260246000fd5b60008154613f2e81613e95565b808552602060018381168015613f4b5760018114613f6557613f93565b60ff198516838901528284151560051b8901019550613f93565b866000528260002060005b85811015613f8b5781548a8201860152908301908401613f70565b890184019650505b505050505092915050565b73ffffffffffffffffffffffffffffffffffffffff8616815284602082015260a060408201526000613fd360a0830186613f21565b8281036060840152613fe58186613f21565b9150508260808301529695505050505050565b818352818160208501375060006020828401015260006020601f19601f840116840101905092915050565b61ffff8416815260406020820152600061211e604083018486613ff8565b7f4e487b7100000000000000000000000000000000000000000000000000000000600052601160045260246000fd5b8181038181111561408357614083614041565b92915050565b8284823760609190911b7fffffffffffffffffffffffffffffffffffffffff000000000000000000000000169101908152601401919050565b601f821115611e10576000816000526020600020601f850160051c810160208610156140eb5750805b601f850160051c820191505b8181101561161d578281556001016140f7565b815167ffffffffffffffff81111561412457614124613a99565b614138816141328454613e95565b846140c2565b602080601f83116001811461418b57600084156141555750858301515b7fffffffffffffffffffffffffffffffffffffffffffffffffffffffffffffffff600386901b1c1916600185901b17855561161d565b600085815260208120601f198616915b828110156141ba5788860151825594840194600190910190840161419b565b50858210156141f657878501517fffffffffffffffffffffffffffffffffffffffffffffffffffffffffffffffff600388901b60f8161c191681555b5050505050600190811b01905550565b600061ffff808816835280871660208401525084604083015260806060830152613df5608083018486613ff8565b600080835461424281613e95565b6001828116801561425a576001811461426f5761429e565b60ff198416875282151583028701945061429e565b8760005260208060002060005b858110156142955781548a82015290840190820161427c565b50505082870194505b50929695505050505050565b67ffffffffffffffff8311156142c2576142c2613a99565b6142d6836142d08354613e95565b836140c2565b6000601f84116001811461432857600085156142f25750838201355b7fffffffffffffffffffffffffffffffffffffffffffffffffffffffffffffffff600387901b1c1916600186901b178355610c93565b600083815260209020601f19861690835b828110156143595786850135825560209485019460019092019101614339565b5086821015614394577fffffffffffffffffffffffffffffffffffffffffffffffffffffffffffffffff60f88860031b161c19848701351681555b505060018560011b0183555050505050565b60ff818116838216019081111561408357614083614041565b60006143cd613b7a84613af9565b90508281528383830111156143e157600080fd5b610dfd836020830184613bc2565b600082601f83011261440057600080fd5b610dfd838351602085016143bf565b60006020828403121561442157600080fd5b815167ffffffffffffffff81111561443857600080fd5b614444848285016143ef565b949350505050565b61ffff851681526080602082015260006144696080830186613be6565b67ffffffffffffffff851660408401528281036060840152613df58185613be6565b6000825161449d818460208701613bc2565b9190910192915050565b67ffffffffffffffff831681526040602082015260006144446040830184613be6565b600080604083850312156144dd57600080fd5b825167ffffffffffffffff8111156144f457600080fd5b614500858286016143ef565b925050602083015190509250929050565b600082601f83011261452257600080fd5b81516020614532613b7a83613d42565b8083825260208201915060208460051b87010193508684111561455457600080fd5b602086015b848110156145705780518352918301918301614559565b509695505050505050565b600082601f83011261458c57600080fd5b8151602061459c613b7a83613d42565b82815260059290921b840181019181810190868411156145bb57600080fd5b8286015b8481101561457057805167ffffffffffffffff8111156145df5760008081fd5b8701603f810189136145f15760008081fd5b6146028986830151604084016143bf565b8452509183019183016145bf565b600082601f83011261462157600080fd5b81516020614631613b7a83613d42565b82815260059290921b8401810191818101908684111561465057600080fd5b8286015b8481101561457057805167ffffffffffffffff8111156146745760008081fd5b6146828986838b01016143ef565b845250918301918301614654565b805161387e81613e00565b600080600080600060a086880312156146b357600080fd5b855167ffffffffffffffff808211156146cb57600080fd5b818801915088601f8301126146df57600080fd5b815160206146ef613b7a83613d42565b82815260059290921b8401810191818101908c84111561470e57600080fd5b948201945b8386101561473557855161472681613c58565b82529482019490820190614713565b918b015191995090935050508082111561474e57600080fd5b61475a89838a01614511565b9550604088015191508082111561477057600080fd5b61477c89838a0161457b565b9450606088015191508082111561479257600080fd5b5061479f88828901614610565b9250506147ae60808701614690565b90509295509295909350565b60008282518085526020808601955060208260051b8401016020860160005b8481101561480757601f198684030189526147f5838351613be6565b988401989250908301906001016147d9565b5090979650505050505050565b60a0808252865190820181905260009060209060c0840190828a01845b8281101561486357815173ffffffffffffffffffffffffffffffffffffffff1684529284019290840190600101614831565b5050508381038285015287518082528883019183019060005b818110156148985783518352928401929184019160010161487c565b505084810360408601526148ac81896147ba565b9250505082810360608401526148c281866147ba565b9150506148d4608083018460ff169052565b9695505050505050565b8082018082111561408357614083614041565b61ffff8616815260806020820152600061490f608083018688613ff8565b67ffffffffffffffff94909416604083015250606001529392505050565b60006020828403121561493f57600080fd5b5051919050565b73ffffffffffffffffffffffffffffffffffffffff8616815284602082015260a06040820152600061497b60a0830186613be6565b8281036060840152613fe58186613be6565b60006020828403121561499f57600080fd5b81518015158114610dfd57600080fdfea2646970667358221220e850bbddc889963783b08adfebfc7bf44e22479f7dca79dbcfc0815c4ecc771764736f6c63430008190033",
  "devdoc": {
    "custom:security-contact": "https://github.com/VenusProtocol/governance-contracts#discussion",
    "details": "The owner of this contract controls LayerZero configuration. When used in production the owner will be OmnichainExecutor This implementation is non-blocking, meaning the failed messages will not block the future messages from the source. For the blocking behavior, derive the contract from LzApp.",
    "events": {
      "Paused(address)": {
        "details": "Emitted when the pause is triggered by `account`."
      },
      "Unpaused(address)": {
        "details": "Emitted when the pause is lifted by `account`."
      }
    },
    "kind": "dev",
    "methods": {
      "addTimelocks(address[])": {
        "custom:access": "Only owner",
        "custom:event": "Emits TimelockAdded with old and new timelock and route type",
        "params": {
          "timelocks_": "Array of addresses of all 3 timelocks"
        }
      },
      "cancel(uint256)": {
        "custom:access": "Sender must be the guardian",
        "custom:event": "Emits ProposalCanceled with proposal id of the canceled proposal",
        "params": {
          "proposalId_": "Id of proposal that is to be canceled"
        }
      },
      "execute(uint256)": {
        "custom:event": "Emits ProposalExecuted with proposal id of executed proposal",
        "params": {
          "proposalId_": "Id of proposal that is to be executed"
        }
      },
      "owner()": {
        "details": "Returns the address of the current owner."
      },
      "pause()": {
        "custom:access": "Only owner"
      },
      "paused()": {
        "details": "Returns true if the contract is paused, and false otherwise."
      },
      "retryMessage(uint16,bytes,uint64,bytes)": {
        "custom:access": "Only owner",
        "params": {
          "nonce_": "Nonce to identify failed message",
          "payload_": "The payload of the message to be retried",
          "srcAddress_": "Source address => local app address + remote app address",
          "srcChainId_": "Source chain Id"
        }
      },
      "setMaxDailyReceiveLimit(uint256)": {
        "custom:access": "Only Owner",
        "custom:event": "Emits SetMaxDailyReceiveLimit with old and new limit",
        "params": {
          "limit_": "Number of commands"
        }
      },
      "setSrcChainId(uint16)": {
        "custom:access": "Only owner",
        "custom:event": "Emit SetSrcChainId with old and new source id",
        "params": {
          "srcChainId_": "The new source chain id to be set"
        }
      },
      "setTimelockPendingAdmin(address,uint8)": {
        "custom:access": "Only owner",
        "custom:event": "Emits SetTimelockPendingAdmin with new pending admin and proposal type",
        "params": {
          "pendingAdmin_": "Address of new pending admin",
          "proposalType_": "Type of proposal"
        }
      },
      "state(uint256)": {
        "params": {
          "proposalId_": "The id of the proposal"
        },
        "returns": {
          "_0": "Proposal state"
        }
      },
      "transferOwnership(address)": {
        "details": "Transfers ownership of the contract to a new account (`newOwner`). Can only be called by the current owner."
      },
      "unpause()": {
        "custom:access": "Only owner"
      }
    },
    "title": "OmnichainGovernanceExecutor",
    "version": 1
  },
  "userdoc": {
    "errors": {
      "InvalidProposalId()": [
        {
          "notice": "Thrown when proposal ID is invalid"
        }
      ],
      "ZeroAddressNotAllowed()": [
        {
          "notice": "Thrown if the supplied address is a zero address where it is not allowed"
        }
      ]
    },
    "events": {
      "ProposalCanceled(uint256)": {
        "notice": "Emitted when proposal is canceled"
      },
      "ProposalExecuted(uint256)": {
        "notice": "Emitted when proposal executed"
      },
      "ProposalQueued(uint256,uint256)": {
        "notice": "Emitted when proposal is queued"
      },
      "ProposalReceived(uint256,address[],uint256[],string[],bytes[],uint8)": {
        "notice": "Emitted when proposal is received"
      },
      "ReceivePayloadFailed(uint16,bytes,uint64,bytes)": {
        "notice": "Emitted when proposal failed"
      },
      "SetMaxDailyReceiveLimit(uint256,uint256)": {
        "notice": "Emitted when the maximum daily limit for receiving command from Binance chain is modified"
      },
      "SetSrcChainId(uint16,uint16)": {
        "notice": "Emitted when source layerzero endpoint id is updated"
      },
      "SetTimelockPendingAdmin(address,uint8)": {
        "notice": "Emitted when pending admin of Timelock is updated"
      },
      "TimelockAdded(uint8,address,address)": {
        "notice": "Emitted when timelock added"
      }
    },
    "kind": "user",
    "methods": {
      "GUARDIAN()": {
        "notice": "A privileged role that can cancel any proposal"
      },
      "addTimelocks(address[])": {
        "notice": "Add timelocks to the ProposalTimelocks mapping"
      },
      "cancel(uint256)": {
        "notice": "Cancels a proposal only if sender is the guardian and proposal is not executed"
      },
      "execute(uint256)": {
        "notice": "Executes a queued proposal if eta has passed"
      },
      "last24HourCommandsReceived()": {
        "notice": "Total received commands within the last 24-hour window from Binance chain"
      },
      "last24HourReceiveWindowStart()": {
        "notice": "Timestamp when the last 24-hour window started from Binance chain"
      },
      "lastProposalReceived()": {
        "notice": "Last proposal count received"
      },
      "maxDailyReceiveLimit()": {
        "notice": "Maximum daily limit for receiving commands from Binance chain"
      },
      "pause()": {
        "notice": "Triggers the paused state of the controller"
      },
      "proposalTimelocks(uint256)": {
        "notice": "Mapping containing Timelock addresses for each proposal type"
      },
      "proposals(uint256)": {
        "notice": "The official record of all proposals ever proposed"
      },
      "queued(uint256)": {
        "notice": "Represents queue state of proposal"
      },
      "renounceOwnership()": {
        "notice": "Empty implementation of renounce ownership to avoid any mishappening"
      },
      "retryMessage(uint16,bytes,uint64,bytes)": {
        "notice": "Resends a previously failed message"
      },
      "setMaxDailyReceiveLimit(uint256)": {
        "notice": "Sets the maximum daily limit for receiving commands"
      },
      "setSrcChainId(uint16)": {
        "notice": "Update source layerzero endpoint id"
      },
      "setTimelockPendingAdmin(address,uint8)": {
        "notice": "Sets the new pending admin of the Timelock"
      },
      "srcChainId()": {
        "notice": "Stores Binance layerzero endpoint id"
      },
      "state(uint256)": {
        "notice": "Gets the state of a proposal"
      },
      "unpause()": {
        "notice": "Triggers the resume state of the controller"
      }
    },
    "notice": "Executes the proposal transactions sent from the main chain",
    "version": 1
  },
  "storageLayout": {
    "storage": [
      {
        "astId": 4299,
        "contract": "contracts/Cross-chain/OmnichainGovernanceExecutor.sol:OmnichainGovernanceExecutor",
        "label": "_status",
        "offset": 0,
        "slot": "0",
        "type": "t_uint256"
      },
      {
        "astId": 4075,
        "contract": "contracts/Cross-chain/OmnichainGovernanceExecutor.sol:OmnichainGovernanceExecutor",
        "label": "_owner",
        "offset": 0,
        "slot": "1",
        "type": "t_address"
      },
      {
        "astId": 455,
        "contract": "contracts/Cross-chain/OmnichainGovernanceExecutor.sol:OmnichainGovernanceExecutor",
        "label": "trustedRemoteLookup",
        "offset": 0,
        "slot": "2",
        "type": "t_mapping(t_uint16,t_bytes_storage)"
      },
      {
        "astId": 461,
        "contract": "contracts/Cross-chain/OmnichainGovernanceExecutor.sol:OmnichainGovernanceExecutor",
        "label": "minDstGasLookup",
        "offset": 0,
        "slot": "3",
        "type": "t_mapping(t_uint16,t_mapping(t_uint16,t_uint256))"
      },
      {
        "astId": 465,
        "contract": "contracts/Cross-chain/OmnichainGovernanceExecutor.sol:OmnichainGovernanceExecutor",
        "label": "payloadSizeLimitLookup",
        "offset": 0,
        "slot": "4",
        "type": "t_mapping(t_uint16,t_uint256)"
      },
      {
        "astId": 467,
        "contract": "contracts/Cross-chain/OmnichainGovernanceExecutor.sol:OmnichainGovernanceExecutor",
        "label": "precrime",
        "offset": 0,
        "slot": "5",
        "type": "t_address"
      },
      {
        "astId": 997,
        "contract": "contracts/Cross-chain/OmnichainGovernanceExecutor.sol:OmnichainGovernanceExecutor",
        "label": "failedMessages",
        "offset": 0,
        "slot": "6",
        "type": "t_mapping(t_uint16,t_mapping(t_bytes_memory_ptr,t_mapping(t_uint64,t_bytes32)))"
      },
      {
        "astId": 4198,
        "contract": "contracts/Cross-chain/OmnichainGovernanceExecutor.sol:OmnichainGovernanceExecutor",
        "label": "_paused",
        "offset": 0,
        "slot": "7",
        "type": "t_bool"
      },
      {
        "astId": 5497,
        "contract": "contracts/Cross-chain/OmnichainGovernanceExecutor.sol:OmnichainGovernanceExecutor",
        "label": "maxDailyReceiveLimit",
        "offset": 0,
        "slot": "8",
        "type": "t_uint256"
      },
      {
        "astId": 5500,
        "contract": "contracts/Cross-chain/OmnichainGovernanceExecutor.sol:OmnichainGovernanceExecutor",
        "label": "last24HourCommandsReceived",
        "offset": 0,
        "slot": "9",
        "type": "t_uint256"
      },
      {
        "astId": 5503,
        "contract": "contracts/Cross-chain/OmnichainGovernanceExecutor.sol:OmnichainGovernanceExecutor",
        "label": "last24HourReceiveWindowStart",
        "offset": 0,
        "slot": "10",
        "type": "t_uint256"
      },
      {
        "astId": 6255,
        "contract": "contracts/Cross-chain/OmnichainGovernanceExecutor.sol:OmnichainGovernanceExecutor",
        "label": "srcChainId",
        "offset": 0,
        "slot": "11",
        "type": "t_uint16"
      },
      {
        "astId": 6258,
        "contract": "contracts/Cross-chain/OmnichainGovernanceExecutor.sol:OmnichainGovernanceExecutor",
        "label": "lastProposalReceived",
        "offset": 0,
        "slot": "12",
        "type": "t_uint256"
      },
      {
        "astId": 6264,
        "contract": "contracts/Cross-chain/OmnichainGovernanceExecutor.sol:OmnichainGovernanceExecutor",
        "label": "proposals",
        "offset": 0,
        "slot": "13",
        "type": "t_mapping(t_uint256,t_struct(Proposal)6245_storage)"
      },
      {
        "astId": 6270,
        "contract": "contracts/Cross-chain/OmnichainGovernanceExecutor.sol:OmnichainGovernanceExecutor",
        "label": "proposalTimelocks",
        "offset": 0,
        "slot": "14",
        "type": "t_mapping(t_uint256,t_contract(ITimelock)7975)"
      },
      {
        "astId": 6275,
        "contract": "contracts/Cross-chain/OmnichainGovernanceExecutor.sol:OmnichainGovernanceExecutor",
        "label": "queued",
        "offset": 0,
        "slot": "15",
        "type": "t_mapping(t_uint256,t_bool)"
      }
    ],
    "types": {
      "t_address": {
        "encoding": "inplace",
        "label": "address",
        "numberOfBytes": "20"
      },
      "t_array(t_address)dyn_storage": {
        "base": "t_address",
        "encoding": "dynamic_array",
        "label": "address[]",
        "numberOfBytes": "32"
      },
      "t_array(t_bytes_storage)dyn_storage": {
        "base": "t_bytes_storage",
        "encoding": "dynamic_array",
        "label": "bytes[]",
        "numberOfBytes": "32"
      },
      "t_array(t_string_storage)dyn_storage": {
        "base": "t_string_storage",
        "encoding": "dynamic_array",
        "label": "string[]",
        "numberOfBytes": "32"
      },
      "t_array(t_uint256)dyn_storage": {
        "base": "t_uint256",
        "encoding": "dynamic_array",
        "label": "uint256[]",
        "numberOfBytes": "32"
      },
      "t_bool": {
        "encoding": "inplace",
        "label": "bool",
        "numberOfBytes": "1"
      },
      "t_bytes32": {
        "encoding": "inplace",
        "label": "bytes32",
        "numberOfBytes": "32"
      },
      "t_bytes_memory_ptr": {
        "encoding": "bytes",
        "label": "bytes",
        "numberOfBytes": "32"
      },
      "t_bytes_storage": {
        "encoding": "bytes",
        "label": "bytes",
        "numberOfBytes": "32"
      },
      "t_contract(ITimelock)7975": {
        "encoding": "inplace",
        "label": "contract ITimelock",
        "numberOfBytes": "20"
      },
      "t_mapping(t_bytes_memory_ptr,t_mapping(t_uint64,t_bytes32))": {
        "encoding": "mapping",
        "key": "t_bytes_memory_ptr",
        "label": "mapping(bytes => mapping(uint64 => bytes32))",
        "numberOfBytes": "32",
        "value": "t_mapping(t_uint64,t_bytes32)"
      },
      "t_mapping(t_uint16,t_bytes_storage)": {
        "encoding": "mapping",
        "key": "t_uint16",
        "label": "mapping(uint16 => bytes)",
        "numberOfBytes": "32",
        "value": "t_bytes_storage"
      },
      "t_mapping(t_uint16,t_mapping(t_bytes_memory_ptr,t_mapping(t_uint64,t_bytes32)))": {
        "encoding": "mapping",
        "key": "t_uint16",
        "label": "mapping(uint16 => mapping(bytes => mapping(uint64 => bytes32)))",
        "numberOfBytes": "32",
        "value": "t_mapping(t_bytes_memory_ptr,t_mapping(t_uint64,t_bytes32))"
      },
      "t_mapping(t_uint16,t_mapping(t_uint16,t_uint256))": {
        "encoding": "mapping",
        "key": "t_uint16",
        "label": "mapping(uint16 => mapping(uint16 => uint256))",
        "numberOfBytes": "32",
        "value": "t_mapping(t_uint16,t_uint256)"
      },
      "t_mapping(t_uint16,t_uint256)": {
        "encoding": "mapping",
        "key": "t_uint16",
        "label": "mapping(uint16 => uint256)",
        "numberOfBytes": "32",
        "value": "t_uint256"
      },
      "t_mapping(t_uint256,t_bool)": {
        "encoding": "mapping",
        "key": "t_uint256",
        "label": "mapping(uint256 => bool)",
        "numberOfBytes": "32",
        "value": "t_bool"
      },
      "t_mapping(t_uint256,t_contract(ITimelock)7975)": {
        "encoding": "mapping",
        "key": "t_uint256",
        "label": "mapping(uint256 => contract ITimelock)",
        "numberOfBytes": "32",
        "value": "t_contract(ITimelock)7975"
      },
      "t_mapping(t_uint256,t_struct(Proposal)6245_storage)": {
        "encoding": "mapping",
        "key": "t_uint256",
        "label": "mapping(uint256 => struct OmnichainGovernanceExecutor.Proposal)",
        "numberOfBytes": "32",
        "value": "t_struct(Proposal)6245_storage"
      },
      "t_mapping(t_uint64,t_bytes32)": {
        "encoding": "mapping",
        "key": "t_uint64",
        "label": "mapping(uint64 => bytes32)",
        "numberOfBytes": "32",
        "value": "t_bytes32"
      },
      "t_string_storage": {
        "encoding": "bytes",
        "label": "string",
        "numberOfBytes": "32"
      },
      "t_struct(Proposal)6245_storage": {
        "encoding": "inplace",
        "label": "struct OmnichainGovernanceExecutor.Proposal",
        "members": [
          {
            "astId": 6216,
            "contract": "contracts/Cross-chain/OmnichainGovernanceExecutor.sol:OmnichainGovernanceExecutor",
            "label": "id",
            "offset": 0,
            "slot": "0",
            "type": "t_uint256"
          },
          {
            "astId": 6219,
            "contract": "contracts/Cross-chain/OmnichainGovernanceExecutor.sol:OmnichainGovernanceExecutor",
            "label": "eta",
            "offset": 0,
            "slot": "1",
            "type": "t_uint256"
          },
          {
            "astId": 6223,
            "contract": "contracts/Cross-chain/OmnichainGovernanceExecutor.sol:OmnichainGovernanceExecutor",
            "label": "targets",
            "offset": 0,
            "slot": "2",
            "type": "t_array(t_address)dyn_storage"
          },
          {
            "astId": 6227,
            "contract": "contracts/Cross-chain/OmnichainGovernanceExecutor.sol:OmnichainGovernanceExecutor",
            "label": "values",
            "offset": 0,
            "slot": "3",
            "type": "t_array(t_uint256)dyn_storage"
          },
          {
            "astId": 6231,
            "contract": "contracts/Cross-chain/OmnichainGovernanceExecutor.sol:OmnichainGovernanceExecutor",
            "label": "signatures",
            "offset": 0,
            "slot": "4",
            "type": "t_array(t_string_storage)dyn_storage"
          },
          {
            "astId": 6235,
            "contract": "contracts/Cross-chain/OmnichainGovernanceExecutor.sol:OmnichainGovernanceExecutor",
            "label": "calldatas",
            "offset": 0,
            "slot": "5",
            "type": "t_array(t_bytes_storage)dyn_storage"
          },
          {
            "astId": 6238,
            "contract": "contracts/Cross-chain/OmnichainGovernanceExecutor.sol:OmnichainGovernanceExecutor",
            "label": "canceled",
            "offset": 0,
            "slot": "6",
            "type": "t_bool"
          },
          {
            "astId": 6241,
            "contract": "contracts/Cross-chain/OmnichainGovernanceExecutor.sol:OmnichainGovernanceExecutor",
            "label": "executed",
            "offset": 1,
            "slot": "6",
            "type": "t_bool"
          },
          {
            "astId": 6244,
            "contract": "contracts/Cross-chain/OmnichainGovernanceExecutor.sol:OmnichainGovernanceExecutor",
            "label": "proposalType",
            "offset": 2,
            "slot": "6",
            "type": "t_uint8"
          }
        ],
        "numberOfBytes": "224"
      },
      "t_uint16": {
        "encoding": "inplace",
        "label": "uint16",
        "numberOfBytes": "2"
      },
      "t_uint256": {
        "encoding": "inplace",
        "label": "uint256",
        "numberOfBytes": "32"
      },
      "t_uint64": {
        "encoding": "inplace",
        "label": "uint64",
        "numberOfBytes": "8"
      },
      "t_uint8": {
        "encoding": "inplace",
        "label": "uint8",
        "numberOfBytes": "1"
      }
    }
  }
}