{
  "address": "0xc7b78b5c1433C81c455CD1e9A68FF18764acbCe1",
  "abi": [
    {
      "inputs": [
        {
          "internalType": "address",
          "name": "riskOracle_",
          "type": "address"
        }
      ],
      "stateMutability": "nonpayable",
      "type": "constructor"
    },
    {
      "inputs": [],
      "name": "ConfigAlreadyProcessed",
      "type": "error"
    },
    {
      "inputs": [],
      "name": "ConfigNotActive",
      "type": "error"
    },
    {
      "inputs": [],
      "name": "InvalidDebounce",
      "type": "error"
    },
    {
      "inputs": [
        {
          "internalType": "address",
          "name": "sender",
          "type": "address"
        },
        {
          "internalType": "address",
          "name": "calledContract",
          "type": "address"
        },
        {
          "internalType": "string",
          "name": "methodSignature",
          "type": "string"
        }
      ],
      "name": "Unauthorized",
      "type": "error"
    },
    {
      "inputs": [],
      "name": "UnsupportedUpdateType",
      "type": "error"
    },
    {
      "inputs": [],
      "name": "UpdateIsExpired",
      "type": "error"
    },
    {
      "inputs": [],
      "name": "UpdateTooFrequent",
      "type": "error"
    },
    {
      "inputs": [],
      "name": "ZeroAddressNotAllowed",
      "type": "error"
    },
    {
      "anonymous": false,
      "inputs": [
        {
          "indexed": false,
          "internalType": "uint8",
          "name": "version",
          "type": "uint8"
        }
      ],
      "name": "Initialized",
      "type": "event"
    },
    {
      "anonymous": false,
      "inputs": [
        {
          "indexed": false,
          "internalType": "address",
          "name": "oldAccessControlManager",
          "type": "address"
        },
        {
          "indexed": false,
          "internalType": "address",
          "name": "newAccessControlManager",
          "type": "address"
        }
      ],
      "name": "NewAccessControlManager",
      "type": "event"
    },
    {
      "anonymous": false,
      "inputs": [
        {
          "indexed": true,
          "internalType": "address",
          "name": "previousOwner",
          "type": "address"
        },
        {
          "indexed": true,
          "internalType": "address",
          "name": "newOwner",
          "type": "address"
        }
      ],
      "name": "OwnershipTransferStarted",
      "type": "event"
    },
    {
      "anonymous": false,
      "inputs": [
        {
          "indexed": true,
          "internalType": "address",
          "name": "previousOwner",
          "type": "address"
        },
        {
          "indexed": true,
          "internalType": "address",
          "name": "newOwner",
          "type": "address"
        }
      ],
      "name": "OwnershipTransferred",
      "type": "event"
    },
    {
      "anonymous": false,
      "inputs": [
        {
          "indexed": false,
          "internalType": "address",
          "name": "account",
          "type": "address"
        }
      ],
      "name": "Paused",
      "type": "event"
    },
    {
      "anonymous": false,
      "inputs": [
        {
          "indexed": false,
          "internalType": "string",
          "name": "updateType",
          "type": "string"
        },
        {
          "indexed": true,
          "internalType": "address",
          "name": "previousRiskSteward",
          "type": "address"
        },
        {
          "indexed": true,
          "internalType": "address",
          "name": "riskSteward",
          "type": "address"
        },
        {
          "indexed": false,
          "internalType": "uint256",
          "name": "previousDebounce",
          "type": "uint256"
        },
        {
          "indexed": false,
          "internalType": "uint256",
          "name": "debounce",
          "type": "uint256"
        },
        {
          "indexed": false,
          "internalType": "bool",
          "name": "previousActive",
          "type": "bool"
        },
        {
          "indexed": false,
          "internalType": "bool",
          "name": "active",
          "type": "bool"
        }
      ],
      "name": "RiskParameterConfigSet",
      "type": "event"
    },
    {
      "anonymous": false,
      "inputs": [
        {
          "indexed": true,
          "internalType": "uint256",
          "name": "updateId",
          "type": "uint256"
        }
      ],
      "name": "RiskParameterUpdated",
      "type": "event"
    },
    {
      "anonymous": false,
      "inputs": [
        {
          "indexed": false,
          "internalType": "string",
          "name": "updateType",
          "type": "string"
        },
        {
          "indexed": false,
          "internalType": "bool",
          "name": "active",
          "type": "bool"
        }
      ],
      "name": "ToggleConfigActive",
      "type": "event"
    },
    {
      "anonymous": false,
      "inputs": [
        {
          "indexed": false,
          "internalType": "address",
          "name": "account",
          "type": "address"
        }
      ],
      "name": "Unpaused",
      "type": "event"
    },
    {
      "inputs": [],
      "name": "RISK_ORACLE",
      "outputs": [
        {
          "internalType": "contract IRiskOracle",
          "name": "",
          "type": "address"
        }
      ],
      "stateMutability": "view",
      "type": "function"
    },
    {
      "inputs": [],
      "name": "UPDATE_EXPIRATION_TIME",
      "outputs": [
        {
          "internalType": "uint256",
          "name": "",
          "type": "uint256"
        }
      ],
      "stateMutability": "view",
      "type": "function"
    },
    {
      "inputs": [],
      "name": "acceptOwnership",
      "outputs": [],
      "stateMutability": "nonpayable",
      "type": "function"
    },
    {
      "inputs": [],
      "name": "accessControlManager",
      "outputs": [
        {
          "internalType": "contract IAccessControlManagerV8",
          "name": "",
          "type": "address"
        }
      ],
      "stateMutability": "view",
      "type": "function"
    },
    {
      "inputs": [
        {
          "internalType": "address",
          "name": "accessControlManager_",
          "type": "address"
        }
      ],
      "name": "initialize",
      "outputs": [],
      "stateMutability": "nonpayable",
      "type": "function"
    },
    {
      "inputs": [
        {
          "internalType": "bytes",
          "name": "marketUpdateType",
          "type": "bytes"
        }
      ],
      "name": "lastProcessedTime",
      "outputs": [
        {
          "internalType": "uint256",
          "name": "",
          "type": "uint256"
        }
      ],
      "stateMutability": "view",
      "type": "function"
    },
    {
      "inputs": [],
      "name": "owner",
      "outputs": [
        {
          "internalType": "address",
          "name": "",
          "type": "address"
        }
      ],
      "stateMutability": "view",
      "type": "function"
    },
    {
      "inputs": [],
      "name": "pause",
      "outputs": [],
      "stateMutability": "nonpayable",
      "type": "function"
    },
    {
      "inputs": [],
      "name": "paused",
      "outputs": [
        {
          "internalType": "bool",
          "name": "",
          "type": "bool"
        }
      ],
      "stateMutability": "view",
      "type": "function"
    },
    {
      "inputs": [],
      "name": "pendingOwner",
      "outputs": [
        {
          "internalType": "address",
          "name": "",
          "type": "address"
        }
      ],
      "stateMutability": "view",
      "type": "function"
    },
    {
      "inputs": [
        {
          "internalType": "uint256",
          "name": "updateId",
          "type": "uint256"
        }
      ],
      "name": "processUpdateById",
      "outputs": [],
      "stateMutability": "nonpayable",
      "type": "function"
    },
    {
      "inputs": [
        {
          "internalType": "string",
          "name": "updateType",
          "type": "string"
        },
        {
          "internalType": "address",
          "name": "market",
          "type": "address"
        }
      ],
      "name": "processUpdateByParameterAndMarket",
      "outputs": [],
      "stateMutability": "nonpayable",
      "type": "function"
    },
    {
      "inputs": [
        {
          "internalType": "uint256",
          "name": "updateId",
          "type": "uint256"
        }
      ],
      "name": "processedUpdates",
      "outputs": [
        {
          "internalType": "bool",
          "name": "",
          "type": "bool"
        }
      ],
      "stateMutability": "view",
      "type": "function"
    },
    {
      "inputs": [],
      "name": "renounceOwnership",
      "outputs": [],
      "stateMutability": "nonpayable",
      "type": "function"
    },
    {
      "inputs": [
        {
          "internalType": "string",
          "name": "updateType",
          "type": "string"
        }
      ],
      "name": "riskParameterConfigs",
      "outputs": [
        {
          "internalType": "bool",
          "name": "active",
          "type": "bool"
        },
        {
          "internalType": "uint256",
          "name": "debounce",
          "type": "uint256"
        },
        {
          "internalType": "address",
          "name": "riskSteward",
          "type": "address"
        }
      ],
      "stateMutability": "view",
      "type": "function"
    },
    {
      "inputs": [
        {
          "internalType": "address",
          "name": "accessControlManager_",
          "type": "address"
        }
      ],
      "name": "setAccessControlManager",
      "outputs": [],
      "stateMutability": "nonpayable",
      "type": "function"
    },
    {
      "inputs": [
        {
          "internalType": "string",
          "name": "updateType",
          "type": "string"
        },
        {
          "internalType": "address",
          "name": "riskSteward",
          "type": "address"
        },
        {
          "internalType": "uint256",
          "name": "debounce",
          "type": "uint256"
        }
      ],
      "name": "setRiskParameterConfig",
      "outputs": [],
      "stateMutability": "nonpayable",
      "type": "function"
    },
    {
      "inputs": [
        {
          "internalType": "string",
          "name": "updateType",
          "type": "string"
        }
      ],
      "name": "toggleConfigActive",
      "outputs": [],
      "stateMutability": "nonpayable",
      "type": "function"
    },
    {
      "inputs": [
        {
          "internalType": "address",
          "name": "newOwner",
          "type": "address"
        }
      ],
      "name": "transferOwnership",
      "outputs": [],
      "stateMutability": "nonpayable",
      "type": "function"
    },
    {
      "inputs": [],
      "name": "unpause",
      "outputs": [],
      "stateMutability": "nonpayable",
      "type": "function"
    }
  ],
  "transactionHash": "0x873672f807cff4395fd88b9881cb0b84611bc5473447fc4fbc7830ec56c69020",
  "args": [
    "0x7BD97DD6C199532d11Cf5f55E13a120dB6dd0F4F"
  ],
  "numDeployments": 1,
  "solcInputHash": "34ad2ac9bd0914b716cd67ba66054da9",
  "bytecode": "0x60a060405234801561001057600080fd5b506040516122be3803806122be83398101604081905261002f9161013c565b61003881610053565b6001600160a01b03811660805261004d61007d565b5061016c565b6001600160a01b03811661007a576040516342bcdf7f60e11b815260040160405180910390fd5b50565b600054610100900460ff16156100e95760405162461bcd60e51b815260206004820152602760248201527f496e697469616c697a61626c653a20636f6e747261637420697320696e697469604482015266616c697a696e6760c81b606482015260840160405180910390fd5b60005460ff9081161461013a576000805460ff191660ff9081179091556040519081527f7f26b83ff96e1f2b6a682f133852f6798a09c465da95921460cefb38474024989060200160405180910390a15b565b60006020828403121561014e57600080fd5b81516001600160a01b038116811461016557600080fd5b9392505050565b60805161212261019c600039600081816102150152818161046b015281816106a4015261077501526121226000f3fe608060405234801561001057600080fd5b506004361061016c5760003560e01c80638da5cb5b116100cd578063ba866f0911610081578063cdd231d211610066578063cdd231d214610383578063e30c397814610396578063f2fde38b146103b457600080fd5b8063ba866f09146102e9578063c4d66de81461037057600080fd5b8063ada26f60116100b2578063ada26f60146102a5578063b080d71d146102b8578063b4a0bdf3146102cb57600080fd5b80638da5cb5b14610264578063a7faee3c1461028257600080fd5b80636391c14a1161012457806379ba50971161010957806379ba5097146102085780637dd8f522146102105780638456cb591461025c57600080fd5b80636391c14a146101ed578063715018a61461020057600080fd5b80633f4ba83a116101555780633f4ba83a146101a35780635c975abb146101ab5780635f1f8afd146101c257600080fd5b80630e32cb8614610171578063233dd0da14610186575b600080fd5b61018461017f3660046118eb565b6103c7565b005b6101906201518081565b6040519081526020015b60405180910390f35b6101846103db565b60335460ff165b604051901515815260200161019a565b6101906101d03660046119ff565b805160208183018101805160fc8252928201919093012091525481565b6101846101fb366004611a70565b610423565b610184610519565b61018461058c565b6102377f000000000000000000000000000000000000000000000000000000000000000081565b60405173ffffffffffffffffffffffffffffffffffffffff909116815260200161019a565b610184610624565b60655473ffffffffffffffffffffffffffffffffffffffff16610237565b6101b2610290366004611ac2565b60fd6020526000908152604090205460ff1681565b6101846102b3366004611ac2565b61066a565b6101846102c6366004611b24565b610856565b60c95473ffffffffffffffffffffffffffffffffffffffff16610237565b61033d6102f7366004611b81565b805160208183018101805160fb8252928201919093012091528054600182015460029092015460ff909116919073ffffffffffffffffffffffffffffffffffffffff1683565b604080519315158452602084019290925273ffffffffffffffffffffffffffffffffffffffff169082015260600161019a565b61018461037e3660046118eb565b610aa3565b610184610391366004611bb6565b610c08565b60975473ffffffffffffffffffffffffffffffffffffffff16610237565b6101846103c23660046118eb565b610d7f565b6103cf610e2f565b6103d881610e96565b50565b6104196040518060400160405280600981526020017f756e706175736528290000000000000000000000000000000000000000000000815250610f9e565b610421611077565b565b61042b6110d6565b6040517f5decfee400000000000000000000000000000000000000000000000000000000815260009073ffffffffffffffffffffffffffffffffffffffff7f00000000000000000000000000000000000000000000000000000000000000001690635decfee4906104a29086908690600401611c48565b600060405180830381865afa1580156104bf573d6000803e3d6000fd5b505050506040513d6000823e601f3d908101601f191682016040526104e79190810190611cd5565b905060006104fd8260c001518360800151611129565b90506105098282611156565b61051382826112f6565b50505050565b60405162461bcd60e51b815260206004820152602360248201527f2072656e6f756e63654f776e6572736869702829206973206e6f7420616c6c6f60448201527f776564000000000000000000000000000000000000000000000000000000000060648201526084015b60405180910390fd5b609754339073ffffffffffffffffffffffffffffffffffffffff16811461061b5760405162461bcd60e51b815260206004820152602960248201527f4f776e61626c6532537465703a2063616c6c6572206973206e6f74207468652060448201527f6e6577206f776e657200000000000000000000000000000000000000000000006064820152608401610583565b6103d88161140b565b6106626040518060400160405280600781526020017f7061757365282900000000000000000000000000000000000000000000000000815250610f9e565b61042161143c565b6106726110d6565b6040517f37759b9a000000000000000000000000000000000000000000000000000000008152600481018290526000907f000000000000000000000000000000000000000000000000000000000000000073ffffffffffffffffffffffffffffffffffffffff16906337759b9a90602401600060405180830381865afa158015610700573d6000803e3d6000fd5b505050506040513d6000823e601f3d908101601f191682016040526107289190810190611cd5565b608081015160c08201516040517f5decfee400000000000000000000000000000000000000000000000000000000815292935060009273ffffffffffffffffffffffffffffffffffffffff7f00000000000000000000000000000000000000000000000000000000000000001692635decfee4926107a892600401611c48565b600060405180830381865afa1580156107c5573d6000803e3d6000fd5b505050506040513d6000823e601f3d908101601f191682016040526107ed9190810190611cd5565b9050828160a001511461082c576040517fc2a16f1400000000000000000000000000000000000000000000000000000000815260040160405180910390fd5b60006108408360c001518460800151611129565b905061084c8382611156565b61051383826112f6565b6108776040518060600160405280602e81526020016120bf602e9139610f9e565b6108c484848080601f016020809104026020016040519081016040528093929190818152602001838380828437600092018290525060408051602081019091529081529250611479915050565b156108fb576040517f80919d7b00000000000000000000000000000000000000000000000000000000815260040160405180910390fd5b80158061090b5750620151808111155b15610942576040517ff6ea4e0600000000000000000000000000000000000000000000000000000000815260040160405180910390fd5b61094b8261148f565b600060fb858560405161095f929190611df8565b908152604080516020928190038301812060608083018452815460ff16151583526001808301548685015260029092015473ffffffffffffffffffffffffffffffffffffffff9081168486015284519182018552918152938401869052861683830152905190925060fb906109d79088908890611df8565b90815260408051602092819003830181208451815460ff19169015151781558484015160018083019190915594830151600290910180547fffffffffffffffffffffffff00000000000000000000000000000000000000001673ffffffffffffffffffffffffffffffffffffffff928316179055918501519285015185518884169594909316937ff0368c8064bba33693ceea1832ed04228e2e9189812b88dbeb685b8fda0e9adf93610a94938c938c9390928b92909190611e33565b60405180910390a35050505050565b600054610100900460ff1615808015610ac35750600054600160ff909116105b80610add5750303b158015610add575060005460ff166001145b610b4f5760405162461bcd60e51b815260206004820152602e60248201527f496e697469616c697a61626c653a20636f6e747261637420697320616c72656160448201527f647920696e697469616c697a65640000000000000000000000000000000000006064820152608401610583565b6000805460ff191660011790558015610b8f57600080547fffffffffffffffffffffffffffffffffffffffffffffffffffffffffffff00ff166101001790555b610b976114dc565b610ba082611561565b8015610c0457600080547fffffffffffffffffffffffffffffffffffffffffffffffffffffffffffff00ff169055604051600181527f7f26b83ff96e1f2b6a682f133852f6798a09c465da95921460cefb3847402498906020015b60405180910390a15b5050565b610c466040518060400160405280601a81526020017f746f67676c65436f6e66696741637469766528737472696e6729000000000000815250610f9e565b600073ffffffffffffffffffffffffffffffffffffffff1660fb8383604051610c70929190611df8565b9081526040519081900360200190206002015473ffffffffffffffffffffffffffffffffffffffff1603610cd0576040517f80919d7b00000000000000000000000000000000000000000000000000000000815260040160405180910390fd5b60fb8282604051610ce2929190611df8565b9081526040519081900360200181205460ff16159060fb90610d079085908590611df8565b908152604051908190036020018120805492151560ff19909316929092179091557f468664a9fd55ec9cd045b61db100de66def2b77a44f261785dc8a0979c5fdb04908390839060fb90610d5e9084908490611df8565b90815260405190819003602001812054610bfb93929160ff90911690611e6e565b610d87610e2f565b6097805473ffffffffffffffffffffffffffffffffffffffff83167fffffffffffffffffffffffff00000000000000000000000000000000000000009091168117909155610dea60655473ffffffffffffffffffffffffffffffffffffffff1690565b73ffffffffffffffffffffffffffffffffffffffff167f38d16b8cac22d99fc7c124b9cd0de2d3fa1faef420bfe791d8c362d765e2270060405160405180910390a350565b60655473ffffffffffffffffffffffffffffffffffffffff1633146104215760405162461bcd60e51b815260206004820181905260248201527f4f776e61626c653a2063616c6c6572206973206e6f7420746865206f776e65726044820152606401610583565b73ffffffffffffffffffffffffffffffffffffffff8116610f1f5760405162461bcd60e51b815260206004820152602560248201527f696e76616c696420616365737320636f6e74726f6c206d616e6167657220616460448201527f64726573730000000000000000000000000000000000000000000000000000006064820152608401610583565b60c9805473ffffffffffffffffffffffffffffffffffffffff8381167fffffffffffffffffffffffff000000000000000000000000000000000000000083168117909355604080519190921680825260208201939093527f66fd58e82f7b31a2a5c30e0888f3093efe4e111b00cd2b0c31fe014601293aa09101610bfb565b60c9546040517f18c5e8ab00000000000000000000000000000000000000000000000000000000815260009173ffffffffffffffffffffffffffffffffffffffff16906318c5e8ab90610ff79033908690600401611e94565b602060405180830381865afa158015611014573d6000803e3d6000fd5b505050506040513d601f19601f820116820180604052508101906110389190611ec3565b905080610c04573330836040517f4a3fa29300000000000000000000000000000000000000000000000000000000815260040161058393929190611ee5565b61107f6115ef565b6033805460ff191690557f5db9ee0a495bf2e6ff9c91a7834c1ba4fdd244a5e8aa4e537bd38aeae4b073aa335b60405173ffffffffffffffffffffffffffffffffffffffff909116815260200160405180910390a1565b60335460ff16156104215760405162461bcd60e51b815260206004820152601060248201527f5061757361626c653a20706175736564000000000000000000000000000000006044820152606401610583565b6060828260405160200161113e929190611f27565b60405160208183030381529060405290505b92915050565b600060fb836080015160405161116c9190611f72565b9081526040805160209281900383018120606082018352805460ff1615158083526001820154948301949094526002015473ffffffffffffffffffffffffffffffffffffffff169181019190915291506111f2576040517fdea2a21200000000000000000000000000000000000000000000000000000000815260040160405180910390fd5b82514290611204906201518090611fbd565b101561123c576040517fc2a16f1400000000000000000000000000000000000000000000000000000000815260040160405180910390fd5b60a0830151600090815260fd602052604090205460ff161561128a576040517f0bebf69800000000000000000000000000000000000000000000000000000000815260040160405180910390fd5b806020015160fc8360405161129f9190611f72565b908152602001604051809103902054426112b99190611fd0565b10156112f1576040517f53f7a6ee00000000000000000000000000000000000000000000000000000000815260040160405180910390fd5b505050565b60fb826080015160405161130a9190611f72565b908152604051908190036020018120600201547f04a6fcd600000000000000000000000000000000000000000000000000000000825273ffffffffffffffffffffffffffffffffffffffff16906304a6fcd69061136b908590600401611fe3565b600060405180830381600087803b15801561138557600080fd5b505af1158015611399573d6000803e3d6000fd5b505050504260fc826040516113ae9190611f72565b9081526040805191829003602090810183209390935560a085018051600090815260fd909452908320805460ff1916600117905551917fad8b54d3eef2f73d25758a2a5b53a3b97e4b947ca025d60b44adacd7fec450a791a25050565b609780547fffffffffffffffffffffffff00000000000000000000000000000000000000001690556103d881611641565b6114446110d6565b6033805460ff191660011790557f62e78cea01bee320cd4e420270b5ea74000d11b0c9f74754ebdbfc544b05a2586110ac3390565b8051602091820120825192909101919091201490565b73ffffffffffffffffffffffffffffffffffffffff81166103d8576040517f8579befe00000000000000000000000000000000000000000000000000000000815260040160405180910390fd5b600054610100900460ff166115595760405162461bcd60e51b815260206004820152602b60248201527f496e697469616c697a61626c653a20636f6e7472616374206973206e6f74206960448201527f6e697469616c697a696e670000000000000000000000000000000000000000006064820152608401610583565b6104216116b8565b600054610100900460ff166115de5760405162461bcd60e51b815260206004820152602b60248201527f496e697469616c697a61626c653a20636f6e7472616374206973206e6f74206960448201527f6e697469616c697a696e670000000000000000000000000000000000000000006064820152608401610583565b6115e6611741565b6103d8816117c6565b60335460ff166104215760405162461bcd60e51b815260206004820152601460248201527f5061757361626c653a206e6f74207061757365640000000000000000000000006044820152606401610583565b6065805473ffffffffffffffffffffffffffffffffffffffff8381167fffffffffffffffffffffffff0000000000000000000000000000000000000000831681179093556040519116919082907f8be0079c531659141344cd1fd0a4f28419497f9722a3daafe3b4186f6b6457e090600090a35050565b600054610100900460ff166117355760405162461bcd60e51b815260206004820152602b60248201527f496e697469616c697a61626c653a20636f6e7472616374206973206e6f74206960448201527f6e697469616c697a696e670000000000000000000000000000000000000000006064820152608401610583565b6033805460ff19169055565b600054610100900460ff166117be5760405162461bcd60e51b815260206004820152602b60248201527f496e697469616c697a61626c653a20636f6e7472616374206973206e6f74206960448201527f6e697469616c697a696e670000000000000000000000000000000000000000006064820152608401610583565b610421611843565b600054610100900460ff166103cf5760405162461bcd60e51b815260206004820152602b60248201527f496e697469616c697a61626c653a20636f6e7472616374206973206e6f74206960448201527f6e697469616c697a696e670000000000000000000000000000000000000000006064820152608401610583565b600054610100900460ff166118c05760405162461bcd60e51b815260206004820152602b60248201527f496e697469616c697a61626c653a20636f6e7472616374206973206e6f74206960448201527f6e697469616c697a696e670000000000000000000000000000000000000000006064820152608401610583565b6104213361140b565b73ffffffffffffffffffffffffffffffffffffffff811681146103d857600080fd5b6000602082840312156118fd57600080fd5b8135611908816118c9565b9392505050565b7f4e487b7100000000000000000000000000000000000000000000000000000000600052604160045260246000fd5b604051610100810167ffffffffffffffff811182821017156119625761196261190f565b60405290565b604051601f8201601f1916810167ffffffffffffffff811182821017156119915761199161190f565b604052919050565b600067ffffffffffffffff8211156119b3576119b361190f565b50601f01601f191660200190565b60006119d46119cf84611999565b611968565b90508281528383830111156119e857600080fd5b828260208301376000602084830101529392505050565b600060208284031215611a1157600080fd5b813567ffffffffffffffff811115611a2857600080fd5b8201601f81018413611a3957600080fd5b611a48848235602084016119c1565b949350505050565b600082601f830112611a6157600080fd5b611908838335602085016119c1565b60008060408385031215611a8357600080fd5b823567ffffffffffffffff811115611a9a57600080fd5b611aa685828601611a50565b9250506020830135611ab7816118c9565b809150509250929050565b600060208284031215611ad457600080fd5b5035919050565b60008083601f840112611aed57600080fd5b50813567ffffffffffffffff811115611b0557600080fd5b602083019150836020828501011115611b1d57600080fd5b9250929050565b60008060008060608587031215611b3a57600080fd5b843567ffffffffffffffff811115611b5157600080fd5b611b5d87828801611adb565b9095509350506020850135611b71816118c9565b9396929550929360400135925050565b600060208284031215611b9357600080fd5b813567ffffffffffffffff811115611baa57600080fd5b611a4884828501611a50565b60008060208385031215611bc957600080fd5b823567ffffffffffffffff811115611be057600080fd5b611bec85828601611adb565b90969095509350505050565b60005b83811015611c13578181015183820152602001611bfb565b50506000910152565b60008151808452611c34816020860160208601611bf8565b601f01601f19169290920160200192915050565b604081526000611c5b6040830185611c1c565b905073ffffffffffffffffffffffffffffffffffffffff831660208301529392505050565b600082601f830112611c9157600080fd5b8151611c9f6119cf82611999565b818152846020838601011115611cb457600080fd5b611a48826020830160208701611bf8565b8051611cd0816118c9565b919050565b600060208284031215611ce757600080fd5b815167ffffffffffffffff80821115611cff57600080fd5b908301906101008286031215611d1457600080fd5b611d1c61193e565b82518152602083015182811115611d3257600080fd5b611d3e87828601611c80565b602083015250604083015182811115611d5657600080fd5b611d6287828601611c80565b604083015250606083015182811115611d7a57600080fd5b611d8687828601611c80565b606083015250608083015182811115611d9e57600080fd5b611daa87828601611c80565b60808301525060a083015160a0820152611dc660c08401611cc5565b60c082015260e083015182811115611ddd57600080fd5b611de987828601611c80565b60e08301525095945050505050565b8183823760009101908152919050565b818352818160208501375060006020828401015260006020601f19601f840116840101905092915050565b60a081526000611e4760a08301888a611e08565b60208301969096525060408101939093529015156060830152151560809091015292915050565b604081526000611e82604083018587611e08565b90508215156020830152949350505050565b73ffffffffffffffffffffffffffffffffffffffff83168152604060208201526000611a486040830184611c1c565b600060208284031215611ed557600080fd5b8151801515811461190857600080fd5b600073ffffffffffffffffffffffffffffffffffffffff808616835280851660208401525060606040830152611f1e6060830184611c1c565b95945050505050565b7fffffffffffffffffffffffffffffffffffffffff0000000000000000000000008360601b16815260008251611f64816014850160208701611bf8565b919091016014019392505050565b60008251611f84818460208701611bf8565b9190910192915050565b7f4e487b7100000000000000000000000000000000000000000000000000000000600052601160045260246000fd5b8082018082111561115057611150611f8e565b8181038181111561115057611150611f8e565b60208152815160208201526000602083015161010080604085015261200c610120850183611c1c565b91506040850151601f198086850301606087015261202a8483611c1c565b935060608701519150808685030160808701526120478483611c1c565b935060808701519150808685030160a08701526120648483611c1c565b935060a087015160c087015260c0870151915061209960e087018373ffffffffffffffffffffffffffffffffffffffff169052565b60e08701519150808685030183870152506120b48382611c1c565b969550505050505056fe7365745269736b506172616d65746572436f6e66696728737472696e672c616464726573732c75696e7432353629a2646970667358221220d4abdae517dc47682277dca88ac12e19342f8e3f9e6eaf2cec52f10c1ad4fabd64736f6c63430008190033",
  "devdoc": {
    "author": "Venus",
    "custom:security-contact": "https://github.com/VenusProtocol/governance-contracts#discussion",
    "events": {
      "Initialized(uint8)": {
        "details": "Triggered when the contract has been initialized or reinitialized."
      },
      "Paused(address)": {
        "details": "Emitted when the pause is triggered by `account`."
      },
      "Unpaused(address)": {
        "details": "Emitted when the pause is lifted by `account`."
      }
    },
    "kind": "dev",
    "methods": {
      "acceptOwnership()": {
        "details": "The new owner accepts the ownership transfer."
      },
      "constructor": {
        "custom:error": "Throws ZeroAddressNotAllowed if the risk oracle address is zero",
        "custom:oz-upgrades-unsafe-allow": "constructor",
        "details": "Sets the immutable risk oracle address and disables initializers"
      },
      "initialize(address)": {
        "params": {
          "accessControlManager_": "The address of the access control manager"
        }
      },
      "owner()": {
        "details": "Returns the address of the current owner."
      },
      "pause()": {
        "custom:access": "Controlled by AccessControlManager"
      },
      "paused()": {
        "details": "Returns true if the contract is paused, and false otherwise."
      },
      "pendingOwner()": {
        "details": "Returns the address of the pending owner."
      },
      "processUpdateById(uint256)": {
        "custom:error": "Throws ConfigNotActive if the config is not activeThrows UpdateIsExpired if the update is expiredThrows ConfigAlreadyProcessed if the update has already been processedThrows UpdateTooFrequent if the update is too frequent",
        "custom:event": "Emits RiskParameterUpdated with the update ID",
        "params": {
          "updateId": "The ID of the update to process"
        }
      },
      "processUpdateByParameterAndMarket(string,address)": {
        "custom:error": "Throws ConfigNotActive if the config is not activeThrows UpdateIsExpired if the update is expiredThrows ConfigAlreadyProcessed if the update has already been processedThrows UpdateTooFrequent if the update is too frequent",
        "custom:event": "Emits RiskParameterUpdated with the update ID",
        "params": {
          "market": "The market to process the update for",
          "updateType": "The type of update to process"
        }
      },
      "renounceOwnership()": {
        "details": "Disabling renounceOwnership function."
      },
      "setAccessControlManager(address)": {
        "custom:access": "Only Governance",
        "custom:event": "Emits NewAccessControlManager event",
        "details": "Admin function to set address of AccessControlManager",
        "params": {
          "accessControlManager_": "The new address of the AccessControlManager"
        }
      },
      "setRiskParameterConfig(string,address,uint256)": {
        "custom:access": "Controlled by AccessControlManager",
        "custom:error": "Throws UnsupportedUpdateType if the update type is an empty stringThrows InvalidDebounce if the debounce is 0Throws ZeroAddressNotAllowed if the risk steward address is zero",
        "custom:event": "Emits RiskParameterConfigSet with the update type, previous risk steward, new risk steward, previous debounce, new debounce, previous active status, and new active status",
        "params": {
          "debounce": "The debounce period for the update",
          "riskSteward": "The address for the risk steward contract responsible for processing the update",
          "updateType": "The type of update to configure"
        }
      },
      "toggleConfigActive(string)": {
        "custom:access": "Controlled by AccessControlManager",
        "custom:error": "Throws UnsupportedUpdateType if the update type is not supported",
        "custom:event": "Emits ToggleConfigActive with the update type and the new active status",
        "params": {
          "updateType": "The type of update to toggle on or off"
        }
      },
      "transferOwnership(address)": {
        "details": "Starts the ownership transfer of the contract to a new account. Replaces the pending transfer if there is one. Can only be called by the current owner."
      },
      "unpause()": {
        "custom:access": "Controlled by AccessControlManager"
      }
    },
    "stateVariables": {
      "__gap": {
        "details": "This empty reserved space is put in place to allow future versions to add new variables without shifting down storage in the inheritance chain. See https://docs.openzeppelin.com/contracts/4.x/upgradeable#storage_gaps"
      }
    },
    "title": "RiskStewardReceiver",
    "version": 1
  },
  "userdoc": {
    "errors": {
      "ConfigAlreadyProcessed()": [
        {
          "notice": "Thrown when an update has already been processed"
        }
      ],
      "ConfigNotActive()": [
        {
          "notice": "Thrown if a submitted update is not active and therefor cannot be processed"
        }
      ],
      "InvalidDebounce()": [
        {
          "notice": "Thrown when a debounce value of 0 is set"
        }
      ],
      "Unauthorized(address,address,string)": [
        {
          "notice": "Thrown when the action is prohibited by AccessControlManager"
        }
      ],
      "UnsupportedUpdateType()": [
        {
          "notice": "Thrown when an update type that is not supported is operated on"
        }
      ],
      "UpdateIsExpired()": [
        {
          "notice": "Thrown when an update was not applied within the required time frame"
        }
      ],
      "UpdateTooFrequent()": [
        {
          "notice": "Thrown when the debounce period hasn't passed for applying an update to a specific market / update type"
        }
      ],
      "ZeroAddressNotAllowed()": [
        {
          "notice": "Thrown if the supplied address is a zero address where it is not allowed"
        }
      ]
    },
    "events": {
      "NewAccessControlManager(address,address)": {
        "notice": "Emitted when access control manager contract address is changed"
      },
      "RiskParameterConfigSet(string,address,address,uint256,uint256,bool,bool)": {
        "notice": "Event emitted when a risk parameter config is set"
      },
      "RiskParameterUpdated(uint256)": {
        "notice": "Event emitted when an update is successfully processed"
      },
      "ToggleConfigActive(string,bool)": {
        "notice": "Event emitted when a risk parameter config is toggled on or off"
      }
    },
    "kind": "user",
    "methods": {
      "RISK_ORACLE()": {
        "notice": "Whitelisted oracle address to receive updates from"
      },
      "UPDATE_EXPIRATION_TIME()": {
        "notice": "Time before a submitted update is considered stale"
      },
      "accessControlManager()": {
        "notice": "Returns the address of the access control manager contract"
      },
      "initialize(address)": {
        "notice": "Initializes the contract as ownable, pausable, and access controlled"
      },
      "lastProcessedTime(bytes)": {
        "notice": "Mapping of market and update type to last update timestamp. Used for debouncing updates."
      },
      "pause()": {
        "notice": "Pauses processing of updates"
      },
      "processUpdateById(uint256)": {
        "notice": "Processes an update by its ID. Will validate that the update configuration is active, is not expired, unprocessed, and that the debounce period has passed. Validated updates will be processed by the associated risk steward contract which will perform update specific validations and apply validated updates."
      },
      "processUpdateByParameterAndMarket(string,address)": {
        "notice": "Processes the latest update for a given parameter and market. Will validate that the update configuration is active, is not expired, unprocessed, and that the debounce period has passed. Validated updates will be processed by the associated risk steward contract which will perform update specific validations and apply validated updates."
      },
      "processedUpdates(uint256)": {
        "notice": "Mapping of processed updates. Used to prevent re-execution"
      },
      "riskParameterConfigs(string)": {
        "notice": "Mapping of supported risk configurations and their validation parameters"
      },
      "setAccessControlManager(address)": {
        "notice": "Sets the address of AccessControlManager"
      },
      "setRiskParameterConfig(string,address,uint256)": {
        "notice": "Sets the risk parameter config for a given update type"
      },
      "toggleConfigActive(string)": {
        "notice": "Toggles the active status of a risk parameter config"
      },
      "unpause()": {
        "notice": "Unpauses processing of updates"
      }
    },
    "notice": "Contract that can read updates from the Chaos Labs Risk Oracle, validate them, and push them to the correct RiskSteward.",
    "version": 1
  },
  "storageLayout": {
    "storage": [
      {
        "astId": 3192,
        "contract": "contracts/RiskSteward/RiskStewardReceiver.sol:RiskStewardReceiver",
        "label": "_initialized",
        "offset": 0,
        "slot": "0",
        "type": "t_uint8"
      },
      {
        "astId": 3195,
        "contract": "contracts/RiskSteward/RiskStewardReceiver.sol:RiskStewardReceiver",
        "label": "_initializing",
        "offset": 1,
        "slot": "0",
        "type": "t_bool"
      },
      {
        "astId": 3862,
        "contract": "contracts/RiskSteward/RiskStewardReceiver.sol:RiskStewardReceiver",
        "label": "__gap",
        "offset": 0,
        "slot": "1",
        "type": "t_array(t_uint256)50_storage"
      },
      {
        "astId": 3376,
        "contract": "contracts/RiskSteward/RiskStewardReceiver.sol:RiskStewardReceiver",
        "label": "_paused",
        "offset": 0,
        "slot": "51",
        "type": "t_bool"
      },
      {
        "astId": 3481,
        "contract": "contracts/RiskSteward/RiskStewardReceiver.sol:RiskStewardReceiver",
        "label": "__gap",
        "offset": 0,
        "slot": "52",
        "type": "t_array(t_uint256)49_storage"
      },
      {
        "astId": 3064,
        "contract": "contracts/RiskSteward/RiskStewardReceiver.sol:RiskStewardReceiver",
        "label": "_owner",
        "offset": 0,
        "slot": "101",
        "type": "t_address"
      },
      {
        "astId": 3184,
        "contract": "contracts/RiskSteward/RiskStewardReceiver.sol:RiskStewardReceiver",
        "label": "__gap",
        "offset": 0,
        "slot": "102",
        "type": "t_array(t_uint256)49_storage"
      },
      {
        "astId": 2957,
        "contract": "contracts/RiskSteward/RiskStewardReceiver.sol:RiskStewardReceiver",
        "label": "_pendingOwner",
        "offset": 0,
        "slot": "151",
        "type": "t_address"
      },
      {
        "astId": 3051,
        "contract": "contracts/RiskSteward/RiskStewardReceiver.sol:RiskStewardReceiver",
        "label": "__gap",
        "offset": 0,
        "slot": "152",
        "type": "t_array(t_uint256)49_storage"
      },
      {
        "astId": 8569,
        "contract": "contracts/RiskSteward/RiskStewardReceiver.sol:RiskStewardReceiver",
        "label": "_accessControlManager",
        "offset": 0,
        "slot": "201",
        "type": "t_contract(IAccessControlManagerV8)8754"
      },
      {
        "astId": 8574,
        "contract": "contracts/RiskSteward/RiskStewardReceiver.sol:RiskStewardReceiver",
        "label": "__gap",
        "offset": 0,
        "slot": "202",
        "type": "t_array(t_uint256)49_storage"
      },
      {
        "astId": 10000,
        "contract": "contracts/RiskSteward/RiskStewardReceiver.sol:RiskStewardReceiver",
        "label": "riskParameterConfigs",
        "offset": 0,
        "slot": "251",
        "type": "t_mapping(t_string_memory_ptr,t_struct(RiskParamConfig)9334_storage)"
      },
      {
        "astId": 10009,
        "contract": "contracts/RiskSteward/RiskStewardReceiver.sol:RiskStewardReceiver",
        "label": "lastProcessedTime",
        "offset": 0,
        "slot": "252",
        "type": "t_mapping(t_bytes_memory_ptr,t_uint256)"
      },
      {
        "astId": 10014,
        "contract": "contracts/RiskSteward/RiskStewardReceiver.sol:RiskStewardReceiver",
        "label": "processedUpdates",
        "offset": 0,
        "slot": "253",
        "type": "t_mapping(t_uint256,t_bool)"
      },
      {
        "astId": 10023,
        "contract": "contracts/RiskSteward/RiskStewardReceiver.sol:RiskStewardReceiver",
        "label": "__gap",
        "offset": 0,
        "slot": "254",
        "type": "t_array(t_uint256)47_storage"
      }
    ],
    "types": {
      "t_address": {
        "encoding": "inplace",
        "label": "address",
        "numberOfBytes": "20"
      },
      "t_array(t_uint256)47_storage": {
        "base": "t_uint256",
        "encoding": "inplace",
        "label": "uint256[47]",
        "numberOfBytes": "1504"
      },
      "t_array(t_uint256)49_storage": {
        "base": "t_uint256",
        "encoding": "inplace",
        "label": "uint256[49]",
        "numberOfBytes": "1568"
      },
      "t_array(t_uint256)50_storage": {
        "base": "t_uint256",
        "encoding": "inplace",
        "label": "uint256[50]",
        "numberOfBytes": "1600"
      },
      "t_bool": {
        "encoding": "inplace",
        "label": "bool",
        "numberOfBytes": "1"
      },
      "t_bytes_memory_ptr": {
        "encoding": "bytes",
        "label": "bytes",
        "numberOfBytes": "32"
      },
      "t_contract(IAccessControlManagerV8)8754": {
        "encoding": "inplace",
        "label": "contract IAccessControlManagerV8",
        "numberOfBytes": "20"
      },
      "t_mapping(t_bytes_memory_ptr,t_uint256)": {
        "encoding": "mapping",
        "key": "t_bytes_memory_ptr",
        "label": "mapping(bytes => uint256)",
        "numberOfBytes": "32",
        "value": "t_uint256"
      },
      "t_mapping(t_string_memory_ptr,t_struct(RiskParamConfig)9334_storage)": {
        "encoding": "mapping",
        "key": "t_string_memory_ptr",
        "label": "mapping(string => struct RiskParamConfig)",
        "numberOfBytes": "32",
        "value": "t_struct(RiskParamConfig)9334_storage"
      },
      "t_mapping(t_uint256,t_bool)": {
        "encoding": "mapping",
        "key": "t_uint256",
        "label": "mapping(uint256 => bool)",
        "numberOfBytes": "32",
        "value": "t_bool"
      },
      "t_string_memory_ptr": {
        "encoding": "bytes",
        "label": "string",
        "numberOfBytes": "32"
      },
      "t_struct(RiskParamConfig)9334_storage": {
        "encoding": "inplace",
        "label": "struct RiskParamConfig",
        "members": [
          {
            "astId": 9329,
            "contract": "contracts/RiskSteward/RiskStewardReceiver.sol:RiskStewardReceiver",
            "label": "active",
            "offset": 0,
            "slot": "0",
            "type": "t_bool"
          },
          {
            "astId": 9331,
            "contract": "contracts/RiskSteward/RiskStewardReceiver.sol:RiskStewardReceiver",
            "label": "debounce",
            "offset": 0,
            "slot": "1",
            "type": "t_uint256"
          },
          {
            "astId": 9333,
            "contract": "contracts/RiskSteward/RiskStewardReceiver.sol:RiskStewardReceiver",
            "label": "riskSteward",
            "offset": 0,
            "slot": "2",
            "type": "t_address"
          }
        ],
        "numberOfBytes": "96"
      },
      "t_uint256": {
        "encoding": "inplace",
        "label": "uint256",
        "numberOfBytes": "32"
      },
      "t_uint8": {
        "encoding": "inplace",
        "label": "uint8",
        "numberOfBytes": "1"
      }
    }
  }
}