{
  "address": "0xd934a7c03D6fA022321565f2042EC37bD26Baf3c",
  "abi": [
    {
      "inputs": [
        {
          "internalType": "address",
          "name": "omnichainGovernanceExecutor_",
          "type": "address"
        }
      ],
      "stateMutability": "nonpayable",
      "type": "constructor"
    },
    {
      "inputs": [
        {
          "internalType": "address",
          "name": "sender",
          "type": "address"
        },
        {
          "internalType": "address",
          "name": "calledContract",
          "type": "address"
        },
        {
          "internalType": "string",
          "name": "methodSignature",
          "type": "string"
        }
      ],
      "name": "Unauthorized",
      "type": "error"
    },
    {
      "inputs": [],
      "name": "ZeroAddressNotAllowed",
      "type": "error"
    },
    {
      "anonymous": false,
      "inputs": [
        {
          "indexed": true,
          "internalType": "string",
          "name": "signature",
          "type": "string"
        },
        {
          "indexed": false,
          "internalType": "bool",
          "name": "active",
          "type": "bool"
        }
      ],
      "name": "FunctionRegistryChanged",
      "type": "event"
    },
    {
      "anonymous": false,
      "inputs": [
        {
          "indexed": false,
          "internalType": "uint8",
          "name": "version",
          "type": "uint8"
        }
      ],
      "name": "Initialized",
      "type": "event"
    },
    {
      "anonymous": false,
      "inputs": [
        {
          "indexed": false,
          "internalType": "address",
          "name": "oldAccessControlManager",
          "type": "address"
        },
        {
          "indexed": false,
          "internalType": "address",
          "name": "newAccessControlManager",
          "type": "address"
        }
      ],
      "name": "NewAccessControlManager",
      "type": "event"
    },
    {
      "anonymous": false,
      "inputs": [
        {
          "indexed": true,
          "internalType": "address",
          "name": "previousOwner",
          "type": "address"
        },
        {
          "indexed": true,
          "internalType": "address",
          "name": "newOwner",
          "type": "address"
        }
      ],
      "name": "OwnershipTransferStarted",
      "type": "event"
    },
    {
      "anonymous": false,
      "inputs": [
        {
          "indexed": true,
          "internalType": "address",
          "name": "previousOwner",
          "type": "address"
        },
        {
          "indexed": true,
          "internalType": "address",
          "name": "newOwner",
          "type": "address"
        }
      ],
      "name": "OwnershipTransferred",
      "type": "event"
    },
    {
      "stateMutability": "nonpayable",
      "type": "fallback"
    },
    {
      "inputs": [],
      "name": "OMNICHAIN_GOVERNANCE_EXECUTOR",
      "outputs": [
        {
          "internalType": "contract IOmnichainGovernanceExecutor",
          "name": "",
          "type": "address"
        }
      ],
      "stateMutability": "view",
      "type": "function"
    },
    {
      "inputs": [],
      "name": "acceptOwnership",
      "outputs": [],
      "stateMutability": "nonpayable",
      "type": "function"
    },
    {
      "inputs": [],
      "name": "accessControlManager",
      "outputs": [
        {
          "internalType": "contract IAccessControlManagerV8",
          "name": "",
          "type": "address"
        }
      ],
      "stateMutability": "view",
      "type": "function"
    },
    {
      "inputs": [
        {
          "internalType": "bytes4",
          "name": "",
          "type": "bytes4"
        }
      ],
      "name": "functionRegistry",
      "outputs": [
        {
          "internalType": "string",
          "name": "",
          "type": "string"
        }
      ],
      "stateMutability": "view",
      "type": "function"
    },
    {
      "inputs": [
        {
          "internalType": "address",
          "name": "accessControlManager_",
          "type": "address"
        }
      ],
      "name": "initialize",
      "outputs": [],
      "stateMutability": "nonpayable",
      "type": "function"
    },
    {
      "inputs": [],
      "name": "owner",
      "outputs": [
        {
          "internalType": "address",
          "name": "",
          "type": "address"
        }
      ],
      "stateMutability": "view",
      "type": "function"
    },
    {
      "inputs": [],
      "name": "pendingOwner",
      "outputs": [
        {
          "internalType": "address",
          "name": "",
          "type": "address"
        }
      ],
      "stateMutability": "view",
      "type": "function"
    },
    {
      "inputs": [],
      "name": "renounceOwnership",
      "outputs": [],
      "stateMutability": "nonpayable",
      "type": "function"
    },
    {
      "inputs": [
        {
          "internalType": "address",
          "name": "accessControlManager_",
          "type": "address"
        }
      ],
      "name": "setAccessControlManager",
      "outputs": [],
      "stateMutability": "nonpayable",
      "type": "function"
    },
    {
      "inputs": [
        {
          "internalType": "uint16",
          "name": "srcChainId_",
          "type": "uint16"
        },
        {
          "internalType": "bytes",
          "name": "srcAddress_",
          "type": "bytes"
        }
      ],
      "name": "setTrustedRemoteAddress",
      "outputs": [],
      "stateMutability": "nonpayable",
      "type": "function"
    },
    {
      "inputs": [
        {
          "internalType": "address",
          "name": "newOwner_",
          "type": "address"
        }
      ],
      "name": "transferBridgeOwnership",
      "outputs": [],
      "stateMutability": "nonpayable",
      "type": "function"
    },
    {
      "inputs": [
        {
          "internalType": "address",
          "name": "newOwner",
          "type": "address"
        }
      ],
      "name": "transferOwnership",
      "outputs": [],
      "stateMutability": "nonpayable",
      "type": "function"
    },
    {
      "inputs": [
        {
          "internalType": "string[]",
          "name": "signatures_",
          "type": "string[]"
        },
        {
          "internalType": "bool[]",
          "name": "active_",
          "type": "bool[]"
        }
      ],
      "name": "upsertSignature",
      "outputs": [],
      "stateMutability": "nonpayable",
      "type": "function"
    }
  ],
  "transactionHash": "0x1521e1a79f6018a140b080ae70cf3f362ddfdae267eb87585a88213d20497970",
  "args": [
    "0xc80E4112940efF40c8626bAc0D8E79cB7dAbe289"
  ],
  "numDeployments": 1,
  "solcInputHash": "0fe2e57d7b731fab98e94353ed44ddd5",
  "bytecode": "0x60a060405234801561001057600080fd5b50604051611c6d380380611c6d83398101604081905261002f91610161565b6001600160a01b03811661008a5760405162461bcd60e51b815260206004820152601860248201527f41646472657373206d757374206e6f74206265207a65726f000000000000000060448201526064015b60405180910390fd5b6001600160a01b03811660805261009f6100a5565b50610191565b600054610100900460ff161561010d5760405162461bcd60e51b815260206004820152602760248201527f496e697469616c697a61626c653a20636f6e747261637420697320696e697469604482015266616c697a696e6760c81b6064820152608401610081565b60005460ff908116101561015f576000805460ff191660ff9081179091556040519081527f7f26b83ff96e1f2b6a682f133852f6798a09c465da95921460cefb38474024989060200160405180910390a15b565b60006020828403121561017357600080fd5b81516001600160a01b038116811461018a57600080fd5b9392505050565b608051611aac6101c16000396000818161020701528181610357015281816106aa0152610c640152611aac6000f3fe608060405234801561001057600080fd5b50600436106100df5760003560e01c806379ba50971161008c578063b4a0bdf311610066578063b4a0bdf3146103d7578063c4d66de8146103f5578063e30c397814610408578063f2fde38b14610426576100df565b806379ba50971461039e5780638da5cb5b146103a6578063a6c3d165146103c4576100df565b80634bb7453e116100bd5780634bb7453e1461033f5780635f21f75e14610352578063715018a614610301576100df565b80630e32cb86146102ee578063180d295c146103035780633f90b5401461032c575b600080357fffffffff0000000000000000000000000000000000000000000000000000000016815260c9602052604081208054369160609184919061012390611429565b80601f016020809104026020016040519081016040528092919081815260200182805461014f90611429565b801561019c5780601f106101715761010080835404028352916020019161019c565b820191906000526020600020905b81548152906001019060200180831161017f57829003601f168201915b5050505050905080516000036101f95760405162461bcd60e51b815260206004820152601260248201527f46756e6374696f6e206e6f7420666f756e64000000000000000000000000000060448201526064015b60405180910390fd5b61020281610439565b6000807f000000000000000000000000000000000000000000000000000000000000000073ffffffffffffffffffffffffffffffffffffffff16868660405161024c92919061147c565b6000604051808303816000865af19150503d8060008114610289576040519150601f19603f3d011682016040523d82523d6000602084013e61028e565b606091505b5091509150816102e05760405162461bcd60e51b815260206004820152600b60248201527f63616c6c206661696c656400000000000000000000000000000000000000000060448201526064016101f0565b805195506020019350505050f35b6103016102fc36600461148c565b610516565b005b6103166103113660046114c9565b61052a565b604051610323919061156f565b60405180910390f35b61030161033a36600461148c565b6105c4565b61030161034d3660046115ce565b610709565b6103797f000000000000000000000000000000000000000000000000000000000000000081565b60405173ffffffffffffffffffffffffffffffffffffffff9091168152602001610323565b610301610a90565b60335473ffffffffffffffffffffffffffffffffffffffff16610379565b6103016103d236600461163a565b610b28565b60975473ffffffffffffffffffffffffffffffffffffffff16610379565b61030161040336600461148c565b610cd4565b60655473ffffffffffffffffffffffffffffffffffffffff16610379565b61030161043436600461148c565b610eb1565b6097546040517f18c5e8ab00000000000000000000000000000000000000000000000000000000815260009173ffffffffffffffffffffffffffffffffffffffff16906318c5e8ab9061049290339086906004016116c6565b602060405180830381865afa1580156104af573d6000803e3d6000fd5b505050506040513d601f19601f820116820180604052508101906104d3919061170b565b905080610512573330836040517f4a3fa2930000000000000000000000000000000000000000000000000000000081526004016101f093929190611728565b5050565b61051e610f61565b61052781610fc8565b50565b60c9602052600090815260409020805461054390611429565b80601f016020809104026020016040519081016040528092919081815260200182805461056f90611429565b80156105bc5780601f10610591576101008083540402835291602001916105bc565b820191906000526020600020905b81548152906001019060200180831161059f57829003601f168201915b505050505081565b6106026040518060400160405280602081526020017f7472616e736665724272696467654f776e657273686970286164647265737329815250610439565b73ffffffffffffffffffffffffffffffffffffffff81166106655760405162461bcd60e51b815260206004820152601860248201527f41646472657373206d757374206e6f74206265207a65726f000000000000000060448201526064016101f0565b6040517ff2fde38b00000000000000000000000000000000000000000000000000000000815273ffffffffffffffffffffffffffffffffffffffff82811660048301527f0000000000000000000000000000000000000000000000000000000000000000169063f2fde38b90602401600060405180830381600087803b1580156106ee57600080fd5b505af1158015610702573d6000803e3d6000fd5b5050505050565b610711610f61565b828181146107875760405162461bcd60e51b815260206004820152602660248201527f496e70757420617272617973206d7573742068617665207468652073616d652060448201527f6c656e677468000000000000000000000000000000000000000000000000000060648201526084016101f0565b60005b81811015610a865760008686838181106107a6576107a661176a565b90506020028101906107b89190611799565b6040516107c692919061147c565b60408051918290039091207fffffffff000000000000000000000000000000000000000000000000000000008116600090815260c960205291822080549193509061081090611429565b80601f016020809104026020016040519081016040528092919081815260200182805461083c90611429565b80156108895780601f1061085e57610100808354040283529160200191610889565b820191906000526020600020905b81548152906001019060200180831161086c57829003601f168201915b505050505090508585848181106108a2576108a261176a565b90506020020160208101906108b791906117fe565b80156108c257508051155b1561099b578787848181106108d9576108d961176a565b90506020028101906108eb9190611799565b7fffffffff000000000000000000000000000000000000000000000000000000008416600090815260c96020526040902091610928919083611897565b5087878481811061093b5761093b61176a565b905060200281019061094d9190611799565b60405161095b92919061147c565b60405190819003812060018252907f9d424e54f4d851aabd288f6cc4946e5726d6b5c0e66ea4ef159a3c40bcc470fa9060200160405180910390a2610a7c565b8585848181106109ad576109ad61176a565b90506020020160208101906109c291906117fe565b1580156109cf5750805115155b15610a7c577fffffffff000000000000000000000000000000000000000000000000000000008216600090815260c960205260408120610a0e916113db565b878784818110610a2057610a2061176a565b9050602002810190610a329190611799565b604051610a4092919061147c565b60405190819003812060008252907f9d424e54f4d851aabd288f6cc4946e5726d6b5c0e66ea4ef159a3c40bcc470fa9060200160405180910390a25b505060010161078a565b505050505050565b565b606554339073ffffffffffffffffffffffffffffffffffffffff168114610b1f5760405162461bcd60e51b815260206004820152602960248201527f4f776e61626c6532537465703a2063616c6c6572206973206e6f74207468652060448201527f6e6577206f776e6572000000000000000000000000000000000000000000000060648201526084016101f0565b610527816110d0565b610b49604051806060016040528060258152602001611a5260259139610439565b8261ffff16600003610b9d5760405162461bcd60e51b815260206004820152601860248201527f436861696e4964206d757374206e6f74206265207a65726f000000000000000060448201526064016101f0565b610bb2610baa82846119b1565b60601c611101565b60148114610c275760405162461bcd60e51b8152602060048201526024808201527f536f757263652061646472657373206d7573742062652032302062797465732060448201527f6c6f6e670000000000000000000000000000000000000000000000000000000060648201526084016101f0565b6040517fa6c3d16500000000000000000000000000000000000000000000000000000000815273ffffffffffffffffffffffffffffffffffffffff7f0000000000000000000000000000000000000000000000000000000000000000169063a6c3d16590610c9d908690869086906004016119f9565b600060405180830381600087803b158015610cb757600080fd5b505af1158015610ccb573d6000803e3d6000fd5b50505050505050565b600054610100900460ff1615808015610cf45750600054600160ff909116105b80610d0e5750303b158015610d0e575060005460ff166001145b610d805760405162461bcd60e51b815260206004820152602e60248201527f496e697469616c697a61626c653a20636f6e747261637420697320616c72656160448201527f647920696e697469616c697a656400000000000000000000000000000000000060648201526084016101f0565b600080547fffffffffffffffffffffffffffffffffffffffffffffffffffffffffffffff001660011790558015610dde57600080547fffffffffffffffffffffffffffffffffffffffffffffffffffffffffffff00ff166101001790555b73ffffffffffffffffffffffffffffffffffffffff8216610e415760405162461bcd60e51b815260206004820152601860248201527f41646472657373206d757374206e6f74206265207a65726f000000000000000060448201526064016101f0565b610e4a8261114e565b801561051257600080547fffffffffffffffffffffffffffffffffffffffffffffffffffffffffffff00ff169055604051600181527f7f26b83ff96e1f2b6a682f133852f6798a09c465da95921460cefb3847402498906020015b60405180910390a15050565b610eb9610f61565b6065805473ffffffffffffffffffffffffffffffffffffffff83167fffffffffffffffffffffffff00000000000000000000000000000000000000009091168117909155610f1c60335473ffffffffffffffffffffffffffffffffffffffff1690565b73ffffffffffffffffffffffffffffffffffffffff167f38d16b8cac22d99fc7c124b9cd0de2d3fa1faef420bfe791d8c362d765e2270060405160405180910390a350565b60335473ffffffffffffffffffffffffffffffffffffffff163314610a8e5760405162461bcd60e51b815260206004820181905260248201527f4f776e61626c653a2063616c6c6572206973206e6f7420746865206f776e657260448201526064016101f0565b73ffffffffffffffffffffffffffffffffffffffff81166110515760405162461bcd60e51b815260206004820152602560248201527f696e76616c696420616365737320636f6e74726f6c206d616e6167657220616460448201527f647265737300000000000000000000000000000000000000000000000000000060648201526084016101f0565b6097805473ffffffffffffffffffffffffffffffffffffffff8381167fffffffffffffffffffffffff000000000000000000000000000000000000000083168117909355604080519190921680825260208201939093527f66fd58e82f7b31a2a5c30e0888f3093efe4e111b00cd2b0c31fe014601293aa09101610ea5565b606580547fffffffffffffffffffffffff0000000000000000000000000000000000000000169055610527816111dc565b73ffffffffffffffffffffffffffffffffffffffff8116610527576040517f8579befe00000000000000000000000000000000000000000000000000000000815260040160405180910390fd5b600054610100900460ff166111cb5760405162461bcd60e51b815260206004820152602b60248201527f496e697469616c697a61626c653a20636f6e7472616374206973206e6f74206960448201527f6e697469616c697a696e6700000000000000000000000000000000000000000060648201526084016101f0565b6111d3611253565b610527816112d8565b6033805473ffffffffffffffffffffffffffffffffffffffff8381167fffffffffffffffffffffffff0000000000000000000000000000000000000000831681179093556040519116919082907f8be0079c531659141344cd1fd0a4f28419497f9722a3daafe3b4186f6b6457e090600090a35050565b600054610100900460ff166112d05760405162461bcd60e51b815260206004820152602b60248201527f496e697469616c697a61626c653a20636f6e7472616374206973206e6f74206960448201527f6e697469616c697a696e6700000000000000000000000000000000000000000060648201526084016101f0565b610a8e611355565b600054610100900460ff1661051e5760405162461bcd60e51b815260206004820152602b60248201527f496e697469616c697a61626c653a20636f6e7472616374206973206e6f74206960448201527f6e697469616c697a696e6700000000000000000000000000000000000000000060648201526084016101f0565b600054610100900460ff166113d25760405162461bcd60e51b815260206004820152602b60248201527f496e697469616c697a61626c653a20636f6e7472616374206973206e6f74206960448201527f6e697469616c697a696e6700000000000000000000000000000000000000000060648201526084016101f0565b610a8e336110d0565b5080546113e790611429565b6000825580601f106113f7575050565b601f01602090049060005260206000209081019061052791905b808211156114255760008155600101611411565b5090565b600181811c9082168061143d57607f821691505b602082108103611476577f4e487b7100000000000000000000000000000000000000000000000000000000600052602260045260246000fd5b50919050565b8183823760009101908152919050565b60006020828403121561149e57600080fd5b813573ffffffffffffffffffffffffffffffffffffffff811681146114c257600080fd5b9392505050565b6000602082840312156114db57600080fd5b81357fffffffff00000000000000000000000000000000000000000000000000000000811681146114c257600080fd5b6000815180845260005b8181101561153157602081850181015186830182015201611515565b5060006020828601015260207fffffffffffffffffffffffffffffffffffffffffffffffffffffffffffffffe0601f83011685010191505092915050565b6020815260006114c2602083018461150b565b60008083601f84011261159457600080fd5b50813567ffffffffffffffff8111156115ac57600080fd5b6020830191508360208260051b85010111156115c757600080fd5b9250929050565b600080600080604085870312156115e457600080fd5b843567ffffffffffffffff808211156115fc57600080fd5b61160888838901611582565b9096509450602087013591508082111561162157600080fd5b5061162e87828801611582565b95989497509550505050565b60008060006040848603121561164f57600080fd5b833561ffff8116811461166157600080fd5b9250602084013567ffffffffffffffff8082111561167e57600080fd5b818601915086601f83011261169257600080fd5b8135818111156116a157600080fd5b8760208285010111156116b357600080fd5b6020830194508093505050509250925092565b73ffffffffffffffffffffffffffffffffffffffff831681526040602082015260006116f5604083018461150b565b949350505050565b801515811461052757600080fd5b60006020828403121561171d57600080fd5b81516114c2816116fd565b600073ffffffffffffffffffffffffffffffffffffffff808616835280851660208401525060606040830152611761606083018461150b565b95945050505050565b7f4e487b7100000000000000000000000000000000000000000000000000000000600052603260045260246000fd5b60008083357fffffffffffffffffffffffffffffffffffffffffffffffffffffffffffffffe18436030181126117ce57600080fd5b83018035915067ffffffffffffffff8211156117e957600080fd5b6020019150368190038213156115c757600080fd5b60006020828403121561181057600080fd5b81356114c2816116fd565b7f4e487b7100000000000000000000000000000000000000000000000000000000600052604160045260246000fd5b601f821115611892576000816000526020600020601f850160051c810160208610156118735750805b601f850160051c820191505b81811015610a865782815560010161187f565b505050565b67ffffffffffffffff8311156118af576118af61181b565b6118c3836118bd8354611429565b8361184a565b6000601f84116001811461191557600085156118df5750838201355b7fffffffffffffffffffffffffffffffffffffffffffffffffffffffffffffffff600387901b1c1916600186901b178355610702565b6000838152602090207fffffffffffffffffffffffffffffffffffffffffffffffffffffffffffffffe0861690835b828110156119645786850135825560209485019460019092019101611944565b508682101561199f577fffffffffffffffffffffffffffffffffffffffffffffffffffffffffffffffff60f88860031b161c19848701351681555b505060018560011b0183555050505050565b7fffffffffffffffffffffffffffffffffffffffff00000000000000000000000081358181169160148510156119f15780818660140360031b1b83161692505b505092915050565b61ffff8416815260406020820152816040820152818360608301376000818301606090810191909152601f9092017fffffffffffffffffffffffffffffffffffffffffffffffffffffffffffffffe01601019291505056fe7365745472757374656452656d6f7465416464726573732875696e7431362c627974657329a2646970667358221220f18c05c7a1cc2ae688a65f755300a96ac7320b73e464ed2dcd0d6f13765fdceb64736f6c63430008190033",
  "devdoc": {
    "author": "Venus",
    "custom:security-contact": "https://github.com/VenusProtocol/governance-contracts#discussion",
    "events": {
      "Initialized(uint8)": {
        "details": "Triggered when the contract has been initialized or reinitialized."
      }
    },
    "kind": "dev",
    "methods": {
      "acceptOwnership()": {
        "details": "The new owner accepts the ownership transfer."
      },
      "constructor": {
        "custom:oz-upgrades-unsafe-allow": "constructor"
      },
      "initialize(address)": {
        "params": {
          "accessControlManager_": "Address of access control manager"
        }
      },
      "owner()": {
        "details": "Returns the address of the current owner."
      },
      "pendingOwner()": {
        "details": "Returns the address of the pending owner."
      },
      "setAccessControlManager(address)": {
        "custom:access": "Only Governance",
        "custom:event": "Emits NewAccessControlManager event",
        "details": "Admin function to set address of AccessControlManager",
        "params": {
          "accessControlManager_": "The new address of the AccessControlManager"
        }
      },
      "setTrustedRemoteAddress(uint16,bytes)": {
        "custom:access": "Controlled by AccessControlManager",
        "custom:event": "Emits SetTrustedRemoteAddress with source chain Id and source address",
        "params": {
          "srcAddress_": "The address of the contract on the source chain",
          "srcChainId_": "The LayerZero id of a source chain"
        }
      },
      "transferBridgeOwnership(address)": {
        "custom:access": "Controlled by AccessControlManager",
        "params": {
          "newOwner_": "New owner of the governanceExecutor"
        }
      },
      "transferOwnership(address)": {
        "details": "Starts the ownership transfer of the contract to a new account. Replaces the pending transfer if there is one. Can only be called by the current owner."
      },
      "upsertSignature(string[],bool[])": {
        "custom:access": "Only owner",
        "params": {
          "active_": "bool value, should be true to add function",
          "signatures_": "Function signature to be added or removed"
        }
      }
    },
    "stateVariables": {
      "OMNICHAIN_GOVERNANCE_EXECUTOR": {
        "custom:oz-upgrades-unsafe-allow": "state-variable-immutable"
      }
    },
    "title": "OmnichainExecutorOwner",
    "version": 1
  },
  "userdoc": {
    "errors": {
      "Unauthorized(address,address,string)": [
        {
          "notice": "Thrown when the action is prohibited by AccessControlManager"
        }
      ],
      "ZeroAddressNotAllowed()": [
        {
          "notice": "Thrown if the supplied address is a zero address where it is not allowed"
        }
      ]
    },
    "events": {
      "FunctionRegistryChanged(string,bool)": {
        "notice": "Event emitted when function registry updated"
      },
      "NewAccessControlManager(address,address)": {
        "notice": "Emitted when access control manager contract address is changed"
      }
    },
    "kind": "user",
    "methods": {
      "accessControlManager()": {
        "notice": "Returns the address of the access control manager contract"
      },
      "functionRegistry(bytes4)": {
        "notice": "Stores function signature corresponding to their 4 bytes hash value"
      },
      "initialize(address)": {
        "notice": "Initialize the contract"
      },
      "renounceOwnership()": {
        "notice": "Empty implementation of renounce ownership to avoid any mishappening"
      },
      "setAccessControlManager(address)": {
        "notice": "Sets the address of AccessControlManager"
      },
      "setTrustedRemoteAddress(uint16,bytes)": {
        "notice": "Sets the source message sender address"
      },
      "transferBridgeOwnership(address)": {
        "notice": "This function transfer the ownership of the executor from this contract to new owner"
      },
      "upsertSignature(string[],bool[])": {
        "notice": "A registry of functions that are allowed to be executed from proposals"
      }
    },
    "notice": "OmnichainProposalSender contract acts as a governance and access control mechanism, allowing owner to upsert signature of OmnichainGovernanceExecutor contract, also contains function to transfer the ownership of contract as well.",
    "version": 1
  },
  "storageLayout": {
    "storage": [
      {
        "astId": 3190,
        "contract": "contracts/Cross-chain/OmnichainExecutorOwner.sol:OmnichainExecutorOwner",
        "label": "_initialized",
        "offset": 0,
        "slot": "0",
        "type": "t_uint8"
      },
      {
        "astId": 3193,
        "contract": "contracts/Cross-chain/OmnichainExecutorOwner.sol:OmnichainExecutorOwner",
        "label": "_initializing",
        "offset": 1,
        "slot": "0",
        "type": "t_bool"
      },
      {
        "astId": 3677,
        "contract": "contracts/Cross-chain/OmnichainExecutorOwner.sol:OmnichainExecutorOwner",
        "label": "__gap",
        "offset": 0,
        "slot": "1",
        "type": "t_array(t_uint256)50_storage"
      },
      {
        "astId": 3062,
        "contract": "contracts/Cross-chain/OmnichainExecutorOwner.sol:OmnichainExecutorOwner",
        "label": "_owner",
        "offset": 0,
        "slot": "51",
        "type": "t_address"
      },
      {
        "astId": 3182,
        "contract": "contracts/Cross-chain/OmnichainExecutorOwner.sol:OmnichainExecutorOwner",
        "label": "__gap",
        "offset": 0,
        "slot": "52",
        "type": "t_array(t_uint256)49_storage"
      },
      {
        "astId": 2971,
        "contract": "contracts/Cross-chain/OmnichainExecutorOwner.sol:OmnichainExecutorOwner",
        "label": "_pendingOwner",
        "offset": 0,
        "slot": "101",
        "type": "t_address"
      },
      {
        "astId": 3050,
        "contract": "contracts/Cross-chain/OmnichainExecutorOwner.sol:OmnichainExecutorOwner",
        "label": "__gap",
        "offset": 0,
        "slot": "102",
        "type": "t_array(t_uint256)49_storage"
      },
      {
        "astId": 8204,
        "contract": "contracts/Cross-chain/OmnichainExecutorOwner.sol:OmnichainExecutorOwner",
        "label": "_accessControlManager",
        "offset": 0,
        "slot": "151",
        "type": "t_contract(IAccessControlManagerV8)8389"
      },
      {
        "astId": 8209,
        "contract": "contracts/Cross-chain/OmnichainExecutorOwner.sol:OmnichainExecutorOwner",
        "label": "__gap",
        "offset": 0,
        "slot": "152",
        "type": "t_array(t_uint256)49_storage"
      },
      {
        "astId": 5887,
        "contract": "contracts/Cross-chain/OmnichainExecutorOwner.sol:OmnichainExecutorOwner",
        "label": "functionRegistry",
        "offset": 0,
        "slot": "201",
        "type": "t_mapping(t_bytes4,t_string_storage)"
      }
    ],
    "types": {
      "t_address": {
        "encoding": "inplace",
        "label": "address",
        "numberOfBytes": "20"
      },
      "t_array(t_uint256)49_storage": {
        "base": "t_uint256",
        "encoding": "inplace",
        "label": "uint256[49]",
        "numberOfBytes": "1568"
      },
      "t_array(t_uint256)50_storage": {
        "base": "t_uint256",
        "encoding": "inplace",
        "label": "uint256[50]",
        "numberOfBytes": "1600"
      },
      "t_bool": {
        "encoding": "inplace",
        "label": "bool",
        "numberOfBytes": "1"
      },
      "t_bytes4": {
        "encoding": "inplace",
        "label": "bytes4",
        "numberOfBytes": "4"
      },
      "t_contract(IAccessControlManagerV8)8389": {
        "encoding": "inplace",
        "label": "contract IAccessControlManagerV8",
        "numberOfBytes": "20"
      },
      "t_mapping(t_bytes4,t_string_storage)": {
        "encoding": "mapping",
        "key": "t_bytes4",
        "label": "mapping(bytes4 => string)",
        "numberOfBytes": "32",
        "value": "t_string_storage"
      },
      "t_string_storage": {
        "encoding": "bytes",
        "label": "string",
        "numberOfBytes": "32"
      },
      "t_uint256": {
        "encoding": "inplace",
        "label": "uint256",
        "numberOfBytes": "32"
      },
      "t_uint8": {
        "encoding": "inplace",
        "label": "uint8",
        "numberOfBytes": "1"
      }
    }
  }
}